{
  "contractName": "DoctorContract",
  "abi": [
    {
      "inputs": [
        {
          "internalType": "string",
          "name": "",
          "type": "string"
        }
      ],
      "name": "doctors",
      "outputs": [
        {
          "internalType": "string",
          "name": "doctorName",
          "type": "string"
        },
        {
          "internalType": "string",
          "name": "doctorLicense",
          "type": "string"
        },
        {
          "internalType": "string",
          "name": "doctorSpecialty",
          "type": "string"
        }
      ],
      "stateMutability": "view",
      "type": "function"
    },
    {
      "inputs": [
        {
          "internalType": "string",
          "name": "_doctorNid",
          "type": "string"
        },
        {
          "internalType": "string",
          "name": "_doctorName",
          "type": "string"
        },
        {
          "internalType": "string",
          "name": "_doctorLicense",
          "type": "string"
        },
        {
          "internalType": "string",
          "name": "_doctorSpecialty",
          "type": "string"
        }
      ],
      "name": "registerDoctor",
      "outputs": [],
      "stateMutability": "nonpayable",
      "type": "function"
    },
    {
      "inputs": [
        {
          "internalType": "string",
          "name": "_doctorNid",
          "type": "string"
        }
      ],
      "name": "getDoctor",
      "outputs": [
        {
          "components": [
            {
              "internalType": "string",
              "name": "doctorName",
              "type": "string"
            },
            {
              "internalType": "string",
              "name": "doctorLicense",
              "type": "string"
            },
            {
              "internalType": "string",
              "name": "doctorSpecialty",
              "type": "string"
            }
          ],
          "internalType": "struct DoctorContract.Doctor",
          "name": "",
          "type": "tuple"
        }
      ],
      "stateMutability": "view",
      "type": "function"
    }
  ],
  "bytecode": "0x608060405234801561001057600080fd5b506108ad806100206000396000f3fe608060405234801561001057600080fd5b50600436106100415760003560e01c806305c35ce51461004657806333a8587f146100715780636049909214610086575b600080fd5b610059610054366004610627565b6100a6565b60405161006893929190610752565b60405180910390f35b61008461007f366004610662565b61026b565b005b610099610094366004610627565b6102fe565b6040516100689190610795565b80516020818301810180516000825292820191909301209152805481906100cc90610826565b80601f01602080910402602001604051908101604052809291908181526020018280546100f890610826565b80156101455780601f1061011a57610100808354040283529160200191610145565b820191906000526020600020905b81548152906001019060200180831161012857829003601f168201915b50505050509080600101805461015a90610826565b80601f016020809104026020016040519081016040528092919081815260200182805461018690610826565b80156101d35780601f106101a8576101008083540402835291602001916101d3565b820191906000526020600020905b8154815290600101906020018083116101b657829003601f168201915b5050505050908060020180546101e890610826565b80601f016020809104026020016040519081016040528092919081815260200182805461021490610826565b80156102615780601f1061023657610100808354040283529160200191610261565b820191906000526020600020905b81548152906001019060200180831161024457829003601f168201915b5050505050905083565b6040518060600160405280848152602001838152602001828152506000856040516102969190610736565b908152602001604051809103902060008201518160000190805190602001906102c09291906104ec565b5060208281015180516102d992600185019201906104ec565b50604082015180516102f59160028401916020909101906104ec565b50505050505050565b610306610570565b6000826040516103169190610736565b908152602001604051809103902060405180606001604052908160008201805461033f90610826565b80601f016020809104026020016040519081016040528092919081815260200182805461036b90610826565b80156103b85780601f1061038d576101008083540402835291602001916103b8565b820191906000526020600020905b81548152906001019060200180831161039b57829003601f168201915b505050505081526020016001820180546103d190610826565b80601f01602080910402602001604051908101604052809291908181526020018280546103fd90610826565b801561044a5780601f1061041f5761010080835404028352916020019161044a565b820191906000526020600020905b81548152906001019060200180831161042d57829003601f168201915b5050505050815260200160028201805461046390610826565b80601f016020809104026020016040519081016040528092919081815260200182805461048f90610826565b80156104dc5780601f106104b1576101008083540402835291602001916104dc565b820191906000526020600020905b8154815290600101906020018083116104bf57829003601f168201915b5050505050815250509050919050565b8280546104f890610826565b90600052602060002090601f01602090048101928261051a5760008555610560565b82601f1061053357805160ff1916838001178555610560565b82800160010185558215610560579182015b82811115610560578251825591602001919060010190610545565b5061056c929150610591565b5090565b60405180606001604052806060815260200160608152602001606081525090565b5b8082111561056c5760008155600101610592565b600082601f8301126105b6578081fd5b813567ffffffffffffffff808211156105d1576105d1610861565b604051601f8301601f1916810160200182811182821017156105f5576105f5610861565b60405282815284830160200186101561060c578384fd5b82602086016020830137918201602001929092529392505050565b600060208284031215610638578081fd5b813567ffffffffffffffff81111561064e578182fd5b61065a848285016105a6565b949350505050565b60008060008060808587031215610677578283fd5b843567ffffffffffffffff8082111561068e578485fd5b61069a888389016105a6565b955060208701359150808211156106af578485fd5b6106bb888389016105a6565b945060408701359150808211156106d0578384fd5b6106dc888389016105a6565b935060608701359150808211156106f1578283fd5b506106fe878288016105a6565b91505092959194509250565b600081518084526107228160208601602086016107f6565b601f01601f19169290920160200192915050565b600082516107488184602087016107f6565b9190910192915050565b600060608252610765606083018661070a565b8281036020840152610777818661070a565b9050828103604084015261078b818561070a565b9695505050505050565b6000602082528251606060208401526107b1608084018261070a565b90506020840151601f19808584030160408601526107cf838361070a565b92506040860151915080858403016060860152506107ed828261070a565b95945050505050565b60005b838110156108115781810151838201526020016107f9565b83811115610820576000848401525b50505050565b60028104600182168061083a57607f821691505b6020821081141561085b57634e487b7160e01b600052602260045260246000fd5b50919050565b634e487b7160e01b600052604160045260246000fdfea2646970667358221220c1c3e5df02f9698467a0678a0cd7411e6148ff0794fabdc05ff4a1095533d46064736f6c63430008000033",
  "immutableReferences": {},
  "source": "// SPDX-License-Identifier: MIT\r\npragma solidity ^0.8.0;\r\n\r\ncontract DoctorContract {\r\n    struct Doctor {\r\n        string doctorName;\r\n        string doctorLicense;\r\n        string doctorSpecialty;\r\n    }\r\n\r\n    mapping(string => Doctor) public doctors;\r\n\r\n    function registerDoctor(\r\n        string memory _doctorNid,\r\n        string memory _doctorName,\r\n        string memory _doctorLicense,\r\n        string memory _doctorSpecialty\r\n    ) public {\r\n        doctors[_doctorNid] = Doctor({\r\n            doctorName: _doctorName,\r\n            doctorLicense: _doctorLicense,\r\n            doctorSpecialty: _doctorSpecialty\r\n        });\r\n    }\r\n\r\n    function getDoctor(string memory _doctorNid) public view returns (Doctor memory) {\r\n        return doctors[_doctorNid];\r\n    }\r\n}\r\n",
  "sourcePath": "C:\\Users\\Usuario\\OneDrive\\Escritorio\\OneDrive\\2024\\Trabajo Final\\prescryption_v2\\prescryption_solidity\\contracts\\DoctorContract.sol",
  "compiler": {
    "name": "solc",
    "version": "0.8.0+commit.c7dfd78e.Emscripten.clang"
  },
  "schemaVersion": "3.4.16",
  "updatedAt": "2024-10-05T23:31:19.088Z",
  "devdoc": {
    "kind": "dev",
    "methods": {},
    "version": 1
  },
  "userdoc": {
    "kind": "user",
    "methods": {},
    "version": 1
  }
}