{
  "contractName": "DoctorContract",
  "abi": [
    {
      "inputs": [
        {
          "internalType": "string",
          "name": "",
          "type": "string"
        }
      ],
      "name": "doctors",
      "outputs": [
        {
          "internalType": "string",
          "name": "doctorName",
          "type": "string"
        },
        {
          "internalType": "string",
          "name": "doctorLicense",
          "type": "string"
        },
        {
          "internalType": "string",
          "name": "doctorSpecialty",
          "type": "string"
        }
      ],
      "stateMutability": "view",
      "type": "function",
      "constant": true
    },
    {
      "inputs": [
        {
          "internalType": "string",
          "name": "_nid",
          "type": "string"
        },
        {
          "internalType": "string",
          "name": "_doctorName",
          "type": "string"
        },
        {
          "internalType": "string",
          "name": "_doctorLicense",
          "type": "string"
        },
        {
          "internalType": "string",
          "name": "_doctorSpecialty",
          "type": "string"
        }
      ],
      "name": "registerDoctor",
      "outputs": [],
      "stateMutability": "nonpayable",
      "type": "function"
    },
    {
      "inputs": [
        {
          "internalType": "string",
          "name": "_nid",
          "type": "string"
        }
      ],
      "name": "getDoctor",
      "outputs": [
        {
          "components": [
            {
              "internalType": "string",
              "name": "doctorName",
              "type": "string"
            },
            {
              "internalType": "string",
              "name": "doctorLicense",
              "type": "string"
            },
            {
              "internalType": "string",
              "name": "doctorSpecialty",
              "type": "string"
            }
          ],
          "internalType": "struct DoctorContract.Doctor",
          "name": "",
          "type": "tuple"
        }
      ],
      "stateMutability": "view",
      "type": "function",
      "constant": true
    }
  ],
  "bytecode": "0x608060405234801561001057600080fd5b506109aa806100206000396000f3fe608060405234801561001057600080fd5b50600436106100415760003560e01c806305c35ce51461004657806333a8587f146100715780636049909214610086575b600080fd5b6100596100543660046106c3565b6100a6565b604051610068939291906107ee565b60405180910390f35b61008461007f3660046106fe565b61026b565b005b6100996100943660046106c3565b610350565b6040516100689190610892565b80516020818301810180516000825292820191909301209152805481906100cc90610923565b80601f01602080910402602001604051908101604052809291908181526020018280546100f890610923565b80156101455780601f1061011a57610100808354040283529160200191610145565b820191906000526020600020905b81548152906001019060200180831161012857829003601f168201915b50505050509080600101805461015a90610923565b80601f016020809104026020016040519081016040528092919081815260200182805461018690610923565b80156101d35780601f106101a8576101008083540402835291602001916101d3565b820191906000526020600020905b8154815290600101906020018083116101b657829003601f168201915b5050505050908060020180546101e890610923565b80601f016020809104026020016040519081016040528092919081815260200182805461021490610923565b80156102615780601f1061023657610100808354040283529160200191610261565b820191906000526020600020905b81548152906001019060200180831161024457829003601f168201915b5050505050905083565b60008460405161027b91906107d2565b908152604051908190036020019020805461029590610923565b1590506102bd5760405162461bcd60e51b81526004016102b49061085b565b60405180910390fd5b6040518060600160405280848152602001838152602001828152506000856040516102e891906107d2565b90815260200160405180910390206000820151816000019080519060200190610312929190610588565b50602082810151805161032b9260018501920190610588565b5060408201518051610347916002840191602090910190610588565b50505050505050565b61035861060c565b6000808360405161036991906107d2565b908152604051908190036020019020805461038390610923565b9050116103a25760405162461bcd60e51b81526004016102b490610831565b6000826040516103b291906107d2565b90815260200160405180910390206040518060600160405290816000820180546103db90610923565b80601f016020809104026020016040519081016040528092919081815260200182805461040790610923565b80156104545780601f1061042957610100808354040283529160200191610454565b820191906000526020600020905b81548152906001019060200180831161043757829003601f168201915b5050505050815260200160018201805461046d90610923565b80601f016020809104026020016040519081016040528092919081815260200182805461049990610923565b80156104e65780601f106104bb576101008083540402835291602001916104e6565b820191906000526020600020905b8154815290600101906020018083116104c957829003601f168201915b505050505081526020016002820180546104ff90610923565b80601f016020809104026020016040519081016040528092919081815260200182805461052b90610923565b80156105785780601f1061054d57610100808354040283529160200191610578565b820191906000526020600020905b81548152906001019060200180831161055b57829003601f168201915b5050505050815250509050919050565b82805461059490610923565b90600052602060002090601f0160209004810192826105b657600085556105fc565b82601f106105cf57805160ff19168380011785556105fc565b828001600101855582156105fc579182015b828111156105fc5782518255916020019190600101906105e1565b5061060892915061062d565b5090565b60405180606001604052806060815260200160608152602001606081525090565b5b80821115610608576000815560010161062e565b600082601f830112610652578081fd5b813567ffffffffffffffff8082111561066d5761066d61095e565b604051601f8301601f1916810160200182811182821017156106915761069161095e565b6040528281528483016020018610156106a8578384fd5b82602086016020830137918201602001929092529392505050565b6000602082840312156106d4578081fd5b813567ffffffffffffffff8111156106ea578182fd5b6106f684828501610642565b949350505050565b60008060008060808587031215610713578283fd5b843567ffffffffffffffff8082111561072a578485fd5b61073688838901610642565b9550602087013591508082111561074b578485fd5b61075788838901610642565b9450604087013591508082111561076c578384fd5b61077888838901610642565b9350606087013591508082111561078d578283fd5b5061079a87828801610642565b91505092959194509250565b600081518084526107be8160208601602086016108f3565b601f01601f19169290920160200192915050565b600082516107e48184602087016108f3565b9190910192915050565b60006060825261080160608301866107a6565b828103602084015261081381866107a6565b9050828103604084015261082781856107a6565b9695505050505050565b60208082526010908201526f111bd8dd1bdc881b9bdd08199bdd5b9960821b604082015260600190565b60208082526019908201527f446f63746f7220616c7265616479207265676973746572656400000000000000604082015260600190565b6000602082528251606060208401526108ae60808401826107a6565b90506020840151601f19808584030160408601526108cc83836107a6565b92506040860151915080858403016060860152506108ea82826107a6565b95945050505050565b60005b8381101561090e5781810151838201526020016108f6565b8381111561091d576000848401525b50505050565b60028104600182168061093757607f821691505b6020821081141561095857634e487b7160e01b600052602260045260246000fd5b50919050565b634e487b7160e01b600052604160045260246000fdfea2646970667358221220597d71ebecdb464ab1e64bc869daffff717db543092f4a9d0d20c1d4f9a66a9164736f6c63430008000033",
  "immutableReferences": {},
  "source": "// SPDX-License-Identifier: MIT\r\npragma solidity ^0.8.0;\r\n\r\ncontract DoctorContract {\r\n    struct Doctor {\r\n        string doctorName;\r\n        string doctorLicense;\r\n        string doctorSpecialty;\r\n    }\r\n\r\n    mapping(string => Doctor) public doctors; // NID => Doctor\r\n\r\n    function registerDoctor(\r\n        string memory _nid,\r\n        string memory _doctorName,\r\n        string memory _doctorLicense,\r\n        string memory _doctorSpecialty\r\n    ) public {\r\n        require(bytes(doctors[_nid].doctorName).length == 0, \"Doctor already registered\");\r\n\r\n        doctors[_nid] = Doctor({\r\n            doctorName: _doctorName,\r\n            doctorLicense: _doctorLicense,\r\n            doctorSpecialty: _doctorSpecialty\r\n        });\r\n    }\r\n\r\n    function getDoctor(string memory _nid) public view returns (Doctor memory) {\r\n        require(bytes(doctors[_nid].doctorName).length > 0, \"Doctor not found\");\r\n        return doctors[_nid];\r\n    }\r\n}\r\n",
  "sourcePath": "D:\\prescryption_v3\\prescryption_solidity\\contracts\\DoctorContract.sol",
  "compiler": {
    "name": "solc",
    "version": "0.8.0+commit.c7dfd78e.Emscripten.clang"
  },
  "schemaVersion": "3.4.16",
  "updatedAt": "2025-01-06T21:44:40.842Z",
  "networkType": "ethereum",
  "devdoc": {
    "kind": "dev",
    "methods": {},
    "version": 1
  },
  "userdoc": {
    "kind": "user",
    "methods": {},
    "version": 1
  }
}