{
  "contractName": "PatientContract",
  "abi": [
    {
      "inputs": [
        {
          "internalType": "string",
          "name": "",
          "type": "string"
        }
      ],
      "name": "patients",
      "outputs": [
        {
          "internalType": "string",
          "name": "patientName",
          "type": "string"
        },
        {
          "internalType": "string",
          "name": "patientNid",
          "type": "string"
        },
        {
          "internalType": "address",
          "name": "patientAddress",
          "type": "address"
        }
      ],
      "stateMutability": "view",
      "type": "function",
      "constant": true
    },
    {
      "inputs": [
        {
          "internalType": "string",
          "name": "_nid",
          "type": "string"
        },
        {
          "internalType": "string",
          "name": "_patientName",
          "type": "string"
        },
        {
          "internalType": "address",
          "name": "_patientAddress",
          "type": "address"
        }
      ],
      "name": "registerPatient",
      "outputs": [],
      "stateMutability": "nonpayable",
      "type": "function"
    },
    {
      "inputs": [
        {
          "internalType": "string",
          "name": "_nid",
          "type": "string"
        }
      ],
      "name": "getPatient",
      "outputs": [
        {
          "components": [
            {
              "internalType": "string",
              "name": "patientName",
              "type": "string"
            },
            {
              "internalType": "string",
              "name": "patientNid",
              "type": "string"
            },
            {
              "internalType": "address",
              "name": "patientAddress",
              "type": "address"
            }
          ],
          "internalType": "struct PatientContract.Patient",
          "name": "",
          "type": "tuple"
        }
      ],
      "stateMutability": "view",
      "type": "function",
      "constant": true
    }
  ],
  "bytecode": "0x608060405234801561001057600080fd5b50610897806100206000396000f3fe608060405234801561001057600080fd5b50600436106100415760003560e01c8063a8a1af9f14610046578063c6009d841461005b578063e79a7a2e14610086575b600080fd5b61005961005436600461061d565b6100a6565b005b61006e6100693660046105e2565b61019e565b60405161007d939291906106e5565b60405180910390f35b6100996100943660046105e2565b6102e4565b60405161007d9190610785565b6000836040516100b691906106c9565b90815260405190819003602001902080546100d090610810565b1590506100f85760405162461bcd60e51b81526004016100ef90610723565b60405180910390fd5b6040518060600160405280838152602001848152602001826001600160a01b031681525060008460405161012c91906106c9565b9081526020016040518091039020600082015181600001908051906020019061015692919061049e565b50602082810151805161016f926001850192019061049e565b5060409190910151600290910180546001600160a01b0319166001600160a01b03909216919091179055505050565b80516020818301810180516000825292820191909301209152805481906101c490610810565b80601f01602080910402602001604051908101604052809291908181526020018280546101f090610810565b801561023d5780601f106102125761010080835404028352916020019161023d565b820191906000526020600020905b81548152906001019060200180831161022057829003601f168201915b50505050509080600101805461025290610810565b80601f016020809104026020016040519081016040528092919081815260200182805461027e90610810565b80156102cb5780601f106102a0576101008083540402835291602001916102cb565b820191906000526020600020905b8154815290600101906020018083116102ae57829003601f168201915b505050600290930154919250506001600160a01b031683565b6102ec610522565b600080836040516102fd91906106c9565b908152604051908190036020019020805461031790610810565b9050116103365760405162461bcd60e51b81526004016100ef9061075a565b60008260405161034691906106c9565b908152602001604051809103902060405180606001604052908160008201805461036f90610810565b80601f016020809104026020016040519081016040528092919081815260200182805461039b90610810565b80156103e85780601f106103bd576101008083540402835291602001916103e8565b820191906000526020600020905b8154815290600101906020018083116103cb57829003601f168201915b5050505050815260200160018201805461040190610810565b80601f016020809104026020016040519081016040528092919081815260200182805461042d90610810565b801561047a5780601f1061044f5761010080835404028352916020019161047a565b820191906000526020600020905b81548152906001019060200180831161045d57829003601f168201915b5050509183525050600291909101546001600160a01b031660209091015292915050565b8280546104aa90610810565b90600052602060002090601f0160209004810192826104cc5760008555610512565b82601f106104e557805160ff1916838001178555610512565b82800160010185558215610512579182015b828111156105125782518255916020019190600101906104f7565b5061051e92915061054c565b5090565b6040518060600160405280606081526020016060815260200160006001600160a01b031681525090565b5b8082111561051e576000815560010161054d565b600082601f830112610571578081fd5b813567ffffffffffffffff8082111561058c5761058c61084b565b604051601f8301601f1916810160200182811182821017156105b0576105b061084b565b6040528281528483016020018610156105c7578384fd5b82602086016020830137918201602001929092529392505050565b6000602082840312156105f3578081fd5b813567ffffffffffffffff811115610609578182fd5b61061584828501610561565b949350505050565b600080600060608486031215610631578182fd5b833567ffffffffffffffff80821115610648578384fd5b61065487838801610561565b94506020860135915080821115610669578384fd5b5061067686828701610561565b92505060408401356001600160a01b0381168114610692578182fd5b809150509250925092565b600081518084526106b58160208601602086016107e0565b601f01601f19169290920160200192915050565b600082516106db8184602087016107e0565b9190910192915050565b6000606082526106f8606083018661069d565b828103602084015261070a818661069d565b91505060018060a01b0383166040830152949350505050565b6020808252601a908201527f50617469656e7420616c72656164792072656769737465726564000000000000604082015260600190565b60208082526011908201527014185d1a595b9d081b9bdd08199bdd5b99607a1b604082015260600190565b6000602082528251606060208401526107a1608084018261069d565b90506020840151601f198483030160408501526107be828261069d565b604095909501516001600160a01b031660609490940193909352509192915050565b60005b838110156107fb5781810151838201526020016107e3565b8381111561080a576000848401525b50505050565b60028104600182168061082457607f821691505b6020821081141561084557634e487b7160e01b600052602260045260246000fd5b50919050565b634e487b7160e01b600052604160045260246000fdfea264697066735822122017220f041b96614c75b6f3cbb0e28f312b5de0a1ab333af80c0d40a607b184fd64736f6c63430008000033",
  "immutableReferences": {},
  "source": "// SPDX-License-Identifier: MIT\r\npragma solidity ^0.8.0;\r\n\r\ncontract PatientContract {\r\n    struct Patient {\r\n        string patientName;\r\n        string patientNid;\r\n        address patientAddress;\r\n    }\r\n\r\n    mapping(string => Patient) public patients; // NID => Patient\r\n\r\n    function registerPatient(\r\n        string memory _nid,\r\n        string memory _patientName,\r\n        address _patientAddress\r\n    ) public {\r\n        require(bytes(patients[_nid].patientName).length == 0, \"Patient already registered\");\r\n\r\n        patients[_nid] = Patient({\r\n            patientName: _patientName,\r\n            patientNid: _nid,\r\n            patientAddress: _patientAddress\r\n        });\r\n    }\r\n\r\n    function getPatient(string memory _nid) public view returns (Patient memory) {\r\n        require(bytes(patients[_nid].patientName).length > 0, \"Patient not found\");\r\n        return patients[_nid];\r\n    }\r\n}\r\n",
  "sourcePath": "D:\\prescryption_v3\\prescryption_solidity\\contracts\\PatientContract.sol",
  "compiler": {
    "name": "solc",
    "version": "0.8.0+commit.c7dfd78e.Emscripten.clang"
  },
  "schemaVersion": "3.4.16",
  "updatedAt": "2025-01-06T21:44:40.856Z",
  "networkType": "ethereum",
  "devdoc": {
    "kind": "dev",
    "methods": {},
    "version": 1
  },
  "userdoc": {
    "kind": "user",
    "methods": {},
    "version": 1
  }
}