{
  "contractName": "PatientContract",
  "abi": [
    {
      "inputs": [
        {
          "internalType": "string",
          "name": "",
          "type": "string"
        }
      ],
      "name": "patients",
      "outputs": [
        {
          "internalType": "string",
          "name": "patientName",
          "type": "string"
        },
        {
          "internalType": "string",
          "name": "patientNid",
          "type": "string"
        },
        {
          "internalType": "address",
          "name": "patientAddress",
          "type": "address"
        }
      ],
      "stateMutability": "view",
      "type": "function"
    },
    {
      "inputs": [
        {
          "internalType": "string",
          "name": "_patientName",
          "type": "string"
        },
        {
          "internalType": "string",
          "name": "_patientNid",
          "type": "string"
        },
        {
          "internalType": "address",
          "name": "_patientAddress",
          "type": "address"
        }
      ],
      "name": "registerPatient",
      "outputs": [],
      "stateMutability": "nonpayable",
      "type": "function"
    },
    {
      "inputs": [
        {
          "internalType": "string",
          "name": "_patientNid",
          "type": "string"
        }
      ],
      "name": "getPatient",
      "outputs": [
        {
          "components": [
            {
              "internalType": "string",
              "name": "patientName",
              "type": "string"
            },
            {
              "internalType": "string",
              "name": "patientNid",
              "type": "string"
            },
            {
              "internalType": "address",
              "name": "patientAddress",
              "type": "address"
            }
          ],
          "internalType": "struct PatientContract.Patient",
          "name": "",
          "type": "tuple"
        }
      ],
      "stateMutability": "view",
      "type": "function"
    }
  ],
  "bytecode": "0x608060405234801561001057600080fd5b50610799806100206000396000f3fe608060405234801561001057600080fd5b50600436106100415760003560e01c8063a8a1af9f14610046578063c6009d841461005b578063e79a7a2e14610086575b600080fd5b610059610054366004610581565b6100a6565b005b61006e610069366004610546565b61014c565b60405161007d93929190610649565b60405180910390f35b610099610094366004610546565b610292565b60405161007d9190610687565b6040518060600160405280848152602001838152602001826001600160a01b03168152506000836040516100da919061062d565b90815260200160405180910390206000820151816000019080519060200190610104929190610402565b50602082810151805161011d9260018501920190610402565b5060409190910151600290910180546001600160a01b0319166001600160a01b03909216919091179055505050565b805160208183018101805160008252928201919093012091528054819061017290610712565b80601f016020809104026020016040519081016040528092919081815260200182805461019e90610712565b80156101eb5780601f106101c0576101008083540402835291602001916101eb565b820191906000526020600020905b8154815290600101906020018083116101ce57829003601f168201915b50505050509080600101805461020090610712565b80601f016020809104026020016040519081016040528092919081815260200182805461022c90610712565b80156102795780601f1061024e57610100808354040283529160200191610279565b820191906000526020600020905b81548152906001019060200180831161025c57829003601f168201915b505050600290930154919250506001600160a01b031683565b61029a610486565b6000826040516102aa919061062d565b90815260200160405180910390206040518060600160405290816000820180546102d390610712565b80601f01602080910402602001604051908101604052809291908181526020018280546102ff90610712565b801561034c5780601f106103215761010080835404028352916020019161034c565b820191906000526020600020905b81548152906001019060200180831161032f57829003601f168201915b5050505050815260200160018201805461036590610712565b80601f016020809104026020016040519081016040528092919081815260200182805461039190610712565b80156103de5780601f106103b3576101008083540402835291602001916103de565b820191906000526020600020905b8154815290600101906020018083116103c157829003601f168201915b5050509183525050600291909101546001600160a01b031660209091015292915050565b82805461040e90610712565b90600052602060002090601f0160209004810192826104305760008555610476565b82601f1061044957805160ff1916838001178555610476565b82800160010185558215610476579182015b8281111561047657825182559160200191906001019061045b565b506104829291506104b0565b5090565b6040518060600160405280606081526020016060815260200160006001600160a01b031681525090565b5b8082111561048257600081556001016104b1565b600082601f8301126104d5578081fd5b813567ffffffffffffffff808211156104f0576104f061074d565b604051601f8301601f1916810160200182811182821017156105145761051461074d565b60405282815284830160200186101561052b578384fd5b82602086016020830137918201602001929092529392505050565b600060208284031215610557578081fd5b813567ffffffffffffffff81111561056d578182fd5b610579848285016104c5565b949350505050565b600080600060608486031215610595578182fd5b833567ffffffffffffffff808211156105ac578384fd5b6105b8878388016104c5565b945060208601359150808211156105cd578384fd5b506105da868287016104c5565b92505060408401356001600160a01b03811681146105f6578182fd5b809150509250925092565b600081518084526106198160208601602086016106e2565b601f01601f19169290920160200192915050565b6000825161063f8184602087016106e2565b9190910192915050565b60006060825261065c6060830186610601565b828103602084015261066e8186610601565b91505060018060a01b0383166040830152949350505050565b6000602082528251606060208401526106a36080840182610601565b90506020840151601f198483030160408501526106c08282610601565b604095909501516001600160a01b031660609490940193909352509192915050565b60005b838110156106fd5781810151838201526020016106e5565b8381111561070c576000848401525b50505050565b60028104600182168061072657607f821691505b6020821081141561074757634e487b7160e01b600052602260045260246000fd5b50919050565b634e487b7160e01b600052604160045260246000fdfea2646970667358221220f16f0bee2ef0ad3718660ef9c9ddb13ce292a0eda88ccdf6995788277ad0ef8f64736f6c63430008000033",
  "immutableReferences": {},
  "source": "// SPDX-License-Identifier: MIT\r\npragma solidity ^0.8.0;\r\n\r\ncontract PatientContract {\r\n    struct Patient {\r\n        string patientName;\r\n        string patientNid;\r\n        address patientAddress;\r\n    }\r\n\r\n    mapping(string => Patient) public patients;\r\n\r\n    function registerPatient(\r\n        string memory _patientName,\r\n        string memory _patientNid,\r\n        address _patientAddress\r\n    ) public {\r\n        patients[_patientNid] = Patient({\r\n            patientName: _patientName,\r\n            patientNid: _patientNid,\r\n            patientAddress: _patientAddress\r\n        });\r\n    }\r\n\r\n    function getPatient(string memory _patientNid) public view returns (Patient memory) {\r\n        return patients[_patientNid];\r\n    }\r\n}\r\n",
  "sourcePath": "C:\\Users\\Usuario\\OneDrive\\Escritorio\\OneDrive\\2024\\Trabajo Final\\prescryption_v2\\prescryption_solidity\\contracts\\PatientContract.sol",
  "compiler": {
    "name": "solc",
    "version": "0.8.0+commit.c7dfd78e.Emscripten.clang"
  },
  "schemaVersion": "3.4.16",
  "updatedAt": "2024-10-05T23:31:19.093Z",
  "devdoc": {
    "kind": "dev",
    "methods": {},
    "version": 1
  },
  "userdoc": {
    "kind": "user",
    "methods": {},
    "version": 1
  }
}