{
  "contractName": "RecetaContract",
  "abi": [
    {
      "anonymous": false,
      "inputs": [
        {
          "indexed": false,
          "internalType": "string",
          "name": "nombrePaciente",
          "type": "string"
        },
        {
          "indexed": false,
          "internalType": "string",
          "name": "dniPaciente",
          "type": "string"
        },
        {
          "indexed": false,
          "internalType": "string",
          "name": "numAfiliado",
          "type": "string"
        },
        {
          "indexed": false,
          "internalType": "string",
          "name": "obraSocial",
          "type": "string"
        },
        {
          "indexed": false,
          "internalType": "string",
          "name": "planObraSocial",
          "type": "string"
        },
        {
          "indexed": false,
          "internalType": "string",
          "name": "medicamento1",
          "type": "string"
        },
        {
          "indexed": false,
          "internalType": "uint256",
          "name": "cantidad1",
          "type": "uint256"
        },
        {
          "indexed": false,
          "internalType": "string",
          "name": "medicamento2",
          "type": "string"
        },
        {
          "indexed": false,
          "internalType": "uint256",
          "name": "cantidad2",
          "type": "uint256"
        },
        {
          "indexed": false,
          "internalType": "string",
          "name": "diagnostico",
          "type": "string"
        },
        {
          "indexed": false,
          "internalType": "string",
          "name": "dniMedico",
          "type": "string"
        }
      ],
      "name": "RecetaEmitida",
      "type": "event"
    },
    {
      "inputs": [
        {
          "internalType": "string",
          "name": "",
          "type": "string"
        }
      ],
      "name": "medicos",
      "outputs": [
        {
          "internalType": "string",
          "name": "nombreMedico",
          "type": "string"
        },
        {
          "internalType": "string",
          "name": "matriculaMedico",
          "type": "string"
        },
        {
          "internalType": "string",
          "name": "especialidadMedico",
          "type": "string"
        }
      ],
      "stateMutability": "view",
      "type": "function",
      "constant": true
    },
    {
      "inputs": [],
      "name": "recetaCount",
      "outputs": [
        {
          "internalType": "uint256",
          "name": "",
          "type": "uint256"
        }
      ],
      "stateMutability": "view",
      "type": "function",
      "constant": true
    },
    {
      "inputs": [
        {
          "internalType": "uint256",
          "name": "",
          "type": "uint256"
        }
      ],
      "name": "recetas",
      "outputs": [
        {
          "internalType": "string",
          "name": "nombrePaciente",
          "type": "string"
        },
        {
          "internalType": "string",
          "name": "dniPaciente",
          "type": "string"
        },
        {
          "internalType": "string",
          "name": "numAfiliado",
          "type": "string"
        },
        {
          "internalType": "string",
          "name": "obraSocial",
          "type": "string"
        },
        {
          "internalType": "string",
          "name": "planObraSocial",
          "type": "string"
        },
        {
          "internalType": "string",
          "name": "medicamento1",
          "type": "string"
        },
        {
          "internalType": "uint256",
          "name": "cantidad1",
          "type": "uint256"
        },
        {
          "internalType": "string",
          "name": "medicamento2",
          "type": "string"
        },
        {
          "internalType": "uint256",
          "name": "cantidad2",
          "type": "uint256"
        },
        {
          "internalType": "string",
          "name": "diagnostico",
          "type": "string"
        },
        {
          "internalType": "string",
          "name": "dniMedico",
          "type": "string"
        }
      ],
      "stateMutability": "view",
      "type": "function",
      "constant": true
    },
    {
      "inputs": [
        {
          "internalType": "string",
          "name": "_dniMedico",
          "type": "string"
        },
        {
          "internalType": "string",
          "name": "_nombreMedico",
          "type": "string"
        },
        {
          "internalType": "string",
          "name": "_matriculaMedico",
          "type": "string"
        },
        {
          "internalType": "string",
          "name": "_especialidadMedico",
          "type": "string"
        }
      ],
      "name": "registrarMedico",
      "outputs": [],
      "stateMutability": "nonpayable",
      "type": "function"
    },
    {
      "inputs": [
        {
          "internalType": "string",
          "name": "_nombrePaciente",
          "type": "string"
        },
        {
          "internalType": "string",
          "name": "_dniPaciente",
          "type": "string"
        },
        {
          "internalType": "string",
          "name": "_numAfiliado",
          "type": "string"
        },
        {
          "internalType": "string",
          "name": "_obraSocial",
          "type": "string"
        },
        {
          "internalType": "string",
          "name": "_planObraSocial",
          "type": "string"
        },
        {
          "internalType": "string",
          "name": "_medicamento1",
          "type": "string"
        },
        {
          "internalType": "uint256",
          "name": "_cantidad1",
          "type": "uint256"
        },
        {
          "internalType": "string",
          "name": "_medicamento2",
          "type": "string"
        },
        {
          "internalType": "uint256",
          "name": "_cantidad2",
          "type": "uint256"
        },
        {
          "internalType": "string",
          "name": "_diagnostico",
          "type": "string"
        },
        {
          "internalType": "string",
          "name": "_dniMedico",
          "type": "string"
        }
      ],
      "name": "emitirReceta",
      "outputs": [],
      "stateMutability": "nonpayable",
      "type": "function"
    },
    {
      "inputs": [
        {
          "internalType": "uint256",
          "name": "_recetaId",
          "type": "uint256"
        }
      ],
      "name": "getReceta",
      "outputs": [
        {
          "components": [
            {
              "internalType": "string",
              "name": "nombrePaciente",
              "type": "string"
            },
            {
              "internalType": "string",
              "name": "dniPaciente",
              "type": "string"
            },
            {
              "internalType": "string",
              "name": "numAfiliado",
              "type": "string"
            },
            {
              "internalType": "string",
              "name": "obraSocial",
              "type": "string"
            },
            {
              "internalType": "string",
              "name": "planObraSocial",
              "type": "string"
            },
            {
              "internalType": "string",
              "name": "medicamento1",
              "type": "string"
            },
            {
              "internalType": "uint256",
              "name": "cantidad1",
              "type": "uint256"
            },
            {
              "internalType": "string",
              "name": "medicamento2",
              "type": "string"
            },
            {
              "internalType": "uint256",
              "name": "cantidad2",
              "type": "uint256"
            },
            {
              "internalType": "string",
              "name": "diagnostico",
              "type": "string"
            },
            {
              "internalType": "string",
              "name": "dniMedico",
              "type": "string"
            }
          ],
          "internalType": "struct RecetaContract.Receta",
          "name": "",
          "type": "tuple"
        },
        {
          "components": [
            {
              "internalType": "string",
              "name": "nombreMedico",
              "type": "string"
            },
            {
              "internalType": "string",
              "name": "matriculaMedico",
              "type": "string"
            },
            {
              "internalType": "string",
              "name": "especialidadMedico",
              "type": "string"
            }
          ],
          "internalType": "struct RecetaContract.Medico",
          "name": "",
          "type": "tuple"
        }
      ],
      "stateMutability": "view",
      "type": "function",
      "constant": true
    },
    {
      "inputs": [],
      "name": "getRecetas",
      "outputs": [
        {
          "components": [
            {
              "internalType": "string",
              "name": "nombrePaciente",
              "type": "string"
            },
            {
              "internalType": "string",
              "name": "dniPaciente",
              "type": "string"
            },
            {
              "internalType": "string",
              "name": "numAfiliado",
              "type": "string"
            },
            {
              "internalType": "string",
              "name": "obraSocial",
              "type": "string"
            },
            {
              "internalType": "string",
              "name": "planObraSocial",
              "type": "string"
            },
            {
              "internalType": "string",
              "name": "medicamento1",
              "type": "string"
            },
            {
              "internalType": "uint256",
              "name": "cantidad1",
              "type": "uint256"
            },
            {
              "internalType": "string",
              "name": "medicamento2",
              "type": "string"
            },
            {
              "internalType": "uint256",
              "name": "cantidad2",
              "type": "uint256"
            },
            {
              "internalType": "string",
              "name": "diagnostico",
              "type": "string"
            },
            {
              "internalType": "string",
              "name": "dniMedico",
              "type": "string"
            }
          ],
          "internalType": "struct RecetaContract.Receta[]",
          "name": "",
          "type": "tuple[]"
        }
      ],
      "stateMutability": "view",
      "type": "function",
      "constant": true
    },
    {
      "inputs": [
        {
          "internalType": "string",
          "name": "_dniMedico",
          "type": "string"
        }
      ],
      "name": "getRecetasPorMedico",
      "outputs": [
        {
          "components": [
            {
              "internalType": "string",
              "name": "nombrePaciente",
              "type": "string"
            },
            {
              "internalType": "string",
              "name": "dniPaciente",
              "type": "string"
            },
            {
              "internalType": "string",
              "name": "numAfiliado",
              "type": "string"
            },
            {
              "internalType": "string",
              "name": "obraSocial",
              "type": "string"
            },
            {
              "internalType": "string",
              "name": "planObraSocial",
              "type": "string"
            },
            {
              "internalType": "string",
              "name": "medicamento1",
              "type": "string"
            },
            {
              "internalType": "uint256",
              "name": "cantidad1",
              "type": "uint256"
            },
            {
              "internalType": "string",
              "name": "medicamento2",
              "type": "string"
            },
            {
              "internalType": "uint256",
              "name": "cantidad2",
              "type": "uint256"
            },
            {
              "internalType": "string",
              "name": "diagnostico",
              "type": "string"
            },
            {
              "internalType": "string",
              "name": "dniMedico",
              "type": "string"
            }
          ],
          "internalType": "struct RecetaContract.Receta[]",
          "name": "",
          "type": "tuple[]"
        }
      ],
      "stateMutability": "view",
      "type": "function",
      "constant": true
    }
  ],
  "bytecode": "0x608060405234801561001057600080fd5b506128d5806100206000396000f3fe608060405234801561001057600080fd5b50600436106100885760003560e01c8063c410589b1161005b578063c410589b146100ff578063c7cb52ca14610120578063d85eae8d14610133578063dd6477c21461015557610088565b80630ed84fa21461008d5780635b8f2358146100a2578063832b6728146100d5578063a8f4d22b146100ea575b600080fd5b6100a061009b366004612191565b610168565b005b6100b56100b03660046123b3565b6101fb565b6040516100cc9b9a99989796959493929190612650565b60405180910390f35b6100dd61072d565b6040516100cc91906127c1565b6100f2610733565b6040516100cc91906125b7565b61011261010d3660046123b3565b610cc9565b6040516100cc929190612755565b6100a061012e366004612239565b611481565b610146610141366004612156565b611687565b6040516100cc93929190612617565b6100f2610163366004612156565b61184c565b6040518060600160405280848152602001838152602001828152506001856040516101939190612500565b908152602001604051809103902060008201518160000190805190602001906101bd929190611fc1565b5060208281015180516101d69260018501920190611fc1565b50604082015180516101f2916002840191602090910190611fc1565b50505050505050565b6000818154811061020b57600080fd5b90600052602060002090600b020160009150905080600001805461022e9061281d565b80601f016020809104026020016040519081016040528092919081815260200182805461025a9061281d565b80156102a75780601f1061027c576101008083540402835291602001916102a7565b820191906000526020600020905b81548152906001019060200180831161028a57829003601f168201915b5050505050908060010180546102bc9061281d565b80601f01602080910402602001604051908101604052809291908181526020018280546102e89061281d565b80156103355780601f1061030a57610100808354040283529160200191610335565b820191906000526020600020905b81548152906001019060200180831161031857829003601f168201915b50505050509080600201805461034a9061281d565b80601f01602080910402602001604051908101604052809291908181526020018280546103769061281d565b80156103c35780601f10610398576101008083540402835291602001916103c3565b820191906000526020600020905b8154815290600101906020018083116103a657829003601f168201915b5050505050908060030180546103d89061281d565b80601f01602080910402602001604051908101604052809291908181526020018280546104049061281d565b80156104515780601f1061042657610100808354040283529160200191610451565b820191906000526020600020905b81548152906001019060200180831161043457829003601f168201915b5050505050908060040180546104669061281d565b80601f01602080910402602001604051908101604052809291908181526020018280546104929061281d565b80156104df5780601f106104b4576101008083540402835291602001916104df565b820191906000526020600020905b8154815290600101906020018083116104c257829003601f168201915b5050505050908060050180546104f49061281d565b80601f01602080910402602001604051908101604052809291908181526020018280546105209061281d565b801561056d5780601f106105425761010080835404028352916020019161056d565b820191906000526020600020905b81548152906001019060200180831161055057829003601f168201915b5050505050908060060154908060070180546105889061281d565b80601f01602080910402602001604051908101604052809291908181526020018280546105b49061281d565b80156106015780601f106105d657610100808354040283529160200191610601565b820191906000526020600020905b8154815290600101906020018083116105e457829003601f168201915b50505050509080600801549080600901805461061c9061281d565b80601f01602080910402602001604051908101604052809291908181526020018280546106489061281d565b80156106955780601f1061066a57610100808354040283529160200191610695565b820191906000526020600020905b81548152906001019060200180831161067857829003601f168201915b50505050509080600a0180546106aa9061281d565b80601f01602080910402602001604051908101604052809291908181526020018280546106d69061281d565b80156107235780601f106106f857610100808354040283529160200191610723565b820191906000526020600020905b81548152906001019060200180831161070657829003601f168201915b505050505090508b565b60025481565b60606000805480602002602001604051908101604052809291908181526020016000905b82821015610cc057838290600052602060002090600b02016040518061016001604052908160008201805461078b9061281d565b80601f01602080910402602001604051908101604052809291908181526020018280546107b79061281d565b80156108045780601f106107d957610100808354040283529160200191610804565b820191906000526020600020905b8154815290600101906020018083116107e757829003601f168201915b5050505050815260200160018201805461081d9061281d565b80601f01602080910402602001604051908101604052809291908181526020018280546108499061281d565b80156108965780601f1061086b57610100808354040283529160200191610896565b820191906000526020600020905b81548152906001019060200180831161087957829003601f168201915b505050505081526020016002820180546108af9061281d565b80601f01602080910402602001604051908101604052809291908181526020018280546108db9061281d565b80156109285780601f106108fd57610100808354040283529160200191610928565b820191906000526020600020905b81548152906001019060200180831161090b57829003601f168201915b505050505081526020016003820180546109419061281d565b80601f016020809104026020016040519081016040528092919081815260200182805461096d9061281d565b80156109ba5780601f1061098f576101008083540402835291602001916109ba565b820191906000526020600020905b81548152906001019060200180831161099d57829003601f168201915b505050505081526020016004820180546109d39061281d565b80601f01602080910402602001604051908101604052809291908181526020018280546109ff9061281d565b8015610a4c5780601f10610a2157610100808354040283529160200191610a4c565b820191906000526020600020905b815481529060010190602001808311610a2f57829003601f168201915b50505050508152602001600582018054610a659061281d565b80601f0160208091040260200160405190810160405280929190818152602001828054610a919061281d565b8015610ade5780601f10610ab357610100808354040283529160200191610ade565b820191906000526020600020905b815481529060010190602001808311610ac157829003601f168201915b5050505050815260200160068201548152602001600782018054610b019061281d565b80601f0160208091040260200160405190810160405280929190818152602001828054610b2d9061281d565b8015610b7a5780601f10610b4f57610100808354040283529160200191610b7a565b820191906000526020600020905b815481529060010190602001808311610b5d57829003601f168201915b5050505050815260200160088201548152602001600982018054610b9d9061281d565b80601f0160208091040260200160405190810160405280929190818152602001828054610bc99061281d565b8015610c165780601f10610beb57610100808354040283529160200191610c16565b820191906000526020600020905b815481529060010190602001808311610bf957829003601f168201915b50505050508152602001600a82018054610c2f9061281d565b80601f0160208091040260200160405190810160405280929190818152602001828054610c5b9061281d565b8015610ca85780601f10610c7d57610100808354040283529160200191610ca8565b820191906000526020600020905b815481529060010190602001808311610c8b57829003601f168201915b50505050508152505081526020019060010190610757565b50505050905090565b610cd1612045565b610cd961209f565b600083118015610ceb57506002548311155b610d105760405162461bcd60e51b8152600401610d0790612725565b60405180910390fd5b600080610d1e6001866127d6565b81548110610d3c57634e487b7160e01b600052603260045260246000fd5b90600052602060002090600b020160405180610160016040529081600082018054610d669061281d565b80601f0160208091040260200160405190810160405280929190818152602001828054610d929061281d565b8015610ddf5780601f10610db457610100808354040283529160200191610ddf565b820191906000526020600020905b815481529060010190602001808311610dc257829003601f168201915b50505050508152602001600182018054610df89061281d565b80601f0160208091040260200160405190810160405280929190818152602001828054610e249061281d565b8015610e715780601f10610e4657610100808354040283529160200191610e71565b820191906000526020600020905b815481529060010190602001808311610e5457829003601f168201915b50505050508152602001600282018054610e8a9061281d565b80601f0160208091040260200160405190810160405280929190818152602001828054610eb69061281d565b8015610f035780601f10610ed857610100808354040283529160200191610f03565b820191906000526020600020905b815481529060010190602001808311610ee657829003601f168201915b50505050508152602001600382018054610f1c9061281d565b80601f0160208091040260200160405190810160405280929190818152602001828054610f489061281d565b8015610f955780601f10610f6a57610100808354040283529160200191610f95565b820191906000526020600020905b815481529060010190602001808311610f7857829003601f168201915b50505050508152602001600482018054610fae9061281d565b80601f0160208091040260200160405190810160405280929190818152602001828054610fda9061281d565b80156110275780601f10610ffc57610100808354040283529160200191611027565b820191906000526020600020905b81548152906001019060200180831161100a57829003601f168201915b505050505081526020016005820180546110409061281d565b80601f016020809104026020016040519081016040528092919081815260200182805461106c9061281d565b80156110b95780601f1061108e576101008083540402835291602001916110b9565b820191906000526020600020905b81548152906001019060200180831161109c57829003601f168201915b50505050508152602001600682015481526020016007820180546110dc9061281d565b80601f01602080910402602001604051908101604052809291908181526020018280546111089061281d565b80156111555780601f1061112a57610100808354040283529160200191611155565b820191906000526020600020905b81548152906001019060200180831161113857829003601f168201915b50505050508152602001600882015481526020016009820180546111789061281d565b80601f01602080910402602001604051908101604052809291908181526020018280546111a49061281d565b80156111f15780601f106111c6576101008083540402835291602001916111f1565b820191906000526020600020905b8154815290600101906020018083116111d457829003601f168201915b50505050508152602001600a8201805461120a9061281d565b80601f01602080910402602001604051908101604052809291908181526020018280546112369061281d565b80156112835780601f1061125857610100808354040283529160200191611283565b820191906000526020600020905b81548152906001019060200180831161126657829003601f168201915b5050505050815250509050600060018261014001516040516112a59190612500565b90815260200160405180910390206040518060600160405290816000820180546112ce9061281d565b80601f01602080910402602001604051908101604052809291908181526020018280546112fa9061281d565b80156113475780601f1061131c57610100808354040283529160200191611347565b820191906000526020600020905b81548152906001019060200180831161132a57829003601f168201915b505050505081526020016001820180546113609061281d565b80601f016020809104026020016040519081016040528092919081815260200182805461138c9061281d565b80156113d95780601f106113ae576101008083540402835291602001916113d9565b820191906000526020600020905b8154815290600101906020018083116113bc57829003601f168201915b505050505081526020016002820180546113f29061281d565b80601f016020809104026020016040519081016040528092919081815260200182805461141e9061281d565b801561146b5780601f106114405761010080835404028352916020019161146b565b820191906000526020600020905b81548152906001019060200180831161144e57829003601f168201915b5050509190925250939550909350505050915091565b60408051610160810182528c815260208082018d90529181018b9052606081018a90526080810189905260a0810188905260c0810187905260e08101869052610100810185905261012081018490526101408101839052600080546001810182559080528151805192938493600b9093027f290decd9548b62a8d60345a988386fc84ba6bc95484008f6362f93160ef3e56301926115229284920190611fc1565b50602082810151805161153b9260018501920190611fc1565b5060408201518051611557916002840191602090910190611fc1565b5060608201518051611573916003840191602090910190611fc1565b506080820151805161158f916004840191602090910190611fc1565b5060a082015180516115ab916005840191602090910190611fc1565b5060c0820151600682015560e082015180516115d1916007840191602090910190611fc1565b50610100820151600882015561012082015180516115f9916009840191602090910190611fc1565b50610140820151805161161691600a840191602090910190611fc1565b5050600280549150600061162983612858565b91905055507f8a239966c990965d89cfe3af34696c229ceee50514af66291de391f6a94a71b08c8c8c8c8c8c8c8c8c8c8c6040516116719b9a99989796959493929190612650565b60405180910390a1505050505050505050505050565b80516020818301810180516001825292820191909301209152805481906116ad9061281d565b80601f01602080910402602001604051908101604052809291908181526020018280546116d99061281d565b80156117265780601f106116fb57610100808354040283529160200191611726565b820191906000526020600020905b81548152906001019060200180831161170957829003601f168201915b50505050509080600101805461173b9061281d565b80601f01602080910402602001604051908101604052809291908181526020018280546117679061281d565b80156117b45780601f10611789576101008083540402835291602001916117b4565b820191906000526020600020905b81548152906001019060200180831161179757829003601f168201915b5050505050908060020180546117c99061281d565b80601f01602080910402602001604051908101604052809291908181526020018280546117f59061281d565b80156118425780601f1061181757610100808354040283529160200191611842565b820191906000526020600020905b81548152906001019060200180831161182557829003601f168201915b5050505050905083565b60606000805b600254811015611901578360405160200161186d9190612500565b60405160208183030381529060405280519060200120600082815481106118a457634e487b7160e01b600052603260045260246000fd5b90600052602060002090600b0201600a016040516020016118c5919061251c565b6040516020818303038152906040528051906020012014156118ef57816118eb81612858565b9250505b806118f981612858565b915050611852565b5060008167ffffffffffffffff81111561192b57634e487b7160e01b600052604160045260246000fd5b60405190808252806020026020018201604052801561196457816020015b611951612045565b8152602001906001900390816119495790505b5090506000805b600254811015611fb757856040516020016119869190612500565b60405160208183030381529060405280519060200120600082815481106119bd57634e487b7160e01b600052603260045260246000fd5b90600052602060002090600b0201600a016040516020016119de919061251c565b604051602081830303815290604052805190602001201415611fa55760008181548110611a1b57634e487b7160e01b600052603260045260246000fd5b90600052602060002090600b020160405180610160016040529081600082018054611a459061281d565b80601f0160208091040260200160405190810160405280929190818152602001828054611a719061281d565b8015611abe5780601f10611a9357610100808354040283529160200191611abe565b820191906000526020600020905b815481529060010190602001808311611aa157829003601f168201915b50505050508152602001600182018054611ad79061281d565b80601f0160208091040260200160405190810160405280929190818152602001828054611b039061281d565b8015611b505780601f10611b2557610100808354040283529160200191611b50565b820191906000526020600020905b815481529060010190602001808311611b3357829003601f168201915b50505050508152602001600282018054611b699061281d565b80601f0160208091040260200160405190810160405280929190818152602001828054611b959061281d565b8015611be25780601f10611bb757610100808354040283529160200191611be2565b820191906000526020600020905b815481529060010190602001808311611bc557829003601f168201915b50505050508152602001600382018054611bfb9061281d565b80601f0160208091040260200160405190810160405280929190818152602001828054611c279061281d565b8015611c745780601f10611c4957610100808354040283529160200191611c74565b820191906000526020600020905b815481529060010190602001808311611c5757829003601f168201915b50505050508152602001600482018054611c8d9061281d565b80601f0160208091040260200160405190810160405280929190818152602001828054611cb99061281d565b8015611d065780601f10611cdb57610100808354040283529160200191611d06565b820191906000526020600020905b815481529060010190602001808311611ce957829003601f168201915b50505050508152602001600582018054611d1f9061281d565b80601f0160208091040260200160405190810160405280929190818152602001828054611d4b9061281d565b8015611d985780601f10611d6d57610100808354040283529160200191611d98565b820191906000526020600020905b815481529060010190602001808311611d7b57829003601f168201915b5050505050815260200160068201548152602001600782018054611dbb9061281d565b80601f0160208091040260200160405190810160405280929190818152602001828054611de79061281d565b8015611e345780601f10611e0957610100808354040283529160200191611e34565b820191906000526020600020905b815481529060010190602001808311611e1757829003601f168201915b5050505050815260200160088201548152602001600982018054611e579061281d565b80601f0160208091040260200160405190810160405280929190818152602001828054611e839061281d565b8015611ed05780601f10611ea557610100808354040283529160200191611ed0565b820191906000526020600020905b815481529060010190602001808311611eb357829003601f168201915b50505050508152602001600a82018054611ee99061281d565b80601f0160208091040260200160405190810160405280929190818152602001828054611f159061281d565b8015611f625780601f10611f3757610100808354040283529160200191611f62565b820191906000526020600020905b815481529060010190602001808311611f4557829003601f168201915b505050505081525050838381518110611f8b57634e487b7160e01b600052603260045260246000fd5b60200260200101819052508180611fa190612858565b9250505b80611faf81612858565b91505061196b565b5090949350505050565b828054611fcd9061281d565b90600052602060002090601f016020900481019282611fef5760008555612035565b82601f1061200857805160ff1916838001178555612035565b82800160010185558215612035579182015b8281111561203557825182559160200191906001019061201a565b506120419291506120c0565b5090565b60405180610160016040528060608152602001606081526020016060815260200160608152602001606081526020016060815260200160008152602001606081526020016000815260200160608152602001606081525090565b60405180606001604052806060815260200160608152602001606081525090565b5b8082111561204157600081556001016120c1565b600082601f8301126120e5578081fd5b813567ffffffffffffffff8082111561210057612100612889565b604051601f8301601f19168101602001828111828210171561212457612124612889565b60405282815284830160200186101561213b578384fd5b82602086016020830137918201602001929092529392505050565b600060208284031215612167578081fd5b813567ffffffffffffffff81111561217d578182fd5b612189848285016120d5565b949350505050565b600080600080608085870312156121a6578283fd5b843567ffffffffffffffff808211156121bd578485fd5b6121c9888389016120d5565b955060208701359150808211156121de578485fd5b6121ea888389016120d5565b945060408701359150808211156121ff578384fd5b61220b888389016120d5565b93506060870135915080821115612220578283fd5b5061222d878288016120d5565b91505092959194509250565b60008060008060008060008060008060006101608c8e03121561225a578687fd5b67ffffffffffffffff808d351115612270578788fd5b61227d8e8e358f016120d5565b9b508060208e0135111561228f578788fd5b61229f8e60208f01358f016120d5565b9a508060408e013511156122b1578788fd5b6122c18e60408f01358f016120d5565b99508060608e013511156122d3578788fd5b6122e38e60608f01358f016120d5565b98508060808e013511156122f5578788fd5b6123058e60808f01358f016120d5565b97508060a08e01351115612317578687fd5b6123278e60a08f01358f016120d5565b965060c08d013595508060e08e01351115612340578485fd5b6123508e60e08f01358f016120d5565b94506101008d01359350806101208e0135111561236b578283fd5b61237c8e6101208f01358f016120d5565b9250806101408e0135111561238f578182fd5b506123a18d6101408e01358e016120d5565b90509295989b509295989b9093969950565b6000602082840312156123c4578081fd5b5035919050565b600081518084526123e38160208601602086016127ed565b601f01601f19169290920160200192915050565b6000610160825181855261240d828601826123cb565b9150506020830151848203602086015261242782826123cb565b9150506040830151848203604086015261244182826123cb565b9150506060830151848203606086015261245b82826123cb565b9150506080830151848203608086015261247582826123cb565b91505060a083015184820360a086015261248f82826123cb565b91505060c083015160c085015260e083015184820360e08601526124b382826123cb565b91505061010080840151818601525061012080840151858303828701526124da83826123cb565b9250505061014080840151858303828701526124f683826123cb565b9695505050505050565b600082516125128184602087016127ed565b9190910192915050565b815460009081906002810460018083168061253857607f831692505b602080841082141561255857634e487b7160e01b87526022600452602487fd5b81801561256c576001811461257d576125a9565b60ff198616895284890196506125a9565b6125868a6127ca565b885b868110156125a15781548b820152908501908301612588565b505084890196505b509498975050505050505050565b6000602080830181845280855180835260408601915060408482028701019250838701855b8281101561260a57603f198886030184526125f88583516123f7565b945092850192908501906001016125dc565b5092979650505050505050565b60006060825261262a60608301866123cb565b828103602084015261263c81866123cb565b905082810360408401526124f681856123cb565b60006101608083526126648184018f6123cb565b90508281036020840152612678818e6123cb565b9050828103604084015261268c818d6123cb565b905082810360608401526126a0818c6123cb565b905082810360808401526126b4818b6123cb565b905082810360a08401526126c8818a6123cb565b90508760c084015282810360e08401526126e281886123cb565b9050856101008401528281036101208401526126fe81866123cb565b905082810361014084015261271381856123cb565b9e9d5050505050505050505050505050565b60208082526016908201527534b2103232903932b1b2ba309034b73b30b634b2379760511b604082015260600190565b60006040825261276860408301856123f7565b828103602084015283516060825261278360608301826123cb565b90506020850151828203602084015261279c82826123cb565b915050604085015182820360408401526127b682826123cb565b979650505050505050565b90815260200190565b60009081526020902090565b6000828210156127e8576127e8612873565b500390565b60005b838110156128085781810151838201526020016127f0565b83811115612817576000848401525b50505050565b60028104600182168061283157607f821691505b6020821081141561285257634e487b7160e01b600052602260045260246000fd5b50919050565b600060001982141561286c5761286c612873565b5060010190565b634e487b7160e01b600052601160045260246000fd5b634e487b7160e01b600052604160045260246000fdfea26469706673582212200408e99426e0c07d0e6ef1c168d51fe143bc19c14059c53fda71eb2e22c2a66064736f6c63430008000033",
  "immutableReferences": {},
  "source": "// SPDX-License-Identifier: MIT\r\npragma solidity ^0.8.0;\r\n\r\ncontract RecetaContract {\r\n    struct Receta {\r\n        string nombrePaciente;\r\n        string dniPaciente;\r\n        string numAfiliado;\r\n        string obraSocial;\r\n        string planObraSocial;\r\n        string medicamento1;\r\n        uint cantidad1;\r\n        string medicamento2;\r\n        uint cantidad2;\r\n        string diagnostico;\r\n        string dniMedico; // Almacenar solo el DNI del mdico\r\n    }\r\n\r\n    Receta[] public recetas;\r\n    mapping(string => Medico) public medicos; // Mapeo para almacenar datos de mdicos\r\n\r\n    struct Medico {\r\n        string nombreMedico;\r\n        string matriculaMedico;\r\n        string especialidadMedico;\r\n    }\r\n\r\n    uint public recetaCount;\r\n\r\n    event RecetaEmitida(\r\n        string nombrePaciente,\r\n        string dniPaciente,\r\n        string numAfiliado,\r\n        string obraSocial,\r\n        string planObraSocial,\r\n        string medicamento1,\r\n        uint cantidad1,\r\n        string medicamento2,\r\n        uint cantidad2,\r\n        string diagnostico,\r\n        string dniMedico\r\n    );\r\n\r\n    // Funcin para registrar mdicos\r\n    function registrarMedico(\r\n        string memory _dniMedico,\r\n        string memory _nombreMedico,\r\n        string memory _matriculaMedico,\r\n        string memory _especialidadMedico\r\n    ) public {\r\n        medicos[_dniMedico] = Medico({\r\n            nombreMedico: _nombreMedico,\r\n            matriculaMedico: _matriculaMedico,\r\n            especialidadMedico: _especialidadMedico\r\n        });\r\n    }\r\n\r\n    function emitirReceta(\r\n        string memory _nombrePaciente,\r\n        string memory _dniPaciente,\r\n        string memory _numAfiliado,\r\n        string memory _obraSocial,\r\n        string memory _planObraSocial,\r\n        string memory _medicamento1,\r\n        uint _cantidad1,\r\n        string memory _medicamento2,\r\n        uint _cantidad2,\r\n        string memory _diagnostico,\r\n        string memory _dniMedico // Solo el DNI del mdico\r\n    ) public {\r\n        Receta memory newReceta = Receta(\r\n            _nombrePaciente,\r\n            _dniPaciente,\r\n            _numAfiliado,\r\n            _obraSocial,\r\n            _planObraSocial,\r\n            _medicamento1,\r\n            _cantidad1,\r\n            _medicamento2,\r\n            _cantidad2,\r\n            _diagnostico,\r\n            _dniMedico\r\n        );\r\n        recetas.push(newReceta);\r\n        recetaCount++;\r\n\r\n        emit RecetaEmitida(\r\n            _nombrePaciente,\r\n            _dniPaciente,\r\n            _numAfiliado,\r\n            _obraSocial,\r\n            _planObraSocial,\r\n            _medicamento1,\r\n            _cantidad1,\r\n            _medicamento2,\r\n            _cantidad2,\r\n            _diagnostico,\r\n            _dniMedico\r\n        );\r\n    }\r\n\r\n    function getReceta(uint _recetaId) public view returns (Receta memory, Medico memory) {\r\n        require(_recetaId > 0 && _recetaId <= recetaCount, \"id de receta invalido.\");\r\n        Receta memory receta = recetas[_recetaId - 1];\r\n        Medico memory medico = medicos[receta.dniMedico];\r\n        return (receta, medico);\r\n    }\r\n\r\n    function getRecetas() public view returns (Receta[] memory) {\r\n        return recetas;\r\n    }\r\n\r\n\r\n        function getRecetasPorMedico(string memory _dniMedico) public view returns (Receta[] memory) {\r\n        // Contar cuntas recetas ha emitido el mdico\r\n        uint count = 0;\r\n        for (uint i = 0; i < recetaCount; i++) {\r\n            if (keccak256(abi.encodePacked(recetas[i].dniMedico)) == keccak256(abi.encodePacked(_dniMedico))) {\r\n                count++;\r\n            }\r\n        }\r\n        // Crear un array para almacenar las recetas del mdico\r\n        Receta[] memory recetasMedico = new Receta[](count);\r\n        uint index = 0;\r\n        for (uint i = 0; i < recetaCount; i++) {\r\n            if (keccak256(abi.encodePacked(recetas[i].dniMedico)) == keccak256(abi.encodePacked(_dniMedico))) {\r\n                recetasMedico[index] = recetas[i];\r\n                index++;\r\n            }\r\n        }\r\n\r\n        return recetasMedico;\r\n    }\r\n}\r\n",
  "sourcePath": "C:\\Users\\Usuario\\OneDrive\\Escritorio\\OneDrive\\2024\\Trabajo Final\\prescryption_v2\\prescryption_solidity\\contracts\\Prescription.sol",
  "compiler": {
    "name": "solc",
    "version": "0.8.0+commit.c7dfd78e.Emscripten.clang"
  },
  "schemaVersion": "3.4.16",
  "updatedAt": "2024-09-15T23:42:56.746Z",
  "networkType": "ethereum",
  "devdoc": {
    "kind": "dev",
    "methods": {},
    "version": 1
  },
  "userdoc": {
    "kind": "user",
    "methods": {},
    "version": 1
  }
}