{
  "contractName": "PrescriptionContract",
  "abi": [
    {
      "anonymous": false,
      "inputs": [
        {
          "indexed": false,
          "internalType": "uint256",
          "name": "id",
          "type": "uint256"
        },
        {
          "indexed": false,
          "internalType": "string",
          "name": "patientName",
          "type": "string"
        },
        {
          "indexed": false,
          "internalType": "string",
          "name": "patientNid",
          "type": "string"
        },
        {
          "components": [
            {
              "internalType": "string",
              "name": "med1",
              "type": "string"
            },
            {
              "internalType": "uint256",
              "name": "quantity1",
              "type": "uint256"
            },
            {
              "internalType": "string",
              "name": "med2",
              "type": "string"
            },
            {
              "internalType": "uint256",
              "name": "quantity2",
              "type": "uint256"
            },
            {
              "internalType": "string",
              "name": "diagnosis",
              "type": "string"
            }
          ],
          "indexed": false,
          "internalType": "struct PrescriptionContract.MedicationInfo",
          "name": "meds",
          "type": "tuple"
        },
        {
          "components": [
            {
              "internalType": "string",
              "name": "affiliateNum",
              "type": "string"
            },
            {
              "internalType": "string",
              "name": "insuranceName",
              "type": "string"
            },
            {
              "internalType": "string",
              "name": "insurancePlan",
              "type": "string"
            }
          ],
          "indexed": false,
          "internalType": "struct PrescriptionContract.InsuranceInfo",
          "name": "insurance",
          "type": "tuple"
        },
        {
          "indexed": false,
          "internalType": "string",
          "name": "doctorNid",
          "type": "string"
        },
        {
          "indexed": false,
          "internalType": "address",
          "name": "patientAddress",
          "type": "address"
        },
        {
          "indexed": false,
          "internalType": "address",
          "name": "pharmacyAddress",
          "type": "address"
        },
        {
          "indexed": false,
          "internalType": "uint256",
          "name": "issueDate",
          "type": "uint256"
        },
        {
          "indexed": false,
          "internalType": "uint256",
          "name": "expirationDate",
          "type": "uint256"
        }
      ],
      "name": "IssuedPrescription",
      "type": "event"
    },
    {
      "inputs": [
        {
          "internalType": "string",
          "name": "",
          "type": "string"
        }
      ],
      "name": "doctors",
      "outputs": [
        {
          "internalType": "string",
          "name": "doctorName",
          "type": "string"
        },
        {
          "internalType": "string",
          "name": "doctorLicense",
          "type": "string"
        },
        {
          "internalType": "string",
          "name": "doctorSpecialty",
          "type": "string"
        }
      ],
      "stateMutability": "view",
      "type": "function",
      "constant": true
    },
    {
      "inputs": [],
      "name": "prescriptionCount",
      "outputs": [
        {
          "internalType": "uint256",
          "name": "",
          "type": "uint256"
        }
      ],
      "stateMutability": "view",
      "type": "function",
      "constant": true
    },
    {
      "inputs": [
        {
          "internalType": "uint256",
          "name": "",
          "type": "uint256"
        }
      ],
      "name": "prescriptions",
      "outputs": [
        {
          "internalType": "uint256",
          "name": "id",
          "type": "uint256"
        },
        {
          "internalType": "string",
          "name": "patientName",
          "type": "string"
        },
        {
          "internalType": "string",
          "name": "patientNid",
          "type": "string"
        },
        {
          "components": [
            {
              "internalType": "string",
              "name": "med1",
              "type": "string"
            },
            {
              "internalType": "uint256",
              "name": "quantity1",
              "type": "uint256"
            },
            {
              "internalType": "string",
              "name": "med2",
              "type": "string"
            },
            {
              "internalType": "uint256",
              "name": "quantity2",
              "type": "uint256"
            },
            {
              "internalType": "string",
              "name": "diagnosis",
              "type": "string"
            }
          ],
          "internalType": "struct PrescriptionContract.MedicationInfo",
          "name": "meds",
          "type": "tuple"
        },
        {
          "components": [
            {
              "internalType": "string",
              "name": "affiliateNum",
              "type": "string"
            },
            {
              "internalType": "string",
              "name": "insuranceName",
              "type": "string"
            },
            {
              "internalType": "string",
              "name": "insurancePlan",
              "type": "string"
            }
          ],
          "internalType": "struct PrescriptionContract.InsuranceInfo",
          "name": "insurance",
          "type": "tuple"
        },
        {
          "internalType": "string",
          "name": "doctorNid",
          "type": "string"
        },
        {
          "internalType": "address",
          "name": "patientAddress",
          "type": "address"
        },
        {
          "internalType": "address",
          "name": "pharmacyAddress",
          "type": "address"
        },
        {
          "internalType": "uint256",
          "name": "issueDate",
          "type": "uint256"
        },
        {
          "internalType": "uint256",
          "name": "expirationDate",
          "type": "uint256"
        }
      ],
      "stateMutability": "view",
      "type": "function",
      "constant": true
    },
    {
      "inputs": [
        {
          "internalType": "string",
          "name": "_patientName",
          "type": "string"
        },
        {
          "internalType": "string",
          "name": "_patientNid",
          "type": "string"
        },
        {
          "components": [
            {
              "internalType": "string",
              "name": "med1",
              "type": "string"
            },
            {
              "internalType": "uint256",
              "name": "quantity1",
              "type": "uint256"
            },
            {
              "internalType": "string",
              "name": "med2",
              "type": "string"
            },
            {
              "internalType": "uint256",
              "name": "quantity2",
              "type": "uint256"
            },
            {
              "internalType": "string",
              "name": "diagnosis",
              "type": "string"
            }
          ],
          "internalType": "struct PrescriptionContract.MedicationInfo",
          "name": "_meds",
          "type": "tuple"
        },
        {
          "components": [
            {
              "internalType": "string",
              "name": "affiliateNum",
              "type": "string"
            },
            {
              "internalType": "string",
              "name": "insuranceName",
              "type": "string"
            },
            {
              "internalType": "string",
              "name": "insurancePlan",
              "type": "string"
            }
          ],
          "internalType": "struct PrescriptionContract.InsuranceInfo",
          "name": "_insurance",
          "type": "tuple"
        },
        {
          "internalType": "string",
          "name": "_doctorNid",
          "type": "string"
        },
        {
          "internalType": "address",
          "name": "_patientAddress",
          "type": "address"
        }
      ],
      "name": "issuePrescription",
      "outputs": [],
      "stateMutability": "nonpayable",
      "type": "function"
    },
    {
      "inputs": [
        {
          "internalType": "uint256",
          "name": "_prescriptionId",
          "type": "uint256"
        }
      ],
      "name": "getPrescription",
      "outputs": [
        {
          "components": [
            {
              "internalType": "uint256",
              "name": "id",
              "type": "uint256"
            },
            {
              "internalType": "string",
              "name": "patientName",
              "type": "string"
            },
            {
              "internalType": "string",
              "name": "patientNid",
              "type": "string"
            },
            {
              "components": [
                {
                  "internalType": "string",
                  "name": "med1",
                  "type": "string"
                },
                {
                  "internalType": "uint256",
                  "name": "quantity1",
                  "type": "uint256"
                },
                {
                  "internalType": "string",
                  "name": "med2",
                  "type": "string"
                },
                {
                  "internalType": "uint256",
                  "name": "quantity2",
                  "type": "uint256"
                },
                {
                  "internalType": "string",
                  "name": "diagnosis",
                  "type": "string"
                }
              ],
              "internalType": "struct PrescriptionContract.MedicationInfo",
              "name": "meds",
              "type": "tuple"
            },
            {
              "components": [
                {
                  "internalType": "string",
                  "name": "affiliateNum",
                  "type": "string"
                },
                {
                  "internalType": "string",
                  "name": "insuranceName",
                  "type": "string"
                },
                {
                  "internalType": "string",
                  "name": "insurancePlan",
                  "type": "string"
                }
              ],
              "internalType": "struct PrescriptionContract.InsuranceInfo",
              "name": "insurance",
              "type": "tuple"
            },
            {
              "internalType": "string",
              "name": "doctorNid",
              "type": "string"
            },
            {
              "internalType": "address",
              "name": "patientAddress",
              "type": "address"
            },
            {
              "internalType": "address",
              "name": "pharmacyAddress",
              "type": "address"
            },
            {
              "internalType": "uint256",
              "name": "issueDate",
              "type": "uint256"
            },
            {
              "internalType": "uint256",
              "name": "expirationDate",
              "type": "uint256"
            }
          ],
          "internalType": "struct PrescriptionContract.Prescription",
          "name": "",
          "type": "tuple"
        }
      ],
      "stateMutability": "view",
      "type": "function",
      "constant": true
    },
    {
      "inputs": [],
      "name": "getPrescriptions",
      "outputs": [
        {
          "components": [
            {
              "internalType": "uint256",
              "name": "id",
              "type": "uint256"
            },
            {
              "internalType": "string",
              "name": "patientName",
              "type": "string"
            },
            {
              "internalType": "string",
              "name": "patientNid",
              "type": "string"
            },
            {
              "components": [
                {
                  "internalType": "string",
                  "name": "med1",
                  "type": "string"
                },
                {
                  "internalType": "uint256",
                  "name": "quantity1",
                  "type": "uint256"
                },
                {
                  "internalType": "string",
                  "name": "med2",
                  "type": "string"
                },
                {
                  "internalType": "uint256",
                  "name": "quantity2",
                  "type": "uint256"
                },
                {
                  "internalType": "string",
                  "name": "diagnosis",
                  "type": "string"
                }
              ],
              "internalType": "struct PrescriptionContract.MedicationInfo",
              "name": "meds",
              "type": "tuple"
            },
            {
              "components": [
                {
                  "internalType": "string",
                  "name": "affiliateNum",
                  "type": "string"
                },
                {
                  "internalType": "string",
                  "name": "insuranceName",
                  "type": "string"
                },
                {
                  "internalType": "string",
                  "name": "insurancePlan",
                  "type": "string"
                }
              ],
              "internalType": "struct PrescriptionContract.InsuranceInfo",
              "name": "insurance",
              "type": "tuple"
            },
            {
              "internalType": "string",
              "name": "doctorNid",
              "type": "string"
            },
            {
              "internalType": "address",
              "name": "patientAddress",
              "type": "address"
            },
            {
              "internalType": "address",
              "name": "pharmacyAddress",
              "type": "address"
            },
            {
              "internalType": "uint256",
              "name": "issueDate",
              "type": "uint256"
            },
            {
              "internalType": "uint256",
              "name": "expirationDate",
              "type": "uint256"
            }
          ],
          "internalType": "struct PrescriptionContract.Prescription[]",
          "name": "",
          "type": "tuple[]"
        }
      ],
      "stateMutability": "view",
      "type": "function",
      "constant": true
    },
    {
      "inputs": [
        {
          "internalType": "string",
          "name": "_doctorNid",
          "type": "string"
        }
      ],
      "name": "getPresbyDoctorNid",
      "outputs": [
        {
          "components": [
            {
              "internalType": "uint256",
              "name": "id",
              "type": "uint256"
            },
            {
              "internalType": "string",
              "name": "patientName",
              "type": "string"
            },
            {
              "internalType": "string",
              "name": "patientNid",
              "type": "string"
            },
            {
              "components": [
                {
                  "internalType": "string",
                  "name": "med1",
                  "type": "string"
                },
                {
                  "internalType": "uint256",
                  "name": "quantity1",
                  "type": "uint256"
                },
                {
                  "internalType": "string",
                  "name": "med2",
                  "type": "string"
                },
                {
                  "internalType": "uint256",
                  "name": "quantity2",
                  "type": "uint256"
                },
                {
                  "internalType": "string",
                  "name": "diagnosis",
                  "type": "string"
                }
              ],
              "internalType": "struct PrescriptionContract.MedicationInfo",
              "name": "meds",
              "type": "tuple"
            },
            {
              "components": [
                {
                  "internalType": "string",
                  "name": "affiliateNum",
                  "type": "string"
                },
                {
                  "internalType": "string",
                  "name": "insuranceName",
                  "type": "string"
                },
                {
                  "internalType": "string",
                  "name": "insurancePlan",
                  "type": "string"
                }
              ],
              "internalType": "struct PrescriptionContract.InsuranceInfo",
              "name": "insurance",
              "type": "tuple"
            },
            {
              "internalType": "string",
              "name": "doctorNid",
              "type": "string"
            },
            {
              "internalType": "address",
              "name": "patientAddress",
              "type": "address"
            },
            {
              "internalType": "address",
              "name": "pharmacyAddress",
              "type": "address"
            },
            {
              "internalType": "uint256",
              "name": "issueDate",
              "type": "uint256"
            },
            {
              "internalType": "uint256",
              "name": "expirationDate",
              "type": "uint256"
            }
          ],
          "internalType": "struct PrescriptionContract.Prescription[]",
          "name": "",
          "type": "tuple[]"
        }
      ],
      "stateMutability": "view",
      "type": "function",
      "constant": true
    },
    {
      "inputs": [
        {
          "internalType": "address",
          "name": "_patientAddress",
          "type": "address"
        }
      ],
      "name": "getPresbyPatientAddress",
      "outputs": [
        {
          "components": [
            {
              "internalType": "uint256",
              "name": "id",
              "type": "uint256"
            },
            {
              "internalType": "string",
              "name": "patientName",
              "type": "string"
            },
            {
              "internalType": "string",
              "name": "patientNid",
              "type": "string"
            },
            {
              "components": [
                {
                  "internalType": "string",
                  "name": "med1",
                  "type": "string"
                },
                {
                  "internalType": "uint256",
                  "name": "quantity1",
                  "type": "uint256"
                },
                {
                  "internalType": "string",
                  "name": "med2",
                  "type": "string"
                },
                {
                  "internalType": "uint256",
                  "name": "quantity2",
                  "type": "uint256"
                },
                {
                  "internalType": "string",
                  "name": "diagnosis",
                  "type": "string"
                }
              ],
              "internalType": "struct PrescriptionContract.MedicationInfo",
              "name": "meds",
              "type": "tuple"
            },
            {
              "components": [
                {
                  "internalType": "string",
                  "name": "affiliateNum",
                  "type": "string"
                },
                {
                  "internalType": "string",
                  "name": "insuranceName",
                  "type": "string"
                },
                {
                  "internalType": "string",
                  "name": "insurancePlan",
                  "type": "string"
                }
              ],
              "internalType": "struct PrescriptionContract.InsuranceInfo",
              "name": "insurance",
              "type": "tuple"
            },
            {
              "internalType": "string",
              "name": "doctorNid",
              "type": "string"
            },
            {
              "internalType": "address",
              "name": "patientAddress",
              "type": "address"
            },
            {
              "internalType": "address",
              "name": "pharmacyAddress",
              "type": "address"
            },
            {
              "internalType": "uint256",
              "name": "issueDate",
              "type": "uint256"
            },
            {
              "internalType": "uint256",
              "name": "expirationDate",
              "type": "uint256"
            }
          ],
          "internalType": "struct PrescriptionContract.Prescription[]",
          "name": "",
          "type": "tuple[]"
        }
      ],
      "stateMutability": "view",
      "type": "function",
      "constant": true
    },
    {
      "inputs": [
        {
          "internalType": "uint256",
          "name": "_prescriptionId",
          "type": "uint256"
        },
        {
          "internalType": "address",
          "name": "_pharmacyAddress",
          "type": "address"
        }
      ],
      "name": "updatePrescription",
      "outputs": [],
      "stateMutability": "nonpayable",
      "type": "function"
    }
  ],
  "bytecode": "0x608060405234801561001057600080fd5b5061316d806100206000396000f3fe608060405234801561001057600080fd5b50600436106100935760003560e01c80637dfe927c116100665780637dfe927c14610121578063a1ea57c614610141578063a452e05914610154578063a6757e8a1461015c578063b65584981461016f57610093565b806305c35ce51461009857806331dfc91b146100c357806353a6dbf6146100ec5780636f16af1014610101575b600080fd5b6100ab6100a6366004612ad8565b610184565b6040516100ba93929190612efd565b60405180910390f35b6100d66100d1366004612bee565b610349565b6040516100ba9a99989796959493929190612f81565b6100ff6100fa366004612b13565b6108e4565b005b61011461010f366004612bee565b610b7a565b6040516100ba9190612f65565b61013461012f366004612ab7565b6111a3565b6040516100ba9190612e9d565b61013461014f366004612ad8565b611913565b6101346120e7565b6100ff61016a366004612c06565b6126eb565b61017761277e565b6040516100ba9190612f78565b80516020818301810180516001825292820191909301209152805481906101aa906130b5565b80601f01602080910402602001604051908101604052809291908181526020018280546101d6906130b5565b80156102235780601f106101f857610100808354040283529160200191610223565b820191906000526020600020905b81548152906001019060200180831161020657829003601f168201915b505050505090806001018054610238906130b5565b80601f0160208091040260200160405190810160405280929190818152602001828054610264906130b5565b80156102b15780601f10610286576101008083540402835291602001916102b1565b820191906000526020600020905b81548152906001019060200180831161029457829003601f168201915b5050505050908060020180546102c6906130b5565b80601f01602080910402602001604051908101604052809291908181526020018280546102f2906130b5565b801561033f5780601f106103145761010080835404028352916020019161033f565b820191906000526020600020905b81548152906001019060200180831161032257829003601f168201915b5050505050905083565b6000818154811061035957600080fd5b6000918252602090912060109091020180546001820180549193509061037e906130b5565b80601f01602080910402602001604051908101604052809291908181526020018280546103aa906130b5565b80156103f75780601f106103cc576101008083540402835291602001916103f7565b820191906000526020600020905b8154815290600101906020018083116103da57829003601f168201915b50505050509080600201805461040c906130b5565b80601f0160208091040260200160405190810160405280929190818152602001828054610438906130b5565b80156104855780601f1061045a57610100808354040283529160200191610485565b820191906000526020600020905b81548152906001019060200180831161046857829003601f168201915b505050505090806003016040518060a00160405290816000820180546104aa906130b5565b80601f01602080910402602001604051908101604052809291908181526020018280546104d6906130b5565b80156105235780601f106104f857610100808354040283529160200191610523565b820191906000526020600020905b81548152906001019060200180831161050657829003601f168201915b5050505050815260200160018201548152602001600282018054610546906130b5565b80601f0160208091040260200160405190810160405280929190818152602001828054610572906130b5565b80156105bf5780601f10610594576101008083540402835291602001916105bf565b820191906000526020600020905b8154815290600101906020018083116105a257829003601f168201915b50505050508152602001600382015481526020016004820180546105e2906130b5565b80601f016020809104026020016040519081016040528092919081815260200182805461060e906130b5565b801561065b5780601f106106305761010080835404028352916020019161065b565b820191906000526020600020905b81548152906001019060200180831161063e57829003601f168201915b5050505050815250509080600801604051806060016040529081600082018054610684906130b5565b80601f01602080910402602001604051908101604052809291908181526020018280546106b0906130b5565b80156106fd5780601f106106d2576101008083540402835291602001916106fd565b820191906000526020600020905b8154815290600101906020018083116106e057829003601f168201915b50505050508152602001600182018054610716906130b5565b80601f0160208091040260200160405190810160405280929190818152602001828054610742906130b5565b801561078f5780601f106107645761010080835404028352916020019161078f565b820191906000526020600020905b81548152906001019060200180831161077257829003601f168201915b505050505081526020016002820180546107a8906130b5565b80601f01602080910402602001604051908101604052809291908181526020018280546107d4906130b5565b80156108215780601f106107f657610100808354040283529160200191610821565b820191906000526020600020905b81548152906001019060200180831161080457829003601f168201915b5050505050815250509080600b01805461083a906130b5565b80601f0160208091040260200160405190810160405280929190818152602001828054610866906130b5565b80156108b35780601f10610888576101008083540402835291602001916108b3565b820191906000526020600020905b81548152906001019060200180831161089657829003601f168201915b50505050600c830154600d840154600e850154600f9095015493946001600160a01b0392831694929091169250908a565b600280549060006108f4836130f0565b90915550429050600061090a8262278d00613056565b6040805161014081018252600254815260208082018c81529282018b9052606082018a90526080820189905260a082018890526001600160a01b03871660c0830152600060e08301819052610100830187905261012083018590528054600181018255908052825160109091027f290decd9548b62a8d60345a988386fc84ba6bc95484008f6362f93160ef3e5638101918255935180519596509294859491936109da937f290decd9548b62a8d60345a988386fc84ba6bc95484008f6362f93160ef3e564909301920190612784565b50604082015180516109f6916002840191602090910190612784565b506060820151805180516003840191610a1491839160200190612784565b50602082810151600183015560408301518051610a379260028501920190612784565b506060820151600382015560808201518051610a5d916004840191602090910190612784565b5050506080820151805180516008840191610a7d91839160200190612784565b506020828101518051610a969260018501920190612784565b5060408201518051610ab2916002840191602090910190612784565b50505060a08201518051610ad091600b840191602090910190612784565b5060c0820151600c820180546001600160a01b039283166001600160a01b03199182161790915560e0840151600d84018054919093169116179055610100820151600e82015561012090910151600f909101556002546040517f16cf954dfbe58c950768dedbed98fe4fbf68afe781ffb19a950d922f2e3eb72591610b67918c908c908c908c908c908c906000908d908d90612f81565b60405180910390a1505050505050505050565b610b82612808565b600082118015610b9457506002548211155b610bb95760405162461bcd60e51b8152600401610bb090612f40565b60405180910390fd5b6000610bc660018461306e565b81548110610be457634e487b7160e01b600052603260045260246000fd5b90600052602060002090601002016040518061014001604052908160008201548152602001600182018054610c18906130b5565b80601f0160208091040260200160405190810160405280929190818152602001828054610c44906130b5565b8015610c915780601f10610c6657610100808354040283529160200191610c91565b820191906000526020600020905b815481529060010190602001808311610c7457829003601f168201915b50505050508152602001600282018054610caa906130b5565b80601f0160208091040260200160405190810160405280929190818152602001828054610cd6906130b5565b8015610d235780601f10610cf857610100808354040283529160200191610d23565b820191906000526020600020905b815481529060010190602001808311610d0657829003601f168201915b50505050508152602001600382016040518060a0016040529081600082018054610d4c906130b5565b80601f0160208091040260200160405190810160405280929190818152602001828054610d78906130b5565b8015610dc55780601f10610d9a57610100808354040283529160200191610dc5565b820191906000526020600020905b815481529060010190602001808311610da857829003601f168201915b5050505050815260200160018201548152602001600282018054610de8906130b5565b80601f0160208091040260200160405190810160405280929190818152602001828054610e14906130b5565b8015610e615780601f10610e3657610100808354040283529160200191610e61565b820191906000526020600020905b815481529060010190602001808311610e4457829003601f168201915b5050505050815260200160038201548152602001600482018054610e84906130b5565b80601f0160208091040260200160405190810160405280929190818152602001828054610eb0906130b5565b8015610efd5780601f10610ed257610100808354040283529160200191610efd565b820191906000526020600020905b815481529060010190602001808311610ee057829003601f168201915b505050505081525050815260200160088201604051806060016040529081600082018054610f2a906130b5565b80601f0160208091040260200160405190810160405280929190818152602001828054610f56906130b5565b8015610fa35780601f10610f7857610100808354040283529160200191610fa3565b820191906000526020600020905b815481529060010190602001808311610f8657829003601f168201915b50505050508152602001600182018054610fbc906130b5565b80601f0160208091040260200160405190810160405280929190818152602001828054610fe8906130b5565b80156110355780601f1061100a57610100808354040283529160200191611035565b820191906000526020600020905b81548152906001019060200180831161101857829003601f168201915b5050505050815260200160028201805461104e906130b5565b80601f016020809104026020016040519081016040528092919081815260200182805461107a906130b5565b80156110c75780601f1061109c576101008083540402835291602001916110c7565b820191906000526020600020905b8154815290600101906020018083116110aa57829003601f168201915b5050505050815250508152602001600b820180546110e4906130b5565b80601f0160208091040260200160405190810160405280929190818152602001828054611110906130b5565b801561115d5780601f106111325761010080835404028352916020019161115d565b820191906000526020600020905b81548152906001019060200180831161114057829003601f168201915b5050509183525050600c8201546001600160a01b039081166020830152600d830154166040820152600e8201546060820152600f9091015460809091015290505b919050565b60606000805b60025481101561122157836001600160a01b0316600082815481106111de57634e487b7160e01b600052603260045260246000fd5b60009182526020909120600c60109092020101546001600160a01b0316141561120f578161120b816130f0565b9250505b80611219816130f0565b9150506111a9565b5060008167ffffffffffffffff81111561124b57634e487b7160e01b600052604160045260246000fd5b60405190808252806020026020018201604052801561128457816020015b611271612808565b8152602001906001900390816112695790505b5090506000805b60025481101561190957856001600160a01b0316600082815481106112c057634e487b7160e01b600052603260045260246000fd5b60009182526020909120600c60109092020101546001600160a01b031614156118f7576000818154811061130457634e487b7160e01b600052603260045260246000fd5b90600052602060002090601002016040518061014001604052908160008201548152602001600182018054611338906130b5565b80601f0160208091040260200160405190810160405280929190818152602001828054611364906130b5565b80156113b15780601f10611386576101008083540402835291602001916113b1565b820191906000526020600020905b81548152906001019060200180831161139457829003601f168201915b505050505081526020016002820180546113ca906130b5565b80601f01602080910402602001604051908101604052809291908181526020018280546113f6906130b5565b80156114435780601f1061141857610100808354040283529160200191611443565b820191906000526020600020905b81548152906001019060200180831161142657829003601f168201915b50505050508152602001600382016040518060a001604052908160008201805461146c906130b5565b80601f0160208091040260200160405190810160405280929190818152602001828054611498906130b5565b80156114e55780601f106114ba576101008083540402835291602001916114e5565b820191906000526020600020905b8154815290600101906020018083116114c857829003601f168201915b5050505050815260200160018201548152602001600282018054611508906130b5565b80601f0160208091040260200160405190810160405280929190818152602001828054611534906130b5565b80156115815780601f1061155657610100808354040283529160200191611581565b820191906000526020600020905b81548152906001019060200180831161156457829003601f168201915b50505050508152602001600382015481526020016004820180546115a4906130b5565b80601f01602080910402602001604051908101604052809291908181526020018280546115d0906130b5565b801561161d5780601f106115f25761010080835404028352916020019161161d565b820191906000526020600020905b81548152906001019060200180831161160057829003601f168201915b50505050508152505081526020016008820160405180606001604052908160008201805461164a906130b5565b80601f0160208091040260200160405190810160405280929190818152602001828054611676906130b5565b80156116c35780601f10611698576101008083540402835291602001916116c3565b820191906000526020600020905b8154815290600101906020018083116116a657829003601f168201915b505050505081526020016001820180546116dc906130b5565b80601f0160208091040260200160405190810160405280929190818152602001828054611708906130b5565b80156117555780601f1061172a57610100808354040283529160200191611755565b820191906000526020600020905b81548152906001019060200180831161173857829003601f168201915b5050505050815260200160028201805461176e906130b5565b80601f016020809104026020016040519081016040528092919081815260200182805461179a906130b5565b80156117e75780601f106117bc576101008083540402835291602001916117e7565b820191906000526020600020905b8154815290600101906020018083116117ca57829003601f168201915b5050505050815250508152602001600b82018054611804906130b5565b80601f0160208091040260200160405190810160405280929190818152602001828054611830906130b5565b801561187d5780601f106118525761010080835404028352916020019161187d565b820191906000526020600020905b81548152906001019060200180831161186057829003601f168201915b5050509183525050600c8201546001600160a01b039081166020830152600d830154166040820152600e8201546060820152600f9091015460809091015283518490849081106118dd57634e487b7160e01b600052603260045260246000fd5b602002602001018190525081806118f3906130f0565b9250505b80611901816130f0565b91505061128b565b5090949350505050565b60606000805b6002548110156119c857836040516020016119349190612de6565b604051602081830303815290604052805190602001206000828154811061196b57634e487b7160e01b600052603260045260246000fd5b9060005260206000209060100201600b0160405160200161198c9190612e02565b6040516020818303038152906040528051906020012014156119b657816119b2816130f0565b9250505b806119c0816130f0565b915050611919565b5060008167ffffffffffffffff8111156119f257634e487b7160e01b600052604160045260246000fd5b604051908082528060200260200182016040528015611a2b57816020015b611a18612808565b815260200190600190039081611a105790505b5090506000805b6002548110156119095785604051602001611a4d9190612de6565b6040516020818303038152906040528051906020012060008281548110611a8457634e487b7160e01b600052603260045260246000fd5b9060005260206000209060100201600b01604051602001611aa59190612e02565b6040516020818303038152906040528051906020012014156120d55760008181548110611ae257634e487b7160e01b600052603260045260246000fd5b90600052602060002090601002016040518061014001604052908160008201548152602001600182018054611b16906130b5565b80601f0160208091040260200160405190810160405280929190818152602001828054611b42906130b5565b8015611b8f5780601f10611b6457610100808354040283529160200191611b8f565b820191906000526020600020905b815481529060010190602001808311611b7257829003601f168201915b50505050508152602001600282018054611ba8906130b5565b80601f0160208091040260200160405190810160405280929190818152602001828054611bd4906130b5565b8015611c215780601f10611bf657610100808354040283529160200191611c21565b820191906000526020600020905b815481529060010190602001808311611c0457829003601f168201915b50505050508152602001600382016040518060a0016040529081600082018054611c4a906130b5565b80601f0160208091040260200160405190810160405280929190818152602001828054611c76906130b5565b8015611cc35780601f10611c9857610100808354040283529160200191611cc3565b820191906000526020600020905b815481529060010190602001808311611ca657829003601f168201915b5050505050815260200160018201548152602001600282018054611ce6906130b5565b80601f0160208091040260200160405190810160405280929190818152602001828054611d12906130b5565b8015611d5f5780601f10611d3457610100808354040283529160200191611d5f565b820191906000526020600020905b815481529060010190602001808311611d4257829003601f168201915b5050505050815260200160038201548152602001600482018054611d82906130b5565b80601f0160208091040260200160405190810160405280929190818152602001828054611dae906130b5565b8015611dfb5780601f10611dd057610100808354040283529160200191611dfb565b820191906000526020600020905b815481529060010190602001808311611dde57829003601f168201915b505050505081525050815260200160088201604051806060016040529081600082018054611e28906130b5565b80601f0160208091040260200160405190810160405280929190818152602001828054611e54906130b5565b8015611ea15780601f10611e7657610100808354040283529160200191611ea1565b820191906000526020600020905b815481529060010190602001808311611e8457829003601f168201915b50505050508152602001600182018054611eba906130b5565b80601f0160208091040260200160405190810160405280929190818152602001828054611ee6906130b5565b8015611f335780601f10611f0857610100808354040283529160200191611f33565b820191906000526020600020905b815481529060010190602001808311611f1657829003601f168201915b50505050508152602001600282018054611f4c906130b5565b80601f0160208091040260200160405190810160405280929190818152602001828054611f78906130b5565b8015611fc55780601f10611f9a57610100808354040283529160200191611fc5565b820191906000526020600020905b815481529060010190602001808311611fa857829003601f168201915b5050505050815250508152602001600b82018054611fe2906130b5565b80601f016020809104026020016040519081016040528092919081815260200182805461200e906130b5565b801561205b5780601f106120305761010080835404028352916020019161205b565b820191906000526020600020905b81548152906001019060200180831161203e57829003601f168201915b5050509183525050600c8201546001600160a01b039081166020830152600d830154166040820152600e8201546060820152600f9091015460809091015283518490849081106120bb57634e487b7160e01b600052603260045260246000fd5b602002602001018190525081806120d1906130f0565b9250505b806120df816130f0565b915050611a32565b60606000805480602002602001604051908101604052809291908181526020016000905b828210156126e257838290600052602060002090601002016040518061014001604052908160008201548152602001600182018054612149906130b5565b80601f0160208091040260200160405190810160405280929190818152602001828054612175906130b5565b80156121c25780601f10612197576101008083540402835291602001916121c2565b820191906000526020600020905b8154815290600101906020018083116121a557829003601f168201915b505050505081526020016002820180546121db906130b5565b80601f0160208091040260200160405190810160405280929190818152602001828054612207906130b5565b80156122545780601f1061222957610100808354040283529160200191612254565b820191906000526020600020905b81548152906001019060200180831161223757829003601f168201915b50505050508152602001600382016040518060a001604052908160008201805461227d906130b5565b80601f01602080910402602001604051908101604052809291908181526020018280546122a9906130b5565b80156122f65780601f106122cb576101008083540402835291602001916122f6565b820191906000526020600020905b8154815290600101906020018083116122d957829003601f168201915b5050505050815260200160018201548152602001600282018054612319906130b5565b80601f0160208091040260200160405190810160405280929190818152602001828054612345906130b5565b80156123925780601f1061236757610100808354040283529160200191612392565b820191906000526020600020905b81548152906001019060200180831161237557829003601f168201915b50505050508152602001600382015481526020016004820180546123b5906130b5565b80601f01602080910402602001604051908101604052809291908181526020018280546123e1906130b5565b801561242e5780601f106124035761010080835404028352916020019161242e565b820191906000526020600020905b81548152906001019060200180831161241157829003601f168201915b50505050508152505081526020016008820160405180606001604052908160008201805461245b906130b5565b80601f0160208091040260200160405190810160405280929190818152602001828054612487906130b5565b80156124d45780601f106124a9576101008083540402835291602001916124d4565b820191906000526020600020905b8154815290600101906020018083116124b757829003601f168201915b505050505081526020016001820180546124ed906130b5565b80601f0160208091040260200160405190810160405280929190818152602001828054612519906130b5565b80156125665780601f1061253b57610100808354040283529160200191612566565b820191906000526020600020905b81548152906001019060200180831161254957829003601f168201915b5050505050815260200160028201805461257f906130b5565b80601f01602080910402602001604051908101604052809291908181526020018280546125ab906130b5565b80156125f85780601f106125cd576101008083540402835291602001916125f8565b820191906000526020600020905b8154815290600101906020018083116125db57829003601f168201915b5050505050815250508152602001600b82018054612615906130b5565b80601f0160208091040260200160405190810160405280929190818152602001828054612641906130b5565b801561268e5780601f106126635761010080835404028352916020019161268e565b820191906000526020600020905b81548152906001019060200180831161267157829003601f168201915b5050509183525050600c8201546001600160a01b03908116602080840191909152600d8401549091166040830152600e8301546060830152600f90920154608090910152908252600192909201910161210b565b50505050905090565b6000821180156126fd57506002548211155b6127195760405162461bcd60e51b8152600401610bb090612f40565b80600061272760018561306e565b8154811061274557634e487b7160e01b600052603260045260246000fd5b9060005260206000209060100201600d0160006101000a8154816001600160a01b0302191690836001600160a01b031602179055505050565b60025481565b828054612790906130b5565b90600052602060002090601f0160209004810192826127b257600085556127f8565b82601f106127cb57805160ff19168380011785556127f8565b828001600101855582156127f8579182015b828111156127f85782518255916020019190600101906127dd565b50612804929150612879565b5090565b60405180610140016040528060008152602001606081526020016060815260200161283161288e565b815260200161283e6128bd565b81526020016060815260200160006001600160a01b0316815260200160006001600160a01b0316815260200160008152602001600081525090565b5b80821115612804576000815560010161287a565b6040518060a0016040528060608152602001600081526020016060815260200160008152602001606081525090565b60405180606001604052806060815260200160608152602001606081525090565b80356001600160a01b038116811461119e57600080fd5b600082601f830112612905578081fd5b813567ffffffffffffffff81111561291f5761291f613121565b612932601f8201601f1916602001613020565b818152846020838601011115612946578283fd5b816020850160208301379081016020019190915292915050565b600060608284031215612971578081fd5b6040516060810167ffffffffffffffff828210818311171561299557612995613121565b8160405282935084359150808211156129ad57600080fd5b6129b9868387016128f5565b835260208501359150808211156129cf57600080fd5b6129db868387016128f5565b602084015260408501359150808211156129f457600080fd5b50612a01858286016128f5565b6040830152505092915050565b600060a08284031215612a1f578081fd5b612a2960a0613020565b9050813567ffffffffffffffff80821115612a4357600080fd5b612a4f858386016128f5565b8352602084013560208401526040840135915080821115612a6f57600080fd5b612a7b858386016128f5565b6040840152606084013560608401526080840135915080821115612a9e57600080fd5b50612aab848285016128f5565b60808301525092915050565b600060208284031215612ac8578081fd5b612ad1826128de565b9392505050565b600060208284031215612ae9578081fd5b813567ffffffffffffffff811115612aff578182fd5b612b0b848285016128f5565b949350505050565b60008060008060008060c08789031215612b2b578182fd5b863567ffffffffffffffff80821115612b42578384fd5b612b4e8a838b016128f5565b97506020890135915080821115612b63578384fd5b612b6f8a838b016128f5565b96506040890135915080821115612b84578384fd5b612b908a838b01612a0e565b95506060890135915080821115612ba5578384fd5b612bb18a838b01612960565b94506080890135915080821115612bc6578384fd5b50612bd389828a016128f5565b925050612be260a088016128de565b90509295509295509295565b600060208284031215612bff578081fd5b5035919050565b60008060408385031215612c18578182fd5b82359150612c28602084016128de565b90509250929050565b6001600160a01b03169052565b60008151808452612c56816020860160208601613085565b601f01601f19169290920160200192915050565b6000815160608452612c7f6060850182612c3e565b905060208301518482036020860152612c988282612c3e565b91505060408301518482036040860152612cb28282612c3e565b95945050505050565b6000815160a08452612cd060a0850182612c3e565b90506020830151602085015260408301518482036040860152612cf38282612c3e565b9150506060830151606085015260808301518482036080860152612cb28282612c3e565b6000610140825184526020830151816020860152612d3782860182612c3e565b91505060408301518482036040860152612d518282612c3e565b91505060608301518482036060860152612d6b8282612cbb565b91505060808301518482036080860152612d858282612c6a565b91505060a083015184820360a0860152612d9f8282612c3e565b91505060c0830151612db460c0860182612c31565b5060e0830151612dc760e0860182612c31565b5061010083810151908501526101209283015192909301919091525090565b60008251612df8818460208701613085565b9190910192915050565b8154600090819060028104600180831680612e1e57607f831692505b6020808410821415612e3e57634e487b7160e01b87526022600452602487fd5b818015612e525760018114612e6357612e8f565b60ff19861689528489019650612e8f565b612e6c8a61304a565b885b86811015612e875781548b820152908501908301612e6e565b505084890196505b509498975050505050505050565b6000602080830181845280855180835260408601915060408482028701019250838701855b82811015612ef057603f19888603018452612ede858351612d17565b94509285019290850190600101612ec2565b5092979650505050505050565b600060608252612f106060830186612c3e565b8281036020840152612f228186612c3e565b90508281036040840152612f368185612c3e565b9695505050505050565b6020808252600b908201526a24b73b30b634b21024a21760a91b604082015260600190565b600060208252612ad16020830184612d17565b90815260200190565b60006101408c8352806020840152612f9b8184018d612c3e565b90508281036040840152612faf818c612c3e565b90508281036060840152612fc3818b612cbb565b90508281036080840152612fd7818a612c6a565b905082810360a0840152612feb8189612c3e565b6001600160a01b0397881660c08501529590961660e08301525061010081019290925261012090910152979650505050505050565b60405181810167ffffffffffffffff8111828210171561304257613042613121565b604052919050565b60009081526020902090565b600082198211156130695761306961310b565b500190565b6000828210156130805761308061310b565b500390565b60005b838110156130a0578181015183820152602001613088565b838111156130af576000848401525b50505050565b6002810460018216806130c957607f821691505b602082108114156130ea57634e487b7160e01b600052602260045260246000fd5b50919050565b60006000198214156131045761310461310b565b5060010190565b634e487b7160e01b600052601160045260246000fd5b634e487b7160e01b600052604160045260246000fdfea26469706673582212203e034e228e956a24be3120451940d5526dc95c65a65edfde2467bf8c3436036864736f6c63430008000033",
  "immutableReferences": {},
  "source": "// SPDX-License-Identifier: MIT\r\npragma solidity ^0.8.0;\r\n\r\ncontract PrescriptionContract {\r\n    struct MedicationInfo {\r\n        string med1;\r\n        uint quantity1;\r\n        string med2;\r\n        uint quantity2;\r\n        string diagnosis;\r\n    }\r\n\r\n    struct InsuranceInfo {\r\n        string affiliateNum;\r\n        string insuranceName;\r\n        string insurancePlan;\r\n    }\r\n\r\n    struct Prescription {\r\n        uint id;  // ID nico para cada receta\r\n        string patientName;\r\n        string patientNid;\r\n        MedicationInfo meds;\r\n        InsuranceInfo insurance;\r\n        string doctorNid;\r\n        address patientAddress;\r\n        address pharmacyAddress; // Agregado para almacenar la direccin de la farmacia\r\n        uint issueDate;\r\n        uint expirationDate;\r\n    }\r\n\r\n    Prescription[] public prescriptions;\r\n    mapping(string => Doctor) public doctors;\r\n\r\n    struct Doctor {\r\n        string doctorName;\r\n        string doctorLicense;\r\n        string doctorSpecialty;\r\n    }\r\n\r\n    uint public prescriptionCount;\r\n\r\n    event IssuedPrescription(\r\n        uint id,  // ID agregado al evento\r\n        string patientName,\r\n        string patientNid,\r\n        MedicationInfo meds,\r\n        InsuranceInfo insurance,\r\n        string doctorNid,\r\n        address patientAddress,\r\n        address pharmacyAddress, // Agregado al evento\r\n        uint issueDate,\r\n        uint expirationDate\r\n    );\r\n\r\n    // Emitir receta\r\n    function issuePrescription(\r\n        string memory _patientName,\r\n        string memory _patientNid,\r\n        MedicationInfo memory _meds,\r\n        InsuranceInfo memory _insurance,\r\n        string memory _doctorNid,\r\n        address _patientAddress\r\n    ) public {\r\n        prescriptionCount++;  // Incrementar el contador para el nuevo ID\r\n\r\n        uint issueDate = block.timestamp;\r\n        uint expirationDate = issueDate + 30 days;\r\n\r\n        Prescription memory newPrescription = Prescription({\r\n            id: prescriptionCount,  // Asignar el ID\r\n            patientName: _patientName,\r\n            patientNid: _patientNid,\r\n            meds: _meds,\r\n            insurance: _insurance,\r\n            doctorNid: _doctorNid,\r\n            patientAddress: _patientAddress,\r\n            pharmacyAddress: address(0), // Inicialmente vaco\r\n            issueDate: issueDate,\r\n            expirationDate: expirationDate\r\n        });\r\n\r\n        prescriptions.push(newPrescription);\r\n\r\n        emit IssuedPrescription(\r\n            prescriptionCount,  // Emitir el ID\r\n            _patientName,\r\n            _patientNid,\r\n            _meds,\r\n            _insurance,\r\n            _doctorNid,\r\n            _patientAddress,\r\n            address(0), // Inicialmente vaco\r\n            issueDate,\r\n            expirationDate\r\n        );\r\n    }\r\n\r\n    // Obtener una receta especfica por ID\r\n    function getPrescription(uint _prescriptionId) public view returns (Prescription memory) {\r\n        require(_prescriptionId > 0 && _prescriptionId <= prescriptionCount, \"Invalid ID.\");\r\n        return prescriptions[_prescriptionId - 1];\r\n    }\r\n\r\n    // Obtener todas las recetas\r\n    function getPrescriptions() public view returns (Prescription[] memory) {\r\n        return prescriptions;\r\n    }\r\n\r\n    // Obtener recetas por NID de mdico\r\n    function getPresbyDoctorNid(string memory _doctorNid) public view returns (Prescription[] memory) {\r\n        uint count = 0;\r\n\r\n        // Primer bucle para contar cuntas recetas pertenecen al mdico\r\n        for (uint i = 0; i < prescriptionCount; i++) {\r\n            if (keccak256(abi.encodePacked(prescriptions[i].doctorNid)) == keccak256(abi.encodePacked(_doctorNid))) {\r\n                count++;\r\n            }\r\n        }\r\n\r\n        // Crear un array para almacenar las recetas del mdico\r\n        Prescription[] memory doctorPrescriptions = new Prescription[](count);\r\n        uint index = 0;\r\n\r\n        // Segundo bucle para almacenar las recetas correspondientes\r\n        for (uint i = 0; i < prescriptionCount; i++) {\r\n            if (keccak256(abi.encodePacked(prescriptions[i].doctorNid)) == keccak256(abi.encodePacked(_doctorNid))) {\r\n                doctorPrescriptions[index] = prescriptions[i];\r\n                index++;\r\n            }\r\n        }\r\n\r\n        return doctorPrescriptions;\r\n    }\r\n\r\n    // Obtener recetas por direccin del paciente\r\n    function getPresbyPatientAddress(address _patientAddress) public view returns (Prescription[] memory) {\r\n        uint count = 0;\r\n\r\n        // Primer bucle para contar cuntas recetas pertenecen al paciente\r\n        for (uint i = 0; i < prescriptionCount; i++) {\r\n            if (prescriptions[i].patientAddress == _patientAddress) {\r\n                count++;\r\n            }\r\n        }\r\n\r\n        // Crear un array para almacenar las recetas del paciente\r\n        Prescription[] memory patientPrescriptions = new Prescription[](count);\r\n        uint index = 0;\r\n\r\n        // Segundo bucle para almacenar las recetas correspondientes\r\n        for (uint i = 0; i < prescriptionCount; i++) {\r\n            if (prescriptions[i].patientAddress == _patientAddress) {\r\n                patientPrescriptions[index] = prescriptions[i];\r\n                index++;\r\n            }\r\n        }\r\n\r\n        return patientPrescriptions;\r\n    }\r\n\r\n    // Nueva funcin para actualizar la direccin de la farmacia en la receta\r\n    function updatePrescription(uint _prescriptionId, address _pharmacyAddress) public {\r\n        require(_prescriptionId > 0 && _prescriptionId <= prescriptionCount, \"Invalid ID.\");\r\n        prescriptions[_prescriptionId - 1].pharmacyAddress = _pharmacyAddress; // Actualizar la direccin de la farmacia\r\n    }\r\n}\r\n",
  "sourcePath": "C:\\Users\\Usuario\\OneDrive\\Escritorio\\OneDrive\\2024\\Trabajo Final\\prescryption_v2\\prescryption_solidity\\contracts\\Prescription.sol",
  "compiler": {
    "name": "solc",
    "version": "0.8.0+commit.c7dfd78e.Emscripten.clang"
  },
  "schemaVersion": "3.4.16",
  "updatedAt": "2024-10-09T23:39:27.954Z",
  "networkType": "ethereum",
  "devdoc": {
    "kind": "dev",
    "methods": {},
    "version": 1
  },
  "userdoc": {
    "kind": "user",
    "methods": {},
    "version": 1
  }
}