{
  "contractName": "PrescriptionContract",
  "abi": [
    {
      "anonymous": false,
      "inputs": [
        {
          "indexed": false,
          "internalType": "uint256",
          "name": "id",
          "type": "uint256"
        },
        {
          "indexed": false,
          "internalType": "string",
          "name": "patientName",
          "type": "string"
        },
        {
          "indexed": false,
          "internalType": "string",
          "name": "patientNid",
          "type": "string"
        },
        {
          "components": [
            {
              "internalType": "string",
              "name": "med1",
              "type": "string"
            },
            {
              "internalType": "uint256",
              "name": "quantity1",
              "type": "uint256"
            },
            {
              "internalType": "string",
              "name": "med2",
              "type": "string"
            },
            {
              "internalType": "uint256",
              "name": "quantity2",
              "type": "uint256"
            },
            {
              "internalType": "string",
              "name": "diagnosis",
              "type": "string"
            }
          ],
          "indexed": false,
          "internalType": "struct PrescriptionContract.MedicationInfo",
          "name": "meds",
          "type": "tuple"
        },
        {
          "components": [
            {
              "internalType": "string",
              "name": "affiliateNum",
              "type": "string"
            },
            {
              "internalType": "string",
              "name": "insuranceName",
              "type": "string"
            },
            {
              "internalType": "string",
              "name": "insurancePlan",
              "type": "string"
            }
          ],
          "indexed": false,
          "internalType": "struct PrescriptionContract.InsuranceInfo",
          "name": "insurance",
          "type": "tuple"
        },
        {
          "indexed": false,
          "internalType": "string",
          "name": "doctorNid",
          "type": "string"
        },
        {
          "indexed": false,
          "internalType": "address",
          "name": "patientAddress",
          "type": "address"
        },
        {
          "indexed": false,
          "internalType": "address",
          "name": "pharmacyAddress",
          "type": "address"
        },
        {
          "indexed": false,
          "internalType": "uint256",
          "name": "issueDate",
          "type": "uint256"
        },
        {
          "indexed": false,
          "internalType": "uint256",
          "name": "expirationDate",
          "type": "uint256"
        }
      ],
      "name": "IssuedPrescription",
      "type": "event"
    },
    {
      "inputs": [
        {
          "internalType": "string",
          "name": "",
          "type": "string"
        }
      ],
      "name": "doctors",
      "outputs": [
        {
          "internalType": "string",
          "name": "doctorName",
          "type": "string"
        },
        {
          "internalType": "string",
          "name": "doctorLicense",
          "type": "string"
        },
        {
          "internalType": "string",
          "name": "doctorSpecialty",
          "type": "string"
        }
      ],
      "stateMutability": "view",
      "type": "function",
      "constant": true
    },
    {
      "inputs": [],
      "name": "prescriptionCount",
      "outputs": [
        {
          "internalType": "uint256",
          "name": "",
          "type": "uint256"
        }
      ],
      "stateMutability": "view",
      "type": "function",
      "constant": true
    },
    {
      "inputs": [
        {
          "internalType": "uint256",
          "name": "",
          "type": "uint256"
        }
      ],
      "name": "prescriptions",
      "outputs": [
        {
          "internalType": "uint256",
          "name": "id",
          "type": "uint256"
        },
        {
          "internalType": "string",
          "name": "patientName",
          "type": "string"
        },
        {
          "internalType": "string",
          "name": "patientNid",
          "type": "string"
        },
        {
          "components": [
            {
              "internalType": "string",
              "name": "med1",
              "type": "string"
            },
            {
              "internalType": "uint256",
              "name": "quantity1",
              "type": "uint256"
            },
            {
              "internalType": "string",
              "name": "med2",
              "type": "string"
            },
            {
              "internalType": "uint256",
              "name": "quantity2",
              "type": "uint256"
            },
            {
              "internalType": "string",
              "name": "diagnosis",
              "type": "string"
            }
          ],
          "internalType": "struct PrescriptionContract.MedicationInfo",
          "name": "meds",
          "type": "tuple"
        },
        {
          "components": [
            {
              "internalType": "string",
              "name": "affiliateNum",
              "type": "string"
            },
            {
              "internalType": "string",
              "name": "insuranceName",
              "type": "string"
            },
            {
              "internalType": "string",
              "name": "insurancePlan",
              "type": "string"
            }
          ],
          "internalType": "struct PrescriptionContract.InsuranceInfo",
          "name": "insurance",
          "type": "tuple"
        },
        {
          "internalType": "string",
          "name": "doctorNid",
          "type": "string"
        },
        {
          "internalType": "address",
          "name": "patientAddress",
          "type": "address"
        },
        {
          "internalType": "address",
          "name": "pharmacyAddress",
          "type": "address"
        },
        {
          "internalType": "uint256",
          "name": "issueDate",
          "type": "uint256"
        },
        {
          "internalType": "uint256",
          "name": "expirationDate",
          "type": "uint256"
        }
      ],
      "stateMutability": "view",
      "type": "function",
      "constant": true
    },
    {
      "inputs": [
        {
          "internalType": "string",
          "name": "_patientName",
          "type": "string"
        },
        {
          "internalType": "string",
          "name": "_patientNid",
          "type": "string"
        },
        {
          "components": [
            {
              "internalType": "string",
              "name": "med1",
              "type": "string"
            },
            {
              "internalType": "uint256",
              "name": "quantity1",
              "type": "uint256"
            },
            {
              "internalType": "string",
              "name": "med2",
              "type": "string"
            },
            {
              "internalType": "uint256",
              "name": "quantity2",
              "type": "uint256"
            },
            {
              "internalType": "string",
              "name": "diagnosis",
              "type": "string"
            }
          ],
          "internalType": "struct PrescriptionContract.MedicationInfo",
          "name": "_meds",
          "type": "tuple"
        },
        {
          "components": [
            {
              "internalType": "string",
              "name": "affiliateNum",
              "type": "string"
            },
            {
              "internalType": "string",
              "name": "insuranceName",
              "type": "string"
            },
            {
              "internalType": "string",
              "name": "insurancePlan",
              "type": "string"
            }
          ],
          "internalType": "struct PrescriptionContract.InsuranceInfo",
          "name": "_insurance",
          "type": "tuple"
        },
        {
          "internalType": "string",
          "name": "_doctorNid",
          "type": "string"
        },
        {
          "internalType": "address",
          "name": "_patientAddress",
          "type": "address"
        },
        {
          "internalType": "uint256",
          "name": "_issueDate",
          "type": "uint256"
        }
      ],
      "name": "issuePrescription",
      "outputs": [],
      "stateMutability": "nonpayable",
      "type": "function"
    },
    {
      "inputs": [
        {
          "internalType": "uint256",
          "name": "_prescriptionId",
          "type": "uint256"
        }
      ],
      "name": "getPrescription",
      "outputs": [
        {
          "components": [
            {
              "internalType": "uint256",
              "name": "id",
              "type": "uint256"
            },
            {
              "internalType": "string",
              "name": "patientName",
              "type": "string"
            },
            {
              "internalType": "string",
              "name": "patientNid",
              "type": "string"
            },
            {
              "components": [
                {
                  "internalType": "string",
                  "name": "med1",
                  "type": "string"
                },
                {
                  "internalType": "uint256",
                  "name": "quantity1",
                  "type": "uint256"
                },
                {
                  "internalType": "string",
                  "name": "med2",
                  "type": "string"
                },
                {
                  "internalType": "uint256",
                  "name": "quantity2",
                  "type": "uint256"
                },
                {
                  "internalType": "string",
                  "name": "diagnosis",
                  "type": "string"
                }
              ],
              "internalType": "struct PrescriptionContract.MedicationInfo",
              "name": "meds",
              "type": "tuple"
            },
            {
              "components": [
                {
                  "internalType": "string",
                  "name": "affiliateNum",
                  "type": "string"
                },
                {
                  "internalType": "string",
                  "name": "insuranceName",
                  "type": "string"
                },
                {
                  "internalType": "string",
                  "name": "insurancePlan",
                  "type": "string"
                }
              ],
              "internalType": "struct PrescriptionContract.InsuranceInfo",
              "name": "insurance",
              "type": "tuple"
            },
            {
              "internalType": "string",
              "name": "doctorNid",
              "type": "string"
            },
            {
              "internalType": "address",
              "name": "patientAddress",
              "type": "address"
            },
            {
              "internalType": "address",
              "name": "pharmacyAddress",
              "type": "address"
            },
            {
              "internalType": "uint256",
              "name": "issueDate",
              "type": "uint256"
            },
            {
              "internalType": "uint256",
              "name": "expirationDate",
              "type": "uint256"
            }
          ],
          "internalType": "struct PrescriptionContract.Prescription",
          "name": "",
          "type": "tuple"
        }
      ],
      "stateMutability": "view",
      "type": "function",
      "constant": true
    },
    {
      "inputs": [],
      "name": "getPrescriptions",
      "outputs": [
        {
          "components": [
            {
              "internalType": "uint256",
              "name": "id",
              "type": "uint256"
            },
            {
              "internalType": "string",
              "name": "patientName",
              "type": "string"
            },
            {
              "internalType": "string",
              "name": "patientNid",
              "type": "string"
            },
            {
              "components": [
                {
                  "internalType": "string",
                  "name": "med1",
                  "type": "string"
                },
                {
                  "internalType": "uint256",
                  "name": "quantity1",
                  "type": "uint256"
                },
                {
                  "internalType": "string",
                  "name": "med2",
                  "type": "string"
                },
                {
                  "internalType": "uint256",
                  "name": "quantity2",
                  "type": "uint256"
                },
                {
                  "internalType": "string",
                  "name": "diagnosis",
                  "type": "string"
                }
              ],
              "internalType": "struct PrescriptionContract.MedicationInfo",
              "name": "meds",
              "type": "tuple"
            },
            {
              "components": [
                {
                  "internalType": "string",
                  "name": "affiliateNum",
                  "type": "string"
                },
                {
                  "internalType": "string",
                  "name": "insuranceName",
                  "type": "string"
                },
                {
                  "internalType": "string",
                  "name": "insurancePlan",
                  "type": "string"
                }
              ],
              "internalType": "struct PrescriptionContract.InsuranceInfo",
              "name": "insurance",
              "type": "tuple"
            },
            {
              "internalType": "string",
              "name": "doctorNid",
              "type": "string"
            },
            {
              "internalType": "address",
              "name": "patientAddress",
              "type": "address"
            },
            {
              "internalType": "address",
              "name": "pharmacyAddress",
              "type": "address"
            },
            {
              "internalType": "uint256",
              "name": "issueDate",
              "type": "uint256"
            },
            {
              "internalType": "uint256",
              "name": "expirationDate",
              "type": "uint256"
            }
          ],
          "internalType": "struct PrescriptionContract.Prescription[]",
          "name": "",
          "type": "tuple[]"
        }
      ],
      "stateMutability": "view",
      "type": "function",
      "constant": true
    },
    {
      "inputs": [
        {
          "internalType": "string",
          "name": "_doctorNid",
          "type": "string"
        }
      ],
      "name": "getPresbyDoctorNid",
      "outputs": [
        {
          "components": [
            {
              "internalType": "uint256",
              "name": "id",
              "type": "uint256"
            },
            {
              "internalType": "string",
              "name": "patientName",
              "type": "string"
            },
            {
              "internalType": "string",
              "name": "patientNid",
              "type": "string"
            },
            {
              "components": [
                {
                  "internalType": "string",
                  "name": "med1",
                  "type": "string"
                },
                {
                  "internalType": "uint256",
                  "name": "quantity1",
                  "type": "uint256"
                },
                {
                  "internalType": "string",
                  "name": "med2",
                  "type": "string"
                },
                {
                  "internalType": "uint256",
                  "name": "quantity2",
                  "type": "uint256"
                },
                {
                  "internalType": "string",
                  "name": "diagnosis",
                  "type": "string"
                }
              ],
              "internalType": "struct PrescriptionContract.MedicationInfo",
              "name": "meds",
              "type": "tuple"
            },
            {
              "components": [
                {
                  "internalType": "string",
                  "name": "affiliateNum",
                  "type": "string"
                },
                {
                  "internalType": "string",
                  "name": "insuranceName",
                  "type": "string"
                },
                {
                  "internalType": "string",
                  "name": "insurancePlan",
                  "type": "string"
                }
              ],
              "internalType": "struct PrescriptionContract.InsuranceInfo",
              "name": "insurance",
              "type": "tuple"
            },
            {
              "internalType": "string",
              "name": "doctorNid",
              "type": "string"
            },
            {
              "internalType": "address",
              "name": "patientAddress",
              "type": "address"
            },
            {
              "internalType": "address",
              "name": "pharmacyAddress",
              "type": "address"
            },
            {
              "internalType": "uint256",
              "name": "issueDate",
              "type": "uint256"
            },
            {
              "internalType": "uint256",
              "name": "expirationDate",
              "type": "uint256"
            }
          ],
          "internalType": "struct PrescriptionContract.Prescription[]",
          "name": "",
          "type": "tuple[]"
        }
      ],
      "stateMutability": "view",
      "type": "function",
      "constant": true
    },
    {
      "inputs": [
        {
          "internalType": "address",
          "name": "_patientAddress",
          "type": "address"
        }
      ],
      "name": "getPresbyPatientAddress",
      "outputs": [
        {
          "components": [
            {
              "internalType": "uint256",
              "name": "id",
              "type": "uint256"
            },
            {
              "internalType": "string",
              "name": "patientName",
              "type": "string"
            },
            {
              "internalType": "string",
              "name": "patientNid",
              "type": "string"
            },
            {
              "components": [
                {
                  "internalType": "string",
                  "name": "med1",
                  "type": "string"
                },
                {
                  "internalType": "uint256",
                  "name": "quantity1",
                  "type": "uint256"
                },
                {
                  "internalType": "string",
                  "name": "med2",
                  "type": "string"
                },
                {
                  "internalType": "uint256",
                  "name": "quantity2",
                  "type": "uint256"
                },
                {
                  "internalType": "string",
                  "name": "diagnosis",
                  "type": "string"
                }
              ],
              "internalType": "struct PrescriptionContract.MedicationInfo",
              "name": "meds",
              "type": "tuple"
            },
            {
              "components": [
                {
                  "internalType": "string",
                  "name": "affiliateNum",
                  "type": "string"
                },
                {
                  "internalType": "string",
                  "name": "insuranceName",
                  "type": "string"
                },
                {
                  "internalType": "string",
                  "name": "insurancePlan",
                  "type": "string"
                }
              ],
              "internalType": "struct PrescriptionContract.InsuranceInfo",
              "name": "insurance",
              "type": "tuple"
            },
            {
              "internalType": "string",
              "name": "doctorNid",
              "type": "string"
            },
            {
              "internalType": "address",
              "name": "patientAddress",
              "type": "address"
            },
            {
              "internalType": "address",
              "name": "pharmacyAddress",
              "type": "address"
            },
            {
              "internalType": "uint256",
              "name": "issueDate",
              "type": "uint256"
            },
            {
              "internalType": "uint256",
              "name": "expirationDate",
              "type": "uint256"
            }
          ],
          "internalType": "struct PrescriptionContract.Prescription[]",
          "name": "",
          "type": "tuple[]"
        }
      ],
      "stateMutability": "view",
      "type": "function",
      "constant": true
    },
    {
      "inputs": [
        {
          "internalType": "uint256",
          "name": "_prescriptionId",
          "type": "uint256"
        },
        {
          "internalType": "address",
          "name": "_pharmacyAddress",
          "type": "address"
        }
      ],
      "name": "updatePrescription",
      "outputs": [],
      "stateMutability": "nonpayable",
      "type": "function"
    },
    {
      "inputs": [
        {
          "internalType": "address",
          "name": "_pharmacyAddress",
          "type": "address"
        }
      ],
      "name": "getPresbyPharmacyAddress",
      "outputs": [
        {
          "components": [
            {
              "internalType": "uint256",
              "name": "id",
              "type": "uint256"
            },
            {
              "internalType": "string",
              "name": "patientName",
              "type": "string"
            },
            {
              "internalType": "string",
              "name": "patientNid",
              "type": "string"
            },
            {
              "components": [
                {
                  "internalType": "string",
                  "name": "med1",
                  "type": "string"
                },
                {
                  "internalType": "uint256",
                  "name": "quantity1",
                  "type": "uint256"
                },
                {
                  "internalType": "string",
                  "name": "med2",
                  "type": "string"
                },
                {
                  "internalType": "uint256",
                  "name": "quantity2",
                  "type": "uint256"
                },
                {
                  "internalType": "string",
                  "name": "diagnosis",
                  "type": "string"
                }
              ],
              "internalType": "struct PrescriptionContract.MedicationInfo",
              "name": "meds",
              "type": "tuple"
            },
            {
              "components": [
                {
                  "internalType": "string",
                  "name": "affiliateNum",
                  "type": "string"
                },
                {
                  "internalType": "string",
                  "name": "insuranceName",
                  "type": "string"
                },
                {
                  "internalType": "string",
                  "name": "insurancePlan",
                  "type": "string"
                }
              ],
              "internalType": "struct PrescriptionContract.InsuranceInfo",
              "name": "insurance",
              "type": "tuple"
            },
            {
              "internalType": "string",
              "name": "doctorNid",
              "type": "string"
            },
            {
              "internalType": "address",
              "name": "patientAddress",
              "type": "address"
            },
            {
              "internalType": "address",
              "name": "pharmacyAddress",
              "type": "address"
            },
            {
              "internalType": "uint256",
              "name": "issueDate",
              "type": "uint256"
            },
            {
              "internalType": "uint256",
              "name": "expirationDate",
              "type": "uint256"
            }
          ],
          "internalType": "struct PrescriptionContract.Prescription[]",
          "name": "",
          "type": "tuple[]"
        }
      ],
      "stateMutability": "view",
      "type": "function",
      "constant": true
    }
  ],
  "bytecode": "0x608060405234801561001057600080fd5b506138fb806100206000396000f3fe608060405234801561001057600080fd5b506004361061009e5760003560e01c8063a1ea57c611610066578063a1ea57c61461014a578063a452e0591461015d578063a6757e8a14610165578063ad8277031461017a578063b65584981461018d5761009e565b806305c35ce5146100a357806331dfc91b146100ce57806366964317146100f75780636f16af10146101175780637dfe927c14610137575b600080fd5b6100b66100b136600461325b565b6101a2565b6040516100c59392919061368b565b60405180910390f35b6100e16100dc36600461337c565b610367565b6040516100c59a9998979695949392919061370f565b61010a61010536600461323a565b610902565b6040516100c5919061362b565b61012a61012536600461337c565b611074565b6040516100c591906136f3565b61010a61014536600461323a565b61169b565b61010a61015836600461325b565b611e01565b61010a6125d5565b610178610173366004613394565b612bd9565b005b610178610188366004613296565b612c6c565b610195612f01565b6040516100c59190613706565b80516020818301810180516001825292820191909301209152805481906101c890613843565b80601f01602080910402602001604051908101604052809291908181526020018280546101f490613843565b80156102415780601f1061021657610100808354040283529160200191610241565b820191906000526020600020905b81548152906001019060200180831161022457829003601f168201915b50505050509080600101805461025690613843565b80601f016020809104026020016040519081016040528092919081815260200182805461028290613843565b80156102cf5780601f106102a4576101008083540402835291602001916102cf565b820191906000526020600020905b8154815290600101906020018083116102b257829003601f168201915b5050505050908060020180546102e490613843565b80601f016020809104026020016040519081016040528092919081815260200182805461031090613843565b801561035d5780601f106103325761010080835404028352916020019161035d565b820191906000526020600020905b81548152906001019060200180831161034057829003601f168201915b5050505050905083565b6000818154811061037757600080fd5b6000918252602090912060109091020180546001820180549193509061039c90613843565b80601f01602080910402602001604051908101604052809291908181526020018280546103c890613843565b80156104155780601f106103ea57610100808354040283529160200191610415565b820191906000526020600020905b8154815290600101906020018083116103f857829003601f168201915b50505050509080600201805461042a90613843565b80601f016020809104026020016040519081016040528092919081815260200182805461045690613843565b80156104a35780601f10610478576101008083540402835291602001916104a3565b820191906000526020600020905b81548152906001019060200180831161048657829003601f168201915b505050505090806003016040518060a00160405290816000820180546104c890613843565b80601f01602080910402602001604051908101604052809291908181526020018280546104f490613843565b80156105415780601f1061051657610100808354040283529160200191610541565b820191906000526020600020905b81548152906001019060200180831161052457829003601f168201915b505050505081526020016001820154815260200160028201805461056490613843565b80601f016020809104026020016040519081016040528092919081815260200182805461059090613843565b80156105dd5780601f106105b2576101008083540402835291602001916105dd565b820191906000526020600020905b8154815290600101906020018083116105c057829003601f168201915b505050505081526020016003820154815260200160048201805461060090613843565b80601f016020809104026020016040519081016040528092919081815260200182805461062c90613843565b80156106795780601f1061064e57610100808354040283529160200191610679565b820191906000526020600020905b81548152906001019060200180831161065c57829003601f168201915b50505050508152505090806008016040518060600160405290816000820180546106a290613843565b80601f01602080910402602001604051908101604052809291908181526020018280546106ce90613843565b801561071b5780601f106106f05761010080835404028352916020019161071b565b820191906000526020600020905b8154815290600101906020018083116106fe57829003601f168201915b5050505050815260200160018201805461073490613843565b80601f016020809104026020016040519081016040528092919081815260200182805461076090613843565b80156107ad5780601f10610782576101008083540402835291602001916107ad565b820191906000526020600020905b81548152906001019060200180831161079057829003601f168201915b505050505081526020016002820180546107c690613843565b80601f01602080910402602001604051908101604052809291908181526020018280546107f290613843565b801561083f5780601f106108145761010080835404028352916020019161083f565b820191906000526020600020905b81548152906001019060200180831161082257829003601f168201915b5050505050815250509080600b01805461085890613843565b80601f016020809104026020016040519081016040528092919081815260200182805461088490613843565b80156108d15780601f106108a6576101008083540402835291602001916108d1565b820191906000526020600020905b8154815290600101906020018083116108b457829003601f168201915b50505050600c830154600d840154600e850154600f9095015493946001600160a01b0392831694929091169250908a565b60606000805b60025481101561098057836001600160a01b03166000828154811061093d57634e487b7160e01b600052603260045260246000fd5b60009182526020909120600d60109092020101546001600160a01b0316141561096e578161096a8161387e565b9250505b806109788161387e565b915050610908565b5060008167ffffffffffffffff8111156109aa57634e487b7160e01b600052604160045260246000fd5b6040519080825280602002602001820160405280156109e357816020015b6109d0612f07565b8152602001906001900390816109c85790505b5090506000805b60025481101561106857856001600160a01b031660008281548110610a1f57634e487b7160e01b600052603260045260246000fd5b60009182526020909120600d60109092020101546001600160a01b031614156110565760008181548110610a6357634e487b7160e01b600052603260045260246000fd5b90600052602060002090601002016040518061014001604052908160008201548152602001600182018054610a9790613843565b80601f0160208091040260200160405190810160405280929190818152602001828054610ac390613843565b8015610b105780601f10610ae557610100808354040283529160200191610b10565b820191906000526020600020905b815481529060010190602001808311610af357829003601f168201915b50505050508152602001600282018054610b2990613843565b80601f0160208091040260200160405190810160405280929190818152602001828054610b5590613843565b8015610ba25780601f10610b7757610100808354040283529160200191610ba2565b820191906000526020600020905b815481529060010190602001808311610b8557829003601f168201915b50505050508152602001600382016040518060a0016040529081600082018054610bcb90613843565b80601f0160208091040260200160405190810160405280929190818152602001828054610bf790613843565b8015610c445780601f10610c1957610100808354040283529160200191610c44565b820191906000526020600020905b815481529060010190602001808311610c2757829003601f168201915b5050505050815260200160018201548152602001600282018054610c6790613843565b80601f0160208091040260200160405190810160405280929190818152602001828054610c9390613843565b8015610ce05780601f10610cb557610100808354040283529160200191610ce0565b820191906000526020600020905b815481529060010190602001808311610cc357829003601f168201915b5050505050815260200160038201548152602001600482018054610d0390613843565b80601f0160208091040260200160405190810160405280929190818152602001828054610d2f90613843565b8015610d7c5780601f10610d5157610100808354040283529160200191610d7c565b820191906000526020600020905b815481529060010190602001808311610d5f57829003601f168201915b505050505081525050815260200160088201604051806060016040529081600082018054610da990613843565b80601f0160208091040260200160405190810160405280929190818152602001828054610dd590613843565b8015610e225780601f10610df757610100808354040283529160200191610e22565b820191906000526020600020905b815481529060010190602001808311610e0557829003601f168201915b50505050508152602001600182018054610e3b90613843565b80601f0160208091040260200160405190810160405280929190818152602001828054610e6790613843565b8015610eb45780601f10610e8957610100808354040283529160200191610eb4565b820191906000526020600020905b815481529060010190602001808311610e9757829003601f168201915b50505050508152602001600282018054610ecd90613843565b80601f0160208091040260200160405190810160405280929190818152602001828054610ef990613843565b8015610f465780601f10610f1b57610100808354040283529160200191610f46565b820191906000526020600020905b815481529060010190602001808311610f2957829003601f168201915b5050505050815250508152602001600b82018054610f6390613843565b80601f0160208091040260200160405190810160405280929190818152602001828054610f8f90613843565b8015610fdc5780601f10610fb157610100808354040283529160200191610fdc565b820191906000526020600020905b815481529060010190602001808311610fbf57829003601f168201915b5050509183525050600c8201546001600160a01b039081166020830152600d830154166040820152600e8201546060820152600f90910154608090910152835184908490811061103c57634e487b7160e01b600052603260045260246000fd5b602002602001018190525081806110529061387e565b9250505b806110608161387e565b9150506109ea565b5090925050505b919050565b61107c612f07565b60008211801561108e57506002548211155b6110b35760405162461bcd60e51b81526004016110aa906136ce565b60405180910390fd5b60006110c06001846137fc565b815481106110de57634e487b7160e01b600052603260045260246000fd5b9060005260206000209060100201604051806101400160405290816000820154815260200160018201805461111290613843565b80601f016020809104026020016040519081016040528092919081815260200182805461113e90613843565b801561118b5780601f106111605761010080835404028352916020019161118b565b820191906000526020600020905b81548152906001019060200180831161116e57829003601f168201915b505050505081526020016002820180546111a490613843565b80601f01602080910402602001604051908101604052809291908181526020018280546111d090613843565b801561121d5780601f106111f25761010080835404028352916020019161121d565b820191906000526020600020905b81548152906001019060200180831161120057829003601f168201915b50505050508152602001600382016040518060a001604052908160008201805461124690613843565b80601f016020809104026020016040519081016040528092919081815260200182805461127290613843565b80156112bf5780601f10611294576101008083540402835291602001916112bf565b820191906000526020600020905b8154815290600101906020018083116112a257829003601f168201915b50505050508152602001600182015481526020016002820180546112e290613843565b80601f016020809104026020016040519081016040528092919081815260200182805461130e90613843565b801561135b5780601f106113305761010080835404028352916020019161135b565b820191906000526020600020905b81548152906001019060200180831161133e57829003601f168201915b505050505081526020016003820154815260200160048201805461137e90613843565b80601f01602080910402602001604051908101604052809291908181526020018280546113aa90613843565b80156113f75780601f106113cc576101008083540402835291602001916113f7565b820191906000526020600020905b8154815290600101906020018083116113da57829003601f168201915b50505050508152505081526020016008820160405180606001604052908160008201805461142490613843565b80601f016020809104026020016040519081016040528092919081815260200182805461145090613843565b801561149d5780601f106114725761010080835404028352916020019161149d565b820191906000526020600020905b81548152906001019060200180831161148057829003601f168201915b505050505081526020016001820180546114b690613843565b80601f01602080910402602001604051908101604052809291908181526020018280546114e290613843565b801561152f5780601f106115045761010080835404028352916020019161152f565b820191906000526020600020905b81548152906001019060200180831161151257829003601f168201915b5050505050815260200160028201805461154890613843565b80601f016020809104026020016040519081016040528092919081815260200182805461157490613843565b80156115c15780601f10611596576101008083540402835291602001916115c1565b820191906000526020600020905b8154815290600101906020018083116115a457829003601f168201915b5050505050815250508152602001600b820180546115de90613843565b80601f016020809104026020016040519081016040528092919081815260200182805461160a90613843565b80156116575780601f1061162c57610100808354040283529160200191611657565b820191906000526020600020905b81548152906001019060200180831161163a57829003601f168201915b5050509183525050600c8201546001600160a01b039081166020830152600d830154166040820152600e8201546060820152600f9091015460809091015292915050565b60606000805b60025481101561171957836001600160a01b0316600082815481106116d657634e487b7160e01b600052603260045260246000fd5b60009182526020909120600c60109092020101546001600160a01b0316141561170757816117038161387e565b9250505b806117118161387e565b9150506116a1565b5060008167ffffffffffffffff81111561174357634e487b7160e01b600052604160045260246000fd5b60405190808252806020026020018201604052801561177c57816020015b611769612f07565b8152602001906001900390816117615790505b5090506000805b60025481101561106857856001600160a01b0316600082815481106117b857634e487b7160e01b600052603260045260246000fd5b60009182526020909120600c60109092020101546001600160a01b03161415611def57600081815481106117fc57634e487b7160e01b600052603260045260246000fd5b9060005260206000209060100201604051806101400160405290816000820154815260200160018201805461183090613843565b80601f016020809104026020016040519081016040528092919081815260200182805461185c90613843565b80156118a95780601f1061187e576101008083540402835291602001916118a9565b820191906000526020600020905b81548152906001019060200180831161188c57829003601f168201915b505050505081526020016002820180546118c290613843565b80601f01602080910402602001604051908101604052809291908181526020018280546118ee90613843565b801561193b5780601f106119105761010080835404028352916020019161193b565b820191906000526020600020905b81548152906001019060200180831161191e57829003601f168201915b50505050508152602001600382016040518060a001604052908160008201805461196490613843565b80601f016020809104026020016040519081016040528092919081815260200182805461199090613843565b80156119dd5780601f106119b2576101008083540402835291602001916119dd565b820191906000526020600020905b8154815290600101906020018083116119c057829003601f168201915b5050505050815260200160018201548152602001600282018054611a0090613843565b80601f0160208091040260200160405190810160405280929190818152602001828054611a2c90613843565b8015611a795780601f10611a4e57610100808354040283529160200191611a79565b820191906000526020600020905b815481529060010190602001808311611a5c57829003601f168201915b5050505050815260200160038201548152602001600482018054611a9c90613843565b80601f0160208091040260200160405190810160405280929190818152602001828054611ac890613843565b8015611b155780601f10611aea57610100808354040283529160200191611b15565b820191906000526020600020905b815481529060010190602001808311611af857829003601f168201915b505050505081525050815260200160088201604051806060016040529081600082018054611b4290613843565b80601f0160208091040260200160405190810160405280929190818152602001828054611b6e90613843565b8015611bbb5780601f10611b9057610100808354040283529160200191611bbb565b820191906000526020600020905b815481529060010190602001808311611b9e57829003601f168201915b50505050508152602001600182018054611bd490613843565b80601f0160208091040260200160405190810160405280929190818152602001828054611c0090613843565b8015611c4d5780601f10611c2257610100808354040283529160200191611c4d565b820191906000526020600020905b815481529060010190602001808311611c3057829003601f168201915b50505050508152602001600282018054611c6690613843565b80601f0160208091040260200160405190810160405280929190818152602001828054611c9290613843565b8015611cdf5780601f10611cb457610100808354040283529160200191611cdf565b820191906000526020600020905b815481529060010190602001808311611cc257829003601f168201915b5050505050815250508152602001600b82018054611cfc90613843565b80601f0160208091040260200160405190810160405280929190818152602001828054611d2890613843565b8015611d755780601f10611d4a57610100808354040283529160200191611d75565b820191906000526020600020905b815481529060010190602001808311611d5857829003601f168201915b5050509183525050600c8201546001600160a01b039081166020830152600d830154166040820152600e8201546060820152600f909101546080909101528351849084908110611dd557634e487b7160e01b600052603260045260246000fd5b60200260200101819052508180611deb9061387e565b9250505b80611df98161387e565b915050611783565b60606000805b600254811015611eb65783604051602001611e229190613574565b6040516020818303038152906040528051906020012060008281548110611e5957634e487b7160e01b600052603260045260246000fd5b9060005260206000209060100201600b01604051602001611e7a9190613590565b604051602081830303815290604052805190602001201415611ea45781611ea08161387e565b9250505b80611eae8161387e565b915050611e07565b5060008167ffffffffffffffff811115611ee057634e487b7160e01b600052604160045260246000fd5b604051908082528060200260200182016040528015611f1957816020015b611f06612f07565b815260200190600190039081611efe5790505b5090506000805b6002548110156110685785604051602001611f3b9190613574565b6040516020818303038152906040528051906020012060008281548110611f7257634e487b7160e01b600052603260045260246000fd5b9060005260206000209060100201600b01604051602001611f939190613590565b6040516020818303038152906040528051906020012014156125c35760008181548110611fd057634e487b7160e01b600052603260045260246000fd5b9060005260206000209060100201604051806101400160405290816000820154815260200160018201805461200490613843565b80601f016020809104026020016040519081016040528092919081815260200182805461203090613843565b801561207d5780601f106120525761010080835404028352916020019161207d565b820191906000526020600020905b81548152906001019060200180831161206057829003601f168201915b5050505050815260200160028201805461209690613843565b80601f01602080910402602001604051908101604052809291908181526020018280546120c290613843565b801561210f5780601f106120e45761010080835404028352916020019161210f565b820191906000526020600020905b8154815290600101906020018083116120f257829003601f168201915b50505050508152602001600382016040518060a001604052908160008201805461213890613843565b80601f016020809104026020016040519081016040528092919081815260200182805461216490613843565b80156121b15780601f10612186576101008083540402835291602001916121b1565b820191906000526020600020905b81548152906001019060200180831161219457829003601f168201915b50505050508152602001600182015481526020016002820180546121d490613843565b80601f016020809104026020016040519081016040528092919081815260200182805461220090613843565b801561224d5780601f106122225761010080835404028352916020019161224d565b820191906000526020600020905b81548152906001019060200180831161223057829003601f168201915b505050505081526020016003820154815260200160048201805461227090613843565b80601f016020809104026020016040519081016040528092919081815260200182805461229c90613843565b80156122e95780601f106122be576101008083540402835291602001916122e9565b820191906000526020600020905b8154815290600101906020018083116122cc57829003601f168201915b50505050508152505081526020016008820160405180606001604052908160008201805461231690613843565b80601f016020809104026020016040519081016040528092919081815260200182805461234290613843565b801561238f5780601f106123645761010080835404028352916020019161238f565b820191906000526020600020905b81548152906001019060200180831161237257829003601f168201915b505050505081526020016001820180546123a890613843565b80601f01602080910402602001604051908101604052809291908181526020018280546123d490613843565b80156124215780601f106123f657610100808354040283529160200191612421565b820191906000526020600020905b81548152906001019060200180831161240457829003601f168201915b5050505050815260200160028201805461243a90613843565b80601f016020809104026020016040519081016040528092919081815260200182805461246690613843565b80156124b35780601f10612488576101008083540402835291602001916124b3565b820191906000526020600020905b81548152906001019060200180831161249657829003601f168201915b5050505050815250508152602001600b820180546124d090613843565b80601f01602080910402602001604051908101604052809291908181526020018280546124fc90613843565b80156125495780601f1061251e57610100808354040283529160200191612549565b820191906000526020600020905b81548152906001019060200180831161252c57829003601f168201915b5050509183525050600c8201546001600160a01b039081166020830152600d830154166040820152600e8201546060820152600f9091015460809091015283518490849081106125a957634e487b7160e01b600052603260045260246000fd5b602002602001018190525081806125bf9061387e565b9250505b806125cd8161387e565b915050611f20565b60606000805480602002602001604051908101604052809291908181526020016000905b82821015612bd05783829060005260206000209060100201604051806101400160405290816000820154815260200160018201805461263790613843565b80601f016020809104026020016040519081016040528092919081815260200182805461266390613843565b80156126b05780601f10612685576101008083540402835291602001916126b0565b820191906000526020600020905b81548152906001019060200180831161269357829003601f168201915b505050505081526020016002820180546126c990613843565b80601f01602080910402602001604051908101604052809291908181526020018280546126f590613843565b80156127425780601f1061271757610100808354040283529160200191612742565b820191906000526020600020905b81548152906001019060200180831161272557829003601f168201915b50505050508152602001600382016040518060a001604052908160008201805461276b90613843565b80601f016020809104026020016040519081016040528092919081815260200182805461279790613843565b80156127e45780601f106127b9576101008083540402835291602001916127e4565b820191906000526020600020905b8154815290600101906020018083116127c757829003601f168201915b505050505081526020016001820154815260200160028201805461280790613843565b80601f016020809104026020016040519081016040528092919081815260200182805461283390613843565b80156128805780601f1061285557610100808354040283529160200191612880565b820191906000526020600020905b81548152906001019060200180831161286357829003601f168201915b50505050508152602001600382015481526020016004820180546128a390613843565b80601f01602080910402602001604051908101604052809291908181526020018280546128cf90613843565b801561291c5780601f106128f15761010080835404028352916020019161291c565b820191906000526020600020905b8154815290600101906020018083116128ff57829003601f168201915b50505050508152505081526020016008820160405180606001604052908160008201805461294990613843565b80601f016020809104026020016040519081016040528092919081815260200182805461297590613843565b80156129c25780601f10612997576101008083540402835291602001916129c2565b820191906000526020600020905b8154815290600101906020018083116129a557829003601f168201915b505050505081526020016001820180546129db90613843565b80601f0160208091040260200160405190810160405280929190818152602001828054612a0790613843565b8015612a545780601f10612a2957610100808354040283529160200191612a54565b820191906000526020600020905b815481529060010190602001808311612a3757829003601f168201915b50505050508152602001600282018054612a6d90613843565b80601f0160208091040260200160405190810160405280929190818152602001828054612a9990613843565b8015612ae65780601f10612abb57610100808354040283529160200191612ae6565b820191906000526020600020905b815481529060010190602001808311612ac957829003601f168201915b5050505050815250508152602001600b82018054612b0390613843565b80601f0160208091040260200160405190810160405280929190818152602001828054612b2f90613843565b8015612b7c5780601f10612b5157610100808354040283529160200191612b7c565b820191906000526020600020905b815481529060010190602001808311612b5f57829003601f168201915b5050509183525050600c8201546001600160a01b03908116602080840191909152600d8401549091166040830152600e8301546060830152600f9092015460809091015290825260019290920191016125f9565b50505050905090565b600082118015612beb57506002548211155b612c075760405162461bcd60e51b81526004016110aa906136ce565b806000612c156001856137fc565b81548110612c3357634e487b7160e01b600052603260045260246000fd5b9060005260206000209060100201600d0160006101000a8154816001600160a01b0302191690836001600160a01b031602179055505050565b60028054906000612c7c8361387e565b9091555060009050612c918262278d006137e4565b6040805161014081018252600254815260208082018c81529282018b9052606082018a90526080820189905260a082018890526001600160a01b03871660c0830152600060e08301819052610100830187905261012083018590528054600181018255908052825160109091027f290decd9548b62a8d60345a988386fc84ba6bc95484008f6362f93160ef3e563810191825593518051959650929485949193612d61937f290decd9548b62a8d60345a988386fc84ba6bc95484008f6362f93160ef3e564909301920190612f78565b5060408201518051612d7d916002840191602090910190612f78565b506060820151805180516003840191612d9b91839160200190612f78565b50602082810151600183015560408301518051612dbe9260028501920190612f78565b506060820151600382015560808201518051612de4916004840191602090910190612f78565b5050506080820151805180516008840191612e0491839160200190612f78565b506020828101518051612e1d9260018501920190612f78565b5060408201518051612e39916002840191602090910190612f78565b50505060a08201518051612e5791600b840191602090910190612f78565b5060c0820151600c820180546001600160a01b039283166001600160a01b03199182161790915560e0840151600d84018054919093169116179055610100820151600e82015561012090910151600f909101556002546040517f16cf954dfbe58c950768dedbed98fe4fbf68afe781ffb19a950d922f2e3eb72591612eee918c908c908c908c908c908c906000908d908d9061370f565b60405180910390a1505050505050505050565b60025481565b604051806101400160405280600081526020016060815260200160608152602001612f30612ffc565b8152602001612f3d61302b565b81526020016060815260200160006001600160a01b0316815260200160006001600160a01b0316815260200160008152602001600081525090565b828054612f8490613843565b90600052602060002090601f016020900481019282612fa65760008555612fec565b82601f10612fbf57805160ff1916838001178555612fec565b82800160010185558215612fec579182015b82811115612fec578251825591602001919060010190612fd1565b50612ff892915061304c565b5090565b6040518060a0016040528060608152602001600081526020016060815260200160008152602001606081525090565b60405180606001604052806060815260200160608152602001606081525090565b5b80821115612ff8576000815560010161304d565b80356001600160a01b038116811461106f57600080fd5b600082601f830112613088578081fd5b813567ffffffffffffffff8111156130a2576130a26138af565b6130b5601f8201601f19166020016137ae565b8181528460208386010111156130c9578283fd5b816020850160208301379081016020019190915292915050565b6000606082840312156130f4578081fd5b6040516060810167ffffffffffffffff8282108183111715613118576131186138af565b81604052829350843591508082111561313057600080fd5b61313c86838701613078565b8352602085013591508082111561315257600080fd5b61315e86838701613078565b6020840152604085013591508082111561317757600080fd5b5061318485828601613078565b6040830152505092915050565b600060a082840312156131a2578081fd5b6131ac60a06137ae565b9050813567ffffffffffffffff808211156131c657600080fd5b6131d285838601613078565b83526020840135602084015260408401359150808211156131f257600080fd5b6131fe85838601613078565b604084015260608401356060840152608084013591508082111561322157600080fd5b5061322e84828501613078565b60808301525092915050565b60006020828403121561324b578081fd5b61325482613061565b9392505050565b60006020828403121561326c578081fd5b813567ffffffffffffffff811115613282578182fd5b61328e84828501613078565b949350505050565b600080600080600080600060e0888a0312156132b0578283fd5b873567ffffffffffffffff808211156132c7578485fd5b6132d38b838c01613078565b985060208a01359150808211156132e8578485fd5b6132f48b838c01613078565b975060408a0135915080821115613309578485fd5b6133158b838c01613191565b965060608a013591508082111561332a578485fd5b6133368b838c016130e3565b955060808a013591508082111561334b578485fd5b506133588a828b01613078565b93505061336760a08901613061565b915060c0880135905092959891949750929550565b60006020828403121561338d578081fd5b5035919050565b600080604083850312156133a6578182fd5b823591506133b660208401613061565b90509250929050565b6001600160a01b03169052565b600081518084526133e4816020860160208601613813565b601f01601f19169290920160200192915050565b600081516060845261340d60608501826133cc565b90506020830151848203602086015261342682826133cc565b9150506040830151848203604086015261344082826133cc565b95945050505050565b6000815160a0845261345e60a08501826133cc565b9050602083015160208501526040830151848203604086015261348182826133cc565b915050606083015160608501526080830151848203608086015261344082826133cc565b60006101408251845260208301518160208601526134c5828601826133cc565b915050604083015184820360408601526134df82826133cc565b915050606083015184820360608601526134f98282613449565b9150506080830151848203608086015261351382826133f8565b91505060a083015184820360a086015261352d82826133cc565b91505060c083015161354260c08601826133bf565b5060e083015161355560e08601826133bf565b5061010083810151908501526101209283015192909301919091525090565b60008251613586818460208701613813565b9190910192915050565b81546000908190600281046001808316806135ac57607f831692505b60208084108214156135cc57634e487b7160e01b87526022600452602487fd5b8180156135e057600181146135f15761361d565b60ff1986168952848901965061361d565b6135fa8a6137d8565b885b868110156136155781548b8201529085019083016135fc565b505084890196505b509498975050505050505050565b6000602080830181845280855180835260408601915060408482028701019250838701855b8281101561367e57603f1988860301845261366c8583516134a5565b94509285019290850190600101613650565b5092979650505050505050565b60006060825261369e60608301866133cc565b82810360208401526136b081866133cc565b905082810360408401526136c481856133cc565b9695505050505050565b6020808252600b908201526a24b73b30b634b21024a21760a91b604082015260600190565b60006020825261325460208301846134a5565b90815260200190565b60006101408c83528060208401526137298184018d6133cc565b9050828103604084015261373d818c6133cc565b90508281036060840152613751818b613449565b90508281036080840152613765818a6133f8565b905082810360a084015261377981896133cc565b6001600160a01b0397881660c08501529590961660e08301525061010081019290925261012090910152979650505050505050565b60405181810167ffffffffffffffff811182821017156137d0576137d06138af565b604052919050565b60009081526020902090565b600082198211156137f7576137f7613899565b500190565b60008282101561380e5761380e613899565b500390565b60005b8381101561382e578181015183820152602001613816565b8381111561383d576000848401525b50505050565b60028104600182168061385757607f821691505b6020821081141561387857634e487b7160e01b600052602260045260246000fd5b50919050565b600060001982141561389257613892613899565b5060010190565b634e487b7160e01b600052601160045260246000fd5b634e487b7160e01b600052604160045260246000fdfea26469706673582212202c1865447ae444e347290f51fa457d77b5824edef3103a9dbf3167635fc8fac264736f6c63430008000033",
  "immutableReferences": {},
  "source": "// SPDX-License-Identifier: MIT\r\npragma solidity ^0.8.0;\r\n\r\ncontract PrescriptionContract {\r\n    struct MedicationInfo {\r\n        string med1;\r\n        uint quantity1;\r\n        string med2;\r\n        uint quantity2;\r\n        string diagnosis;\r\n    }\r\n\r\n    struct InsuranceInfo {\r\n        string affiliateNum;\r\n        string insuranceName;\r\n        string insurancePlan;\r\n    }\r\n\r\n    struct Prescription {\r\n        uint id;  // ID nico para cada receta\r\n        string patientName;\r\n        string patientNid;\r\n        MedicationInfo meds;\r\n        InsuranceInfo insurance;\r\n        string doctorNid;\r\n        address patientAddress;\r\n        address pharmacyAddress; // Agregado para almacenar la direccin de la farmacia\r\n        uint issueDate;\r\n        uint expirationDate;\r\n    }\r\n\r\n    Prescription[] public prescriptions;\r\n    mapping(string => Doctor) public doctors;\r\n\r\n    struct Doctor {\r\n        string doctorName;\r\n        string doctorLicense;\r\n        string doctorSpecialty;\r\n    }\r\n\r\n    uint public prescriptionCount;\r\n\r\n    event IssuedPrescription(\r\n        uint id,  // ID agregado al evento\r\n        string patientName,\r\n        string patientNid,\r\n        MedicationInfo meds,\r\n        InsuranceInfo insurance,\r\n        string doctorNid,\r\n        address patientAddress,\r\n        address pharmacyAddress, // Agregado al evento\r\n        uint issueDate,\r\n        uint expirationDate\r\n    );\r\n\r\n    // Emitir receta con fecha personalizada\r\n    function issuePrescription(\r\n        string memory _patientName,\r\n        string memory _patientNid,\r\n        MedicationInfo memory _meds,\r\n        InsuranceInfo memory _insurance,\r\n        string memory _doctorNid,\r\n        address _patientAddress,\r\n        uint _issueDate  // Nueva variable para aceptar la fecha de emisin personalizada\r\n    ) public {\r\n        prescriptionCount++;  // Incrementar el contador para el nuevo ID\r\n\r\n        uint expirationDate = _issueDate + 30 days;  // Calcular la fecha de vencimiento a partir de la fecha de emisin personalizada\r\n\r\n        Prescription memory newPrescription = Prescription({\r\n            id: prescriptionCount,  // Asignar el ID\r\n            patientName: _patientName,\r\n            patientNid: _patientNid,\r\n            meds: _meds,\r\n            insurance: _insurance,\r\n            doctorNid: _doctorNid,\r\n            patientAddress: _patientAddress,\r\n            pharmacyAddress: address(0), // Inicialmente vaco\r\n            issueDate: _issueDate,\r\n            expirationDate: expirationDate\r\n        });\r\n\r\n        prescriptions.push(newPrescription);\r\n\r\n        emit IssuedPrescription(\r\n            prescriptionCount,  // Emitir el ID\r\n            _patientName,\r\n            _patientNid,\r\n            _meds,\r\n            _insurance,\r\n            _doctorNid,\r\n            _patientAddress,\r\n            address(0), // Inicialmente vaco\r\n            _issueDate,\r\n            expirationDate\r\n        );\r\n    }\r\n\r\n    // Obtener una receta especfica por ID\r\n    function getPrescription(uint _prescriptionId) public view returns (Prescription memory) {\r\n        require(_prescriptionId > 0 && _prescriptionId <= prescriptionCount, \"Invalid ID.\");\r\n        return prescriptions[_prescriptionId - 1];\r\n    }\r\n\r\n    // Obtener todas las recetas\r\n    function getPrescriptions() public view returns (Prescription[] memory) {\r\n        return prescriptions;\r\n    }\r\n\r\n    // Obtener recetas por NID de mdico\r\n    function getPresbyDoctorNid(string memory _doctorNid) public view returns (Prescription[] memory) {\r\n        uint count = 0;\r\n\r\n        // Primer bucle para contar cuntas recetas pertenecen al mdico\r\n        for (uint i = 0; i < prescriptionCount; i++) {\r\n            if (keccak256(abi.encodePacked(prescriptions[i].doctorNid)) == keccak256(abi.encodePacked(_doctorNid))) {\r\n                count++;\r\n            }\r\n        }\r\n\r\n        // Crear un array para almacenar las recetas del mdico\r\n        Prescription[] memory doctorPrescriptions = new Prescription[](count);\r\n        uint index = 0;\r\n\r\n        // Segundo bucle para almacenar las recetas correspondientes\r\n        for (uint i = 0; i < prescriptionCount; i++) {\r\n            if (keccak256(abi.encodePacked(prescriptions[i].doctorNid)) == keccak256(abi.encodePacked(_doctorNid))) {\r\n                doctorPrescriptions[index] = prescriptions[i];\r\n                index++;\r\n            }\r\n        }\r\n\r\n        return doctorPrescriptions;\r\n    }\r\n\r\n    // Obtener recetas por direccin del paciente\r\n    function getPresbyPatientAddress(address _patientAddress) public view returns (Prescription[] memory) {\r\n        uint count = 0;\r\n\r\n        // Primer bucle para contar cuntas recetas pertenecen al paciente\r\n        for (uint i = 0; i < prescriptionCount; i++) {\r\n            if (prescriptions[i].patientAddress == _patientAddress) {\r\n                count++;\r\n            }\r\n        }\r\n\r\n        // Crear un array para almacenar las recetas del paciente\r\n        Prescription[] memory patientPrescriptions = new Prescription[](count);\r\n        uint index = 0;\r\n\r\n        // Segundo bucle para almacenar las recetas correspondientes\r\n        for (uint i = 0; i < prescriptionCount; i++) {\r\n            if (prescriptions[i].patientAddress == _patientAddress) {\r\n                patientPrescriptions[index] = prescriptions[i];\r\n                index++;\r\n            }\r\n        }\r\n\r\n        return patientPrescriptions;\r\n    }\r\n\r\n    // Nueva funcin para actualizar la direccin de la farmacia en la receta\r\n    function updatePrescription(uint _prescriptionId, address _pharmacyAddress) public {\r\n        require(_prescriptionId > 0 && _prescriptionId <= prescriptionCount, \"Invalid ID.\");\r\n        prescriptions[_prescriptionId - 1].pharmacyAddress = _pharmacyAddress; // Actualizar la direccin de la farmacia\r\n    }\r\n\r\n    // Obtener recetas por direccin de la farmacia\r\n    function getPresbyPharmacyAddress(address _pharmacyAddress) public view returns (Prescription[] memory) {\r\n        uint count = 0;\r\n\r\n        // Primer bucle para contar cuntas recetas pertenecen a la farmacia\r\n        for (uint i = 0; i < prescriptionCount; i++) {\r\n            if (prescriptions[i].pharmacyAddress == _pharmacyAddress) {\r\n                count++;\r\n            }\r\n        }\r\n\r\n        // Crear un array para almacenar las recetas de la farmacia\r\n        Prescription[] memory pharmacyPrescriptions = new Prescription[](count);\r\n        uint index = 0;\r\n\r\n        // Segundo bucle para almacenar las recetas correspondientes\r\n        for (uint i = 0; i < prescriptionCount; i++) {\r\n            if (prescriptions[i].pharmacyAddress == _pharmacyAddress) {\r\n                pharmacyPrescriptions[index] = prescriptions[i];\r\n                index++;\r\n            }\r\n        }\r\n\r\n        return pharmacyPrescriptions;\r\n    }\r\n}\r\n",
  "sourcePath": "C:\\Users\\BELU\\go\\src\\github.com\\belenaguilarv\\prescryption_v2\\prescryption_solidity\\contracts\\Prescription.sol",
  "compiler": {
    "name": "solc",
    "version": "0.8.0+commit.c7dfd78e.Emscripten.clang"
  },
  "schemaVersion": "3.4.16",
  "updatedAt": "2024-11-03T03:22:14.624Z",
  "networkType": "ethereum",
  "devdoc": {
    "kind": "dev",
    "methods": {},
    "version": 1
  },
  "userdoc": {
    "kind": "user",
    "methods": {},
    "version": 1
  }
}