{
  "contractName": "PrescriptionContract",
  "abi": [
    {
      "anonymous": false,
      "inputs": [
        {
          "indexed": false,
          "internalType": "string",
          "name": "patientName",
          "type": "string"
        },
        {
          "indexed": false,
          "internalType": "string",
          "name": "patientNid",
          "type": "string"
        },
        {
          "indexed": false,
          "internalType": "string",
          "name": "affiliateNum",
          "type": "string"
        },
        {
          "indexed": false,
          "internalType": "string",
          "name": "insuranceName",
          "type": "string"
        },
        {
          "indexed": false,
          "internalType": "string",
          "name": "insurancePlan",
          "type": "string"
        },
        {
          "indexed": false,
          "internalType": "string",
          "name": "med1",
          "type": "string"
        },
        {
          "indexed": false,
          "internalType": "uint256",
          "name": "quantity1",
          "type": "uint256"
        },
        {
          "indexed": false,
          "internalType": "string",
          "name": "med2",
          "type": "string"
        },
        {
          "indexed": false,
          "internalType": "uint256",
          "name": "quantity2",
          "type": "uint256"
        },
        {
          "indexed": false,
          "internalType": "string",
          "name": "diagnosis",
          "type": "string"
        },
        {
          "indexed": false,
          "internalType": "string",
          "name": "doctorNid",
          "type": "string"
        },
        {
          "indexed": false,
          "internalType": "address",
          "name": "patientAddress",
          "type": "address"
        }
      ],
      "name": "IssuedPrescription",
      "type": "event"
    },
    {
      "inputs": [
        {
          "internalType": "string",
          "name": "",
          "type": "string"
        }
      ],
      "name": "doctors",
      "outputs": [
        {
          "internalType": "string",
          "name": "doctorName",
          "type": "string"
        },
        {
          "internalType": "string",
          "name": "doctorLicense",
          "type": "string"
        },
        {
          "internalType": "string",
          "name": "doctorSpecialty",
          "type": "string"
        }
      ],
      "stateMutability": "view",
      "type": "function",
      "constant": true
    },
    {
      "inputs": [],
      "name": "prescriptionCount",
      "outputs": [
        {
          "internalType": "uint256",
          "name": "",
          "type": "uint256"
        }
      ],
      "stateMutability": "view",
      "type": "function",
      "constant": true
    },
    {
      "inputs": [
        {
          "internalType": "uint256",
          "name": "",
          "type": "uint256"
        }
      ],
      "name": "prescriptions",
      "outputs": [
        {
          "internalType": "string",
          "name": "patientName",
          "type": "string"
        },
        {
          "internalType": "string",
          "name": "patientNid",
          "type": "string"
        },
        {
          "internalType": "string",
          "name": "affiliateNum",
          "type": "string"
        },
        {
          "internalType": "string",
          "name": "insuranceName",
          "type": "string"
        },
        {
          "internalType": "string",
          "name": "insurancePlan",
          "type": "string"
        },
        {
          "internalType": "string",
          "name": "med1",
          "type": "string"
        },
        {
          "internalType": "uint256",
          "name": "quantity1",
          "type": "uint256"
        },
        {
          "internalType": "string",
          "name": "med2",
          "type": "string"
        },
        {
          "internalType": "uint256",
          "name": "quantity2",
          "type": "uint256"
        },
        {
          "internalType": "string",
          "name": "diagnosis",
          "type": "string"
        },
        {
          "internalType": "string",
          "name": "doctorNid",
          "type": "string"
        },
        {
          "internalType": "address",
          "name": "patientAddress",
          "type": "address"
        }
      ],
      "stateMutability": "view",
      "type": "function",
      "constant": true
    },
    {
      "inputs": [
        {
          "internalType": "string",
          "name": "_doctorNid",
          "type": "string"
        },
        {
          "internalType": "string",
          "name": "_doctorName",
          "type": "string"
        },
        {
          "internalType": "string",
          "name": "_doctorLicense",
          "type": "string"
        },
        {
          "internalType": "string",
          "name": "_doctorSpecialty",
          "type": "string"
        }
      ],
      "name": "registerDoctor",
      "outputs": [],
      "stateMutability": "nonpayable",
      "type": "function"
    },
    {
      "inputs": [
        {
          "internalType": "string",
          "name": "_patientName",
          "type": "string"
        },
        {
          "internalType": "string",
          "name": "_patientNid",
          "type": "string"
        },
        {
          "internalType": "string",
          "name": "_affiliateNum",
          "type": "string"
        },
        {
          "internalType": "string",
          "name": "_licenseName",
          "type": "string"
        },
        {
          "internalType": "string",
          "name": "_licensePlan",
          "type": "string"
        },
        {
          "internalType": "string",
          "name": "_med1",
          "type": "string"
        },
        {
          "internalType": "uint256",
          "name": "_quantity1",
          "type": "uint256"
        },
        {
          "internalType": "string",
          "name": "_med2",
          "type": "string"
        },
        {
          "internalType": "uint256",
          "name": "_quantity2",
          "type": "uint256"
        },
        {
          "internalType": "string",
          "name": "_diagnosis",
          "type": "string"
        },
        {
          "internalType": "string",
          "name": "_doctorNid",
          "type": "string"
        },
        {
          "internalType": "address",
          "name": "_patientAddress",
          "type": "address"
        }
      ],
      "name": "issuePrescription",
      "outputs": [],
      "stateMutability": "nonpayable",
      "type": "function"
    },
    {
      "inputs": [
        {
          "internalType": "uint256",
          "name": "_prescriptionId",
          "type": "uint256"
        }
      ],
      "name": "getPrescription",
      "outputs": [
        {
          "components": [
            {
              "internalType": "string",
              "name": "patientName",
              "type": "string"
            },
            {
              "internalType": "string",
              "name": "patientNid",
              "type": "string"
            },
            {
              "internalType": "string",
              "name": "affiliateNum",
              "type": "string"
            },
            {
              "internalType": "string",
              "name": "insuranceName",
              "type": "string"
            },
            {
              "internalType": "string",
              "name": "insurancePlan",
              "type": "string"
            },
            {
              "internalType": "string",
              "name": "med1",
              "type": "string"
            },
            {
              "internalType": "uint256",
              "name": "quantity1",
              "type": "uint256"
            },
            {
              "internalType": "string",
              "name": "med2",
              "type": "string"
            },
            {
              "internalType": "uint256",
              "name": "quantity2",
              "type": "uint256"
            },
            {
              "internalType": "string",
              "name": "diagnosis",
              "type": "string"
            },
            {
              "internalType": "string",
              "name": "doctorNid",
              "type": "string"
            },
            {
              "internalType": "address",
              "name": "patientAddress",
              "type": "address"
            }
          ],
          "internalType": "struct PrescriptionContract.Prescription",
          "name": "",
          "type": "tuple"
        },
        {
          "components": [
            {
              "internalType": "string",
              "name": "doctorName",
              "type": "string"
            },
            {
              "internalType": "string",
              "name": "doctorLicense",
              "type": "string"
            },
            {
              "internalType": "string",
              "name": "doctorSpecialty",
              "type": "string"
            }
          ],
          "internalType": "struct PrescriptionContract.Doctor",
          "name": "",
          "type": "tuple"
        }
      ],
      "stateMutability": "view",
      "type": "function",
      "constant": true
    },
    {
      "inputs": [],
      "name": "getPrescriptions",
      "outputs": [
        {
          "components": [
            {
              "internalType": "string",
              "name": "patientName",
              "type": "string"
            },
            {
              "internalType": "string",
              "name": "patientNid",
              "type": "string"
            },
            {
              "internalType": "string",
              "name": "affiliateNum",
              "type": "string"
            },
            {
              "internalType": "string",
              "name": "insuranceName",
              "type": "string"
            },
            {
              "internalType": "string",
              "name": "insurancePlan",
              "type": "string"
            },
            {
              "internalType": "string",
              "name": "med1",
              "type": "string"
            },
            {
              "internalType": "uint256",
              "name": "quantity1",
              "type": "uint256"
            },
            {
              "internalType": "string",
              "name": "med2",
              "type": "string"
            },
            {
              "internalType": "uint256",
              "name": "quantity2",
              "type": "uint256"
            },
            {
              "internalType": "string",
              "name": "diagnosis",
              "type": "string"
            },
            {
              "internalType": "string",
              "name": "doctorNid",
              "type": "string"
            },
            {
              "internalType": "address",
              "name": "patientAddress",
              "type": "address"
            }
          ],
          "internalType": "struct PrescriptionContract.Prescription[]",
          "name": "",
          "type": "tuple[]"
        }
      ],
      "stateMutability": "view",
      "type": "function",
      "constant": true
    },
    {
      "inputs": [
        {
          "internalType": "string",
          "name": "_doctorNid",
          "type": "string"
        }
      ],
      "name": "getPresbyDoctorNid",
      "outputs": [
        {
          "components": [
            {
              "internalType": "string",
              "name": "patientName",
              "type": "string"
            },
            {
              "internalType": "string",
              "name": "patientNid",
              "type": "string"
            },
            {
              "internalType": "string",
              "name": "affiliateNum",
              "type": "string"
            },
            {
              "internalType": "string",
              "name": "insuranceName",
              "type": "string"
            },
            {
              "internalType": "string",
              "name": "insurancePlan",
              "type": "string"
            },
            {
              "internalType": "string",
              "name": "med1",
              "type": "string"
            },
            {
              "internalType": "uint256",
              "name": "quantity1",
              "type": "uint256"
            },
            {
              "internalType": "string",
              "name": "med2",
              "type": "string"
            },
            {
              "internalType": "uint256",
              "name": "quantity2",
              "type": "uint256"
            },
            {
              "internalType": "string",
              "name": "diagnosis",
              "type": "string"
            },
            {
              "internalType": "string",
              "name": "doctorNid",
              "type": "string"
            },
            {
              "internalType": "address",
              "name": "patientAddress",
              "type": "address"
            }
          ],
          "internalType": "struct PrescriptionContract.Prescription[]",
          "name": "",
          "type": "tuple[]"
        }
      ],
      "stateMutability": "view",
      "type": "function",
      "constant": true
    }
  ],
  "bytecode": "0x608060405234801561001057600080fd5b50612a0c806100206000396000f3fe608060405234801561001057600080fd5b50600436106100885760003560e01c80636f16af101161005b5780636f16af101461010b578063a1ea57c61461012c578063a452e0591461014c578063b65584981461015457610088565b806305c35ce51461008d57806331dfc91b146100b857806333a8587f146100e357806361b2f889146100f8575b600080fd5b6100a061009b366004612218565b610169565b6040516100af93929190612740565b60405180910390f35b6100cb6100c63660046124b8565b61032e565b6040516100af9c9b9a99989796959493929190612783565b6100f66100f1366004612252565b61086f565b005b6100f66101063660046122f9565b610902565b61011e6101193660046124b8565b610b43565b6040516100af92919061288c565b61013f61013a366004612218565b611312565b6040516100af91906126e0565b61013f611aab565b61015c612057565b6040516100af91906128f8565b805160208183018101805160018252928201919093012091528054819061018f90612954565b80601f01602080910402602001604051908101604052809291908181526020018280546101bb90612954565b80156102085780601f106101dd57610100808354040283529160200191610208565b820191906000526020600020905b8154815290600101906020018083116101eb57829003601f168201915b50505050509080600101805461021d90612954565b80601f016020809104026020016040519081016040528092919081815260200182805461024990612954565b80156102965780601f1061026b57610100808354040283529160200191610296565b820191906000526020600020905b81548152906001019060200180831161027957829003601f168201915b5050505050908060020180546102ab90612954565b80601f01602080910402602001604051908101604052809291908181526020018280546102d790612954565b80156103245780601f106102f957610100808354040283529160200191610324565b820191906000526020600020905b81548152906001019060200180831161030757829003601f168201915b5050505050905083565b6000818154811061033e57600080fd5b90600052602060002090600c020160009150905080600001805461036190612954565b80601f016020809104026020016040519081016040528092919081815260200182805461038d90612954565b80156103da5780601f106103af576101008083540402835291602001916103da565b820191906000526020600020905b8154815290600101906020018083116103bd57829003601f168201915b5050505050908060010180546103ef90612954565b80601f016020809104026020016040519081016040528092919081815260200182805461041b90612954565b80156104685780601f1061043d57610100808354040283529160200191610468565b820191906000526020600020905b81548152906001019060200180831161044b57829003601f168201915b50505050509080600201805461047d90612954565b80601f01602080910402602001604051908101604052809291908181526020018280546104a990612954565b80156104f65780601f106104cb576101008083540402835291602001916104f6565b820191906000526020600020905b8154815290600101906020018083116104d957829003601f168201915b50505050509080600301805461050b90612954565b80601f016020809104026020016040519081016040528092919081815260200182805461053790612954565b80156105845780601f1061055957610100808354040283529160200191610584565b820191906000526020600020905b81548152906001019060200180831161056757829003601f168201915b50505050509080600401805461059990612954565b80601f01602080910402602001604051908101604052809291908181526020018280546105c590612954565b80156106125780601f106105e757610100808354040283529160200191610612565b820191906000526020600020905b8154815290600101906020018083116105f557829003601f168201915b50505050509080600501805461062790612954565b80601f016020809104026020016040519081016040528092919081815260200182805461065390612954565b80156106a05780601f10610675576101008083540402835291602001916106a0565b820191906000526020600020905b81548152906001019060200180831161068357829003601f168201915b5050505050908060060154908060070180546106bb90612954565b80601f01602080910402602001604051908101604052809291908181526020018280546106e790612954565b80156107345780601f1061070957610100808354040283529160200191610734565b820191906000526020600020905b81548152906001019060200180831161071757829003601f168201915b50505050509080600801549080600901805461074f90612954565b80601f016020809104026020016040519081016040528092919081815260200182805461077b90612954565b80156107c85780601f1061079d576101008083540402835291602001916107c8565b820191906000526020600020905b8154815290600101906020018083116107ab57829003601f168201915b50505050509080600a0180546107dd90612954565b80601f016020809104026020016040519081016040528092919081815260200182805461080990612954565b80156108565780601f1061082b57610100808354040283529160200191610856565b820191906000526020600020905b81548152906001019060200180831161083957829003601f168201915b505050600b90930154919250506001600160a01b03168c565b60405180606001604052808481526020018381526020018281525060018560405161089a9190612629565b908152602001604051809103902060008201518160000190805190602001906108c492919061205d565b5060208281015180516108dd926001850192019061205d565b50604082015180516108f991600284019160209091019061205d565b50505050505050565b60408051610180810182528d815260208082018e90529181018c9052606081018b9052608081018a905260a0810189905260c0810188905260e081018790526101008101869052610120810185905261014081018490526001600160a01b038316610160820152600080546001810182559080528151805192938493600c9093027f290decd9548b62a8d60345a988386fc84ba6bc95484008f6362f93160ef3e56301926109b3928492019061205d565b5060208281015180516109cc926001850192019061205d565b50604082015180516109e891600284019160209091019061205d565b5060608201518051610a0491600384019160209091019061205d565b5060808201518051610a2091600484019160209091019061205d565b5060a08201518051610a3c91600584019160209091019061205d565b5060c0820151600682015560e08201518051610a6291600784019160209091019061205d565b5061010082015160088201556101208201518051610a8a91600984019160209091019061205d565b506101408201518051610aa791600a84019160209091019061205d565b506101609190910151600b90910180546001600160a01b0319166001600160a01b0390921691909117905560028054906000610ae28361298f565b91905055507f1872836e737bfe7ef9f4bd41338354cdc182594a1a2fecf221b360fcbed283008d8e8d8d8d8d8d8d8d8d8d8d604051610b2c9c9b9a99989796959493929190612783565b60405180910390a150505050505050505050505050565b610b4b6120e1565b610b5361214b565b600083118015610b6557506002548311155b610b8a5760405162461bcd60e51b8152600401610b8190612867565b60405180910390fd5b600080610b9860018661290d565b81548110610bb657634e487b7160e01b600052603260045260246000fd5b90600052602060002090600c020160405180610180016040529081600082018054610be090612954565b80601f0160208091040260200160405190810160405280929190818152602001828054610c0c90612954565b8015610c595780601f10610c2e57610100808354040283529160200191610c59565b820191906000526020600020905b815481529060010190602001808311610c3c57829003601f168201915b50505050508152602001600182018054610c7290612954565b80601f0160208091040260200160405190810160405280929190818152602001828054610c9e90612954565b8015610ceb5780601f10610cc057610100808354040283529160200191610ceb565b820191906000526020600020905b815481529060010190602001808311610cce57829003601f168201915b50505050508152602001600282018054610d0490612954565b80601f0160208091040260200160405190810160405280929190818152602001828054610d3090612954565b8015610d7d5780601f10610d5257610100808354040283529160200191610d7d565b820191906000526020600020905b815481529060010190602001808311610d6057829003601f168201915b50505050508152602001600382018054610d9690612954565b80601f0160208091040260200160405190810160405280929190818152602001828054610dc290612954565b8015610e0f5780601f10610de457610100808354040283529160200191610e0f565b820191906000526020600020905b815481529060010190602001808311610df257829003601f168201915b50505050508152602001600482018054610e2890612954565b80601f0160208091040260200160405190810160405280929190818152602001828054610e5490612954565b8015610ea15780601f10610e7657610100808354040283529160200191610ea1565b820191906000526020600020905b815481529060010190602001808311610e8457829003601f168201915b50505050508152602001600582018054610eba90612954565b80601f0160208091040260200160405190810160405280929190818152602001828054610ee690612954565b8015610f335780601f10610f0857610100808354040283529160200191610f33565b820191906000526020600020905b815481529060010190602001808311610f1657829003601f168201915b5050505050815260200160068201548152602001600782018054610f5690612954565b80601f0160208091040260200160405190810160405280929190818152602001828054610f8290612954565b8015610fcf5780601f10610fa457610100808354040283529160200191610fcf565b820191906000526020600020905b815481529060010190602001808311610fb257829003601f168201915b5050505050815260200160088201548152602001600982018054610ff290612954565b80601f016020809104026020016040519081016040528092919081815260200182805461101e90612954565b801561106b5780601f106110405761010080835404028352916020019161106b565b820191906000526020600020905b81548152906001019060200180831161104e57829003601f168201915b50505050508152602001600a8201805461108490612954565b80601f01602080910402602001604051908101604052809291908181526020018280546110b090612954565b80156110fd5780601f106110d2576101008083540402835291602001916110fd565b820191906000526020600020905b8154815290600101906020018083116110e057829003601f168201915b5050509183525050600b91909101546001600160a01b031660209091015261014081015160405191925060009160019161113691612629565b908152602001604051809103902060405180606001604052908160008201805461115f90612954565b80601f016020809104026020016040519081016040528092919081815260200182805461118b90612954565b80156111d85780601f106111ad576101008083540402835291602001916111d8565b820191906000526020600020905b8154815290600101906020018083116111bb57829003601f168201915b505050505081526020016001820180546111f190612954565b80601f016020809104026020016040519081016040528092919081815260200182805461121d90612954565b801561126a5780601f1061123f5761010080835404028352916020019161126a565b820191906000526020600020905b81548152906001019060200180831161124d57829003601f168201915b5050505050815260200160028201805461128390612954565b80601f01602080910402602001604051908101604052809291908181526020018280546112af90612954565b80156112fc5780601f106112d1576101008083540402835291602001916112fc565b820191906000526020600020905b8154815290600101906020018083116112df57829003601f168201915b5050509190925250939550909350505050915091565b60606000805b6002548110156113d357600080828154811061134457634e487b7160e01b600052603260045260246000fd5b90600052602060002090600c0201600a016040516020016113659190612645565b6040516020818303038152906040528051906020012090506000856040516020016113909190612629565b604051602081830303815290604052805190602001209050808214156113be57836113ba8161298f565b9450505b505080806113cb9061298f565b915050611318565b506000816001600160401b038111156113fc57634e487b7160e01b600052604160045260246000fd5b60405190808252806020026020018201604052801561143557816020015b6114226120e1565b81526020019060019003908161141a5790505b5090506000805b600254811015611a9f57856040516020016114579190612629565b604051602081830303815290604052805190602001206000828154811061148e57634e487b7160e01b600052603260045260246000fd5b90600052602060002090600c0201600a016040516020016114af9190612645565b604051602081830303815290604052805190602001201415611a8d57600081815481106114ec57634e487b7160e01b600052603260045260246000fd5b90600052602060002090600c02016040518061018001604052908160008201805461151690612954565b80601f016020809104026020016040519081016040528092919081815260200182805461154290612954565b801561158f5780601f106115645761010080835404028352916020019161158f565b820191906000526020600020905b81548152906001019060200180831161157257829003601f168201915b505050505081526020016001820180546115a890612954565b80601f01602080910402602001604051908101604052809291908181526020018280546115d490612954565b80156116215780601f106115f657610100808354040283529160200191611621565b820191906000526020600020905b81548152906001019060200180831161160457829003601f168201915b5050505050815260200160028201805461163a90612954565b80601f016020809104026020016040519081016040528092919081815260200182805461166690612954565b80156116b35780601f10611688576101008083540402835291602001916116b3565b820191906000526020600020905b81548152906001019060200180831161169657829003601f168201915b505050505081526020016003820180546116cc90612954565b80601f01602080910402602001604051908101604052809291908181526020018280546116f890612954565b80156117455780601f1061171a57610100808354040283529160200191611745565b820191906000526020600020905b81548152906001019060200180831161172857829003601f168201915b5050505050815260200160048201805461175e90612954565b80601f016020809104026020016040519081016040528092919081815260200182805461178a90612954565b80156117d75780601f106117ac576101008083540402835291602001916117d7565b820191906000526020600020905b8154815290600101906020018083116117ba57829003601f168201915b505050505081526020016005820180546117f090612954565b80601f016020809104026020016040519081016040528092919081815260200182805461181c90612954565b80156118695780601f1061183e57610100808354040283529160200191611869565b820191906000526020600020905b81548152906001019060200180831161184c57829003601f168201915b505050505081526020016006820154815260200160078201805461188c90612954565b80601f01602080910402602001604051908101604052809291908181526020018280546118b890612954565b80156119055780601f106118da57610100808354040283529160200191611905565b820191906000526020600020905b8154815290600101906020018083116118e857829003601f168201915b505050505081526020016008820154815260200160098201805461192890612954565b80601f016020809104026020016040519081016040528092919081815260200182805461195490612954565b80156119a15780601f10611976576101008083540402835291602001916119a1565b820191906000526020600020905b81548152906001019060200180831161198457829003601f168201915b50505050508152602001600a820180546119ba90612954565b80601f01602080910402602001604051908101604052809291908181526020018280546119e690612954565b8015611a335780601f10611a0857610100808354040283529160200191611a33565b820191906000526020600020905b815481529060010190602001808311611a1657829003601f168201915b5050509183525050600b91909101546001600160a01b03166020909101528351849084908110611a7357634e487b7160e01b600052603260045260246000fd5b60200260200101819052508180611a899061298f565b9250505b80611a978161298f565b91505061143c565b5090925050505b919050565b60606000805480602002602001604051908101604052809291908181526020016000905b8282101561204e57838290600052602060002090600c020160405180610180016040529081600082018054611b0390612954565b80601f0160208091040260200160405190810160405280929190818152602001828054611b2f90612954565b8015611b7c5780601f10611b5157610100808354040283529160200191611b7c565b820191906000526020600020905b815481529060010190602001808311611b5f57829003601f168201915b50505050508152602001600182018054611b9590612954565b80601f0160208091040260200160405190810160405280929190818152602001828054611bc190612954565b8015611c0e5780601f10611be357610100808354040283529160200191611c0e565b820191906000526020600020905b815481529060010190602001808311611bf157829003601f168201915b50505050508152602001600282018054611c2790612954565b80601f0160208091040260200160405190810160405280929190818152602001828054611c5390612954565b8015611ca05780601f10611c7557610100808354040283529160200191611ca0565b820191906000526020600020905b815481529060010190602001808311611c8357829003601f168201915b50505050508152602001600382018054611cb990612954565b80601f0160208091040260200160405190810160405280929190818152602001828054611ce590612954565b8015611d325780601f10611d0757610100808354040283529160200191611d32565b820191906000526020600020905b815481529060010190602001808311611d1557829003601f168201915b50505050508152602001600482018054611d4b90612954565b80601f0160208091040260200160405190810160405280929190818152602001828054611d7790612954565b8015611dc45780601f10611d9957610100808354040283529160200191611dc4565b820191906000526020600020905b815481529060010190602001808311611da757829003601f168201915b50505050508152602001600582018054611ddd90612954565b80601f0160208091040260200160405190810160405280929190818152602001828054611e0990612954565b8015611e565780601f10611e2b57610100808354040283529160200191611e56565b820191906000526020600020905b815481529060010190602001808311611e3957829003601f168201915b5050505050815260200160068201548152602001600782018054611e7990612954565b80601f0160208091040260200160405190810160405280929190818152602001828054611ea590612954565b8015611ef25780601f10611ec757610100808354040283529160200191611ef2565b820191906000526020600020905b815481529060010190602001808311611ed557829003601f168201915b5050505050815260200160088201548152602001600982018054611f1590612954565b80601f0160208091040260200160405190810160405280929190818152602001828054611f4190612954565b8015611f8e5780601f10611f6357610100808354040283529160200191611f8e565b820191906000526020600020905b815481529060010190602001808311611f7157829003601f168201915b50505050508152602001600a82018054611fa790612954565b80601f0160208091040260200160405190810160405280929190818152602001828054611fd390612954565b80156120205780601f10611ff557610100808354040283529160200191612020565b820191906000526020600020905b81548152906001019060200180831161200357829003601f168201915b5050509183525050600b91909101546001600160a01b03166020918201529082526001929092019101611acf565b50505050905090565b60025481565b82805461206990612954565b90600052602060002090601f01602090048101928261208b57600085556120d1565b82601f106120a457805160ff19168380011785556120d1565b828001600101855582156120d1579182015b828111156120d15782518255916020019190600101906120b6565b506120dd92915061216c565b5090565b604051806101800160405280606081526020016060815260200160608152602001606081526020016060815260200160608152602001600081526020016060815260200160008152602001606081526020016060815260200160006001600160a01b031681525090565b60405180606001604052806060815260200160608152602001606081525090565b5b808211156120dd576000815560010161216d565b80356001600160a01b0381168114611aa657600080fd5b600082601f8301126121a8578081fd5b81356001600160401b03808211156121c2576121c26129c0565b604051601f8301601f1916810160200182811182821017156121e6576121e66129c0565b6040528281528483016020018610156121fd578384fd5b82602086016020830137918201602001929092529392505050565b600060208284031215612229578081fd5b81356001600160401b0381111561223e578182fd5b61224a84828501612198565b949350505050565b60008060008060808587031215612267578283fd5b84356001600160401b038082111561227d578485fd5b61228988838901612198565b9550602087013591508082111561229e578485fd5b6122aa88838901612198565b945060408701359150808211156122bf578384fd5b6122cb88838901612198565b935060608701359150808211156122e0578283fd5b506122ed87828801612198565b91505092959194509250565b6000806000806000806000806000806000806101808d8f03121561231b578788fd5b6001600160401b038d35111561232f578788fd5b61233c8e8e358f01612198565b9b506001600160401b0360208e01351115612355578788fd5b6123658e60208f01358f01612198565b9a506001600160401b0360408e0135111561237e578788fd5b61238e8e60408f01358f01612198565b99506001600160401b0360608e013511156123a7578788fd5b6123b78e60608f01358f01612198565b98506001600160401b0360808e013511156123d0578788fd5b6123e08e60808f01358f01612198565b97506001600160401b0360a08e013511156123f9578687fd5b6124098e60a08f01358f01612198565b965060c08d013595506001600160401b0360e08e01351115612429578485fd5b6124398e60e08f01358f01612198565b94506101008d013593506001600160401b036101208e0135111561245b578283fd5b61246c8e6101208f01358f01612198565b92506001600160401b036101408e01351115612486578081fd5b6124978e6101408f01358f01612198565b91506124a66101608e01612181565b90509295989b509295989b509295989b565b6000602082840312156124c9578081fd5b5035919050565b6001600160a01b03169052565b600081518084526124f5816020860160208601612924565b601f01601f19169290920160200192915050565b6000610180825181855261251f828601826124dd565b9150506020830151848203602086015261253982826124dd565b9150506040830151848203604086015261255382826124dd565b9150506060830151848203606086015261256d82826124dd565b9150506080830151848203608086015261258782826124dd565b91505060a083015184820360a08601526125a182826124dd565b91505060c083015160c085015260e083015184820360e08601526125c582826124dd565b91505061010080840151818601525061012080840151858303828701526125ec83826124dd565b92505050610140808401518583038287015261260883826124dd565b925050506101608084015161261f828701826124d0565b5090949350505050565b6000825161263b818460208701612924565b9190910192915050565b815460009081906002810460018083168061266157607f831692505b602080841082141561268157634e487b7160e01b87526022600452602487fd5b81801561269557600181146126a6576126d2565b60ff198616895284890196506126d2565b6126af8a612901565b885b868110156126ca5781548b8201529085019083016126b1565b505084890196505b509498975050505050505050565b6000602080830181845280855180835260408601915060408482028701019250838701855b8281101561273357603f19888603018452612721858351612509565b94509285019290850190600101612705565b5092979650505050505050565b60006060825261275360608301866124dd565b828103602084015261276581866124dd565b9050828103604084015261277981856124dd565b9695505050505050565b6000610180825261279861018083018f6124dd565b82810360208401526127aa818f6124dd565b905082810360408401526127be818e6124dd565b905082810360608401526127d2818d6124dd565b905082810360808401526127e6818c6124dd565b905082810360a08401526127fa818b6124dd565b90508860c084015282810360e084015261281481896124dd565b90508661010084015282810361012084015261283081876124dd565b905082810361014084015261284581866124dd565b9150506128566101608301846124d0565b9d9c50505050505050505050505050565b6020808252600b908201526a34b73b30b634b21034b21760a91b604082015260600190565b60006040825261289f6040830185612509565b82810360208401528351606082526128ba60608301826124dd565b9050602085015182820360208401526128d382826124dd565b915050604085015182820360408401526128ed82826124dd565b979650505050505050565b90815260200190565b60009081526020902090565b60008282101561291f5761291f6129aa565b500390565b60005b8381101561293f578181015183820152602001612927565b8381111561294e576000848401525b50505050565b60028104600182168061296857607f821691505b6020821081141561298957634e487b7160e01b600052602260045260246000fd5b50919050565b60006000198214156129a3576129a36129aa565b5060010190565b634e487b7160e01b600052601160045260246000fd5b634e487b7160e01b600052604160045260246000fdfea26469706673582212203653c6189006a36f24017ebb21248bb9b663e641f254a003f6b755b7a7b1186264736f6c63430008000033",
  "immutableReferences": {},
  "source": "// SPDX-License-Identifier: MIT\r\npragma solidity ^0.8.0;\r\n\r\ncontract PrescriptionContract {\r\n    struct Prescription {\r\n        string patientName;\r\n        string patientNid;\r\n        string affiliateNum;\r\n        string insuranceName;\r\n        string insurancePlan;\r\n        string med1;\r\n        uint quantity1;\r\n        string med2;\r\n        uint quantity2;\r\n        string diagnosis;\r\n        string doctorNid; \r\n        address patientAddress;\r\n    }\r\n\r\n    Prescription[] public prescriptions;\r\n    mapping(string => Doctor) public doctors; \r\n\r\n    struct Doctor {\r\n        string doctorName;\r\n        string doctorLicense;\r\n        string doctorSpecialty;\r\n    }\r\n\r\n    uint public prescriptionCount;\r\n\r\n    event IssuedPrescription(\r\n        string patientName,\r\n        string patientNid,\r\n        string affiliateNum,\r\n        string insuranceName,\r\n        string insurancePlan,\r\n        string med1,\r\n        uint quantity1,\r\n        string med2,\r\n        uint quantity2,\r\n        string diagnosis,\r\n        string doctorNid,\r\n        address patientAddress \r\n    );\r\n\r\n    // Register function\r\n    function registerDoctor(\r\n        string memory _doctorNid,\r\n        string memory _doctorName,\r\n        string memory _doctorLicense,\r\n        string memory _doctorSpecialty\r\n    ) public {\r\n        doctors[_doctorNid] = Doctor ({\r\n            doctorName: _doctorName,\r\n            doctorLicense: _doctorLicense,\r\n            doctorSpecialty: _doctorSpecialty\r\n        });\r\n    }\r\n\r\n    function issuePrescription(\r\n        string memory _patientName,\r\n        string memory _patientNid,\r\n        string memory _affiliateNum,\r\n        string memory _licenseName,\r\n        string memory _licensePlan,\r\n        string memory _med1,\r\n        uint _quantity1,\r\n        string memory _med2,\r\n        uint _quantity2,\r\n        string memory _diagnosis,\r\n        string memory _doctorNid,\r\n        address _patientAddress \r\n    ) public {\r\n        Prescription memory newPrescription = Prescription(\r\n            _patientName,\r\n            _patientNid,\r\n            _affiliateNum,\r\n            _licenseName,\r\n            _licensePlan,\r\n            _med1,\r\n            _quantity1,\r\n            _med2,\r\n            _quantity2,\r\n            _diagnosis,\r\n            _doctorNid,\r\n             _patientAddress\r\n        );\r\n        prescriptions.push(newPrescription);\r\n        prescriptionCount++;\r\n\r\n        emit IssuedPrescription(\r\n            _patientName,\r\n            _patientName,\r\n            _affiliateNum,\r\n            _licenseName,\r\n            _licensePlan,\r\n            _med1,\r\n            _quantity1,\r\n            _med2,\r\n            _quantity2,\r\n            _diagnosis,\r\n            _doctorNid,\r\n            _patientAddress\r\n        );\r\n    }\r\n\r\n    function getPrescription(uint _prescriptionId) public view returns (Prescription memory, Doctor memory) {\r\n        require(_prescriptionId > 0 && _prescriptionId <= prescriptionCount, \"invalid id.\");\r\n        Prescription memory prescription = prescriptions[_prescriptionId - 1];\r\n        Doctor memory doctor = doctors[prescription.doctorNid];\r\n        return (prescription, doctor);\r\n    }\r\n\r\n    function getPrescriptions() public view returns (Prescription[] memory) {\r\n        return prescriptions;\r\n    }\r\n\r\n    // -----------------------------\r\nfunction getPresbyDoctorNid(string memory _doctorNid) public view returns (Prescription[] memory) {\r\n    uint count = 0;\r\n    \r\n    // Primer bucle para contar cuntas recetas pertenecen al doctor\r\n    for (uint i = 0; i < prescriptionCount; i++) {\r\n        // Obtener los hashes de ambos NID (almacenado y proporcionado)\r\n        bytes32 storedHash = keccak256(abi.encodePacked(prescriptions[i].doctorNid));\r\n        bytes32 inputHash = keccak256(abi.encodePacked(_doctorNid));\r\n\r\n        // Comparar ambos hashes\r\n        if (storedHash == inputHash) {\r\n            count++;\r\n        }\r\n    }\r\n\r\n    // Crear un array para almacenar las recetas del doctor\r\n    Prescription[] memory doctorPrescriptions = new Prescription[](count);\r\n    uint index = 0;\r\n\r\n    // Segundo bucle para almacenar las recetas correspondientes\r\n    for (uint i = 0; i < prescriptionCount; i++) {\r\n        if (keccak256(abi.encodePacked(prescriptions[i].doctorNid)) == keccak256(abi.encodePacked(_doctorNid))) {\r\n            doctorPrescriptions[index] = prescriptions[i];\r\n            index++;\r\n        }\r\n    }\r\n\r\n    return doctorPrescriptions;\r\n}\r\n\r\n}",
  "sourcePath": "C:\\Users\\Usuario\\OneDrive\\Escritorio\\OneDrive\\2024\\Trabajo Final\\prescryption_v2\\prescryption_solidity\\contracts\\Prescription.sol",
  "compiler": {
    "name": "solc",
    "version": "0.8.0+commit.c7dfd78e.Emscripten.clang"
  },
  "schemaVersion": "3.4.16",
  "updatedAt": "2024-10-06T00:35:02.803Z",
  "networkType": "ethereum",
  "devdoc": {
    "kind": "dev",
    "methods": {},
    "version": 1
  },
  "userdoc": {
    "kind": "user",
    "methods": {},
    "version": 1
  }
}