{
  "contractName": "PrescriptionContract",
  "abi": [
    {
      "anonymous": false,
      "inputs": [
        {
          "indexed": false,
          "internalType": "uint256",
          "name": "id",
          "type": "uint256"
        },
        {
          "indexed": false,
          "internalType": "string",
          "name": "patientName",
          "type": "string"
        },
        {
          "indexed": false,
          "internalType": "string",
          "name": "patientNid",
          "type": "string"
        },
        {
          "components": [
            {
              "internalType": "string",
              "name": "med1",
              "type": "string"
            },
            {
              "internalType": "uint256",
              "name": "quantity1",
              "type": "uint256"
            },
            {
              "internalType": "string",
              "name": "med2",
              "type": "string"
            },
            {
              "internalType": "uint256",
              "name": "quantity2",
              "type": "uint256"
            },
            {
              "internalType": "string",
              "name": "diagnosis",
              "type": "string"
            },
            {
              "internalType": "string",
              "name": "observations",
              "type": "string"
            }
          ],
          "indexed": false,
          "internalType": "struct PrescriptionContract.MedicationInfo",
          "name": "meds",
          "type": "tuple"
        },
        {
          "components": [
            {
              "internalType": "string",
              "name": "affiliateNum",
              "type": "string"
            },
            {
              "internalType": "string",
              "name": "insuranceName",
              "type": "string"
            },
            {
              "internalType": "string",
              "name": "insurancePlan",
              "type": "string"
            }
          ],
          "indexed": false,
          "internalType": "struct PrescriptionContract.InsuranceInfo",
          "name": "insurance",
          "type": "tuple"
        },
        {
          "indexed": false,
          "internalType": "string",
          "name": "doctorNid",
          "type": "string"
        },
        {
          "indexed": false,
          "internalType": "address",
          "name": "patientAddress",
          "type": "address"
        },
        {
          "indexed": false,
          "internalType": "address",
          "name": "pharmacyAddress",
          "type": "address"
        },
        {
          "indexed": false,
          "internalType": "uint256",
          "name": "issueDate",
          "type": "uint256"
        },
        {
          "indexed": false,
          "internalType": "uint256",
          "name": "expirationDate",
          "type": "uint256"
        }
      ],
      "name": "IssuedPrescription",
      "type": "event"
    },
    {
      "inputs": [
        {
          "internalType": "string",
          "name": "",
          "type": "string"
        }
      ],
      "name": "doctors",
      "outputs": [
        {
          "internalType": "string",
          "name": "doctorName",
          "type": "string"
        },
        {
          "internalType": "string",
          "name": "doctorLicense",
          "type": "string"
        },
        {
          "internalType": "string",
          "name": "doctorSpecialty",
          "type": "string"
        }
      ],
      "stateMutability": "view",
      "type": "function",
      "constant": true
    },
    {
      "inputs": [],
      "name": "prescriptionCount",
      "outputs": [
        {
          "internalType": "uint256",
          "name": "",
          "type": "uint256"
        }
      ],
      "stateMutability": "view",
      "type": "function",
      "constant": true
    },
    {
      "inputs": [
        {
          "internalType": "uint256",
          "name": "",
          "type": "uint256"
        }
      ],
      "name": "prescriptions",
      "outputs": [
        {
          "internalType": "uint256",
          "name": "id",
          "type": "uint256"
        },
        {
          "internalType": "string",
          "name": "patientName",
          "type": "string"
        },
        {
          "internalType": "string",
          "name": "patientNid",
          "type": "string"
        },
        {
          "components": [
            {
              "internalType": "string",
              "name": "med1",
              "type": "string"
            },
            {
              "internalType": "uint256",
              "name": "quantity1",
              "type": "uint256"
            },
            {
              "internalType": "string",
              "name": "med2",
              "type": "string"
            },
            {
              "internalType": "uint256",
              "name": "quantity2",
              "type": "uint256"
            },
            {
              "internalType": "string",
              "name": "diagnosis",
              "type": "string"
            },
            {
              "internalType": "string",
              "name": "observations",
              "type": "string"
            }
          ],
          "internalType": "struct PrescriptionContract.MedicationInfo",
          "name": "meds",
          "type": "tuple"
        },
        {
          "components": [
            {
              "internalType": "string",
              "name": "affiliateNum",
              "type": "string"
            },
            {
              "internalType": "string",
              "name": "insuranceName",
              "type": "string"
            },
            {
              "internalType": "string",
              "name": "insurancePlan",
              "type": "string"
            }
          ],
          "internalType": "struct PrescriptionContract.InsuranceInfo",
          "name": "insurance",
          "type": "tuple"
        },
        {
          "internalType": "string",
          "name": "doctorNid",
          "type": "string"
        },
        {
          "internalType": "address",
          "name": "patientAddress",
          "type": "address"
        },
        {
          "internalType": "address",
          "name": "pharmacyAddress",
          "type": "address"
        },
        {
          "internalType": "uint256",
          "name": "issueDate",
          "type": "uint256"
        },
        {
          "internalType": "uint256",
          "name": "expirationDate",
          "type": "uint256"
        },
        {
          "internalType": "bool",
          "name": "used",
          "type": "bool"
        }
      ],
      "stateMutability": "view",
      "type": "function",
      "constant": true
    },
    {
      "inputs": [
        {
          "internalType": "string",
          "name": "_patientName",
          "type": "string"
        },
        {
          "internalType": "string",
          "name": "_patientNid",
          "type": "string"
        },
        {
          "components": [
            {
              "internalType": "string",
              "name": "med1",
              "type": "string"
            },
            {
              "internalType": "uint256",
              "name": "quantity1",
              "type": "uint256"
            },
            {
              "internalType": "string",
              "name": "med2",
              "type": "string"
            },
            {
              "internalType": "uint256",
              "name": "quantity2",
              "type": "uint256"
            },
            {
              "internalType": "string",
              "name": "diagnosis",
              "type": "string"
            },
            {
              "internalType": "string",
              "name": "observations",
              "type": "string"
            }
          ],
          "internalType": "struct PrescriptionContract.MedicationInfo",
          "name": "_meds",
          "type": "tuple"
        },
        {
          "components": [
            {
              "internalType": "string",
              "name": "affiliateNum",
              "type": "string"
            },
            {
              "internalType": "string",
              "name": "insuranceName",
              "type": "string"
            },
            {
              "internalType": "string",
              "name": "insurancePlan",
              "type": "string"
            }
          ],
          "internalType": "struct PrescriptionContract.InsuranceInfo",
          "name": "_insurance",
          "type": "tuple"
        },
        {
          "internalType": "string",
          "name": "_doctorNid",
          "type": "string"
        },
        {
          "internalType": "address",
          "name": "_patientAddress",
          "type": "address"
        },
        {
          "internalType": "uint256",
          "name": "_issueDate",
          "type": "uint256"
        }
      ],
      "name": "issuePrescription",
      "outputs": [],
      "stateMutability": "nonpayable",
      "type": "function"
    },
    {
      "inputs": [
        {
          "internalType": "uint256",
          "name": "_prescriptionId",
          "type": "uint256"
        }
      ],
      "name": "getPrescription",
      "outputs": [
        {
          "components": [
            {
              "internalType": "uint256",
              "name": "id",
              "type": "uint256"
            },
            {
              "internalType": "string",
              "name": "patientName",
              "type": "string"
            },
            {
              "internalType": "string",
              "name": "patientNid",
              "type": "string"
            },
            {
              "components": [
                {
                  "internalType": "string",
                  "name": "med1",
                  "type": "string"
                },
                {
                  "internalType": "uint256",
                  "name": "quantity1",
                  "type": "uint256"
                },
                {
                  "internalType": "string",
                  "name": "med2",
                  "type": "string"
                },
                {
                  "internalType": "uint256",
                  "name": "quantity2",
                  "type": "uint256"
                },
                {
                  "internalType": "string",
                  "name": "diagnosis",
                  "type": "string"
                },
                {
                  "internalType": "string",
                  "name": "observations",
                  "type": "string"
                }
              ],
              "internalType": "struct PrescriptionContract.MedicationInfo",
              "name": "meds",
              "type": "tuple"
            },
            {
              "components": [
                {
                  "internalType": "string",
                  "name": "affiliateNum",
                  "type": "string"
                },
                {
                  "internalType": "string",
                  "name": "insuranceName",
                  "type": "string"
                },
                {
                  "internalType": "string",
                  "name": "insurancePlan",
                  "type": "string"
                }
              ],
              "internalType": "struct PrescriptionContract.InsuranceInfo",
              "name": "insurance",
              "type": "tuple"
            },
            {
              "internalType": "string",
              "name": "doctorNid",
              "type": "string"
            },
            {
              "internalType": "address",
              "name": "patientAddress",
              "type": "address"
            },
            {
              "internalType": "address",
              "name": "pharmacyAddress",
              "type": "address"
            },
            {
              "internalType": "uint256",
              "name": "issueDate",
              "type": "uint256"
            },
            {
              "internalType": "uint256",
              "name": "expirationDate",
              "type": "uint256"
            },
            {
              "internalType": "bool",
              "name": "used",
              "type": "bool"
            }
          ],
          "internalType": "struct PrescriptionContract.Prescription",
          "name": "",
          "type": "tuple"
        }
      ],
      "stateMutability": "view",
      "type": "function",
      "constant": true
    },
    {
      "inputs": [],
      "name": "getPrescriptions",
      "outputs": [
        {
          "components": [
            {
              "internalType": "uint256",
              "name": "id",
              "type": "uint256"
            },
            {
              "internalType": "string",
              "name": "patientName",
              "type": "string"
            },
            {
              "internalType": "string",
              "name": "patientNid",
              "type": "string"
            },
            {
              "components": [
                {
                  "internalType": "string",
                  "name": "med1",
                  "type": "string"
                },
                {
                  "internalType": "uint256",
                  "name": "quantity1",
                  "type": "uint256"
                },
                {
                  "internalType": "string",
                  "name": "med2",
                  "type": "string"
                },
                {
                  "internalType": "uint256",
                  "name": "quantity2",
                  "type": "uint256"
                },
                {
                  "internalType": "string",
                  "name": "diagnosis",
                  "type": "string"
                },
                {
                  "internalType": "string",
                  "name": "observations",
                  "type": "string"
                }
              ],
              "internalType": "struct PrescriptionContract.MedicationInfo",
              "name": "meds",
              "type": "tuple"
            },
            {
              "components": [
                {
                  "internalType": "string",
                  "name": "affiliateNum",
                  "type": "string"
                },
                {
                  "internalType": "string",
                  "name": "insuranceName",
                  "type": "string"
                },
                {
                  "internalType": "string",
                  "name": "insurancePlan",
                  "type": "string"
                }
              ],
              "internalType": "struct PrescriptionContract.InsuranceInfo",
              "name": "insurance",
              "type": "tuple"
            },
            {
              "internalType": "string",
              "name": "doctorNid",
              "type": "string"
            },
            {
              "internalType": "address",
              "name": "patientAddress",
              "type": "address"
            },
            {
              "internalType": "address",
              "name": "pharmacyAddress",
              "type": "address"
            },
            {
              "internalType": "uint256",
              "name": "issueDate",
              "type": "uint256"
            },
            {
              "internalType": "uint256",
              "name": "expirationDate",
              "type": "uint256"
            },
            {
              "internalType": "bool",
              "name": "used",
              "type": "bool"
            }
          ],
          "internalType": "struct PrescriptionContract.Prescription[]",
          "name": "",
          "type": "tuple[]"
        }
      ],
      "stateMutability": "view",
      "type": "function",
      "constant": true
    },
    {
      "inputs": [
        {
          "internalType": "string",
          "name": "_doctorNid",
          "type": "string"
        }
      ],
      "name": "getPresbyDoctorNid",
      "outputs": [
        {
          "components": [
            {
              "internalType": "uint256",
              "name": "id",
              "type": "uint256"
            },
            {
              "internalType": "string",
              "name": "patientName",
              "type": "string"
            },
            {
              "internalType": "string",
              "name": "patientNid",
              "type": "string"
            },
            {
              "components": [
                {
                  "internalType": "string",
                  "name": "med1",
                  "type": "string"
                },
                {
                  "internalType": "uint256",
                  "name": "quantity1",
                  "type": "uint256"
                },
                {
                  "internalType": "string",
                  "name": "med2",
                  "type": "string"
                },
                {
                  "internalType": "uint256",
                  "name": "quantity2",
                  "type": "uint256"
                },
                {
                  "internalType": "string",
                  "name": "diagnosis",
                  "type": "string"
                },
                {
                  "internalType": "string",
                  "name": "observations",
                  "type": "string"
                }
              ],
              "internalType": "struct PrescriptionContract.MedicationInfo",
              "name": "meds",
              "type": "tuple"
            },
            {
              "components": [
                {
                  "internalType": "string",
                  "name": "affiliateNum",
                  "type": "string"
                },
                {
                  "internalType": "string",
                  "name": "insuranceName",
                  "type": "string"
                },
                {
                  "internalType": "string",
                  "name": "insurancePlan",
                  "type": "string"
                }
              ],
              "internalType": "struct PrescriptionContract.InsuranceInfo",
              "name": "insurance",
              "type": "tuple"
            },
            {
              "internalType": "string",
              "name": "doctorNid",
              "type": "string"
            },
            {
              "internalType": "address",
              "name": "patientAddress",
              "type": "address"
            },
            {
              "internalType": "address",
              "name": "pharmacyAddress",
              "type": "address"
            },
            {
              "internalType": "uint256",
              "name": "issueDate",
              "type": "uint256"
            },
            {
              "internalType": "uint256",
              "name": "expirationDate",
              "type": "uint256"
            },
            {
              "internalType": "bool",
              "name": "used",
              "type": "bool"
            }
          ],
          "internalType": "struct PrescriptionContract.Prescription[]",
          "name": "",
          "type": "tuple[]"
        }
      ],
      "stateMutability": "view",
      "type": "function",
      "constant": true
    },
    {
      "inputs": [
        {
          "internalType": "address",
          "name": "_patientAddress",
          "type": "address"
        }
      ],
      "name": "getPresbyPatientAddress",
      "outputs": [
        {
          "components": [
            {
              "internalType": "uint256",
              "name": "id",
              "type": "uint256"
            },
            {
              "internalType": "string",
              "name": "patientName",
              "type": "string"
            },
            {
              "internalType": "string",
              "name": "patientNid",
              "type": "string"
            },
            {
              "components": [
                {
                  "internalType": "string",
                  "name": "med1",
                  "type": "string"
                },
                {
                  "internalType": "uint256",
                  "name": "quantity1",
                  "type": "uint256"
                },
                {
                  "internalType": "string",
                  "name": "med2",
                  "type": "string"
                },
                {
                  "internalType": "uint256",
                  "name": "quantity2",
                  "type": "uint256"
                },
                {
                  "internalType": "string",
                  "name": "diagnosis",
                  "type": "string"
                },
                {
                  "internalType": "string",
                  "name": "observations",
                  "type": "string"
                }
              ],
              "internalType": "struct PrescriptionContract.MedicationInfo",
              "name": "meds",
              "type": "tuple"
            },
            {
              "components": [
                {
                  "internalType": "string",
                  "name": "affiliateNum",
                  "type": "string"
                },
                {
                  "internalType": "string",
                  "name": "insuranceName",
                  "type": "string"
                },
                {
                  "internalType": "string",
                  "name": "insurancePlan",
                  "type": "string"
                }
              ],
              "internalType": "struct PrescriptionContract.InsuranceInfo",
              "name": "insurance",
              "type": "tuple"
            },
            {
              "internalType": "string",
              "name": "doctorNid",
              "type": "string"
            },
            {
              "internalType": "address",
              "name": "patientAddress",
              "type": "address"
            },
            {
              "internalType": "address",
              "name": "pharmacyAddress",
              "type": "address"
            },
            {
              "internalType": "uint256",
              "name": "issueDate",
              "type": "uint256"
            },
            {
              "internalType": "uint256",
              "name": "expirationDate",
              "type": "uint256"
            },
            {
              "internalType": "bool",
              "name": "used",
              "type": "bool"
            }
          ],
          "internalType": "struct PrescriptionContract.Prescription[]",
          "name": "",
          "type": "tuple[]"
        }
      ],
      "stateMutability": "view",
      "type": "function",
      "constant": true
    },
    {
      "inputs": [
        {
          "internalType": "uint256",
          "name": "_prescriptionId",
          "type": "uint256"
        },
        {
          "internalType": "address",
          "name": "_pharmacyAddress",
          "type": "address"
        }
      ],
      "name": "updatePrescription",
      "outputs": [],
      "stateMutability": "nonpayable",
      "type": "function"
    },
    {
      "inputs": [
        {
          "internalType": "address",
          "name": "_pharmacyAddress",
          "type": "address"
        }
      ],
      "name": "getPresbyPharmacyAddress",
      "outputs": [
        {
          "components": [
            {
              "internalType": "uint256",
              "name": "id",
              "type": "uint256"
            },
            {
              "internalType": "string",
              "name": "patientName",
              "type": "string"
            },
            {
              "internalType": "string",
              "name": "patientNid",
              "type": "string"
            },
            {
              "components": [
                {
                  "internalType": "string",
                  "name": "med1",
                  "type": "string"
                },
                {
                  "internalType": "uint256",
                  "name": "quantity1",
                  "type": "uint256"
                },
                {
                  "internalType": "string",
                  "name": "med2",
                  "type": "string"
                },
                {
                  "internalType": "uint256",
                  "name": "quantity2",
                  "type": "uint256"
                },
                {
                  "internalType": "string",
                  "name": "diagnosis",
                  "type": "string"
                },
                {
                  "internalType": "string",
                  "name": "observations",
                  "type": "string"
                }
              ],
              "internalType": "struct PrescriptionContract.MedicationInfo",
              "name": "meds",
              "type": "tuple"
            },
            {
              "components": [
                {
                  "internalType": "string",
                  "name": "affiliateNum",
                  "type": "string"
                },
                {
                  "internalType": "string",
                  "name": "insuranceName",
                  "type": "string"
                },
                {
                  "internalType": "string",
                  "name": "insurancePlan",
                  "type": "string"
                }
              ],
              "internalType": "struct PrescriptionContract.InsuranceInfo",
              "name": "insurance",
              "type": "tuple"
            },
            {
              "internalType": "string",
              "name": "doctorNid",
              "type": "string"
            },
            {
              "internalType": "address",
              "name": "patientAddress",
              "type": "address"
            },
            {
              "internalType": "address",
              "name": "pharmacyAddress",
              "type": "address"
            },
            {
              "internalType": "uint256",
              "name": "issueDate",
              "type": "uint256"
            },
            {
              "internalType": "uint256",
              "name": "expirationDate",
              "type": "uint256"
            },
            {
              "internalType": "bool",
              "name": "used",
              "type": "bool"
            }
          ],
          "internalType": "struct PrescriptionContract.Prescription[]",
          "name": "",
          "type": "tuple[]"
        }
      ],
      "stateMutability": "view",
      "type": "function",
      "constant": true
    },
    {
      "inputs": [
        {
          "internalType": "uint256",
          "name": "_prescriptionId",
          "type": "uint256"
        }
      ],
      "name": "markPrescriptionAsUsed",
      "outputs": [],
      "stateMutability": "nonpayable",
      "type": "function"
    }
  ],
  "bytecode": "0x608060405234801561001057600080fd5b50613f41806100206000396000f3fe608060405234801561001057600080fd5b50600436106100a95760003560e01c80636f16af10116100715780636f16af101461014b5780637dfe927c1461016b578063a1ea57c61461017e578063a452e05914610191578063a6757e8a14610199578063b6558498146101ac576100a9565b806305c35ce5146100ae5780631a7c89f9146100d957806331dfc91b146100ee5780633ff26b5614610118578063669643171461012b575b600080fd5b6100c16100bc36600461378b565b6101c1565b6040516100d093929190613bf0565b60405180910390f35b6100ec6100e73660046137c6565b610386565b005b6101016100fc3660046138ac565b61065a565b6040516100d09b9a99989796959493929190613d4a565b6100ec6101263660046138ac565b610c8f565b61013e61013936600461376a565b610d76565b6040516100d09190613b90565b61015e6101593660046138ac565b611589565b6040516100d09190613c8f565b61013e61017936600461376a565b611c48565b61013e61018c36600461378b565b61244f565b61013e612cc4565b6100ec6101a73660046138c4565b613369565b6101b46133fc565b6040516100d09190613ca2565b80516020818301810180516001825292820191909301209152805481906101e790613e89565b80601f016020809104026020016040519081016040528092919081815260200182805461021390613e89565b80156102605780601f1061023557610100808354040283529160200191610260565b820191906000526020600020905b81548152906001019060200180831161024357829003601f168201915b50505050509080600101805461027590613e89565b80601f01602080910402602001604051908101604052809291908181526020018280546102a190613e89565b80156102ee5780601f106102c3576101008083540402835291602001916102ee565b820191906000526020600020905b8154815290600101906020018083116102d157829003601f168201915b50505050509080600201805461030390613e89565b80601f016020809104026020016040519081016040528092919081815260200182805461032f90613e89565b801561037c5780601f106103515761010080835404028352916020019161037c565b820191906000526020600020905b81548152906001019060200180831161035f57829003601f168201915b5050505050905083565b6002805490600061039683613ec4565b90915550600090506103ab8262278d00613e2a565b6040805161016081018252600254815260208082018c81529282018b9052606082018a90526080820189905260a082018890526001600160a01b03871660c0830152600060e083018190526101008301879052610120830185905261014083018190528054600181018255908052825160129091027f290decd9548b62a8d60345a988386fc84ba6bc95484008f6362f93160ef3e563810191825593518051959650929485949193610483937f290decd9548b62a8d60345a988386fc84ba6bc95484008f6362f93160ef3e564909301920190613402565b506040820151805161049f916002840191602090910190613402565b5060608201518051805160038401916104bd91839160200190613402565b506020828101516001830155604083015180516104e09260028501920190613402565b506060820151600382015560808201518051610506916004840191602090910190613402565b5060a08201518051610522916005840191602090910190613402565b505050608082015180518051600984019161054291839160200190613402565b50602082810151805161055b9260018501920190613402565b5060408201518051610577916002840191602090910190613402565b50505060a0820151805161059591600c840191602090910190613402565b5060c0820151600d820180546001600160a01b039283166001600160a01b03199182161790915560e0840151600e84018054919093169116179055610100820151600f8201556101208201516010820155610140909101516011909101805491151560ff199092169190911790556002546040517fd89efbe119246515d9b6b7c40e7fe17947a14c2d1a0deccd4d7efe44543eeaff91610647918c908c908c908c908c908c906000908d908d90613cab565b60405180910390a1505050505050505050565b6000818154811061066a57600080fd5b6000918252602090912060129091020180546001820180549193509061068f90613e89565b80601f01602080910402602001604051908101604052809291908181526020018280546106bb90613e89565b80156107085780601f106106dd57610100808354040283529160200191610708565b820191906000526020600020905b8154815290600101906020018083116106eb57829003601f168201915b50505050509080600201805461071d90613e89565b80601f016020809104026020016040519081016040528092919081815260200182805461074990613e89565b80156107965780601f1061076b57610100808354040283529160200191610796565b820191906000526020600020905b81548152906001019060200180831161077957829003601f168201915b505050505090806003016040518060c00160405290816000820180546107bb90613e89565b80601f01602080910402602001604051908101604052809291908181526020018280546107e790613e89565b80156108345780601f1061080957610100808354040283529160200191610834565b820191906000526020600020905b81548152906001019060200180831161081757829003601f168201915b505050505081526020016001820154815260200160028201805461085790613e89565b80601f016020809104026020016040519081016040528092919081815260200182805461088390613e89565b80156108d05780601f106108a5576101008083540402835291602001916108d0565b820191906000526020600020905b8154815290600101906020018083116108b357829003601f168201915b50505050508152602001600382015481526020016004820180546108f390613e89565b80601f016020809104026020016040519081016040528092919081815260200182805461091f90613e89565b801561096c5780601f106109415761010080835404028352916020019161096c565b820191906000526020600020905b81548152906001019060200180831161094f57829003601f168201915b5050505050815260200160058201805461098590613e89565b80601f01602080910402602001604051908101604052809291908181526020018280546109b190613e89565b80156109fe5780601f106109d3576101008083540402835291602001916109fe565b820191906000526020600020905b8154815290600101906020018083116109e157829003601f168201915b5050505050815250509080600901604051806060016040529081600082018054610a2790613e89565b80601f0160208091040260200160405190810160405280929190818152602001828054610a5390613e89565b8015610aa05780601f10610a7557610100808354040283529160200191610aa0565b820191906000526020600020905b815481529060010190602001808311610a8357829003601f168201915b50505050508152602001600182018054610ab990613e89565b80601f0160208091040260200160405190810160405280929190818152602001828054610ae590613e89565b8015610b325780601f10610b0757610100808354040283529160200191610b32565b820191906000526020600020905b815481529060010190602001808311610b1557829003601f168201915b50505050508152602001600282018054610b4b90613e89565b80601f0160208091040260200160405190810160405280929190818152602001828054610b7790613e89565b8015610bc45780601f10610b9957610100808354040283529160200191610bc4565b820191906000526020600020905b815481529060010190602001808311610ba757829003601f168201915b5050505050815250509080600c018054610bdd90613e89565b80601f0160208091040260200160405190810160405280929190818152602001828054610c0990613e89565b8015610c565780601f10610c2b57610100808354040283529160200191610c56565b820191906000526020600020905b815481529060010190602001808311610c3957829003601f168201915b505050600d840154600e850154600f860154601087015460119097015495966001600160a01b0393841696929093169450925060ff168b565b600081118015610ca157506002548111155b610cc65760405162461bcd60e51b8152600401610cbd90613c33565b60405180910390fd5b6000610cd3600183613e42565b81548110610cf157634e487b7160e01b600052603260045260246000fd5b600091825260209091206011601290920201015460ff1615610d255760405162461bcd60e51b8152600401610cbd90613c58565b60016000610d338284613e42565b81548110610d5157634e487b7160e01b600052603260045260246000fd5b60009182526020909120601290910201601101805460ff191691151591909117905550565b60606000805b600254811015610df457836001600160a01b031660008281548110610db157634e487b7160e01b600052603260045260246000fd5b60009182526020909120600e60129092020101546001600160a01b03161415610de25781610dde81613ec4565b9250505b80610dec81613ec4565b915050610d7c565b5060008167ffffffffffffffff811115610e1e57634e487b7160e01b600052604160045260246000fd5b604051908082528060200260200182016040528015610e5757816020015b610e44613486565b815260200190600190039081610e3c5790505b5090506000805b60025481101561157d57856001600160a01b031660008281548110610e9357634e487b7160e01b600052603260045260246000fd5b60009182526020909120600e60129092020101546001600160a01b0316141561156b5760008181548110610ed757634e487b7160e01b600052603260045260246000fd5b90600052602060002090601202016040518061016001604052908160008201548152602001600182018054610f0b90613e89565b80601f0160208091040260200160405190810160405280929190818152602001828054610f3790613e89565b8015610f845780601f10610f5957610100808354040283529160200191610f84565b820191906000526020600020905b815481529060010190602001808311610f6757829003601f168201915b50505050508152602001600282018054610f9d90613e89565b80601f0160208091040260200160405190810160405280929190818152602001828054610fc990613e89565b80156110165780601f10610feb57610100808354040283529160200191611016565b820191906000526020600020905b815481529060010190602001808311610ff957829003601f168201915b50505050508152602001600382016040518060c001604052908160008201805461103f90613e89565b80601f016020809104026020016040519081016040528092919081815260200182805461106b90613e89565b80156110b85780601f1061108d576101008083540402835291602001916110b8565b820191906000526020600020905b81548152906001019060200180831161109b57829003601f168201915b50505050508152602001600182015481526020016002820180546110db90613e89565b80601f016020809104026020016040519081016040528092919081815260200182805461110790613e89565b80156111545780601f1061112957610100808354040283529160200191611154565b820191906000526020600020905b81548152906001019060200180831161113757829003601f168201915b505050505081526020016003820154815260200160048201805461117790613e89565b80601f01602080910402602001604051908101604052809291908181526020018280546111a390613e89565b80156111f05780601f106111c5576101008083540402835291602001916111f0565b820191906000526020600020905b8154815290600101906020018083116111d357829003601f168201915b5050505050815260200160058201805461120990613e89565b80601f016020809104026020016040519081016040528092919081815260200182805461123590613e89565b80156112825780601f1061125757610100808354040283529160200191611282565b820191906000526020600020905b81548152906001019060200180831161126557829003601f168201915b5050505050815250508152602001600982016040518060600160405290816000820180546112af90613e89565b80601f01602080910402602001604051908101604052809291908181526020018280546112db90613e89565b80156113285780601f106112fd57610100808354040283529160200191611328565b820191906000526020600020905b81548152906001019060200180831161130b57829003601f168201915b5050505050815260200160018201805461134190613e89565b80601f016020809104026020016040519081016040528092919081815260200182805461136d90613e89565b80156113ba5780601f1061138f576101008083540402835291602001916113ba565b820191906000526020600020905b81548152906001019060200180831161139d57829003601f168201915b505050505081526020016002820180546113d390613e89565b80601f01602080910402602001604051908101604052809291908181526020018280546113ff90613e89565b801561144c5780601f106114215761010080835404028352916020019161144c565b820191906000526020600020905b81548152906001019060200180831161142f57829003601f168201915b5050505050815250508152602001600c8201805461146990613e89565b80601f016020809104026020016040519081016040528092919081815260200182805461149590613e89565b80156114e25780601f106114b7576101008083540402835291602001916114e2565b820191906000526020600020905b8154815290600101906020018083116114c557829003601f168201915b5050509183525050600d8201546001600160a01b039081166020830152600e830154166040820152600f82015460608201526010820154608082015260119091015460ff16151560a090910152835184908490811061155157634e487b7160e01b600052603260045260246000fd5b6020026020010181905250818061156790613ec4565b9250505b8061157581613ec4565b915050610e5e565b5090925050505b919050565b611591613486565b6000821180156115a357506002548211155b6115bf5760405162461bcd60e51b8152600401610cbd90613c33565b60006115cc600184613e42565b815481106115ea57634e487b7160e01b600052603260045260246000fd5b9060005260206000209060120201604051806101600160405290816000820154815260200160018201805461161e90613e89565b80601f016020809104026020016040519081016040528092919081815260200182805461164a90613e89565b80156116975780601f1061166c57610100808354040283529160200191611697565b820191906000526020600020905b81548152906001019060200180831161167a57829003601f168201915b505050505081526020016002820180546116b090613e89565b80601f01602080910402602001604051908101604052809291908181526020018280546116dc90613e89565b80156117295780601f106116fe57610100808354040283529160200191611729565b820191906000526020600020905b81548152906001019060200180831161170c57829003601f168201915b50505050508152602001600382016040518060c001604052908160008201805461175290613e89565b80601f016020809104026020016040519081016040528092919081815260200182805461177e90613e89565b80156117cb5780601f106117a0576101008083540402835291602001916117cb565b820191906000526020600020905b8154815290600101906020018083116117ae57829003601f168201915b50505050508152602001600182015481526020016002820180546117ee90613e89565b80601f016020809104026020016040519081016040528092919081815260200182805461181a90613e89565b80156118675780601f1061183c57610100808354040283529160200191611867565b820191906000526020600020905b81548152906001019060200180831161184a57829003601f168201915b505050505081526020016003820154815260200160048201805461188a90613e89565b80601f01602080910402602001604051908101604052809291908181526020018280546118b690613e89565b80156119035780601f106118d857610100808354040283529160200191611903565b820191906000526020600020905b8154815290600101906020018083116118e657829003601f168201915b5050505050815260200160058201805461191c90613e89565b80601f016020809104026020016040519081016040528092919081815260200182805461194890613e89565b80156119955780601f1061196a57610100808354040283529160200191611995565b820191906000526020600020905b81548152906001019060200180831161197857829003601f168201915b5050505050815250508152602001600982016040518060600160405290816000820180546119c290613e89565b80601f01602080910402602001604051908101604052809291908181526020018280546119ee90613e89565b8015611a3b5780601f10611a1057610100808354040283529160200191611a3b565b820191906000526020600020905b815481529060010190602001808311611a1e57829003601f168201915b50505050508152602001600182018054611a5490613e89565b80601f0160208091040260200160405190810160405280929190818152602001828054611a8090613e89565b8015611acd5780601f10611aa257610100808354040283529160200191611acd565b820191906000526020600020905b815481529060010190602001808311611ab057829003601f168201915b50505050508152602001600282018054611ae690613e89565b80601f0160208091040260200160405190810160405280929190818152602001828054611b1290613e89565b8015611b5f5780601f10611b3457610100808354040283529160200191611b5f565b820191906000526020600020905b815481529060010190602001808311611b4257829003601f168201915b5050505050815250508152602001600c82018054611b7c90613e89565b80601f0160208091040260200160405190810160405280929190818152602001828054611ba890613e89565b8015611bf55780601f10611bca57610100808354040283529160200191611bf5565b820191906000526020600020905b815481529060010190602001808311611bd857829003601f168201915b5050509183525050600d8201546001600160a01b039081166020830152600e830154166040820152600f82015460608201526010820154608082015260119091015460ff16151560a09091015292915050565b60606000805b600254811015611cc657836001600160a01b031660008281548110611c8357634e487b7160e01b600052603260045260246000fd5b60009182526020909120600d60129092020101546001600160a01b03161415611cb45781611cb081613ec4565b9250505b80611cbe81613ec4565b915050611c4e565b5060008167ffffffffffffffff811115611cf057634e487b7160e01b600052604160045260246000fd5b604051908082528060200260200182016040528015611d2957816020015b611d16613486565b815260200190600190039081611d0e5790505b5090506000805b60025481101561157d57856001600160a01b031660008281548110611d6557634e487b7160e01b600052603260045260246000fd5b60009182526020909120600d60129092020101546001600160a01b0316141561243d5760008181548110611da957634e487b7160e01b600052603260045260246000fd5b90600052602060002090601202016040518061016001604052908160008201548152602001600182018054611ddd90613e89565b80601f0160208091040260200160405190810160405280929190818152602001828054611e0990613e89565b8015611e565780601f10611e2b57610100808354040283529160200191611e56565b820191906000526020600020905b815481529060010190602001808311611e3957829003601f168201915b50505050508152602001600282018054611e6f90613e89565b80601f0160208091040260200160405190810160405280929190818152602001828054611e9b90613e89565b8015611ee85780601f10611ebd57610100808354040283529160200191611ee8565b820191906000526020600020905b815481529060010190602001808311611ecb57829003601f168201915b50505050508152602001600382016040518060c0016040529081600082018054611f1190613e89565b80601f0160208091040260200160405190810160405280929190818152602001828054611f3d90613e89565b8015611f8a5780601f10611f5f57610100808354040283529160200191611f8a565b820191906000526020600020905b815481529060010190602001808311611f6d57829003601f168201915b5050505050815260200160018201548152602001600282018054611fad90613e89565b80601f0160208091040260200160405190810160405280929190818152602001828054611fd990613e89565b80156120265780601f10611ffb57610100808354040283529160200191612026565b820191906000526020600020905b81548152906001019060200180831161200957829003601f168201915b505050505081526020016003820154815260200160048201805461204990613e89565b80601f016020809104026020016040519081016040528092919081815260200182805461207590613e89565b80156120c25780601f10612097576101008083540402835291602001916120c2565b820191906000526020600020905b8154815290600101906020018083116120a557829003601f168201915b505050505081526020016005820180546120db90613e89565b80601f016020809104026020016040519081016040528092919081815260200182805461210790613e89565b80156121545780601f1061212957610100808354040283529160200191612154565b820191906000526020600020905b81548152906001019060200180831161213757829003601f168201915b50505050508152505081526020016009820160405180606001604052908160008201805461218190613e89565b80601f01602080910402602001604051908101604052809291908181526020018280546121ad90613e89565b80156121fa5780601f106121cf576101008083540402835291602001916121fa565b820191906000526020600020905b8154815290600101906020018083116121dd57829003601f168201915b5050505050815260200160018201805461221390613e89565b80601f016020809104026020016040519081016040528092919081815260200182805461223f90613e89565b801561228c5780601f106122615761010080835404028352916020019161228c565b820191906000526020600020905b81548152906001019060200180831161226f57829003601f168201915b505050505081526020016002820180546122a590613e89565b80601f01602080910402602001604051908101604052809291908181526020018280546122d190613e89565b801561231e5780601f106122f35761010080835404028352916020019161231e565b820191906000526020600020905b81548152906001019060200180831161230157829003601f168201915b5050505050815250508152602001600c8201805461233b90613e89565b80601f016020809104026020016040519081016040528092919081815260200182805461236790613e89565b80156123b45780601f10612389576101008083540402835291602001916123b4565b820191906000526020600020905b81548152906001019060200180831161239757829003601f168201915b5050509183525050600d8201546001600160a01b039081166020830152600e830154166040820152600f82015460608201526010820154608082015260119091015460ff16151560a090910152835184908490811061242357634e487b7160e01b600052603260045260246000fd5b6020026020010181905250818061243990613ec4565b9250505b8061244781613ec4565b915050611d30565b60606000805b60025481101561250457836040516020016124709190613ad9565b60405160208183030381529060405280519060200120600082815481106124a757634e487b7160e01b600052603260045260246000fd5b9060005260206000209060120201600c016040516020016124c89190613af5565b6040516020818303038152906040528051906020012014156124f257816124ee81613ec4565b9250505b806124fc81613ec4565b915050612455565b5060008167ffffffffffffffff81111561252e57634e487b7160e01b600052604160045260246000fd5b60405190808252806020026020018201604052801561256757816020015b612554613486565b81526020019060019003908161254c5790505b5090506000805b60025481101561157d57856040516020016125899190613ad9565b60405160208183030381529060405280519060200120600082815481106125c057634e487b7160e01b600052603260045260246000fd5b9060005260206000209060120201600c016040516020016125e19190613af5565b604051602081830303815290604052805190602001201415612cb2576000818154811061261e57634e487b7160e01b600052603260045260246000fd5b9060005260206000209060120201604051806101600160405290816000820154815260200160018201805461265290613e89565b80601f016020809104026020016040519081016040528092919081815260200182805461267e90613e89565b80156126cb5780601f106126a0576101008083540402835291602001916126cb565b820191906000526020600020905b8154815290600101906020018083116126ae57829003601f168201915b505050505081526020016002820180546126e490613e89565b80601f016020809104026020016040519081016040528092919081815260200182805461271090613e89565b801561275d5780601f106127325761010080835404028352916020019161275d565b820191906000526020600020905b81548152906001019060200180831161274057829003601f168201915b50505050508152602001600382016040518060c001604052908160008201805461278690613e89565b80601f01602080910402602001604051908101604052809291908181526020018280546127b290613e89565b80156127ff5780601f106127d4576101008083540402835291602001916127ff565b820191906000526020600020905b8154815290600101906020018083116127e257829003601f168201915b505050505081526020016001820154815260200160028201805461282290613e89565b80601f016020809104026020016040519081016040528092919081815260200182805461284e90613e89565b801561289b5780601f106128705761010080835404028352916020019161289b565b820191906000526020600020905b81548152906001019060200180831161287e57829003601f168201915b50505050508152602001600382015481526020016004820180546128be90613e89565b80601f01602080910402602001604051908101604052809291908181526020018280546128ea90613e89565b80156129375780601f1061290c57610100808354040283529160200191612937565b820191906000526020600020905b81548152906001019060200180831161291a57829003601f168201915b5050505050815260200160058201805461295090613e89565b80601f016020809104026020016040519081016040528092919081815260200182805461297c90613e89565b80156129c95780601f1061299e576101008083540402835291602001916129c9565b820191906000526020600020905b8154815290600101906020018083116129ac57829003601f168201915b5050505050815250508152602001600982016040518060600160405290816000820180546129f690613e89565b80601f0160208091040260200160405190810160405280929190818152602001828054612a2290613e89565b8015612a6f5780601f10612a4457610100808354040283529160200191612a6f565b820191906000526020600020905b815481529060010190602001808311612a5257829003601f168201915b50505050508152602001600182018054612a8890613e89565b80601f0160208091040260200160405190810160405280929190818152602001828054612ab490613e89565b8015612b015780601f10612ad657610100808354040283529160200191612b01565b820191906000526020600020905b815481529060010190602001808311612ae457829003601f168201915b50505050508152602001600282018054612b1a90613e89565b80601f0160208091040260200160405190810160405280929190818152602001828054612b4690613e89565b8015612b935780601f10612b6857610100808354040283529160200191612b93565b820191906000526020600020905b815481529060010190602001808311612b7657829003601f168201915b5050505050815250508152602001600c82018054612bb090613e89565b80601f0160208091040260200160405190810160405280929190818152602001828054612bdc90613e89565b8015612c295780601f10612bfe57610100808354040283529160200191612c29565b820191906000526020600020905b815481529060010190602001808311612c0c57829003601f168201915b5050509183525050600d8201546001600160a01b039081166020830152600e830154166040820152600f82015460608201526010820154608082015260119091015460ff16151560a0909101528351849084908110612c9857634e487b7160e01b600052603260045260246000fd5b60200260200101819052508180612cae90613ec4565b9250505b80612cbc81613ec4565b91505061256e565b60606000805480602002602001604051908101604052809291908181526020016000905b8282101561336057838290600052602060002090601202016040518061016001604052908160008201548152602001600182018054612d2690613e89565b80601f0160208091040260200160405190810160405280929190818152602001828054612d5290613e89565b8015612d9f5780601f10612d7457610100808354040283529160200191612d9f565b820191906000526020600020905b815481529060010190602001808311612d8257829003601f168201915b50505050508152602001600282018054612db890613e89565b80601f0160208091040260200160405190810160405280929190818152602001828054612de490613e89565b8015612e315780601f10612e0657610100808354040283529160200191612e31565b820191906000526020600020905b815481529060010190602001808311612e1457829003601f168201915b50505050508152602001600382016040518060c0016040529081600082018054612e5a90613e89565b80601f0160208091040260200160405190810160405280929190818152602001828054612e8690613e89565b8015612ed35780601f10612ea857610100808354040283529160200191612ed3565b820191906000526020600020905b815481529060010190602001808311612eb657829003601f168201915b5050505050815260200160018201548152602001600282018054612ef690613e89565b80601f0160208091040260200160405190810160405280929190818152602001828054612f2290613e89565b8015612f6f5780601f10612f4457610100808354040283529160200191612f6f565b820191906000526020600020905b815481529060010190602001808311612f5257829003601f168201915b5050505050815260200160038201548152602001600482018054612f9290613e89565b80601f0160208091040260200160405190810160405280929190818152602001828054612fbe90613e89565b801561300b5780601f10612fe05761010080835404028352916020019161300b565b820191906000526020600020905b815481529060010190602001808311612fee57829003601f168201915b5050505050815260200160058201805461302490613e89565b80601f016020809104026020016040519081016040528092919081815260200182805461305090613e89565b801561309d5780601f106130725761010080835404028352916020019161309d565b820191906000526020600020905b81548152906001019060200180831161308057829003601f168201915b5050505050815250508152602001600982016040518060600160405290816000820180546130ca90613e89565b80601f01602080910402602001604051908101604052809291908181526020018280546130f690613e89565b80156131435780601f1061311857610100808354040283529160200191613143565b820191906000526020600020905b81548152906001019060200180831161312657829003601f168201915b5050505050815260200160018201805461315c90613e89565b80601f016020809104026020016040519081016040528092919081815260200182805461318890613e89565b80156131d55780601f106131aa576101008083540402835291602001916131d5565b820191906000526020600020905b8154815290600101906020018083116131b857829003601f168201915b505050505081526020016002820180546131ee90613e89565b80601f016020809104026020016040519081016040528092919081815260200182805461321a90613e89565b80156132675780601f1061323c57610100808354040283529160200191613267565b820191906000526020600020905b81548152906001019060200180831161324a57829003601f168201915b5050505050815250508152602001600c8201805461328490613e89565b80601f01602080910402602001604051908101604052809291908181526020018280546132b090613e89565b80156132fd5780601f106132d2576101008083540402835291602001916132fd565b820191906000526020600020905b8154815290600101906020018083116132e057829003601f168201915b5050509183525050600d8201546001600160a01b03908116602080840191909152600e8401549091166040830152600f83015460608301526010830154608083015260119092015460ff16151560a0909101529082526001929092019101612ce8565b50505050905090565b60008211801561337b57506002548211155b6133975760405162461bcd60e51b8152600401610cbd90613c33565b8060006133a5600185613e42565b815481106133c357634e487b7160e01b600052603260045260246000fd5b9060005260206000209060120201600e0160006101000a8154816001600160a01b0302191690836001600160a01b031602179055505050565b60025481565b82805461340e90613e89565b90600052602060002090601f0160209004810192826134305760008555613476565b82601f1061344957805160ff1916838001178555613476565b82800160010185558215613476579182015b8281111561347657825182559160200191906001019061345b565b50613482929150613500565b5090565b6040518061016001604052806000815260200160608152602001606081526020016134af613515565b81526020016134bc61354b565b81526020016060815260200160006001600160a01b0316815260200160006001600160a01b0316815260200160008152602001600081526020016000151581525090565b5b808211156134825760008155600101613501565b6040518060c001604052806060815260200160008152602001606081526020016000815260200160608152602001606081525090565b60405180606001604052806060815260200160608152602001606081525090565b80356001600160a01b038116811461158457600080fd5b600082601f830112613593578081fd5b813567ffffffffffffffff8111156135ad576135ad613ef5565b6135c0601f8201601f1916602001613df4565b8181528460208386010111156135d4578283fd5b816020850160208301379081016020019190915292915050565b6000606082840312156135ff578081fd5b6040516060810167ffffffffffffffff828210818311171561362357613623613ef5565b81604052829350843591508082111561363b57600080fd5b61364786838701613583565b8352602085013591508082111561365d57600080fd5b61366986838701613583565b6020840152604085013591508082111561368257600080fd5b5061368f85828601613583565b6040830152505092915050565b600060c082840312156136ad578081fd5b6136b760c0613df4565b9050813567ffffffffffffffff808211156136d157600080fd5b6136dd85838601613583565b83526020840135602084015260408401359150808211156136fd57600080fd5b61370985838601613583565b604084015260608401356060840152608084013591508082111561372c57600080fd5b61373885838601613583565b608084015260a084013591508082111561375157600080fd5b5061375e84828501613583565b60a08301525092915050565b60006020828403121561377b578081fd5b6137848261356c565b9392505050565b60006020828403121561379c578081fd5b813567ffffffffffffffff8111156137b2578182fd5b6137be84828501613583565b949350505050565b600080600080600080600060e0888a0312156137e0578283fd5b873567ffffffffffffffff808211156137f7578485fd5b6138038b838c01613583565b985060208a0135915080821115613818578485fd5b6138248b838c01613583565b975060408a0135915080821115613839578485fd5b6138458b838c0161369c565b965060608a013591508082111561385a578485fd5b6138668b838c016135ee565b955060808a013591508082111561387b578485fd5b506138888a828b01613583565b93505061389760a0890161356c565b915060c0880135905092959891949750929550565b6000602082840312156138bd578081fd5b5035919050565b600080604083850312156138d6578182fd5b823591506138e66020840161356c565b90509250929050565b6001600160a01b03169052565b15159052565b6000815180845261391a816020860160208601613e59565b601f01601f19169290920160200192915050565b60008151606084526139436060850182613902565b90506020830151848203602086015261395c8282613902565b915050604083015184820360408601526139768282613902565b95945050505050565b6000815160c0845261399460c0850182613902565b905060208301516020850152604083015184820360408601526139b78282613902565b91505060608301516060850152608083015184820360808601526139db8282613902565b91505060a083015184820360a08601526139768282613902565b6000610160825184526020830151816020860152613a1582860182613902565b91505060408301518482036040860152613a2f8282613902565b91505060608301518482036060860152613a49828261397f565b91505060808301518482036080860152613a63828261392e565b91505060a083015184820360a0860152613a7d8282613902565b91505060c0830151613a9260c08601826138ef565b5060e0830151613aa560e08601826138ef565b506101008381015190850152610120808401519085015261014080840151613acf828701826138fc565b5090949350505050565b60008251613aeb818460208701613e59565b9190910192915050565b8154600090819060028104600180831680613b1157607f831692505b6020808410821415613b3157634e487b7160e01b87526022600452602487fd5b818015613b455760018114613b5657613b82565b60ff19861689528489019650613b82565b613b5f8a613e1e565b885b86811015613b7a5781548b820152908501908301613b61565b505084890196505b509498975050505050505050565b6000602080830181845280855180835260408601915060408482028701019250838701855b82811015613be357603f19888603018452613bd18583516139f5565b94509285019290850190600101613bb5565b5092979650505050505050565b600060608252613c036060830186613902565b8281036020840152613c158186613902565b90508281036040840152613c298185613902565b9695505050505050565b6020808252600b908201526a24b73b30b634b21024a21760a91b604082015260600190565b6020808252601a908201527f507265736372697074696f6e20616c726561647920757365642e000000000000604082015260600190565b60006020825261378460208301846139f5565b90815260200190565b60006101408c8352806020840152613cc58184018d613902565b90508281036040840152613cd9818c613902565b90508281036060840152613ced818b61397f565b90508281036080840152613d01818a61392e565b905082810360a0840152613d158189613902565b6001600160a01b0397881660c08501529590961660e08301525061010081019290925261012090910152979650505050505050565b60006101608d8352806020840152613d648184018e613902565b90508281036040840152613d78818d613902565b90508281036060840152613d8c818c61397f565b90508281036080840152613da0818b61392e565b905082810360a0840152613db4818a613902565b6001600160a01b0398891660c08501529690971660e083015250610100810193909352610120830191909152151561014090910152979650505050505050565b60405181810167ffffffffffffffff81118282101715613e1657613e16613ef5565b604052919050565b60009081526020902090565b60008219821115613e3d57613e3d613edf565b500190565b600082821015613e5457613e54613edf565b500390565b60005b83811015613e74578181015183820152602001613e5c565b83811115613e83576000848401525b50505050565b600281046001821680613e9d57607f821691505b60208210811415613ebe57634e487b7160e01b600052602260045260246000fd5b50919050565b6000600019821415613ed857613ed8613edf565b5060010190565b634e487b7160e01b600052601160045260246000fd5b634e487b7160e01b600052604160045260246000fdfea2646970667358221220d8a0ab4a78a6ad5d4a4b2d2f8da408fb916356fd4ec8b80b09acd744a64d500e64736f6c63430008000033",
  "immutableReferences": {},
  "source": "// SPDX-License-Identifier: MIT\r\npragma solidity ^0.8.0;\r\n\r\ncontract PrescriptionContract {\r\n    struct MedicationInfo {\r\n        string med1;\r\n        uint quantity1;\r\n        string med2;\r\n        uint quantity2;\r\n        string diagnosis;\r\n        string observations;\r\n    }\r\n\r\n    struct InsuranceInfo {\r\n        string affiliateNum;\r\n        string insuranceName;\r\n        string insurancePlan;\r\n    }\r\n\r\n\r\n    struct Prescription {\r\n    uint id;  // ID nico para cada receta\r\n    string patientName;\r\n    string patientNid;\r\n    MedicationInfo meds;\r\n    InsuranceInfo insurance;\r\n    string doctorNid;\r\n    address patientAddress;\r\n    address pharmacyAddress; // Agregado para almacenar la direccin de la farmacia\r\n    uint issueDate;\r\n    uint expirationDate;\r\n    bool used; // Indica si la receta ha sido utilizada\r\n\r\n}\r\n\r\n\r\n    Prescription[] public prescriptions;\r\n    mapping(string => Doctor) public doctors;\r\n\r\n    struct Doctor {\r\n        string doctorName;\r\n        string doctorLicense;\r\n        string doctorSpecialty;\r\n    }\r\n\r\n    uint public prescriptionCount;\r\n\r\n    event IssuedPrescription(\r\n        uint id,  \r\n        string patientName,\r\n        string patientNid,\r\n        MedicationInfo meds,\r\n        InsuranceInfo insurance,\r\n        string doctorNid,\r\n        address patientAddress,\r\n        address pharmacyAddress, \r\n        uint issueDate,\r\n        uint expirationDate\r\n    );\r\n\r\n    // Emitir receta con fecha personalizada\r\n    function issuePrescription(\r\n        string memory _patientName,\r\n        string memory _patientNid,\r\n        MedicationInfo memory _meds,\r\n        InsuranceInfo memory _insurance,\r\n        string memory _doctorNid,\r\n        address _patientAddress,\r\n        uint _issueDate  // Nueva variable para aceptar la fecha de emisin personalizada\r\n    ) public {\r\n        prescriptionCount++;  // Incrementar el contador para el nuevo ID\r\n\r\n        uint expirationDate = _issueDate + 30 days;  // Calcular la fecha de vencimiento a partir de la fecha de emisin personalizada\r\n\r\n            Prescription memory newPrescription = Prescription({\r\n            id: prescriptionCount,  // Asignar el ID\r\n            patientName: _patientName,\r\n            patientNid: _patientNid,\r\n            meds: _meds,\r\n            insurance: _insurance,\r\n            doctorNid: _doctorNid,\r\n            patientAddress: _patientAddress,\r\n            pharmacyAddress: address(0), // Inicialmente vaco\r\n            issueDate: _issueDate,\r\n            expirationDate: expirationDate,\r\n            used: false // Inicialmente, la receta no est utilizada\r\n        });\r\n\r\n\r\n        prescriptions.push(newPrescription);\r\n\r\n        emit IssuedPrescription(\r\n            prescriptionCount,  // Emitir el ID\r\n            _patientName,\r\n            _patientNid,\r\n            _meds,\r\n            _insurance,\r\n            _doctorNid,\r\n            _patientAddress,\r\n            address(0), // Inicialmente vaco\r\n            _issueDate,\r\n            expirationDate\r\n        );\r\n    }\r\n\r\n    // Obtener una receta especfica por ID\r\n    function getPrescription(uint _prescriptionId) public view returns (Prescription memory) {\r\n        require(_prescriptionId > 0 && _prescriptionId <= prescriptionCount, \"Invalid ID.\");\r\n        return prescriptions[_prescriptionId - 1];\r\n    }\r\n\r\n    // Obtener todas las recetas\r\n    function getPrescriptions() public view returns (Prescription[] memory) {\r\n        return prescriptions;\r\n    }\r\n\r\n    // Obtener recetas por NID de mdico\r\n    function getPresbyDoctorNid(string memory _doctorNid) public view returns (Prescription[] memory) {\r\n        uint count = 0;\r\n\r\n        // Primer bucle para contar cuntas recetas pertenecen al mdico\r\n        for (uint i = 0; i < prescriptionCount; i++) {\r\n            if (keccak256(abi.encodePacked(prescriptions[i].doctorNid)) == keccak256(abi.encodePacked(_doctorNid))) {\r\n                count++;\r\n            }\r\n        }\r\n\r\n        // Crear un array para almacenar las recetas del mdico\r\n        Prescription[] memory doctorPrescriptions = new Prescription[](count);\r\n        uint index = 0;\r\n\r\n        // Segundo bucle para almacenar las recetas correspondientes\r\n        for (uint i = 0; i < prescriptionCount; i++) {\r\n            if (keccak256(abi.encodePacked(prescriptions[i].doctorNid)) == keccak256(abi.encodePacked(_doctorNid))) {\r\n                doctorPrescriptions[index] = prescriptions[i];\r\n                index++;\r\n            }\r\n        }\r\n\r\n        return doctorPrescriptions;\r\n    }\r\n\r\n    // Obtener recetas por direccin del paciente\r\n    function getPresbyPatientAddress(address _patientAddress) public view returns (Prescription[] memory) {\r\n        uint count = 0;\r\n\r\n        // Primer bucle para contar cuntas recetas pertenecen al paciente\r\n        for (uint i = 0; i < prescriptionCount; i++) {\r\n            if (prescriptions[i].patientAddress == _patientAddress) {\r\n                count++;\r\n            }\r\n        }\r\n\r\n        // Crear un array para almacenar las recetas del paciente\r\n        Prescription[] memory patientPrescriptions = new Prescription[](count);\r\n        uint index = 0;\r\n\r\n        // Segundo bucle para almacenar las recetas correspondientes\r\n        for (uint i = 0; i < prescriptionCount; i++) {\r\n            if (prescriptions[i].patientAddress == _patientAddress) {\r\n                patientPrescriptions[index] = prescriptions[i];\r\n                index++;\r\n            }\r\n        }\r\n\r\n        return patientPrescriptions;\r\n    }\r\n\r\n    // Nueva funcin para actualizar la direccin de la farmacia en la receta\r\n    function updatePrescription(uint _prescriptionId, address _pharmacyAddress) public {\r\n        require(_prescriptionId > 0 && _prescriptionId <= prescriptionCount, \"Invalid ID.\");\r\n        prescriptions[_prescriptionId - 1].pharmacyAddress = _pharmacyAddress; // Actualizar la direccin de la farmacia\r\n    }\r\n\r\n    // Obtener recetas por direccin de la farmacia\r\n    function getPresbyPharmacyAddress(address _pharmacyAddress) public view returns (Prescription[] memory) {\r\n        uint count = 0;\r\n\r\n        // Primer bucle para contar cuntas recetas pertenecen a la farmacia\r\n        for (uint i = 0; i < prescriptionCount; i++) {\r\n            if (prescriptions[i].pharmacyAddress == _pharmacyAddress) {\r\n                count++;\r\n            }\r\n        }\r\n\r\n        // Crear un array para almacenar las recetas de la farmacia\r\n        Prescription[] memory pharmacyPrescriptions = new Prescription[](count);\r\n        uint index = 0;\r\n\r\n        // Segundo bucle para almacenar las recetas correspondientes\r\n        for (uint i = 0; i < prescriptionCount; i++) {\r\n            if (prescriptions[i].pharmacyAddress == _pharmacyAddress) {\r\n                pharmacyPrescriptions[index] = prescriptions[i];\r\n                index++;\r\n            }\r\n        }\r\n\r\n        return pharmacyPrescriptions;\r\n    }\r\n\r\n        function markPrescriptionAsUsed(uint _prescriptionId) public {\r\n        require(_prescriptionId > 0 && _prescriptionId <= prescriptionCount, \"Invalid ID.\");\r\n        require(!prescriptions[_prescriptionId - 1].used, \"Prescription already used.\");\r\n\r\n        prescriptions[_prescriptionId - 1].used = true;\r\n    }\r\n\r\n\r\n}\r\n",
  "sourcePath": "C:\\Users\\BELU\\go\\src\\github.com\\belenaguilarv\\prescryption_v2\\prescryption_solidity\\contracts\\Prescription.sol",
  "compiler": {
    "name": "solc",
    "version": "0.8.0+commit.c7dfd78e.Emscripten.clang"
  },
  "schemaVersion": "3.4.16",
  "updatedAt": "2024-11-03T21:28:53.453Z",
  "networkType": "ethereum",
  "devdoc": {
    "kind": "dev",
    "methods": {},
    "version": 1
  },
  "userdoc": {
    "kind": "user",
    "methods": {},
    "version": 1
  }
}