{
  "contractName": "PrescriptionContract",
  "abi": [
    {
      "anonymous": false,
      "inputs": [
        {
          "indexed": false,
          "internalType": "string",
          "name": "patientName",
          "type": "string"
        },
        {
          "indexed": false,
          "internalType": "string",
          "name": "patientNid",
          "type": "string"
        },
        {
          "indexed": false,
          "internalType": "string",
          "name": "affiliateNum",
          "type": "string"
        },
        {
          "indexed": false,
          "internalType": "string",
          "name": "insuranceName",
          "type": "string"
        },
        {
          "indexed": false,
          "internalType": "string",
          "name": "insurancePlan",
          "type": "string"
        },
        {
          "indexed": false,
          "internalType": "string",
          "name": "med1",
          "type": "string"
        },
        {
          "indexed": false,
          "internalType": "uint256",
          "name": "quantity1",
          "type": "uint256"
        },
        {
          "indexed": false,
          "internalType": "string",
          "name": "med2",
          "type": "string"
        },
        {
          "indexed": false,
          "internalType": "uint256",
          "name": "quantity2",
          "type": "uint256"
        },
        {
          "indexed": false,
          "internalType": "string",
          "name": "diagnosis",
          "type": "string"
        },
        {
          "indexed": false,
          "internalType": "string",
          "name": "doctorNid",
          "type": "string"
        }
      ],
      "name": "IssuedPrescription",
      "type": "event"
    },
    {
      "inputs": [
        {
          "internalType": "string",
          "name": "",
          "type": "string"
        }
      ],
      "name": "doctors",
      "outputs": [
        {
          "internalType": "string",
          "name": "doctorName",
          "type": "string"
        },
        {
          "internalType": "string",
          "name": "doctorLicense",
          "type": "string"
        },
        {
          "internalType": "string",
          "name": "doctorSpecialty",
          "type": "string"
        }
      ],
      "stateMutability": "view",
      "type": "function",
      "constant": true
    },
    {
      "inputs": [],
      "name": "prescriptionCount",
      "outputs": [
        {
          "internalType": "uint256",
          "name": "",
          "type": "uint256"
        }
      ],
      "stateMutability": "view",
      "type": "function",
      "constant": true
    },
    {
      "inputs": [
        {
          "internalType": "uint256",
          "name": "",
          "type": "uint256"
        }
      ],
      "name": "prescriptions",
      "outputs": [
        {
          "internalType": "string",
          "name": "patientName",
          "type": "string"
        },
        {
          "internalType": "string",
          "name": "patientNid",
          "type": "string"
        },
        {
          "internalType": "string",
          "name": "affiliateNum",
          "type": "string"
        },
        {
          "internalType": "string",
          "name": "insuranceName",
          "type": "string"
        },
        {
          "internalType": "string",
          "name": "insurancePlan",
          "type": "string"
        },
        {
          "internalType": "string",
          "name": "med1",
          "type": "string"
        },
        {
          "internalType": "uint256",
          "name": "quantity1",
          "type": "uint256"
        },
        {
          "internalType": "string",
          "name": "med2",
          "type": "string"
        },
        {
          "internalType": "uint256",
          "name": "quantity2",
          "type": "uint256"
        },
        {
          "internalType": "string",
          "name": "diagnosis",
          "type": "string"
        },
        {
          "internalType": "string",
          "name": "doctorNid",
          "type": "string"
        }
      ],
      "stateMutability": "view",
      "type": "function",
      "constant": true
    },
    {
      "inputs": [
        {
          "internalType": "string",
          "name": "_doctorNid",
          "type": "string"
        },
        {
          "internalType": "string",
          "name": "_doctorName",
          "type": "string"
        },
        {
          "internalType": "string",
          "name": "_doctorLicense",
          "type": "string"
        },
        {
          "internalType": "string",
          "name": "_doctorSpecialty",
          "type": "string"
        }
      ],
      "name": "registerDoctor",
      "outputs": [],
      "stateMutability": "nonpayable",
      "type": "function"
    },
    {
      "inputs": [
        {
          "internalType": "string",
          "name": "_patientName",
          "type": "string"
        },
        {
          "internalType": "string",
          "name": "_patientNid",
          "type": "string"
        },
        {
          "internalType": "string",
          "name": "_affiliateNum",
          "type": "string"
        },
        {
          "internalType": "string",
          "name": "_licenseName",
          "type": "string"
        },
        {
          "internalType": "string",
          "name": "_licensePlan",
          "type": "string"
        },
        {
          "internalType": "string",
          "name": "_med1",
          "type": "string"
        },
        {
          "internalType": "uint256",
          "name": "_quantity1",
          "type": "uint256"
        },
        {
          "internalType": "string",
          "name": "_med2",
          "type": "string"
        },
        {
          "internalType": "uint256",
          "name": "_quantity2",
          "type": "uint256"
        },
        {
          "internalType": "string",
          "name": "_diagnosis",
          "type": "string"
        },
        {
          "internalType": "string",
          "name": "_doctorNid",
          "type": "string"
        }
      ],
      "name": "issuePrescription",
      "outputs": [],
      "stateMutability": "nonpayable",
      "type": "function"
    },
    {
      "inputs": [
        {
          "internalType": "uint256",
          "name": "_prescriptionId",
          "type": "uint256"
        }
      ],
      "name": "getPrescription",
      "outputs": [
        {
          "components": [
            {
              "internalType": "string",
              "name": "patientName",
              "type": "string"
            },
            {
              "internalType": "string",
              "name": "patientNid",
              "type": "string"
            },
            {
              "internalType": "string",
              "name": "affiliateNum",
              "type": "string"
            },
            {
              "internalType": "string",
              "name": "insuranceName",
              "type": "string"
            },
            {
              "internalType": "string",
              "name": "insurancePlan",
              "type": "string"
            },
            {
              "internalType": "string",
              "name": "med1",
              "type": "string"
            },
            {
              "internalType": "uint256",
              "name": "quantity1",
              "type": "uint256"
            },
            {
              "internalType": "string",
              "name": "med2",
              "type": "string"
            },
            {
              "internalType": "uint256",
              "name": "quantity2",
              "type": "uint256"
            },
            {
              "internalType": "string",
              "name": "diagnosis",
              "type": "string"
            },
            {
              "internalType": "string",
              "name": "doctorNid",
              "type": "string"
            }
          ],
          "internalType": "struct PrescriptionContract.Prescription",
          "name": "",
          "type": "tuple"
        },
        {
          "components": [
            {
              "internalType": "string",
              "name": "doctorName",
              "type": "string"
            },
            {
              "internalType": "string",
              "name": "doctorLicense",
              "type": "string"
            },
            {
              "internalType": "string",
              "name": "doctorSpecialty",
              "type": "string"
            }
          ],
          "internalType": "struct PrescriptionContract.Doctor",
          "name": "",
          "type": "tuple"
        }
      ],
      "stateMutability": "view",
      "type": "function",
      "constant": true
    },
    {
      "inputs": [],
      "name": "getPrescriptions",
      "outputs": [
        {
          "components": [
            {
              "internalType": "string",
              "name": "patientName",
              "type": "string"
            },
            {
              "internalType": "string",
              "name": "patientNid",
              "type": "string"
            },
            {
              "internalType": "string",
              "name": "affiliateNum",
              "type": "string"
            },
            {
              "internalType": "string",
              "name": "insuranceName",
              "type": "string"
            },
            {
              "internalType": "string",
              "name": "insurancePlan",
              "type": "string"
            },
            {
              "internalType": "string",
              "name": "med1",
              "type": "string"
            },
            {
              "internalType": "uint256",
              "name": "quantity1",
              "type": "uint256"
            },
            {
              "internalType": "string",
              "name": "med2",
              "type": "string"
            },
            {
              "internalType": "uint256",
              "name": "quantity2",
              "type": "uint256"
            },
            {
              "internalType": "string",
              "name": "diagnosis",
              "type": "string"
            },
            {
              "internalType": "string",
              "name": "doctorNid",
              "type": "string"
            }
          ],
          "internalType": "struct PrescriptionContract.Prescription[]",
          "name": "",
          "type": "tuple[]"
        }
      ],
      "stateMutability": "view",
      "type": "function",
      "constant": true
    },
    {
      "inputs": [
        {
          "internalType": "string",
          "name": "_doctorNid",
          "type": "string"
        }
      ],
      "name": "getPresbyDoctorNid",
      "outputs": [
        {
          "components": [
            {
              "internalType": "string",
              "name": "patientName",
              "type": "string"
            },
            {
              "internalType": "string",
              "name": "patientNid",
              "type": "string"
            },
            {
              "internalType": "string",
              "name": "affiliateNum",
              "type": "string"
            },
            {
              "internalType": "string",
              "name": "insuranceName",
              "type": "string"
            },
            {
              "internalType": "string",
              "name": "insurancePlan",
              "type": "string"
            },
            {
              "internalType": "string",
              "name": "med1",
              "type": "string"
            },
            {
              "internalType": "uint256",
              "name": "quantity1",
              "type": "uint256"
            },
            {
              "internalType": "string",
              "name": "med2",
              "type": "string"
            },
            {
              "internalType": "uint256",
              "name": "quantity2",
              "type": "uint256"
            },
            {
              "internalType": "string",
              "name": "diagnosis",
              "type": "string"
            },
            {
              "internalType": "string",
              "name": "doctorNid",
              "type": "string"
            }
          ],
          "internalType": "struct PrescriptionContract.Prescription[]",
          "name": "",
          "type": "tuple[]"
        }
      ],
      "stateMutability": "view",
      "type": "function",
      "constant": true
    }
  ],
  "bytecode": "0x608060405234801561001057600080fd5b506128d6806100206000396000f3fe608060405234801561001057600080fd5b50600436106100885760003560e01c8063a1ea57c61161005b578063a1ea57c614610118578063a452e05914610138578063b655849814610140578063ce6b479d1461015557610088565b806305c35ce51461008d57806331dfc91b146100b857806333a8587f146100e25780636f16af10146100f7575b600080fd5b6100a061009b366004612162565b610168565b6040516100af93929190612623565b60405180910390f35b6100cb6100c63660046123bf565b61032d565b6040516100af9b9a9998979695949392919061265c565b6100f56100f036600461219d565b61085f565b005b61010a6101053660046123bf565b6108f2565b6040516100af929190612756565b61012b610126366004612162565b6110aa565b6040516100af91906125c3565b61012b61182b565b610148611dc1565b6040516100af91906127c2565b6100f5610163366004612245565b611dc7565b805160208183018101805160018252928201919093012091528054819061018e9061281e565b80601f01602080910402602001604051908101604052809291908181526020018280546101ba9061281e565b80156102075780601f106101dc57610100808354040283529160200191610207565b820191906000526020600020905b8154815290600101906020018083116101ea57829003601f168201915b50505050509080600101805461021c9061281e565b80601f01602080910402602001604051908101604052809291908181526020018280546102489061281e565b80156102955780601f1061026a57610100808354040283529160200191610295565b820191906000526020600020905b81548152906001019060200180831161027857829003601f168201915b5050505050908060020180546102aa9061281e565b80601f01602080910402602001604051908101604052809291908181526020018280546102d69061281e565b80156103235780601f106102f857610100808354040283529160200191610323565b820191906000526020600020905b81548152906001019060200180831161030657829003601f168201915b5050505050905083565b6000818154811061033d57600080fd5b90600052602060002090600b02016000915090508060000180546103609061281e565b80601f016020809104026020016040519081016040528092919081815260200182805461038c9061281e565b80156103d95780601f106103ae576101008083540402835291602001916103d9565b820191906000526020600020905b8154815290600101906020018083116103bc57829003601f168201915b5050505050908060010180546103ee9061281e565b80601f016020809104026020016040519081016040528092919081815260200182805461041a9061281e565b80156104675780601f1061043c57610100808354040283529160200191610467565b820191906000526020600020905b81548152906001019060200180831161044a57829003601f168201915b50505050509080600201805461047c9061281e565b80601f01602080910402602001604051908101604052809291908181526020018280546104a89061281e565b80156104f55780601f106104ca576101008083540402835291602001916104f5565b820191906000526020600020905b8154815290600101906020018083116104d857829003601f168201915b50505050509080600301805461050a9061281e565b80601f01602080910402602001604051908101604052809291908181526020018280546105369061281e565b80156105835780601f1061055857610100808354040283529160200191610583565b820191906000526020600020905b81548152906001019060200180831161056657829003601f168201915b5050505050908060040180546105989061281e565b80601f01602080910402602001604051908101604052809291908181526020018280546105c49061281e565b80156106115780601f106105e657610100808354040283529160200191610611565b820191906000526020600020905b8154815290600101906020018083116105f457829003601f168201915b5050505050908060050180546106269061281e565b80601f01602080910402602001604051908101604052809291908181526020018280546106529061281e565b801561069f5780601f106106745761010080835404028352916020019161069f565b820191906000526020600020905b81548152906001019060200180831161068257829003601f168201915b5050505050908060060154908060070180546106ba9061281e565b80601f01602080910402602001604051908101604052809291908181526020018280546106e69061281e565b80156107335780601f1061070857610100808354040283529160200191610733565b820191906000526020600020905b81548152906001019060200180831161071657829003601f168201915b50505050509080600801549080600901805461074e9061281e565b80601f016020809104026020016040519081016040528092919081815260200182805461077a9061281e565b80156107c75780601f1061079c576101008083540402835291602001916107c7565b820191906000526020600020905b8154815290600101906020018083116107aa57829003601f168201915b50505050509080600a0180546107dc9061281e565b80601f01602080910402602001604051908101604052809291908181526020018280546108089061281e565b80156108555780601f1061082a57610100808354040283529160200191610855565b820191906000526020600020905b81548152906001019060200180831161083857829003601f168201915b505050505090508b565b60405180606001604052808481526020018381526020018281525060018560405161088a919061250c565b908152602001604051809103902060008201518160000190805190602001906108b4929190611fcd565b5060208281015180516108cd9260018501920190611fcd565b50604082015180516108e9916002840191602090910190611fcd565b50505050505050565b6108fa612051565b6109026120ab565b60008311801561091457506002548311155b6109395760405162461bcd60e51b815260040161093090612731565b60405180910390fd5b6000806109476001866127d7565b8154811061096557634e487b7160e01b600052603260045260246000fd5b90600052602060002090600b02016040518061016001604052908160008201805461098f9061281e565b80601f01602080910402602001604051908101604052809291908181526020018280546109bb9061281e565b8015610a085780601f106109dd57610100808354040283529160200191610a08565b820191906000526020600020905b8154815290600101906020018083116109eb57829003601f168201915b50505050508152602001600182018054610a219061281e565b80601f0160208091040260200160405190810160405280929190818152602001828054610a4d9061281e565b8015610a9a5780601f10610a6f57610100808354040283529160200191610a9a565b820191906000526020600020905b815481529060010190602001808311610a7d57829003601f168201915b50505050508152602001600282018054610ab39061281e565b80601f0160208091040260200160405190810160405280929190818152602001828054610adf9061281e565b8015610b2c5780601f10610b0157610100808354040283529160200191610b2c565b820191906000526020600020905b815481529060010190602001808311610b0f57829003601f168201915b50505050508152602001600382018054610b459061281e565b80601f0160208091040260200160405190810160405280929190818152602001828054610b719061281e565b8015610bbe5780601f10610b9357610100808354040283529160200191610bbe565b820191906000526020600020905b815481529060010190602001808311610ba157829003601f168201915b50505050508152602001600482018054610bd79061281e565b80601f0160208091040260200160405190810160405280929190818152602001828054610c039061281e565b8015610c505780601f10610c2557610100808354040283529160200191610c50565b820191906000526020600020905b815481529060010190602001808311610c3357829003601f168201915b50505050508152602001600582018054610c699061281e565b80601f0160208091040260200160405190810160405280929190818152602001828054610c959061281e565b8015610ce25780601f10610cb757610100808354040283529160200191610ce2565b820191906000526020600020905b815481529060010190602001808311610cc557829003601f168201915b5050505050815260200160068201548152602001600782018054610d059061281e565b80601f0160208091040260200160405190810160405280929190818152602001828054610d319061281e565b8015610d7e5780601f10610d5357610100808354040283529160200191610d7e565b820191906000526020600020905b815481529060010190602001808311610d6157829003601f168201915b5050505050815260200160088201548152602001600982018054610da19061281e565b80601f0160208091040260200160405190810160405280929190818152602001828054610dcd9061281e565b8015610e1a5780601f10610def57610100808354040283529160200191610e1a565b820191906000526020600020905b815481529060010190602001808311610dfd57829003601f168201915b50505050508152602001600a82018054610e339061281e565b80601f0160208091040260200160405190810160405280929190818152602001828054610e5f9061281e565b8015610eac5780601f10610e8157610100808354040283529160200191610eac565b820191906000526020600020905b815481529060010190602001808311610e8f57829003601f168201915b505050505081525050905060006001826101400151604051610ece919061250c565b9081526020016040518091039020604051806060016040529081600082018054610ef79061281e565b80601f0160208091040260200160405190810160405280929190818152602001828054610f239061281e565b8015610f705780601f10610f4557610100808354040283529160200191610f70565b820191906000526020600020905b815481529060010190602001808311610f5357829003601f168201915b50505050508152602001600182018054610f899061281e565b80601f0160208091040260200160405190810160405280929190818152602001828054610fb59061281e565b80156110025780601f10610fd757610100808354040283529160200191611002565b820191906000526020600020905b815481529060010190602001808311610fe557829003601f168201915b5050505050815260200160028201805461101b9061281e565b80601f01602080910402602001604051908101604052809291908181526020018280546110479061281e565b80156110945780601f1061106957610100808354040283529160200191611094565b820191906000526020600020905b81548152906001019060200180831161107757829003601f168201915b5050509190925250939550909350505050915091565b60606000805b60025481101561116b5760008082815481106110dc57634e487b7160e01b600052603260045260246000fd5b90600052602060002090600b0201600a016040516020016110fd9190612528565b604051602081830303815290604052805190602001209050600085604051602001611128919061250c565b60405160208183030381529060405280519060200120905080821415611156578361115281612859565b9450505b5050808061116390612859565b9150506110b0565b5060008167ffffffffffffffff81111561119557634e487b7160e01b600052604160045260246000fd5b6040519080825280602002602001820160405280156111ce57816020015b6111bb612051565b8152602001906001900390816111b35790505b5090506000805b60025481101561182157856040516020016111f0919061250c565b604051602081830303815290604052805190602001206000828154811061122757634e487b7160e01b600052603260045260246000fd5b90600052602060002090600b0201600a016040516020016112489190612528565b60405160208183030381529060405280519060200120141561180f576000818154811061128557634e487b7160e01b600052603260045260246000fd5b90600052602060002090600b0201604051806101600160405290816000820180546112af9061281e565b80601f01602080910402602001604051908101604052809291908181526020018280546112db9061281e565b80156113285780601f106112fd57610100808354040283529160200191611328565b820191906000526020600020905b81548152906001019060200180831161130b57829003601f168201915b505050505081526020016001820180546113419061281e565b80601f016020809104026020016040519081016040528092919081815260200182805461136d9061281e565b80156113ba5780601f1061138f576101008083540402835291602001916113ba565b820191906000526020600020905b81548152906001019060200180831161139d57829003601f168201915b505050505081526020016002820180546113d39061281e565b80601f01602080910402602001604051908101604052809291908181526020018280546113ff9061281e565b801561144c5780601f106114215761010080835404028352916020019161144c565b820191906000526020600020905b81548152906001019060200180831161142f57829003601f168201915b505050505081526020016003820180546114659061281e565b80601f01602080910402602001604051908101604052809291908181526020018280546114919061281e565b80156114de5780601f106114b3576101008083540402835291602001916114de565b820191906000526020600020905b8154815290600101906020018083116114c157829003601f168201915b505050505081526020016004820180546114f79061281e565b80601f01602080910402602001604051908101604052809291908181526020018280546115239061281e565b80156115705780601f1061154557610100808354040283529160200191611570565b820191906000526020600020905b81548152906001019060200180831161155357829003601f168201915b505050505081526020016005820180546115899061281e565b80601f01602080910402602001604051908101604052809291908181526020018280546115b59061281e565b80156116025780601f106115d757610100808354040283529160200191611602565b820191906000526020600020905b8154815290600101906020018083116115e557829003601f168201915b50505050508152602001600682015481526020016007820180546116259061281e565b80601f01602080910402602001604051908101604052809291908181526020018280546116519061281e565b801561169e5780601f106116735761010080835404028352916020019161169e565b820191906000526020600020905b81548152906001019060200180831161168157829003601f168201915b50505050508152602001600882015481526020016009820180546116c19061281e565b80601f01602080910402602001604051908101604052809291908181526020018280546116ed9061281e565b801561173a5780601f1061170f5761010080835404028352916020019161173a565b820191906000526020600020905b81548152906001019060200180831161171d57829003601f168201915b50505050508152602001600a820180546117539061281e565b80601f016020809104026020016040519081016040528092919081815260200182805461177f9061281e565b80156117cc5780601f106117a1576101008083540402835291602001916117cc565b820191906000526020600020905b8154815290600101906020018083116117af57829003601f168201915b5050505050815250508383815181106117f557634e487b7160e01b600052603260045260246000fd5b6020026020010181905250818061180b90612859565b9250505b8061181981612859565b9150506111d5565b5090949350505050565b60606000805480602002602001604051908101604052809291908181526020016000905b82821015611db857838290600052602060002090600b0201604051806101600160405290816000820180546118839061281e565b80601f01602080910402602001604051908101604052809291908181526020018280546118af9061281e565b80156118fc5780601f106118d1576101008083540402835291602001916118fc565b820191906000526020600020905b8154815290600101906020018083116118df57829003601f168201915b505050505081526020016001820180546119159061281e565b80601f01602080910402602001604051908101604052809291908181526020018280546119419061281e565b801561198e5780601f106119635761010080835404028352916020019161198e565b820191906000526020600020905b81548152906001019060200180831161197157829003601f168201915b505050505081526020016002820180546119a79061281e565b80601f01602080910402602001604051908101604052809291908181526020018280546119d39061281e565b8015611a205780601f106119f557610100808354040283529160200191611a20565b820191906000526020600020905b815481529060010190602001808311611a0357829003601f168201915b50505050508152602001600382018054611a399061281e565b80601f0160208091040260200160405190810160405280929190818152602001828054611a659061281e565b8015611ab25780601f10611a8757610100808354040283529160200191611ab2565b820191906000526020600020905b815481529060010190602001808311611a9557829003601f168201915b50505050508152602001600482018054611acb9061281e565b80601f0160208091040260200160405190810160405280929190818152602001828054611af79061281e565b8015611b445780601f10611b1957610100808354040283529160200191611b44565b820191906000526020600020905b815481529060010190602001808311611b2757829003601f168201915b50505050508152602001600582018054611b5d9061281e565b80601f0160208091040260200160405190810160405280929190818152602001828054611b899061281e565b8015611bd65780601f10611bab57610100808354040283529160200191611bd6565b820191906000526020600020905b815481529060010190602001808311611bb957829003601f168201915b5050505050815260200160068201548152602001600782018054611bf99061281e565b80601f0160208091040260200160405190810160405280929190818152602001828054611c259061281e565b8015611c725780601f10611c4757610100808354040283529160200191611c72565b820191906000526020600020905b815481529060010190602001808311611c5557829003601f168201915b5050505050815260200160088201548152602001600982018054611c959061281e565b80601f0160208091040260200160405190810160405280929190818152602001828054611cc19061281e565b8015611d0e5780601f10611ce357610100808354040283529160200191611d0e565b820191906000526020600020905b815481529060010190602001808311611cf157829003601f168201915b50505050508152602001600a82018054611d279061281e565b80601f0160208091040260200160405190810160405280929190818152602001828054611d539061281e565b8015611da05780601f10611d7557610100808354040283529160200191611da0565b820191906000526020600020905b815481529060010190602001808311611d8357829003601f168201915b5050505050815250508152602001906001019061184f565b50505050905090565b60025481565b60408051610160810182528c815260208082018d90529181018b9052606081018a90526080810189905260a0810188905260c0810187905260e08101869052610100810185905261012081018490526101408101839052600080546001810182559080528151805192938493600b9093027f290decd9548b62a8d60345a988386fc84ba6bc95484008f6362f93160ef3e5630192611e689284920190611fcd565b506020828101518051611e819260018501920190611fcd565b5060408201518051611e9d916002840191602090910190611fcd565b5060608201518051611eb9916003840191602090910190611fcd565b5060808201518051611ed5916004840191602090910190611fcd565b5060a08201518051611ef1916005840191602090910190611fcd565b5060c0820151600682015560e08201518051611f17916007840191602090910190611fcd565b5061010082015160088201556101208201518051611f3f916009840191602090910190611fcd565b506101408201518051611f5c91600a840191602090910190611fcd565b50506002805491506000611f6f83612859565b91905055507fc70299f2e6e5bfd8165e97c8e730a130f316640fbcd9fd357f75f957f626bfd58c8d8c8c8c8c8c8c8c8c8c604051611fb79b9a9998979695949392919061265c565b60405180910390a1505050505050505050505050565b828054611fd99061281e565b90600052602060002090601f016020900481019282611ffb5760008555612041565b82601f1061201457805160ff1916838001178555612041565b82800160010185558215612041579182015b82811115612041578251825591602001919060010190612026565b5061204d9291506120cc565b5090565b60405180610160016040528060608152602001606081526020016060815260200160608152602001606081526020016060815260200160008152602001606081526020016000815260200160608152602001606081525090565b60405180606001604052806060815260200160608152602001606081525090565b5b8082111561204d57600081556001016120cd565b600082601f8301126120f1578081fd5b813567ffffffffffffffff8082111561210c5761210c61288a565b604051601f8301601f1916810160200182811182821017156121305761213061288a565b604052828152848301602001861015612147578384fd5b82602086016020830137918201602001929092529392505050565b600060208284031215612173578081fd5b813567ffffffffffffffff811115612189578182fd5b612195848285016120e1565b949350505050565b600080600080608085870312156121b2578283fd5b843567ffffffffffffffff808211156121c9578485fd5b6121d5888389016120e1565b955060208701359150808211156121ea578485fd5b6121f6888389016120e1565b9450604087013591508082111561220b578384fd5b612217888389016120e1565b9350606087013591508082111561222c578283fd5b50612239878288016120e1565b91505092959194509250565b60008060008060008060008060008060006101608c8e031215612266578687fd5b67ffffffffffffffff808d35111561227c578788fd5b6122898e8e358f016120e1565b9b508060208e0135111561229b578788fd5b6122ab8e60208f01358f016120e1565b9a508060408e013511156122bd578788fd5b6122cd8e60408f01358f016120e1565b99508060608e013511156122df578788fd5b6122ef8e60608f01358f016120e1565b98508060808e01351115612301578788fd5b6123118e60808f01358f016120e1565b97508060a08e01351115612323578687fd5b6123338e60a08f01358f016120e1565b965060c08d013595508060e08e0135111561234c578485fd5b61235c8e60e08f01358f016120e1565b94506101008d01359350806101208e01351115612377578283fd5b6123888e6101208f01358f016120e1565b9250806101408e0135111561239b578182fd5b506123ad8d6101408e01358e016120e1565b90509295989b509295989b9093969950565b6000602082840312156123d0578081fd5b5035919050565b600081518084526123ef8160208601602086016127ee565b601f01601f19169290920160200192915050565b60006101608251818552612419828601826123d7565b9150506020830151848203602086015261243382826123d7565b9150506040830151848203604086015261244d82826123d7565b9150506060830151848203606086015261246782826123d7565b9150506080830151848203608086015261248182826123d7565b91505060a083015184820360a086015261249b82826123d7565b91505060c083015160c085015260e083015184820360e08601526124bf82826123d7565b91505061010080840151818601525061012080840151858303828701526124e683826123d7565b92505050610140808401518583038287015261250283826123d7565b9695505050505050565b6000825161251e8184602087016127ee565b9190910192915050565b815460009081906002810460018083168061254457607f831692505b602080841082141561256457634e487b7160e01b87526022600452602487fd5b8180156125785760018114612589576125b5565b60ff198616895284890196506125b5565b6125928a6127cb565b885b868110156125ad5781548b820152908501908301612594565b505084890196505b509498975050505050505050565b6000602080830181845280855180835260408601915060408482028701019250838701855b8281101561261657603f19888603018452612604858351612403565b945092850192908501906001016125e8565b5092979650505050505050565b60006060825261263660608301866123d7565b828103602084015261264881866123d7565b9050828103604084015261250281856123d7565b60006101608083526126708184018f6123d7565b90508281036020840152612684818e6123d7565b90508281036040840152612698818d6123d7565b905082810360608401526126ac818c6123d7565b905082810360808401526126c0818b6123d7565b905082810360a08401526126d4818a6123d7565b90508760c084015282810360e08401526126ee81886123d7565b90508561010084015282810361012084015261270a81866123d7565b905082810361014084015261271f81856123d7565b9e9d5050505050505050505050505050565b6020808252600b908201526a34b73b30b634b21034b21760a91b604082015260600190565b6000604082526127696040830185612403565b828103602084015283516060825261278460608301826123d7565b90506020850151828203602084015261279d82826123d7565b915050604085015182820360408401526127b782826123d7565b979650505050505050565b90815260200190565b60009081526020902090565b6000828210156127e9576127e9612874565b500390565b60005b838110156128095781810151838201526020016127f1565b83811115612818576000848401525b50505050565b60028104600182168061283257607f821691505b6020821081141561285357634e487b7160e01b600052602260045260246000fd5b50919050565b600060001982141561286d5761286d612874565b5060010190565b634e487b7160e01b600052601160045260246000fd5b634e487b7160e01b600052604160045260246000fdfea26469706673582212201f068863e27cf3cc13b2031c9db66da49b3c507b1ec6099a0cf98180fd84093c64736f6c63430008000033",
  "immutableReferences": {},
  "source": "// SPDX-License-Identifier: MIT\r\npragma solidity ^0.8.0;\r\n\r\ncontract PrescriptionContract {\r\n    struct Prescription {\r\n        string patientName;\r\n        string patientNid;\r\n        string affiliateNum;\r\n        string insuranceName;\r\n        string insurancePlan;\r\n        string med1;\r\n        uint quantity1;\r\n        string med2;\r\n        uint quantity2;\r\n        string diagnosis;\r\n        string doctorNid; \r\n    }\r\n\r\n    Prescription[] public prescriptions;\r\n    mapping(string => Doctor) public doctors; \r\n\r\n    struct Doctor {\r\n        string doctorName;\r\n        string doctorLicense;\r\n        string doctorSpecialty;\r\n    }\r\n\r\n    uint public prescriptionCount;\r\n\r\n    event IssuedPrescription(\r\n        string patientName,\r\n        string patientNid,\r\n        string affiliateNum,\r\n        string insuranceName,\r\n        string insurancePlan,\r\n        string med1,\r\n        uint quantity1,\r\n        string med2,\r\n        uint quantity2,\r\n        string diagnosis,\r\n        string doctorNid\r\n    );\r\n\r\n    // Register function\r\n    function registerDoctor(\r\n        string memory _doctorNid,\r\n        string memory _doctorName,\r\n        string memory _doctorLicense,\r\n        string memory _doctorSpecialty\r\n    ) public {\r\n        doctors[_doctorNid] = Doctor ({\r\n            doctorName: _doctorName,\r\n            doctorLicense: _doctorLicense,\r\n            doctorSpecialty: _doctorSpecialty\r\n        });\r\n    }\r\n\r\n    function issuePrescription(\r\n        string memory _patientName,\r\n        string memory _patientNid,\r\n        string memory _affiliateNum,\r\n        string memory _licenseName,\r\n        string memory _licensePlan,\r\n        string memory _med1,\r\n        uint _quantity1,\r\n        string memory _med2,\r\n        uint _quantity2,\r\n        string memory _diagnosis,\r\n        string memory _doctorNid \r\n    ) public {\r\n        Prescription memory newPrescription = Prescription(\r\n            _patientName,\r\n            _patientNid,\r\n            _affiliateNum,\r\n            _licenseName,\r\n            _licensePlan,\r\n            _med1,\r\n            _quantity1,\r\n            _med2,\r\n            _quantity2,\r\n            _diagnosis,\r\n            _doctorNid\r\n        );\r\n        prescriptions.push(newPrescription);\r\n        prescriptionCount++;\r\n\r\n        emit IssuedPrescription(\r\n            _patientName,\r\n            _patientName,\r\n            _affiliateNum,\r\n            _licenseName,\r\n            _licensePlan,\r\n            _med1,\r\n            _quantity1,\r\n            _med2,\r\n            _quantity2,\r\n            _diagnosis,\r\n            _doctorNid\r\n        );\r\n    }\r\n\r\n    function getPrescription(uint _prescriptionId) public view returns (Prescription memory, Doctor memory) {\r\n        require(_prescriptionId > 0 && _prescriptionId <= prescriptionCount, \"invalid id.\");\r\n        Prescription memory prescription = prescriptions[_prescriptionId - 1];\r\n        Doctor memory doctor = doctors[prescription.doctorNid];\r\n        return (prescription, doctor);\r\n    }\r\n\r\n    function getPrescriptions() public view returns (Prescription[] memory) {\r\n        return prescriptions;\r\n    }\r\n\r\n    // -----------------------------\r\nfunction getPresbyDoctorNid(string memory _doctorNid) public view returns (Prescription[] memory) {\r\n    uint count = 0;\r\n    \r\n    // Primer bucle para contar cuntas recetas pertenecen al doctor\r\n    for (uint i = 0; i < prescriptionCount; i++) {\r\n        // Obtener los hashes de ambos NID (almacenado y proporcionado)\r\n        bytes32 storedHash = keccak256(abi.encodePacked(prescriptions[i].doctorNid));\r\n        bytes32 inputHash = keccak256(abi.encodePacked(_doctorNid));\r\n\r\n        // Comparar ambos hashes\r\n        if (storedHash == inputHash) {\r\n            count++;\r\n        }\r\n    }\r\n\r\n    // Crear un array para almacenar las recetas del doctor\r\n    Prescription[] memory doctorPrescriptions = new Prescription[](count);\r\n    uint index = 0;\r\n\r\n    // Segundo bucle para almacenar las recetas correspondientes\r\n    for (uint i = 0; i < prescriptionCount; i++) {\r\n        if (keccak256(abi.encodePacked(prescriptions[i].doctorNid)) == keccak256(abi.encodePacked(_doctorNid))) {\r\n            doctorPrescriptions[index] = prescriptions[i];\r\n            index++;\r\n        }\r\n    }\r\n\r\n    return doctorPrescriptions;\r\n}\r\n\r\n}",
  "sourcePath": "C:\\Users\\Usuario\\OneDrive\\Escritorio\\OneDrive\\2024\\Trabajo Final\\prescryption_v2\\prescryption_solidity\\contracts\\Prescription.sol",
  "compiler": {
    "name": "solc",
    "version": "0.8.0+commit.c7dfd78e.Emscripten.clang"
  },
  "schemaVersion": "3.4.16",
  "updatedAt": "2024-09-23T00:37:52.180Z",
  "networkType": "ethereum",
  "devdoc": {
    "kind": "dev",
    "methods": {},
    "version": 1
  },
  "userdoc": {
    "kind": "user",
    "methods": {},
    "version": 1
  }
}