{
  "contractName": "PrescriptionContract",
  "abi": [
    {
      "anonymous": false,
      "inputs": [
        {
          "indexed": false,
          "internalType": "string",
          "name": "patientName",
          "type": "string"
        },
        {
          "indexed": false,
          "internalType": "string",
          "name": "patientNid",
          "type": "string"
        },
        {
          "components": [
            {
              "internalType": "string",
              "name": "med1",
              "type": "string"
            },
            {
              "internalType": "uint256",
              "name": "quantity1",
              "type": "uint256"
            },
            {
              "internalType": "string",
              "name": "med2",
              "type": "string"
            },
            {
              "internalType": "uint256",
              "name": "quantity2",
              "type": "uint256"
            },
            {
              "internalType": "string",
              "name": "diagnosis",
              "type": "string"
            }
          ],
          "indexed": false,
          "internalType": "struct PrescriptionContract.MedicationInfo",
          "name": "meds",
          "type": "tuple"
        },
        {
          "components": [
            {
              "internalType": "string",
              "name": "affiliateNum",
              "type": "string"
            },
            {
              "internalType": "string",
              "name": "insuranceName",
              "type": "string"
            },
            {
              "internalType": "string",
              "name": "insurancePlan",
              "type": "string"
            }
          ],
          "indexed": false,
          "internalType": "struct PrescriptionContract.InsuranceInfo",
          "name": "insurance",
          "type": "tuple"
        },
        {
          "indexed": false,
          "internalType": "string",
          "name": "doctorNid",
          "type": "string"
        },
        {
          "indexed": false,
          "internalType": "address",
          "name": "patientAddress",
          "type": "address"
        },
        {
          "indexed": false,
          "internalType": "uint256",
          "name": "issueDate",
          "type": "uint256"
        },
        {
          "indexed": false,
          "internalType": "uint256",
          "name": "expirationDate",
          "type": "uint256"
        }
      ],
      "name": "IssuedPrescription",
      "type": "event"
    },
    {
      "inputs": [
        {
          "internalType": "string",
          "name": "",
          "type": "string"
        }
      ],
      "name": "doctors",
      "outputs": [
        {
          "internalType": "string",
          "name": "doctorName",
          "type": "string"
        },
        {
          "internalType": "string",
          "name": "doctorLicense",
          "type": "string"
        },
        {
          "internalType": "string",
          "name": "doctorSpecialty",
          "type": "string"
        }
      ],
      "stateMutability": "view",
      "type": "function",
      "constant": true
    },
    {
      "inputs": [],
      "name": "prescriptionCount",
      "outputs": [
        {
          "internalType": "uint256",
          "name": "",
          "type": "uint256"
        }
      ],
      "stateMutability": "view",
      "type": "function",
      "constant": true
    },
    {
      "inputs": [
        {
          "internalType": "uint256",
          "name": "",
          "type": "uint256"
        }
      ],
      "name": "prescriptions",
      "outputs": [
        {
          "internalType": "string",
          "name": "patientName",
          "type": "string"
        },
        {
          "internalType": "string",
          "name": "patientNid",
          "type": "string"
        },
        {
          "components": [
            {
              "internalType": "string",
              "name": "med1",
              "type": "string"
            },
            {
              "internalType": "uint256",
              "name": "quantity1",
              "type": "uint256"
            },
            {
              "internalType": "string",
              "name": "med2",
              "type": "string"
            },
            {
              "internalType": "uint256",
              "name": "quantity2",
              "type": "uint256"
            },
            {
              "internalType": "string",
              "name": "diagnosis",
              "type": "string"
            }
          ],
          "internalType": "struct PrescriptionContract.MedicationInfo",
          "name": "meds",
          "type": "tuple"
        },
        {
          "components": [
            {
              "internalType": "string",
              "name": "affiliateNum",
              "type": "string"
            },
            {
              "internalType": "string",
              "name": "insuranceName",
              "type": "string"
            },
            {
              "internalType": "string",
              "name": "insurancePlan",
              "type": "string"
            }
          ],
          "internalType": "struct PrescriptionContract.InsuranceInfo",
          "name": "insurance",
          "type": "tuple"
        },
        {
          "internalType": "string",
          "name": "doctorNid",
          "type": "string"
        },
        {
          "internalType": "address",
          "name": "patientAddress",
          "type": "address"
        },
        {
          "internalType": "uint256",
          "name": "issueDate",
          "type": "uint256"
        },
        {
          "internalType": "uint256",
          "name": "expirationDate",
          "type": "uint256"
        }
      ],
      "stateMutability": "view",
      "type": "function",
      "constant": true
    },
    {
      "inputs": [
        {
          "internalType": "string",
          "name": "_patientName",
          "type": "string"
        },
        {
          "internalType": "string",
          "name": "_patientNid",
          "type": "string"
        },
        {
          "components": [
            {
              "internalType": "string",
              "name": "med1",
              "type": "string"
            },
            {
              "internalType": "uint256",
              "name": "quantity1",
              "type": "uint256"
            },
            {
              "internalType": "string",
              "name": "med2",
              "type": "string"
            },
            {
              "internalType": "uint256",
              "name": "quantity2",
              "type": "uint256"
            },
            {
              "internalType": "string",
              "name": "diagnosis",
              "type": "string"
            }
          ],
          "internalType": "struct PrescriptionContract.MedicationInfo",
          "name": "_meds",
          "type": "tuple"
        },
        {
          "components": [
            {
              "internalType": "string",
              "name": "affiliateNum",
              "type": "string"
            },
            {
              "internalType": "string",
              "name": "insuranceName",
              "type": "string"
            },
            {
              "internalType": "string",
              "name": "insurancePlan",
              "type": "string"
            }
          ],
          "internalType": "struct PrescriptionContract.InsuranceInfo",
          "name": "_insurance",
          "type": "tuple"
        },
        {
          "internalType": "string",
          "name": "_doctorNid",
          "type": "string"
        },
        {
          "internalType": "address",
          "name": "_patientAddress",
          "type": "address"
        }
      ],
      "name": "issuePrescription",
      "outputs": [],
      "stateMutability": "nonpayable",
      "type": "function"
    },
    {
      "inputs": [
        {
          "internalType": "uint256",
          "name": "_prescriptionId",
          "type": "uint256"
        }
      ],
      "name": "getPrescription",
      "outputs": [
        {
          "components": [
            {
              "internalType": "string",
              "name": "patientName",
              "type": "string"
            },
            {
              "internalType": "string",
              "name": "patientNid",
              "type": "string"
            },
            {
              "components": [
                {
                  "internalType": "string",
                  "name": "med1",
                  "type": "string"
                },
                {
                  "internalType": "uint256",
                  "name": "quantity1",
                  "type": "uint256"
                },
                {
                  "internalType": "string",
                  "name": "med2",
                  "type": "string"
                },
                {
                  "internalType": "uint256",
                  "name": "quantity2",
                  "type": "uint256"
                },
                {
                  "internalType": "string",
                  "name": "diagnosis",
                  "type": "string"
                }
              ],
              "internalType": "struct PrescriptionContract.MedicationInfo",
              "name": "meds",
              "type": "tuple"
            },
            {
              "components": [
                {
                  "internalType": "string",
                  "name": "affiliateNum",
                  "type": "string"
                },
                {
                  "internalType": "string",
                  "name": "insuranceName",
                  "type": "string"
                },
                {
                  "internalType": "string",
                  "name": "insurancePlan",
                  "type": "string"
                }
              ],
              "internalType": "struct PrescriptionContract.InsuranceInfo",
              "name": "insurance",
              "type": "tuple"
            },
            {
              "internalType": "string",
              "name": "doctorNid",
              "type": "string"
            },
            {
              "internalType": "address",
              "name": "patientAddress",
              "type": "address"
            },
            {
              "internalType": "uint256",
              "name": "issueDate",
              "type": "uint256"
            },
            {
              "internalType": "uint256",
              "name": "expirationDate",
              "type": "uint256"
            }
          ],
          "internalType": "struct PrescriptionContract.Prescription",
          "name": "",
          "type": "tuple"
        },
        {
          "components": [
            {
              "internalType": "string",
              "name": "doctorName",
              "type": "string"
            },
            {
              "internalType": "string",
              "name": "doctorLicense",
              "type": "string"
            },
            {
              "internalType": "string",
              "name": "doctorSpecialty",
              "type": "string"
            }
          ],
          "internalType": "struct PrescriptionContract.Doctor",
          "name": "",
          "type": "tuple"
        }
      ],
      "stateMutability": "view",
      "type": "function",
      "constant": true
    },
    {
      "inputs": [],
      "name": "getPrescriptions",
      "outputs": [
        {
          "components": [
            {
              "internalType": "string",
              "name": "patientName",
              "type": "string"
            },
            {
              "internalType": "string",
              "name": "patientNid",
              "type": "string"
            },
            {
              "components": [
                {
                  "internalType": "string",
                  "name": "med1",
                  "type": "string"
                },
                {
                  "internalType": "uint256",
                  "name": "quantity1",
                  "type": "uint256"
                },
                {
                  "internalType": "string",
                  "name": "med2",
                  "type": "string"
                },
                {
                  "internalType": "uint256",
                  "name": "quantity2",
                  "type": "uint256"
                },
                {
                  "internalType": "string",
                  "name": "diagnosis",
                  "type": "string"
                }
              ],
              "internalType": "struct PrescriptionContract.MedicationInfo",
              "name": "meds",
              "type": "tuple"
            },
            {
              "components": [
                {
                  "internalType": "string",
                  "name": "affiliateNum",
                  "type": "string"
                },
                {
                  "internalType": "string",
                  "name": "insuranceName",
                  "type": "string"
                },
                {
                  "internalType": "string",
                  "name": "insurancePlan",
                  "type": "string"
                }
              ],
              "internalType": "struct PrescriptionContract.InsuranceInfo",
              "name": "insurance",
              "type": "tuple"
            },
            {
              "internalType": "string",
              "name": "doctorNid",
              "type": "string"
            },
            {
              "internalType": "address",
              "name": "patientAddress",
              "type": "address"
            },
            {
              "internalType": "uint256",
              "name": "issueDate",
              "type": "uint256"
            },
            {
              "internalType": "uint256",
              "name": "expirationDate",
              "type": "uint256"
            }
          ],
          "internalType": "struct PrescriptionContract.Prescription[]",
          "name": "",
          "type": "tuple[]"
        }
      ],
      "stateMutability": "view",
      "type": "function",
      "constant": true
    },
    {
      "inputs": [
        {
          "internalType": "string",
          "name": "_doctorNid",
          "type": "string"
        }
      ],
      "name": "getPresbyDoctorNid",
      "outputs": [
        {
          "components": [
            {
              "internalType": "string",
              "name": "patientName",
              "type": "string"
            },
            {
              "internalType": "string",
              "name": "patientNid",
              "type": "string"
            },
            {
              "components": [
                {
                  "internalType": "string",
                  "name": "med1",
                  "type": "string"
                },
                {
                  "internalType": "uint256",
                  "name": "quantity1",
                  "type": "uint256"
                },
                {
                  "internalType": "string",
                  "name": "med2",
                  "type": "string"
                },
                {
                  "internalType": "uint256",
                  "name": "quantity2",
                  "type": "uint256"
                },
                {
                  "internalType": "string",
                  "name": "diagnosis",
                  "type": "string"
                }
              ],
              "internalType": "struct PrescriptionContract.MedicationInfo",
              "name": "meds",
              "type": "tuple"
            },
            {
              "components": [
                {
                  "internalType": "string",
                  "name": "affiliateNum",
                  "type": "string"
                },
                {
                  "internalType": "string",
                  "name": "insuranceName",
                  "type": "string"
                },
                {
                  "internalType": "string",
                  "name": "insurancePlan",
                  "type": "string"
                }
              ],
              "internalType": "struct PrescriptionContract.InsuranceInfo",
              "name": "insurance",
              "type": "tuple"
            },
            {
              "internalType": "string",
              "name": "doctorNid",
              "type": "string"
            },
            {
              "internalType": "address",
              "name": "patientAddress",
              "type": "address"
            },
            {
              "internalType": "uint256",
              "name": "issueDate",
              "type": "uint256"
            },
            {
              "internalType": "uint256",
              "name": "expirationDate",
              "type": "uint256"
            }
          ],
          "internalType": "struct PrescriptionContract.Prescription[]",
          "name": "",
          "type": "tuple[]"
        }
      ],
      "stateMutability": "view",
      "type": "function",
      "constant": true
    },
    {
      "inputs": [
        {
          "internalType": "address",
          "name": "_patientAddress",
          "type": "address"
        }
      ],
      "name": "getPresbyPatientAddress",
      "outputs": [
        {
          "components": [
            {
              "internalType": "string",
              "name": "patientName",
              "type": "string"
            },
            {
              "internalType": "string",
              "name": "patientNid",
              "type": "string"
            },
            {
              "components": [
                {
                  "internalType": "string",
                  "name": "med1",
                  "type": "string"
                },
                {
                  "internalType": "uint256",
                  "name": "quantity1",
                  "type": "uint256"
                },
                {
                  "internalType": "string",
                  "name": "med2",
                  "type": "string"
                },
                {
                  "internalType": "uint256",
                  "name": "quantity2",
                  "type": "uint256"
                },
                {
                  "internalType": "string",
                  "name": "diagnosis",
                  "type": "string"
                }
              ],
              "internalType": "struct PrescriptionContract.MedicationInfo",
              "name": "meds",
              "type": "tuple"
            },
            {
              "components": [
                {
                  "internalType": "string",
                  "name": "affiliateNum",
                  "type": "string"
                },
                {
                  "internalType": "string",
                  "name": "insuranceName",
                  "type": "string"
                },
                {
                  "internalType": "string",
                  "name": "insurancePlan",
                  "type": "string"
                }
              ],
              "internalType": "struct PrescriptionContract.InsuranceInfo",
              "name": "insurance",
              "type": "tuple"
            },
            {
              "internalType": "string",
              "name": "doctorNid",
              "type": "string"
            },
            {
              "internalType": "address",
              "name": "patientAddress",
              "type": "address"
            },
            {
              "internalType": "uint256",
              "name": "issueDate",
              "type": "uint256"
            },
            {
              "internalType": "uint256",
              "name": "expirationDate",
              "type": "uint256"
            }
          ],
          "internalType": "struct PrescriptionContract.Prescription[]",
          "name": "",
          "type": "tuple[]"
        }
      ],
      "stateMutability": "view",
      "type": "function",
      "constant": true
    }
  ],
  "bytecode": "0x608060405234801561001057600080fd5b50613194806100206000396000f3fe608060405234801561001057600080fd5b50600436106100885760003560e01c80637dfe927c1161005b5780637dfe927c14610115578063a1ea57c614610135578063a452e05914610148578063b65584981461015057610088565b806305c35ce51461008d57806331dfc91b146100b857806353a6dbf6146100df5780636f16af10146100f4575b600080fd5b6100a061009b366004612b46565b610165565b6040516100af93929190612f23565b60405180910390f35b6100cb6100c6366004612c5c565b61032a565b6040516100af989796959493929190612f66565b6100f26100ed366004612b81565b6108ba565b005b610107610102366004612c5c565b610af4565b6040516100af929190613019565b610128610123366004612b25565b611300565b6040516100af9190612ec3565b610128610143366004612b46565b611a5b565b610128612218565b610158612803565b6040516100af919061303e565b805160208183018101805160018252928201919093012091528054819061018b906130dc565b80601f01602080910402602001604051908101604052809291908181526020018280546101b7906130dc565b80156102045780601f106101d957610100808354040283529160200191610204565b820191906000526020600020905b8154815290600101906020018083116101e757829003601f168201915b505050505090806001018054610219906130dc565b80601f0160208091040260200160405190810160405280929190818152602001828054610245906130dc565b80156102925780601f1061026757610100808354040283529160200191610292565b820191906000526020600020905b81548152906001019060200180831161027557829003601f168201915b5050505050908060020180546102a7906130dc565b80601f01602080910402602001604051908101604052809291908181526020018280546102d3906130dc565b80156103205780601f106102f557610100808354040283529160200191610320565b820191906000526020600020905b81548152906001019060200180831161030357829003601f168201915b5050505050905083565b6000818154811061033a57600080fd5b90600052602060002090600e020160009150905080600001805461035d906130dc565b80601f0160208091040260200160405190810160405280929190818152602001828054610389906130dc565b80156103d65780601f106103ab576101008083540402835291602001916103d6565b820191906000526020600020905b8154815290600101906020018083116103b957829003601f168201915b5050505050908060010180546103eb906130dc565b80601f0160208091040260200160405190810160405280929190818152602001828054610417906130dc565b80156104645780601f1061043957610100808354040283529160200191610464565b820191906000526020600020905b81548152906001019060200180831161044757829003601f168201915b505050505090806002016040518060a0016040529081600082018054610489906130dc565b80601f01602080910402602001604051908101604052809291908181526020018280546104b5906130dc565b80156105025780601f106104d757610100808354040283529160200191610502565b820191906000526020600020905b8154815290600101906020018083116104e557829003601f168201915b5050505050815260200160018201548152602001600282018054610525906130dc565b80601f0160208091040260200160405190810160405280929190818152602001828054610551906130dc565b801561059e5780601f106105735761010080835404028352916020019161059e565b820191906000526020600020905b81548152906001019060200180831161058157829003601f168201915b50505050508152602001600382015481526020016004820180546105c1906130dc565b80601f01602080910402602001604051908101604052809291908181526020018280546105ed906130dc565b801561063a5780601f1061060f5761010080835404028352916020019161063a565b820191906000526020600020905b81548152906001019060200180831161061d57829003601f168201915b5050505050815250509080600701604051806060016040529081600082018054610663906130dc565b80601f016020809104026020016040519081016040528092919081815260200182805461068f906130dc565b80156106dc5780601f106106b1576101008083540402835291602001916106dc565b820191906000526020600020905b8154815290600101906020018083116106bf57829003601f168201915b505050505081526020016001820180546106f5906130dc565b80601f0160208091040260200160405190810160405280929190818152602001828054610721906130dc565b801561076e5780601f106107435761010080835404028352916020019161076e565b820191906000526020600020905b81548152906001019060200180831161075157829003601f168201915b50505050508152602001600282018054610787906130dc565b80601f01602080910402602001604051908101604052809291908181526020018280546107b3906130dc565b80156108005780601f106107d557610100808354040283529160200191610800565b820191906000526020600020905b8154815290600101906020018083116107e357829003601f168201915b5050505050815250509080600a018054610819906130dc565b80601f0160208091040260200160405190810160405280929190818152602001828054610845906130dc565b80156108925780601f1061086757610100808354040283529160200191610892565b820191906000526020600020905b81548152906001019060200180831161087557829003601f168201915b50505050600b830154600c840154600d9094015492936001600160a01b039091169290915088565b4260006108ca8262278d0061307d565b60408051610100810182528a815260208082018b905291810189905260608101889052608081018790526001600160a01b03861660a082015260c0810185905260e08101839052600080546001810182559080528151805194955091938493600e9092027f290decd9548b62a8d60345a988386fc84ba6bc95484008f6362f93160ef3e563019261095f928492910190612809565b5060208281015180516109789260018501920190612809565b50604082015180518051600284019161099691839160200190612809565b506020828101516001830155604083015180516109b99260028501920190612809565b5060608201516003820155608082015180516109df916004840191602090910190612809565b50505060608201518051805160078401916109ff91839160200190612809565b506020828101518051610a189260018501920190612809565b5060408201518051610a34916002840191602090910190612809565b50505060808201518051610a5291600a840191602090910190612809565b5060a0820151600b820180546001600160a01b0319166001600160a01b0390921691909117905560c0820151600c82015560e090910151600d9091015560028054906000610a9f83613117565b91905055507f860675638eeb9e48914c83f726e2223b465126712fa664927829622f7aced1148989898989898989604051610ae1989796959493929190612f66565b60405180910390a1505050505050505050565b610afc61288d565b610b046128e7565b600083118015610b1657506002548311155b610b3b5760405162461bcd60e51b8152600401610b3290612ff4565b60405180910390fd5b600080610b49600186613095565b81548110610b6757634e487b7160e01b600052603260045260246000fd5b90600052602060002090600e020160405180610100016040529081600082018054610b91906130dc565b80601f0160208091040260200160405190810160405280929190818152602001828054610bbd906130dc565b8015610c0a5780601f10610bdf57610100808354040283529160200191610c0a565b820191906000526020600020905b815481529060010190602001808311610bed57829003601f168201915b50505050508152602001600182018054610c23906130dc565b80601f0160208091040260200160405190810160405280929190818152602001828054610c4f906130dc565b8015610c9c5780601f10610c7157610100808354040283529160200191610c9c565b820191906000526020600020905b815481529060010190602001808311610c7f57829003601f168201915b50505050508152602001600282016040518060a0016040529081600082018054610cc5906130dc565b80601f0160208091040260200160405190810160405280929190818152602001828054610cf1906130dc565b8015610d3e5780601f10610d1357610100808354040283529160200191610d3e565b820191906000526020600020905b815481529060010190602001808311610d2157829003601f168201915b5050505050815260200160018201548152602001600282018054610d61906130dc565b80601f0160208091040260200160405190810160405280929190818152602001828054610d8d906130dc565b8015610dda5780601f10610daf57610100808354040283529160200191610dda565b820191906000526020600020905b815481529060010190602001808311610dbd57829003601f168201915b5050505050815260200160038201548152602001600482018054610dfd906130dc565b80601f0160208091040260200160405190810160405280929190818152602001828054610e29906130dc565b8015610e765780601f10610e4b57610100808354040283529160200191610e76565b820191906000526020600020905b815481529060010190602001808311610e5957829003601f168201915b505050505081525050815260200160078201604051806060016040529081600082018054610ea3906130dc565b80601f0160208091040260200160405190810160405280929190818152602001828054610ecf906130dc565b8015610f1c5780601f10610ef157610100808354040283529160200191610f1c565b820191906000526020600020905b815481529060010190602001808311610eff57829003601f168201915b50505050508152602001600182018054610f35906130dc565b80601f0160208091040260200160405190810160405280929190818152602001828054610f61906130dc565b8015610fae5780601f10610f8357610100808354040283529160200191610fae565b820191906000526020600020905b815481529060010190602001808311610f9157829003601f168201915b50505050508152602001600282018054610fc7906130dc565b80601f0160208091040260200160405190810160405280929190818152602001828054610ff3906130dc565b80156110405780601f1061101557610100808354040283529160200191611040565b820191906000526020600020905b81548152906001019060200180831161102357829003601f168201915b5050505050815250508152602001600a8201805461105d906130dc565b80601f0160208091040260200160405190810160405280929190818152602001828054611089906130dc565b80156110d65780601f106110ab576101008083540402835291602001916110d6565b820191906000526020600020905b8154815290600101906020018083116110b957829003601f168201915b5050509183525050600b8201546001600160a01b03166020820152600c820154604080830191909152600d909201546060909101526080820151905191925060009160019161112491612e0c565b908152602001604051809103902060405180606001604052908160008201805461114d906130dc565b80601f0160208091040260200160405190810160405280929190818152602001828054611179906130dc565b80156111c65780601f1061119b576101008083540402835291602001916111c6565b820191906000526020600020905b8154815290600101906020018083116111a957829003601f168201915b505050505081526020016001820180546111df906130dc565b80601f016020809104026020016040519081016040528092919081815260200182805461120b906130dc565b80156112585780601f1061122d57610100808354040283529160200191611258565b820191906000526020600020905b81548152906001019060200180831161123b57829003601f168201915b50505050508152602001600282018054611271906130dc565b80601f016020809104026020016040519081016040528092919081815260200182805461129d906130dc565b80156112ea5780601f106112bf576101008083540402835291602001916112ea565b820191906000526020600020905b8154815290600101906020018083116112cd57829003601f168201915b5050509190925250939550909350505050915091565b60606000805b60025481101561137e57836001600160a01b03166000828154811061133b57634e487b7160e01b600052603260045260246000fd5b60009182526020909120600b600e9092020101546001600160a01b0316141561136c578161136881613117565b9250505b8061137681613117565b915050611306565b5060008167ffffffffffffffff8111156113a857634e487b7160e01b600052604160045260246000fd5b6040519080825280602002602001820160405280156113e157816020015b6113ce61288d565b8152602001906001900390816113c65790505b5090506000805b600254811015611a4f57856001600160a01b03166000828154811061141d57634e487b7160e01b600052603260045260246000fd5b60009182526020909120600b600e9092020101546001600160a01b03161415611a3d576000818154811061146157634e487b7160e01b600052603260045260246000fd5b90600052602060002090600e02016040518061010001604052908160008201805461148b906130dc565b80601f01602080910402602001604051908101604052809291908181526020018280546114b7906130dc565b80156115045780601f106114d957610100808354040283529160200191611504565b820191906000526020600020905b8154815290600101906020018083116114e757829003601f168201915b5050505050815260200160018201805461151d906130dc565b80601f0160208091040260200160405190810160405280929190818152602001828054611549906130dc565b80156115965780601f1061156b57610100808354040283529160200191611596565b820191906000526020600020905b81548152906001019060200180831161157957829003601f168201915b50505050508152602001600282016040518060a00160405290816000820180546115bf906130dc565b80601f01602080910402602001604051908101604052809291908181526020018280546115eb906130dc565b80156116385780601f1061160d57610100808354040283529160200191611638565b820191906000526020600020905b81548152906001019060200180831161161b57829003601f168201915b505050505081526020016001820154815260200160028201805461165b906130dc565b80601f0160208091040260200160405190810160405280929190818152602001828054611687906130dc565b80156116d45780601f106116a9576101008083540402835291602001916116d4565b820191906000526020600020905b8154815290600101906020018083116116b757829003601f168201915b50505050508152602001600382015481526020016004820180546116f7906130dc565b80601f0160208091040260200160405190810160405280929190818152602001828054611723906130dc565b80156117705780601f1061174557610100808354040283529160200191611770565b820191906000526020600020905b81548152906001019060200180831161175357829003601f168201915b50505050508152505081526020016007820160405180606001604052908160008201805461179d906130dc565b80601f01602080910402602001604051908101604052809291908181526020018280546117c9906130dc565b80156118165780601f106117eb57610100808354040283529160200191611816565b820191906000526020600020905b8154815290600101906020018083116117f957829003601f168201915b5050505050815260200160018201805461182f906130dc565b80601f016020809104026020016040519081016040528092919081815260200182805461185b906130dc565b80156118a85780601f1061187d576101008083540402835291602001916118a8565b820191906000526020600020905b81548152906001019060200180831161188b57829003601f168201915b505050505081526020016002820180546118c1906130dc565b80601f01602080910402602001604051908101604052809291908181526020018280546118ed906130dc565b801561193a5780601f1061190f5761010080835404028352916020019161193a565b820191906000526020600020905b81548152906001019060200180831161191d57829003601f168201915b5050505050815250508152602001600a82018054611957906130dc565b80601f0160208091040260200160405190810160405280929190818152602001828054611983906130dc565b80156119d05780601f106119a5576101008083540402835291602001916119d0565b820191906000526020600020905b8154815290600101906020018083116119b357829003601f168201915b5050509183525050600b8201546001600160a01b03166020820152600c8201546040820152600d909101546060909101528351849084908110611a2357634e487b7160e01b600052603260045260246000fd5b60200260200101819052508180611a3990613117565b9250505b80611a4781613117565b9150506113e8565b5090925050505b919050565b60606000805b600254811015611b105783604051602001611a7c9190612e0c565b6040516020818303038152906040528051906020012060008281548110611ab357634e487b7160e01b600052603260045260246000fd5b90600052602060002090600e0201600a01604051602001611ad49190612e28565b604051602081830303815290604052805190602001201415611afe5781611afa81613117565b9250505b80611b0881613117565b915050611a61565b5060008167ffffffffffffffff811115611b3a57634e487b7160e01b600052604160045260246000fd5b604051908082528060200260200182016040528015611b7357816020015b611b6061288d565b815260200190600190039081611b585790505b5090506000805b600254811015611a4f5785604051602001611b959190612e0c565b6040516020818303038152906040528051906020012060008281548110611bcc57634e487b7160e01b600052603260045260246000fd5b90600052602060002090600e0201600a01604051602001611bed9190612e28565b6040516020818303038152906040528051906020012014156122065760008181548110611c2a57634e487b7160e01b600052603260045260246000fd5b90600052602060002090600e020160405180610100016040529081600082018054611c54906130dc565b80601f0160208091040260200160405190810160405280929190818152602001828054611c80906130dc565b8015611ccd5780601f10611ca257610100808354040283529160200191611ccd565b820191906000526020600020905b815481529060010190602001808311611cb057829003601f168201915b50505050508152602001600182018054611ce6906130dc565b80601f0160208091040260200160405190810160405280929190818152602001828054611d12906130dc565b8015611d5f5780601f10611d3457610100808354040283529160200191611d5f565b820191906000526020600020905b815481529060010190602001808311611d4257829003601f168201915b50505050508152602001600282016040518060a0016040529081600082018054611d88906130dc565b80601f0160208091040260200160405190810160405280929190818152602001828054611db4906130dc565b8015611e015780601f10611dd657610100808354040283529160200191611e01565b820191906000526020600020905b815481529060010190602001808311611de457829003601f168201915b5050505050815260200160018201548152602001600282018054611e24906130dc565b80601f0160208091040260200160405190810160405280929190818152602001828054611e50906130dc565b8015611e9d5780601f10611e7257610100808354040283529160200191611e9d565b820191906000526020600020905b815481529060010190602001808311611e8057829003601f168201915b5050505050815260200160038201548152602001600482018054611ec0906130dc565b80601f0160208091040260200160405190810160405280929190818152602001828054611eec906130dc565b8015611f395780601f10611f0e57610100808354040283529160200191611f39565b820191906000526020600020905b815481529060010190602001808311611f1c57829003601f168201915b505050505081525050815260200160078201604051806060016040529081600082018054611f66906130dc565b80601f0160208091040260200160405190810160405280929190818152602001828054611f92906130dc565b8015611fdf5780601f10611fb457610100808354040283529160200191611fdf565b820191906000526020600020905b815481529060010190602001808311611fc257829003601f168201915b50505050508152602001600182018054611ff8906130dc565b80601f0160208091040260200160405190810160405280929190818152602001828054612024906130dc565b80156120715780601f1061204657610100808354040283529160200191612071565b820191906000526020600020905b81548152906001019060200180831161205457829003601f168201915b5050505050815260200160028201805461208a906130dc565b80601f01602080910402602001604051908101604052809291908181526020018280546120b6906130dc565b80156121035780601f106120d857610100808354040283529160200191612103565b820191906000526020600020905b8154815290600101906020018083116120e657829003601f168201915b5050505050815250508152602001600a82018054612120906130dc565b80601f016020809104026020016040519081016040528092919081815260200182805461214c906130dc565b80156121995780601f1061216e57610100808354040283529160200191612199565b820191906000526020600020905b81548152906001019060200180831161217c57829003601f168201915b5050509183525050600b8201546001600160a01b03166020820152600c8201546040820152600d9091015460609091015283518490849081106121ec57634e487b7160e01b600052603260045260246000fd5b6020026020010181905250818061220290613117565b9250505b8061221081613117565b915050611b7a565b60606000805480602002602001604051908101604052809291908181526020016000905b828210156127fa57838290600052602060002090600e020160405180610100016040529081600082018054612270906130dc565b80601f016020809104026020016040519081016040528092919081815260200182805461229c906130dc565b80156122e95780601f106122be576101008083540402835291602001916122e9565b820191906000526020600020905b8154815290600101906020018083116122cc57829003601f168201915b50505050508152602001600182018054612302906130dc565b80601f016020809104026020016040519081016040528092919081815260200182805461232e906130dc565b801561237b5780601f106123505761010080835404028352916020019161237b565b820191906000526020600020905b81548152906001019060200180831161235e57829003601f168201915b50505050508152602001600282016040518060a00160405290816000820180546123a4906130dc565b80601f01602080910402602001604051908101604052809291908181526020018280546123d0906130dc565b801561241d5780601f106123f25761010080835404028352916020019161241d565b820191906000526020600020905b81548152906001019060200180831161240057829003601f168201915b5050505050815260200160018201548152602001600282018054612440906130dc565b80601f016020809104026020016040519081016040528092919081815260200182805461246c906130dc565b80156124b95780601f1061248e576101008083540402835291602001916124b9565b820191906000526020600020905b81548152906001019060200180831161249c57829003601f168201915b50505050508152602001600382015481526020016004820180546124dc906130dc565b80601f0160208091040260200160405190810160405280929190818152602001828054612508906130dc565b80156125555780601f1061252a57610100808354040283529160200191612555565b820191906000526020600020905b81548152906001019060200180831161253857829003601f168201915b505050505081525050815260200160078201604051806060016040529081600082018054612582906130dc565b80601f01602080910402602001604051908101604052809291908181526020018280546125ae906130dc565b80156125fb5780601f106125d0576101008083540402835291602001916125fb565b820191906000526020600020905b8154815290600101906020018083116125de57829003601f168201915b50505050508152602001600182018054612614906130dc565b80601f0160208091040260200160405190810160405280929190818152602001828054612640906130dc565b801561268d5780601f106126625761010080835404028352916020019161268d565b820191906000526020600020905b81548152906001019060200180831161267057829003601f168201915b505050505081526020016002820180546126a6906130dc565b80601f01602080910402602001604051908101604052809291908181526020018280546126d2906130dc565b801561271f5780601f106126f45761010080835404028352916020019161271f565b820191906000526020600020905b81548152906001019060200180831161270257829003601f168201915b5050505050815250508152602001600a8201805461273c906130dc565b80601f0160208091040260200160405190810160405280929190818152602001828054612768906130dc565b80156127b55780601f1061278a576101008083540402835291602001916127b5565b820191906000526020600020905b81548152906001019060200180831161279857829003601f168201915b5050509183525050600b8201546001600160a01b0316602080830191909152600c8301546040830152600d90920154606090910152908252600192909201910161223c565b50505050905090565b60025481565b828054612815906130dc565b90600052602060002090601f016020900481019282612837576000855561287d565b82601f1061285057805160ff191683800117855561287d565b8280016001018555821561287d579182015b8281111561287d578251825591602001919060010190612862565b50612889929150612908565b5090565b60405180610100016040528060608152602001606081526020016128af61291d565b81526020016128bc6128e7565b81526020016060815260200160006001600160a01b0316815260200160008152602001600081525090565b60405180606001604052806060815260200160608152602001606081525090565b5b808211156128895760008155600101612909565b6040518060a0016040528060608152602001600081526020016060815260200160008152602001606081525090565b80356001600160a01b0381168114611a5657600080fd5b600082601f830112612973578081fd5b813567ffffffffffffffff81111561298d5761298d613148565b6129a0601f8201601f1916602001613047565b8181528460208386010111156129b4578283fd5b816020850160208301379081016020019190915292915050565b6000606082840312156129df578081fd5b6040516060810167ffffffffffffffff8282108183111715612a0357612a03613148565b816040528293508435915080821115612a1b57600080fd5b612a2786838701612963565b83526020850135915080821115612a3d57600080fd5b612a4986838701612963565b60208401526040850135915080821115612a6257600080fd5b50612a6f85828601612963565b6040830152505092915050565b600060a08284031215612a8d578081fd5b612a9760a0613047565b9050813567ffffffffffffffff80821115612ab157600080fd5b612abd85838601612963565b8352602084013560208401526040840135915080821115612add57600080fd5b612ae985838601612963565b6040840152606084013560608401526080840135915080821115612b0c57600080fd5b50612b1984828501612963565b60808301525092915050565b600060208284031215612b36578081fd5b612b3f8261294c565b9392505050565b600060208284031215612b57578081fd5b813567ffffffffffffffff811115612b6d578182fd5b612b7984828501612963565b949350505050565b60008060008060008060c08789031215612b99578182fd5b863567ffffffffffffffff80821115612bb0578384fd5b612bbc8a838b01612963565b97506020890135915080821115612bd1578384fd5b612bdd8a838b01612963565b96506040890135915080821115612bf2578384fd5b612bfe8a838b01612a7c565b95506060890135915080821115612c13578384fd5b612c1f8a838b016129ce565b94506080890135915080821115612c34578384fd5b50612c4189828a01612963565b925050612c5060a0880161294c565b90509295509295509295565b600060208284031215612c6d578081fd5b5035919050565b6001600160a01b03169052565b60008151808452612c998160208601602086016130ac565b601f01601f19169290920160200192915050565b6000815160608452612cc26060850182612c81565b905060208301518482036020860152612cdb8282612c81565b91505060408301518482036040860152612cf58282612c81565b95945050505050565b6000815160a08452612d1360a0850182612c81565b90506020830151602085015260408301518482036040860152612d368282612c81565b9150506060830151606085015260808301518482036080860152612cf58282612c81565b60006101008251818552612d7082860182612c81565b91505060208301518482036020860152612d8a8282612c81565b91505060408301518482036040860152612da48282612cfe565b91505060608301518482036060860152612dbe8282612cad565b91505060808301518482036080860152612dd88282612c81565b91505060a0830151612ded60a0860182612c74565b5060c083015160c085015260e083015160e08501528091505092915050565b60008251612e1e8184602087016130ac565b9190910192915050565b8154600090819060028104600180831680612e4457607f831692505b6020808410821415612e6457634e487b7160e01b87526022600452602487fd5b818015612e785760018114612e8957612eb5565b60ff19861689528489019650612eb5565b612e928a613071565b885b86811015612ead5781548b820152908501908301612e94565b505084890196505b509498975050505050505050565b6000602080830181845280855180835260408601915060408482028701019250838701855b82811015612f1657603f19888603018452612f04858351612d5a565b94509285019290850190600101612ee8565b5092979650505050505050565b600060608252612f366060830186612c81565b8281036020840152612f488186612c81565b90508281036040840152612f5c8185612c81565b9695505050505050565b6000610100808352612f7a8184018c612c81565b90508281036020840152612f8e818b612c81565b90508281036040840152612fa2818a612cfe565b90508281036060840152612fb68189612cad565b90508281036080840152612fca8188612c81565b6001600160a01b039690961660a0840152505060c081019290925260e09091015295945050505050565b6020808252600b908201526a34b73b30b634b21034b21760a91b604082015260600190565b60006040825261302c6040830185612d5a565b8281036020840152612cf58185612cad565b90815260200190565b60405181810167ffffffffffffffff8111828210171561306957613069613148565b604052919050565b60009081526020902090565b6000821982111561309057613090613132565b500190565b6000828210156130a7576130a7613132565b500390565b60005b838110156130c75781810151838201526020016130af565b838111156130d6576000848401525b50505050565b6002810460018216806130f057607f821691505b6020821081141561311157634e487b7160e01b600052602260045260246000fd5b50919050565b600060001982141561312b5761312b613132565b5060010190565b634e487b7160e01b600052601160045260246000fd5b634e487b7160e01b600052604160045260246000fdfea26469706673582212207937606948e45c4978d1951da4b26482f318e0c0747880cf79b62779b98c83e664736f6c63430008000033",
  "immutableReferences": {},
  "source": "// SPDX-License-Identifier: MIT\r\npragma solidity ^0.8.0;\r\n\r\ncontract PrescriptionContract {\r\n    struct MedicationInfo {\r\n        string med1;\r\n        uint quantity1;\r\n        string med2;\r\n        uint quantity2;\r\n        string diagnosis;\r\n    }\r\n\r\n    struct InsuranceInfo {\r\n        string affiliateNum;\r\n        string insuranceName;\r\n        string insurancePlan;\r\n    }\r\n\r\n    struct Prescription {\r\n        string patientName;\r\n        string patientNid;\r\n        MedicationInfo meds;\r\n        InsuranceInfo insurance;\r\n        string doctorNid;\r\n        address patientAddress;\r\n        uint issueDate;\r\n        uint expirationDate;\r\n    }\r\n\r\n    Prescription[] public prescriptions;\r\n    mapping(string => Doctor) public doctors;\r\n\r\n    struct Doctor {\r\n        string doctorName;\r\n        string doctorLicense;\r\n        string doctorSpecialty;\r\n    }\r\n\r\n    uint public prescriptionCount;\r\n\r\n    event IssuedPrescription(\r\n        string patientName,\r\n        string patientNid,\r\n        MedicationInfo meds,\r\n        InsuranceInfo insurance,\r\n        string doctorNid,\r\n        address patientAddress,\r\n        uint issueDate,\r\n        uint expirationDate\r\n    );\r\n\r\n    // Emitir receta\r\n    function issuePrescription(\r\n        string memory _patientName,\r\n        string memory _patientNid,\r\n        MedicationInfo memory _meds,\r\n        InsuranceInfo memory _insurance,\r\n        string memory _doctorNid,\r\n        address _patientAddress\r\n    ) public {\r\n        uint issueDate = block.timestamp;\r\n        uint expirationDate = issueDate + 30 days;\r\n\r\n        Prescription memory newPrescription = Prescription({\r\n            patientName: _patientName,\r\n            patientNid: _patientNid,\r\n            meds: _meds,\r\n            insurance: _insurance,\r\n            doctorNid: _doctorNid,\r\n            patientAddress: _patientAddress,\r\n            issueDate: issueDate,\r\n            expirationDate: expirationDate\r\n        });\r\n\r\n        prescriptions.push(newPrescription);\r\n        prescriptionCount++;\r\n\r\n        emit IssuedPrescription(\r\n            _patientName,\r\n            _patientNid,\r\n            _meds,\r\n            _insurance,\r\n            _doctorNid,\r\n            _patientAddress,\r\n            issueDate,\r\n            expirationDate\r\n        );\r\n    }\r\n\r\n    // Get a specific prescription by ID\r\n    function getPrescription(uint _prescriptionId) public view returns (Prescription memory, Doctor memory) {\r\n        require(_prescriptionId > 0 && _prescriptionId <= prescriptionCount, \"invalid id.\");\r\n        Prescription memory prescription = prescriptions[_prescriptionId - 1];\r\n        Doctor memory doctor = doctors[prescription.doctorNid];\r\n        return (prescription, doctor);\r\n    }\r\n\r\n    // Get all prescriptions\r\n    function getPrescriptions() public view returns (Prescription[] memory) {\r\n        return prescriptions;\r\n    }\r\n\r\n    // Get prescriptions by doctor NID\r\n    function getPresbyDoctorNid(string memory _doctorNid) public view returns (Prescription[] memory) {\r\n        uint count = 0;\r\n\r\n        // First loop to count how many prescriptions belong to the doctor\r\n        for (uint i = 0; i < prescriptionCount; i++) {\r\n            if (keccak256(abi.encodePacked(prescriptions[i].doctorNid)) == keccak256(abi.encodePacked(_doctorNid))) {\r\n                count++;\r\n            }\r\n        }\r\n\r\n        // Create an array to store the doctor's prescriptions\r\n        Prescription[] memory doctorPrescriptions = new Prescription[](count);\r\n        uint index = 0;\r\n\r\n        // Second loop to store the corresponding prescriptions\r\n        for (uint i = 0; i < prescriptionCount; i++) {\r\n            if (keccak256(abi.encodePacked(prescriptions[i].doctorNid)) == keccak256(abi.encodePacked(_doctorNid))) {\r\n                doctorPrescriptions[index] = prescriptions[i];\r\n                index++;\r\n            }\r\n        }\r\n\r\n        return doctorPrescriptions;\r\n    }\r\n\r\n    // -----------------------------\r\n    // New function to get prescriptions by patient address\r\n    function getPresbyPatientAddress(address _patientAddress) public view returns (Prescription[] memory) {\r\n        uint count = 0;\r\n\r\n        // First loop to count how many prescriptions belong to the patient\r\n        for (uint i = 0; i < prescriptionCount; i++) {\r\n            if (prescriptions[i].patientAddress == _patientAddress) {\r\n                count++;\r\n            }\r\n        }\r\n\r\n        // Create an array to store the patient's prescriptions\r\n        Prescription[] memory patientPrescriptions = new Prescription[](count);\r\n        uint index = 0;\r\n\r\n        // Second loop to store the corresponding prescriptions\r\n        for (uint i = 0; i < prescriptionCount; i++) {\r\n            if (prescriptions[i].patientAddress == _patientAddress) {\r\n                patientPrescriptions[index] = prescriptions[i];\r\n                index++;\r\n            }\r\n        }\r\n\r\n        return patientPrescriptions;\r\n    }\r\n}",
  "sourcePath": "C:\\Users\\Usuario\\OneDrive\\Escritorio\\OneDrive\\2024\\Trabajo Final\\prescryption_v2\\prescryption_solidity\\contracts\\Prescription.sol",
  "compiler": {
    "name": "solc",
    "version": "0.8.0+commit.c7dfd78e.Emscripten.clang"
  },
  "schemaVersion": "3.4.16",
  "updatedAt": "2024-10-08T00:27:14.493Z",
  "networkType": "ethereum",
  "devdoc": {
    "kind": "dev",
    "methods": {},
    "version": 1
  },
  "userdoc": {
    "kind": "user",
    "methods": {},
    "version": 1
  }
}