{
  "contractName": "PrescriptionContract",
  "abi": [
    {
      "anonymous": false,
      "inputs": [
        {
          "indexed": false,
          "internalType": "uint256",
          "name": "id",
          "type": "uint256"
        },
        {
          "components": [
            {
              "internalType": "string",
              "name": "name",
              "type": "string"
            },
            {
              "internalType": "string",
              "name": "surname",
              "type": "string"
            },
            {
              "internalType": "string",
              "name": "nid",
              "type": "string"
            }
          ],
          "indexed": false,
          "internalType": "struct PrescriptionContract.PatientInfo",
          "name": "patient",
          "type": "tuple"
        },
        {
          "components": [
            {
              "internalType": "string",
              "name": "med1",
              "type": "string"
            },
            {
              "internalType": "uint256",
              "name": "quantity1",
              "type": "uint256"
            },
            {
              "internalType": "string",
              "name": "med2",
              "type": "string"
            },
            {
              "internalType": "uint256",
              "name": "quantity2",
              "type": "uint256"
            },
            {
              "internalType": "string",
              "name": "diagnosis",
              "type": "string"
            },
            {
              "internalType": "string",
              "name": "observations",
              "type": "string"
            }
          ],
          "indexed": false,
          "internalType": "struct PrescriptionContract.MedicationInfo",
          "name": "meds",
          "type": "tuple"
        },
        {
          "components": [
            {
              "internalType": "string",
              "name": "affiliateNum",
              "type": "string"
            },
            {
              "internalType": "string",
              "name": "insuranceName",
              "type": "string"
            },
            {
              "internalType": "string",
              "name": "insurancePlan",
              "type": "string"
            }
          ],
          "indexed": false,
          "internalType": "struct PrescriptionContract.InsuranceInfo",
          "name": "insurance",
          "type": "tuple"
        },
        {
          "indexed": false,
          "internalType": "string",
          "name": "doctorNid",
          "type": "string"
        },
        {
          "indexed": false,
          "internalType": "address",
          "name": "patientAddress",
          "type": "address"
        },
        {
          "indexed": false,
          "internalType": "address",
          "name": "pharmacyAddress",
          "type": "address"
        },
        {
          "indexed": false,
          "internalType": "uint256",
          "name": "issueDate",
          "type": "uint256"
        },
        {
          "indexed": false,
          "internalType": "uint256",
          "name": "expirationDate",
          "type": "uint256"
        }
      ],
      "name": "IssuedPrescription",
      "type": "event"
    },
    {
      "anonymous": false,
      "inputs": [
        {
          "indexed": false,
          "internalType": "uint256",
          "name": "prescriptionId",
          "type": "uint256"
        }
      ],
      "name": "PrescriptionCleared",
      "type": "event"
    },
    {
      "anonymous": false,
      "inputs": [
        {
          "indexed": false,
          "internalType": "uint256",
          "name": "prescriptionId",
          "type": "uint256"
        },
        {
          "indexed": false,
          "internalType": "address",
          "name": "pharmacyAddress",
          "type": "address"
        }
      ],
      "name": "PrescriptionUpdated",
      "type": "event"
    },
    {
      "anonymous": false,
      "inputs": [
        {
          "indexed": false,
          "internalType": "uint256",
          "name": "prescriptionId",
          "type": "uint256"
        },
        {
          "indexed": false,
          "internalType": "address",
          "name": "pharmacyAddress",
          "type": "address"
        },
        {
          "indexed": false,
          "internalType": "uint256",
          "name": "validationTimestamp",
          "type": "uint256"
        }
      ],
      "name": "PrescriptionValidated",
      "type": "event"
    },
    {
      "inputs": [
        {
          "internalType": "string",
          "name": "",
          "type": "string"
        }
      ],
      "name": "doctors",
      "outputs": [
        {
          "internalType": "string",
          "name": "doctorName",
          "type": "string"
        },
        {
          "internalType": "string",
          "name": "doctorLicense",
          "type": "string"
        },
        {
          "internalType": "string",
          "name": "doctorSpecialty",
          "type": "string"
        }
      ],
      "stateMutability": "view",
      "type": "function",
      "constant": true
    },
    {
      "inputs": [],
      "name": "prescriptionCount",
      "outputs": [
        {
          "internalType": "uint256",
          "name": "",
          "type": "uint256"
        }
      ],
      "stateMutability": "view",
      "type": "function",
      "constant": true
    },
    {
      "inputs": [
        {
          "internalType": "uint256",
          "name": "",
          "type": "uint256"
        }
      ],
      "name": "prescriptions",
      "outputs": [
        {
          "internalType": "uint256",
          "name": "id",
          "type": "uint256"
        },
        {
          "components": [
            {
              "internalType": "string",
              "name": "name",
              "type": "string"
            },
            {
              "internalType": "string",
              "name": "surname",
              "type": "string"
            },
            {
              "internalType": "string",
              "name": "nid",
              "type": "string"
            }
          ],
          "internalType": "struct PrescriptionContract.PatientInfo",
          "name": "patient",
          "type": "tuple"
        },
        {
          "components": [
            {
              "internalType": "string",
              "name": "med1",
              "type": "string"
            },
            {
              "internalType": "uint256",
              "name": "quantity1",
              "type": "uint256"
            },
            {
              "internalType": "string",
              "name": "med2",
              "type": "string"
            },
            {
              "internalType": "uint256",
              "name": "quantity2",
              "type": "uint256"
            },
            {
              "internalType": "string",
              "name": "diagnosis",
              "type": "string"
            },
            {
              "internalType": "string",
              "name": "observations",
              "type": "string"
            }
          ],
          "internalType": "struct PrescriptionContract.MedicationInfo",
          "name": "meds",
          "type": "tuple"
        },
        {
          "components": [
            {
              "internalType": "string",
              "name": "affiliateNum",
              "type": "string"
            },
            {
              "internalType": "string",
              "name": "insuranceName",
              "type": "string"
            },
            {
              "internalType": "string",
              "name": "insurancePlan",
              "type": "string"
            }
          ],
          "internalType": "struct PrescriptionContract.InsuranceInfo",
          "name": "insurance",
          "type": "tuple"
        },
        {
          "internalType": "string",
          "name": "doctorNid",
          "type": "string"
        },
        {
          "internalType": "address",
          "name": "patientAddress",
          "type": "address"
        },
        {
          "internalType": "address",
          "name": "pharmacyAddress",
          "type": "address"
        },
        {
          "internalType": "uint256",
          "name": "issueDate",
          "type": "uint256"
        },
        {
          "internalType": "uint256",
          "name": "expirationDate",
          "type": "uint256"
        },
        {
          "internalType": "bool",
          "name": "used",
          "type": "bool"
        },
        {
          "internalType": "bool",
          "name": "isPendingValidation",
          "type": "bool"
        },
        {
          "internalType": "string",
          "name": "invoiceNumber",
          "type": "string"
        }
      ],
      "stateMutability": "view",
      "type": "function",
      "constant": true
    },
    {
      "inputs": [
        {
          "components": [
            {
              "internalType": "string",
              "name": "name",
              "type": "string"
            },
            {
              "internalType": "string",
              "name": "surname",
              "type": "string"
            },
            {
              "internalType": "string",
              "name": "nid",
              "type": "string"
            }
          ],
          "internalType": "struct PrescriptionContract.PatientInfo",
          "name": "_patient",
          "type": "tuple"
        },
        {
          "components": [
            {
              "internalType": "string",
              "name": "med1",
              "type": "string"
            },
            {
              "internalType": "uint256",
              "name": "quantity1",
              "type": "uint256"
            },
            {
              "internalType": "string",
              "name": "med2",
              "type": "string"
            },
            {
              "internalType": "uint256",
              "name": "quantity2",
              "type": "uint256"
            },
            {
              "internalType": "string",
              "name": "diagnosis",
              "type": "string"
            },
            {
              "internalType": "string",
              "name": "observations",
              "type": "string"
            }
          ],
          "internalType": "struct PrescriptionContract.MedicationInfo",
          "name": "_meds",
          "type": "tuple"
        },
        {
          "components": [
            {
              "internalType": "string",
              "name": "affiliateNum",
              "type": "string"
            },
            {
              "internalType": "string",
              "name": "insuranceName",
              "type": "string"
            },
            {
              "internalType": "string",
              "name": "insurancePlan",
              "type": "string"
            }
          ],
          "internalType": "struct PrescriptionContract.InsuranceInfo",
          "name": "_insurance",
          "type": "tuple"
        },
        {
          "internalType": "string",
          "name": "_doctorNid",
          "type": "string"
        },
        {
          "internalType": "address",
          "name": "_patientAddress",
          "type": "address"
        },
        {
          "internalType": "uint256",
          "name": "_issueDate",
          "type": "uint256"
        }
      ],
      "name": "issuePrescription",
      "outputs": [],
      "stateMutability": "nonpayable",
      "type": "function"
    },
    {
      "inputs": [
        {
          "internalType": "uint256",
          "name": "_prescriptionId",
          "type": "uint256"
        }
      ],
      "name": "getPrescription",
      "outputs": [
        {
          "components": [
            {
              "internalType": "uint256",
              "name": "id",
              "type": "uint256"
            },
            {
              "components": [
                {
                  "internalType": "string",
                  "name": "name",
                  "type": "string"
                },
                {
                  "internalType": "string",
                  "name": "surname",
                  "type": "string"
                },
                {
                  "internalType": "string",
                  "name": "nid",
                  "type": "string"
                }
              ],
              "internalType": "struct PrescriptionContract.PatientInfo",
              "name": "patient",
              "type": "tuple"
            },
            {
              "components": [
                {
                  "internalType": "string",
                  "name": "med1",
                  "type": "string"
                },
                {
                  "internalType": "uint256",
                  "name": "quantity1",
                  "type": "uint256"
                },
                {
                  "internalType": "string",
                  "name": "med2",
                  "type": "string"
                },
                {
                  "internalType": "uint256",
                  "name": "quantity2",
                  "type": "uint256"
                },
                {
                  "internalType": "string",
                  "name": "diagnosis",
                  "type": "string"
                },
                {
                  "internalType": "string",
                  "name": "observations",
                  "type": "string"
                }
              ],
              "internalType": "struct PrescriptionContract.MedicationInfo",
              "name": "meds",
              "type": "tuple"
            },
            {
              "components": [
                {
                  "internalType": "string",
                  "name": "affiliateNum",
                  "type": "string"
                },
                {
                  "internalType": "string",
                  "name": "insuranceName",
                  "type": "string"
                },
                {
                  "internalType": "string",
                  "name": "insurancePlan",
                  "type": "string"
                }
              ],
              "internalType": "struct PrescriptionContract.InsuranceInfo",
              "name": "insurance",
              "type": "tuple"
            },
            {
              "internalType": "string",
              "name": "doctorNid",
              "type": "string"
            },
            {
              "internalType": "address",
              "name": "patientAddress",
              "type": "address"
            },
            {
              "internalType": "address",
              "name": "pharmacyAddress",
              "type": "address"
            },
            {
              "internalType": "uint256",
              "name": "issueDate",
              "type": "uint256"
            },
            {
              "internalType": "uint256",
              "name": "expirationDate",
              "type": "uint256"
            },
            {
              "internalType": "bool",
              "name": "used",
              "type": "bool"
            },
            {
              "internalType": "bool",
              "name": "isPendingValidation",
              "type": "bool"
            },
            {
              "internalType": "string",
              "name": "invoiceNumber",
              "type": "string"
            }
          ],
          "internalType": "struct PrescriptionContract.Prescription",
          "name": "",
          "type": "tuple"
        }
      ],
      "stateMutability": "view",
      "type": "function",
      "constant": true
    },
    {
      "inputs": [
        {
          "internalType": "uint256",
          "name": "_prescriptionId",
          "type": "uint256"
        },
        {
          "internalType": "address",
          "name": "_pharmacyAddress",
          "type": "address"
        }
      ],
      "name": "updatePrescription",
      "outputs": [],
      "stateMutability": "nonpayable",
      "type": "function"
    },
    {
      "inputs": [
        {
          "internalType": "uint256",
          "name": "_prescriptionId",
          "type": "uint256"
        }
      ],
      "name": "clearPendingValidation",
      "outputs": [],
      "stateMutability": "nonpayable",
      "type": "function"
    },
    {
      "inputs": [],
      "name": "getPrescriptions",
      "outputs": [
        {
          "components": [
            {
              "internalType": "uint256",
              "name": "id",
              "type": "uint256"
            },
            {
              "components": [
                {
                  "internalType": "string",
                  "name": "name",
                  "type": "string"
                },
                {
                  "internalType": "string",
                  "name": "surname",
                  "type": "string"
                },
                {
                  "internalType": "string",
                  "name": "nid",
                  "type": "string"
                }
              ],
              "internalType": "struct PrescriptionContract.PatientInfo",
              "name": "patient",
              "type": "tuple"
            },
            {
              "components": [
                {
                  "internalType": "string",
                  "name": "med1",
                  "type": "string"
                },
                {
                  "internalType": "uint256",
                  "name": "quantity1",
                  "type": "uint256"
                },
                {
                  "internalType": "string",
                  "name": "med2",
                  "type": "string"
                },
                {
                  "internalType": "uint256",
                  "name": "quantity2",
                  "type": "uint256"
                },
                {
                  "internalType": "string",
                  "name": "diagnosis",
                  "type": "string"
                },
                {
                  "internalType": "string",
                  "name": "observations",
                  "type": "string"
                }
              ],
              "internalType": "struct PrescriptionContract.MedicationInfo",
              "name": "meds",
              "type": "tuple"
            },
            {
              "components": [
                {
                  "internalType": "string",
                  "name": "affiliateNum",
                  "type": "string"
                },
                {
                  "internalType": "string",
                  "name": "insuranceName",
                  "type": "string"
                },
                {
                  "internalType": "string",
                  "name": "insurancePlan",
                  "type": "string"
                }
              ],
              "internalType": "struct PrescriptionContract.InsuranceInfo",
              "name": "insurance",
              "type": "tuple"
            },
            {
              "internalType": "string",
              "name": "doctorNid",
              "type": "string"
            },
            {
              "internalType": "address",
              "name": "patientAddress",
              "type": "address"
            },
            {
              "internalType": "address",
              "name": "pharmacyAddress",
              "type": "address"
            },
            {
              "internalType": "uint256",
              "name": "issueDate",
              "type": "uint256"
            },
            {
              "internalType": "uint256",
              "name": "expirationDate",
              "type": "uint256"
            },
            {
              "internalType": "bool",
              "name": "used",
              "type": "bool"
            },
            {
              "internalType": "bool",
              "name": "isPendingValidation",
              "type": "bool"
            },
            {
              "internalType": "string",
              "name": "invoiceNumber",
              "type": "string"
            }
          ],
          "internalType": "struct PrescriptionContract.Prescription[]",
          "name": "",
          "type": "tuple[]"
        }
      ],
      "stateMutability": "view",
      "type": "function",
      "constant": true
    },
    {
      "inputs": [
        {
          "internalType": "string",
          "name": "_doctorNid",
          "type": "string"
        }
      ],
      "name": "getPresbyDoctorNid",
      "outputs": [
        {
          "components": [
            {
              "internalType": "uint256",
              "name": "id",
              "type": "uint256"
            },
            {
              "components": [
                {
                  "internalType": "string",
                  "name": "name",
                  "type": "string"
                },
                {
                  "internalType": "string",
                  "name": "surname",
                  "type": "string"
                },
                {
                  "internalType": "string",
                  "name": "nid",
                  "type": "string"
                }
              ],
              "internalType": "struct PrescriptionContract.PatientInfo",
              "name": "patient",
              "type": "tuple"
            },
            {
              "components": [
                {
                  "internalType": "string",
                  "name": "med1",
                  "type": "string"
                },
                {
                  "internalType": "uint256",
                  "name": "quantity1",
                  "type": "uint256"
                },
                {
                  "internalType": "string",
                  "name": "med2",
                  "type": "string"
                },
                {
                  "internalType": "uint256",
                  "name": "quantity2",
                  "type": "uint256"
                },
                {
                  "internalType": "string",
                  "name": "diagnosis",
                  "type": "string"
                },
                {
                  "internalType": "string",
                  "name": "observations",
                  "type": "string"
                }
              ],
              "internalType": "struct PrescriptionContract.MedicationInfo",
              "name": "meds",
              "type": "tuple"
            },
            {
              "components": [
                {
                  "internalType": "string",
                  "name": "affiliateNum",
                  "type": "string"
                },
                {
                  "internalType": "string",
                  "name": "insuranceName",
                  "type": "string"
                },
                {
                  "internalType": "string",
                  "name": "insurancePlan",
                  "type": "string"
                }
              ],
              "internalType": "struct PrescriptionContract.InsuranceInfo",
              "name": "insurance",
              "type": "tuple"
            },
            {
              "internalType": "string",
              "name": "doctorNid",
              "type": "string"
            },
            {
              "internalType": "address",
              "name": "patientAddress",
              "type": "address"
            },
            {
              "internalType": "address",
              "name": "pharmacyAddress",
              "type": "address"
            },
            {
              "internalType": "uint256",
              "name": "issueDate",
              "type": "uint256"
            },
            {
              "internalType": "uint256",
              "name": "expirationDate",
              "type": "uint256"
            },
            {
              "internalType": "bool",
              "name": "used",
              "type": "bool"
            },
            {
              "internalType": "bool",
              "name": "isPendingValidation",
              "type": "bool"
            },
            {
              "internalType": "string",
              "name": "invoiceNumber",
              "type": "string"
            }
          ],
          "internalType": "struct PrescriptionContract.Prescription[]",
          "name": "",
          "type": "tuple[]"
        }
      ],
      "stateMutability": "view",
      "type": "function",
      "constant": true
    },
    {
      "inputs": [
        {
          "internalType": "address",
          "name": "_patientAddress",
          "type": "address"
        }
      ],
      "name": "getPresbyPatientAddress",
      "outputs": [
        {
          "components": [
            {
              "internalType": "uint256",
              "name": "id",
              "type": "uint256"
            },
            {
              "components": [
                {
                  "internalType": "string",
                  "name": "name",
                  "type": "string"
                },
                {
                  "internalType": "string",
                  "name": "surname",
                  "type": "string"
                },
                {
                  "internalType": "string",
                  "name": "nid",
                  "type": "string"
                }
              ],
              "internalType": "struct PrescriptionContract.PatientInfo",
              "name": "patient",
              "type": "tuple"
            },
            {
              "components": [
                {
                  "internalType": "string",
                  "name": "med1",
                  "type": "string"
                },
                {
                  "internalType": "uint256",
                  "name": "quantity1",
                  "type": "uint256"
                },
                {
                  "internalType": "string",
                  "name": "med2",
                  "type": "string"
                },
                {
                  "internalType": "uint256",
                  "name": "quantity2",
                  "type": "uint256"
                },
                {
                  "internalType": "string",
                  "name": "diagnosis",
                  "type": "string"
                },
                {
                  "internalType": "string",
                  "name": "observations",
                  "type": "string"
                }
              ],
              "internalType": "struct PrescriptionContract.MedicationInfo",
              "name": "meds",
              "type": "tuple"
            },
            {
              "components": [
                {
                  "internalType": "string",
                  "name": "affiliateNum",
                  "type": "string"
                },
                {
                  "internalType": "string",
                  "name": "insuranceName",
                  "type": "string"
                },
                {
                  "internalType": "string",
                  "name": "insurancePlan",
                  "type": "string"
                }
              ],
              "internalType": "struct PrescriptionContract.InsuranceInfo",
              "name": "insurance",
              "type": "tuple"
            },
            {
              "internalType": "string",
              "name": "doctorNid",
              "type": "string"
            },
            {
              "internalType": "address",
              "name": "patientAddress",
              "type": "address"
            },
            {
              "internalType": "address",
              "name": "pharmacyAddress",
              "type": "address"
            },
            {
              "internalType": "uint256",
              "name": "issueDate",
              "type": "uint256"
            },
            {
              "internalType": "uint256",
              "name": "expirationDate",
              "type": "uint256"
            },
            {
              "internalType": "bool",
              "name": "used",
              "type": "bool"
            },
            {
              "internalType": "bool",
              "name": "isPendingValidation",
              "type": "bool"
            },
            {
              "internalType": "string",
              "name": "invoiceNumber",
              "type": "string"
            }
          ],
          "internalType": "struct PrescriptionContract.Prescription[]",
          "name": "",
          "type": "tuple[]"
        }
      ],
      "stateMutability": "view",
      "type": "function",
      "constant": true
    },
    {
      "inputs": [
        {
          "internalType": "address",
          "name": "_pharmacyAddress",
          "type": "address"
        }
      ],
      "name": "getPresbyPharmacyAddress",
      "outputs": [
        {
          "components": [
            {
              "internalType": "uint256",
              "name": "id",
              "type": "uint256"
            },
            {
              "components": [
                {
                  "internalType": "string",
                  "name": "name",
                  "type": "string"
                },
                {
                  "internalType": "string",
                  "name": "surname",
                  "type": "string"
                },
                {
                  "internalType": "string",
                  "name": "nid",
                  "type": "string"
                }
              ],
              "internalType": "struct PrescriptionContract.PatientInfo",
              "name": "patient",
              "type": "tuple"
            },
            {
              "components": [
                {
                  "internalType": "string",
                  "name": "med1",
                  "type": "string"
                },
                {
                  "internalType": "uint256",
                  "name": "quantity1",
                  "type": "uint256"
                },
                {
                  "internalType": "string",
                  "name": "med2",
                  "type": "string"
                },
                {
                  "internalType": "uint256",
                  "name": "quantity2",
                  "type": "uint256"
                },
                {
                  "internalType": "string",
                  "name": "diagnosis",
                  "type": "string"
                },
                {
                  "internalType": "string",
                  "name": "observations",
                  "type": "string"
                }
              ],
              "internalType": "struct PrescriptionContract.MedicationInfo",
              "name": "meds",
              "type": "tuple"
            },
            {
              "components": [
                {
                  "internalType": "string",
                  "name": "affiliateNum",
                  "type": "string"
                },
                {
                  "internalType": "string",
                  "name": "insuranceName",
                  "type": "string"
                },
                {
                  "internalType": "string",
                  "name": "insurancePlan",
                  "type": "string"
                }
              ],
              "internalType": "struct PrescriptionContract.InsuranceInfo",
              "name": "insurance",
              "type": "tuple"
            },
            {
              "internalType": "string",
              "name": "doctorNid",
              "type": "string"
            },
            {
              "internalType": "address",
              "name": "patientAddress",
              "type": "address"
            },
            {
              "internalType": "address",
              "name": "pharmacyAddress",
              "type": "address"
            },
            {
              "internalType": "uint256",
              "name": "issueDate",
              "type": "uint256"
            },
            {
              "internalType": "uint256",
              "name": "expirationDate",
              "type": "uint256"
            },
            {
              "internalType": "bool",
              "name": "used",
              "type": "bool"
            },
            {
              "internalType": "bool",
              "name": "isPendingValidation",
              "type": "bool"
            },
            {
              "internalType": "string",
              "name": "invoiceNumber",
              "type": "string"
            }
          ],
          "internalType": "struct PrescriptionContract.Prescription[]",
          "name": "",
          "type": "tuple[]"
        }
      ],
      "stateMutability": "view",
      "type": "function",
      "constant": true
    },
    {
      "inputs": [
        {
          "internalType": "uint256",
          "name": "_prescriptionId",
          "type": "uint256"
        },
        {
          "internalType": "string",
          "name": "_invoiceNumber",
          "type": "string"
        }
      ],
      "name": "markPrescriptionAsUsed",
      "outputs": [],
      "stateMutability": "nonpayable",
      "type": "function"
    },
    {
      "inputs": [
        {
          "internalType": "uint256",
          "name": "_prescriptionId",
          "type": "uint256"
        },
        {
          "internalType": "address",
          "name": "_pharmacyAddress",
          "type": "address"
        },
        {
          "internalType": "uint256",
          "name": "_validationTimestamp",
          "type": "uint256"
        }
      ],
      "name": "validatePrescription",
      "outputs": [],
      "stateMutability": "nonpayable",
      "type": "function"
    }
  ],
  "bytecode": "0x6080806040523461001657612270908161001b8239f35b5f80fdfe60806040526004361015610011575f80fd5b5f3560e01c806305c35ce51461162c57806331dfc91b1461150757806366964317146114365780636f16af10146113cd57806374a81dbc146113325780637dfe927c14611261578063a1ea57c6146110de578063a452e05914611050578063a6757e8a14610edf578063b655849814610ec2578063c08c448e14610d04578063d3880108146102745763d648d9a9146100a8575f80fd5b34610270576040366003190112610270576001600160401b03600435602435828111610270576100dc90369060040161174d565b9181151580610264575b6100ef90611ff1565b5f198281019283116102505761011560ff601261010b866118c1565b50015416156121ee565b601361013a6012610125866118c1565b5001946001958660ff198254161790556118c1565b500193805192831161023c5761015085546117c3565b601f81116101f4575b5060209081601f851160011461019357509383949184925f95610188575b50501b9260031b1c19161790555f80f35b015193505f80610177565b92919084601f198116885f52855f20955f905b898383106101da57505050106101c2575b50505050811b019055005b01519060f88460031b161c191690555f8080806101b7565b8587015189559097019694850194889350908101906101a6565b855f5260205f20601f850160051c81019160208610610232575b601f0160051c019085905b828110610227575050610159565b5f8155018590610219565b909150819061020e565b634e487b7160e01b5f52604160045260245ffd5b634e487b7160e01b5f52601160045260245ffd5b506002548211156100e6565b5f80fd5b346102705760031960c036820112610270576004356001600160401b038111610270576102a5903690600401611ba1565b602435916001600160401b0383116102705760c090833603011261027057604051916102d0836116da565b80600401356001600160401b038111610270576102f3906004369184010161174d565b83526024810135602084015260448101356001600160401b03811161027057610322906004369184010161174d565b60408401526064810135606084015260848101356001600160401b03811161027057610354906004369184010161174d565b608084015260a4810135906001600160401b03821161027057600461037c923692010161174d565b60a08301526044356001600160401b038111610270576103a0903690600401611ba1565b916064356001600160401b038111610270576103c090369060040161174d565b608435906001600160a01b0382168203610270576103df600254611c13565b948560025562278d0060a4350160a435116102505760405195610401876116f5565b865284602087015283604087015280606087015281608087015260018060a01b03831660a08701525f60c087015260a43560e087015262278d0060a435016101008701525f6101208701525f6101408701526040518060208101106001600160401b0360208301111761023c57602081016040525f81526101608701525f546801000000000000000081101561023c578060016104a092015f556118c1565b969096610cf157805187556104bc602082015160018901611c21565b604081015180518051906001600160401b03821161023c5781906104e360048c01546117c3565b601f8111610ca1575b50602090601f8311600114610c33575f92610c28575b50508160011b915f199060031b1c19161760048901555b6020810151600589015560408101518051906001600160401b03821161023c57819061054860068c01546117c3565b601f8111610bd8575b50602090601f8311600114610b6a575f92610b5f575b50508160011b915f199060031b1c19161760068901555b6060810151600789015560808101518051906001600160401b03821161023c576105ab60088b01546117c3565b601f8111610b1b575b50602090601f8311600114610aac5760a09392915f9183610aa1575b50508160011b915f199060031b1c19161760088a01555b01518051906001600160401b03821161023c57819061060960098b01546117c3565b601f8111610a51575b50602090601f83116001146109e3575f926109d8575b50508160011b915f199060031b1c19161760098801555b6106506060820151600a8901611c21565b60808101518051906001600160401b03821161023c57610673600d8a01546117c3565b601f8111610994575b50602090601f8311600114610924576101609392915f9183610919575b50508160011b915f199060031b1c191617600d8901555b600e880160018060a01b0360a083015116906bffffffffffffffffffffffff60a01b9182825416179055600f89019060018060a01b0360c0840151169082541617905560e081015160108901556101008101516011890155601288016101208201511515815460ff61ff00610140860151151560081b1692169061ffff19161717905501519586516001600160401b03811161023c5761075360138301546117c3565b601f81116108d5575b506020601f821160011461084057916013826108059695936107f7957f5539c9114ee1d08a9c74e7dbc174d8b1b884f6bf59e687592fcde8a4d00a3d079c5f92610835575b50508160011b915f199060031b1c1916179101555b6107e9600254966107db604051998a998a5261012060208b01526101208a01906119a8565b9088820360408a01526119ea565b9086820360608801526119a8565b90848203608086015261189c565b6001600160a01b0390911660a08301525f60c083015260a43560e0830181905262278d00016101008301520390a1005b015190508c806107a1565b601383015f5260205f20985f5b601f19841681106108bd57506001837f5539c9114ee1d08a9c74e7dbc174d8b1b884f6bf59e687592fcde8a4d00a3d079b6107f796946013946108059a9997601f198116106108a5575b505050811b019101556107b6565b01515f1960f88460031b161c191690558c8080610897565b828201518b556001909a01996020928301920161084d565b601383015f5260205f20601f830160051c810160208410610912575b601f830160051c8201811061090757505061075c565b5f81556001016108f1565b50806108f1565b015190508a80610699565b90600d8a015f5260205f20915f5b601f198516811061097c57509183916001936101609695601f19811610610964575b505050811b01600d8901556106b0565b01515f1960f88460031b161c191690558a8080610954565b91926020600181928685015181550194019201610932565b600d8a015f5260205f20601f840160051c8101602085106109d1575b601f830160051c820181106109c657505061067c565b5f81556001016109b0565b50806109b0565b015190508980610628565b925060098a015f5260205f20905f935b601f1984168510610a36576001945083601f19811610610a1e575b505050811b01600988015561063f565b01515f1960f88460031b161c19169055898080610a0e565b818101518355602094850194600190930192909101906109f3565b90915060098a015f5260205f20601f840160051c810160208510610a9a575b90849392915b601f830160051c82018110610a8c575050610612565b5f8155859450600101610a76565b5080610a70565b015190508b806105d0565b9060088b015f5260205f20915f5b601f1985168110610b03575091839160019360a09695601f19811610610aeb575b505050811b0160088a01556105e7565b01515f1960f88460031b161c191690558b8080610adb565b91926020600181928685015181550194019201610aba565b60088b015f5260205f20601f840160051c810160208510610b58575b601f830160051c82018110610b4d5750506105b4565b5f8155600101610b37565b5080610b37565b015190508a80610567565b925060068b015f5260205f20905f935b601f1984168510610bbd576001945083601f19811610610ba5575b505050811b01600689015561057e565b01515f1960f88460031b161c191690558a8080610b95565b81810151835560209485019460019093019290910190610b7a565b90915060068b015f5260205f20601f840160051c810160208510610c21575b90849392915b601f830160051c82018110610c13575050610551565b5f8155859450600101610bfd565b5080610bf7565b015190508a80610502565b925060048b015f5260205f20905f935b601f1984168510610c86576001945083601f19811610610c6e575b505050811b016004890155610519565b01515f1960f88460031b161c191690558a8080610c5e565b81810151835560209485019460019093019290910190610c43565b90915060048b015f5260205f20601f840160051c810160208510610cea575b90849392915b601f830160051c82018110610cdc5750506104ec565b5f8155859450600101610cc6565b5080610cc0565b634e487b7160e01b5f525f60045260245ffd5b3461027057606036600319011261027057600435610d20611a68565b9080151580610eb6575b15610e71575f19810181811161025057610d43906118c1565b50906012820192600f845493610d5c60ff8616156121ee565b01546001600160a01b039182169116819003610e155760ff8360081c1615610dc0577f464d1c384c0169c2dd0f703528a16d8c50c736e5e9f1cdaee2deba093218501e9360609361ff001916905560405191825260208201526044356040820152a1005b60405162461bcd60e51b815260206004820152602760248201527f507265736372697074696f6e206973206e6f742070656e64696e672076616c696044820152663230ba34b7b71760c91b6064820152608490fd5b60405162461bcd60e51b815260206004820152602e60248201527f506861726d61637920646f6573206e6f74206d6174636820746865206173736960448201526d33b732b210383430b936b0b1bc9760911b6064820152608490fd5b60405162461bcd60e51b815260206004820152601860248201527f496e76616c696420707265736372697074696f6e2049442e00000000000000006044820152606490fd5b50600254811115610d2a565b34610270575f366003190112610270576020600254604051908152f35b3461027057604036600319011261027057600435610efb611a68565b81151580611044575b610f0d90611ff1565b5f198201908282116102505760ff6012610f26846118c1565b50015460081c16610fee576001600160a01b0316918215610fa9577fdd2f9afe0384a9371d95afd54276403ae702825fa589ead029cd836ae4d399ba926012610f8d84600f610f766040976118c1565b500180546001600160a01b031916851790556118c1565b5001805461ff00191661010017905582519182526020820152a1005b60405162461bcd60e51b815260206004820152601960248201527f496e76616c696420706861726d61637920616464726573732e000000000000006044820152606490fd5b60405162461bcd60e51b815260206004820152602860248201527f507265736372697074696f6e20616c72656164792070656e64696e672076616c60448201526734b230ba34b7b71760c11b6064820152608490fd5b50600254821115610f04565b34610270575f366003190112610270575f5461106b816120e1565b611078604051918261172c565b8181525f8080527f290decd9548b62a8d60345a988386fc84ba6bc95484008f6362f93160ef3e563929060208084015b8383106110c157604051806110bd8782611b40565b0390f35b6014826001926110d08961202b565b8152019601920191946110a8565b3461027057602080600319360112610270576004356001600160401b0381116102705761110f90369060040161174d565b905f8060025491838501915b8381106111f5575061112c90612177565b925f915f5b84811061114657604051806110bd8882611b40565b600d61116a611178611157846118c1565b50604051928391888301958691016120f8565b03601f19810183528261172c565b519020604051848101906111a186828c5161119481878b6117a2565b810103808452018261172c565b519020146111b8575b6111b390611c13565b611131565b926111ed6111b3916111d26111cc876118c1565b5061202b565b6111dc828a6121c6565b526111e781896121c6565b50611c13565b9390506111aa565b600d61116a611219611206846118c1565b506040519283918a8301958691016120f8565b5190206040518681019061123588828b5161119481878c6117a2565b5190201461124c575b61124790611c13565b61111b565b9061125961124791611c13565b91905061123e565b346102705760203660031901126102705761127a611a52565b6002546001600160a01b03918216915f805b8381106112f8575061129d90612177565b925f915f5b8481106112b757604051806110bd8882611b40565b8282600e6112c4846118c1565b50015416146112dc575b6112d790611c13565b6112a2565b926112f06112d7916111d26111cc876118c1565b9390506112ce565b8483600e611305846118c1565b500154161461131d575b61131890611c13565b61128c565b9061132a61131891611c13565b91905061130f565b3461027057602036600319011261027057600435801515806113c1575b61135890611ff1565b5f198101818111610250577f11cfd10a59895cba6f4817151935ae4c466254929df70535c39ddc778cdf30c791600f6113a88360126113986020966118c1565b5001805461ff00191690556118c1565b500180546001600160a01b0319169055604051908152a1005b5060025481111561134f565b34610270576020366003190112610270576004356113e9611f5e565b508015158061142a575b6113fc90611ff1565b5f198101908111610250576114166111cc6110bd926118c1565b604051918291602083526020830190611a7e565b506002548111156113f3565b346102705760203660031901126102705761144f611a52565b6002546001600160a01b03918216915f805b8381106114cd575061147290612177565b925f915f5b84811061148c57604051806110bd8882611b40565b8282600f611499846118c1565b50015416146114b1575b6114ac90611c13565b611477565b926114c56114ac916111d26111cc876118c1565b9390506114a3565b8483600f6114da846118c1565b50015416146114f2575b6114ed90611c13565b611461565b906114ff6114ed91611c13565b9190506114e4565b34610270576020366003190112610270576004355f548110156102705761152d906118c1565b50805461153c6001830161190e565b916115496004820161194b565b90611556600a820161190e565b90611563600d82016117fb565b91600160a01b600190039283600e8401541693600f8401541660108401549160118501549360128601549560130161159a906117fb565b976040519a8b9a8b526101808060208d01528b016115b7916119a8565b8a810360408c01526115c8916119ea565b89810360608b01526115d9916119a8565b88810360808a01526115ea9161189c565b9460a088015260c087015260e086015261010085015260ff8116151561012085015260081c60ff1615156101408401528281036101608401526110bd9161189c565b34610270576020366003190112610270576004356001600160401b0381116102705761167760206116646116be93369060040161174d565b81604051938285809451938492016117a2565b810160018152030190206110bd61168d826117fb565b916116cc6116a960026116a2600185016117fb565b93016117fb565b9160405195869560608752606087019061189c565b90858203602087015261189c565b90838203604085015261189c565b60c081019081106001600160401b0382111761023c57604052565b61018081019081106001600160401b0382111761023c57604052565b606081019081106001600160401b0382111761023c57604052565b90601f801991011681019081106001600160401b0382111761023c57604052565b81601f82011215610270578035906001600160401b03821161023c5760405192611781601f8401601f19166020018561172c565b8284526020838301011161027057815f926020809301838601378301015290565b5f5b8381106117b35750505f910152565b81810151838201526020016117a4565b90600182811c921680156117f1575b60208310146117dd57565b634e487b7160e01b5f52602260045260245ffd5b91607f16916117d2565b9060405191825f82549261180e846117c3565b9081845260019485811690815f146118795750600114611839575b50506118379250038361172c565b565b909391505f52602090815f20935f915b81831061186157505061183793508201015f80611829565b85548884018501529485019487945091830191611849565b91505061183794506020925060ff191682840152151560051b8201015f80611829565b906020916118b5815180928185528580860191016117a2565b601f01601f1916010190565b905f9182548110156118fa57601490838052027f290decd9548b62a8d60345a988386fc84ba6bc95484008f6362f93160ef3e563019190565b634e487b7160e01b83526032600452602483fd5b9060405161191b81611711565b60406119466002839561192d816117fb565b855261193b600182016117fb565b6020860152016117fb565b910152565b90604051611958816116da565b60a06119466005839561196a816117fb565b855260018101546020860152611982600282016117fb565b60408601526003810154606086015261199d600482016117fb565b6080860152016117fb565b6119e79160406119d66119c4845160608552606085019061189c565b6020850151848203602086015261189c565b92015190604081840391015261189c565b90565b6119e79160a0611a41611a25611a09855160c0865260c086019061189c565b602086015160208601526040860151858203604087015261189c565b606085015160608501526080850151848203608086015261189c565b9201519060a081840391015261189c565b600435906001600160a01b038216820361027057565b602435906001600160a01b038216820361027057565b906119e79180518252611adf611acd611abb611aa960208501516101808060208901528701906119a8565b604085015186820360408801526119ea565b606084015185820360608701526119a8565b6080830151848203608086015261189c565b9160018060a01b038060a08401511660a083015260c08301511660c082015260e082015160e082015261010080830151908201526101208083015115159082015261014080830151151590820152610160809201519181840391015261189c565b602080820190808352835180925260408301928160408460051b8301019501935f915b848310611b735750505050505090565b9091929394958480611b91600193603f198682030187528a51611a7e565b9801930193019194939290611b63565b91906060838203126102705760405190611bba82611711565b81938035916001600160401b03928381116102705781611bdb91840161174d565b845260208201358381116102705781611bf591840161174d565b6020850152604082013592831161027057604092611946920161174d565b5f1981146102505760010190565b81518051906001600160401b039182811161023c5780611c4185546117c3565b92601f93848111611eee575b50602090848311600114611e8b575f92611e80575b50508160011b915f199060031b1c19161783555b600192838101602086015180519085821161023c57611c9583546117c3565b858111611e3b575b50602090858311600114611dd157918060029492604096945f92611dc6575b50505f19600383901b1c191690881b1790555b01940151805192831161023c57611ce685546117c3565b828111611d81575b506020918311600114611d25579282939183925f94611d1a575b50501b915f199060031b1c1916179055565b015192505f80611d08565b90601f19831691855f5283825f20935f5b87828210611d6857505010611d50575b505050811b019055565b01515f1960f88460031b161c191690555f8080611d46565b8486015187559095019460209485019487935001611d36565b855f5260205f208380860160051c82019260208710611dbd575b0160051c019085905b828110611db2575050611cee565b5f8155018590611da4565b92508192611d9b565b015190505f80611cbc565b879291601f19831691855f52815f20925f5b818110611e2357509160409795939185600298969410611e0b575b505050811b019055611ccf565b01515f1960f88460031b161c191690555f8080611dfe565b8284015185558b969094019360209384019301611de3565b835f5260205f208680850160051c82019260208610611e77575b0160051c019088905b828110611e6c575050611c9d565b5f8155018890611e5e565b92508192611e55565b015190505f80611c62565b5f8781528281209350601f198516905b818110611ed65750908460019594939210611ebe575b505050811b018355611c76565b01515f1960f88460031b161c191690555f8080611eb1565b92936020600181928786015181550195019301611e9b565b9091505f868152602081208580860160051c82019360208710611f36575b908695949392910160051c01915b828110611f28575050611c4d565b818155859450600101611f1a565b93508193611f0c565b60405190611f4c82611711565b60606040838281528260208201520152565b60405190611f6b826116f5565b5f80835261016083611f7b611f3f565b602082015260405192611f8d846116da565b60609384815281602082015284604082015281858201528460808201528460a08201526040830152611fbd611f3f565b848301528360808301528060a08301528060c08301528060e083015280610100830152806101208301526101408201520152565b15611ff857565b60405162461bcd60e51b815260206004820152600b60248201526a24b73b30b634b21024a21760a91b6044820152606490fd5b90604051612038816116f5565b61016061194660138395805485526120526001820161190e565b60208601526120636004820161194b565b6040860152612074600a820161190e565b6060860152612085600d82016117fb565b608086015260018060a01b0380600e8301541660a0870152600f8201541660c0860152601081015460e0860152601181015461010086015260ff6012820154818116151561012088015260081c161515610140860152016117fb565b6001600160401b03811161023c5760051b60200190565b5f92918154612106816117c3565b9260019180831690811561215c5750600114612123575b50505050565b9091929394505f52602090815f20905f915b85831061214b575050505001905f80808061211d565b805485840152918301918101612135565b60ff191684525050508115159091020191505f80808061211d565b90612181826120e1565b61218e604051918261172c565b828152809261219f601f19916120e1565b01905f5b8281106121af57505050565b6020906121ba611f5e565b828285010152016121a3565b80518210156121da5760209160051b010190565b634e487b7160e01b5f52603260045260245ffd5b156121f557565b60405162461bcd60e51b815260206004820152601a60248201527f507265736372697074696f6e20616c726561647920757365642e0000000000006044820152606490fdfea26469706673582212207666a6d179fa026a6fc4d9b6d605444a18a654446918333c26d16ea10c72169164736f6c63430008140033",
  "immutableReferences": {},
  "source": "// SPDX-License-Identifier: MIT\r\npragma solidity ^0.8.0;\r\n\r\ncontract PrescriptionContract {\r\n    struct MedicationInfo {\r\n        string med1;\r\n        uint quantity1;\r\n        string med2;\r\n        uint quantity2;\r\n        string diagnosis;\r\n        string observations;\r\n    }\r\n\r\n    struct InsuranceInfo {\r\n        string affiliateNum;\r\n        string insuranceName;\r\n        string insurancePlan;\r\n    }\r\n\r\n    struct PatientInfo {\r\n        string name;\r\n        string surname;\r\n        string nid;\r\n    }\r\n\r\n    struct Prescription {\r\n        uint id;\r\n        PatientInfo patient;\r\n        MedicationInfo meds;\r\n        InsuranceInfo insurance;\r\n        string doctorNid;\r\n        address patientAddress;\r\n        address pharmacyAddress;\r\n        uint issueDate;\r\n        uint expirationDate;\r\n        bool used;\r\n        bool isPendingValidation; // Nuevo campo para bloquear el reenvo\r\n        string invoiceNumber;\r\n    }\r\n\r\n    Prescription[] public prescriptions;\r\n    mapping(string => Doctor) public doctors;\r\n    uint public prescriptionCount;\r\n\r\n    struct Doctor {\r\n        string doctorName;\r\n        string doctorLicense;\r\n        string doctorSpecialty;\r\n    }\r\n\r\n    event IssuedPrescription(\r\n        uint id,\r\n        PatientInfo patient,\r\n        MedicationInfo meds,\r\n        InsuranceInfo insurance,\r\n        string doctorNid,\r\n        address patientAddress,\r\n        address pharmacyAddress,\r\n        uint issueDate,\r\n        uint expirationDate\r\n    );\r\n\r\n    event PrescriptionUpdated(uint prescriptionId, address pharmacyAddress);\r\n    event PrescriptionCleared(uint prescriptionId);\r\n\r\n\r\n    // Funcin para emitir una receta con fecha personalizada\r\n    function issuePrescription(\r\n        PatientInfo memory _patient,\r\n        MedicationInfo memory _meds,\r\n        InsuranceInfo memory _insurance,\r\n        string memory _doctorNid,\r\n        address _patientAddress,\r\n        uint _issueDate\r\n    ) public {\r\n        prescriptionCount++;\r\n\r\n        uint expirationDate = _issueDate + 30 days;\r\n\r\n        Prescription memory newPrescription = Prescription({\r\n            id: prescriptionCount,\r\n            patient: _patient,\r\n            meds: _meds,\r\n            insurance: _insurance,\r\n            doctorNid: _doctorNid,\r\n            patientAddress: _patientAddress,\r\n            pharmacyAddress: address(0),\r\n            issueDate: _issueDate,\r\n            expirationDate: expirationDate,\r\n            used: false,\r\n            isPendingValidation: false, // Inicialmente no est pendiente de validacin\r\n            invoiceNumber: \"\"\r\n        });\r\n\r\n        prescriptions.push(newPrescription);\r\n\r\n        emit IssuedPrescription(\r\n            prescriptionCount,\r\n            _patient,\r\n            _meds,\r\n            _insurance,\r\n            _doctorNid,\r\n            _patientAddress,\r\n            address(0),\r\n            _issueDate,\r\n            expirationDate\r\n        );\r\n    }\r\n\r\n    // Funcin para obtener una receta especfica por ID\r\n    function getPrescription(uint _prescriptionId) public view returns (Prescription memory) {\r\n        require(_prescriptionId > 0 && _prescriptionId <= prescriptionCount, \"Invalid ID.\");\r\n        return prescriptions[_prescriptionId - 1];\r\n    }\r\n\r\n    // Funcin para actualizar la direccin de la farmacia en la receta\r\n    function updatePrescription(uint _prescriptionId, address _pharmacyAddress) public {\r\n        require(_prescriptionId > 0 && _prescriptionId <= prescriptionCount, \"Invalid ID.\");\r\n        require(!prescriptions[_prescriptionId - 1].isPendingValidation, \"Prescription already pending validation.\");\r\n        require(_pharmacyAddress != address(0), \"Invalid pharmacy address.\");\r\n\r\n        prescriptions[_prescriptionId - 1].pharmacyAddress = _pharmacyAddress;\r\n        prescriptions[_prescriptionId - 1].isPendingValidation = true;\r\n\r\n        emit PrescriptionUpdated(_prescriptionId, _pharmacyAddress);\r\n    }\r\n\r\n    // Funcin para liberar la receta de la farmacia\r\n    function clearPendingValidation(uint _prescriptionId) public {\r\n        require(_prescriptionId > 0 && _prescriptionId <= prescriptionCount, \"Invalid ID.\");\r\n        prescriptions[_prescriptionId - 1].isPendingValidation = false;\r\n        prescriptions[_prescriptionId - 1].pharmacyAddress = address(0);\r\n\r\n        emit PrescriptionCleared(_prescriptionId);\r\n    }\r\n\r\n    // Funcin para obtener todas las recetas\r\n    function getPrescriptions() public view returns (Prescription[] memory) {\r\n        return prescriptions;\r\n    }\r\n\r\n    // Funcin para obtener recetas por NID de mdico\r\n    function getPresbyDoctorNid(string memory _doctorNid) public view returns (Prescription[] memory) {\r\n        uint count = 0;\r\n        for (uint i = 0; i < prescriptionCount; i++) {\r\n            if (keccak256(abi.encodePacked(prescriptions[i].doctorNid)) == keccak256(abi.encodePacked(_doctorNid))) {\r\n                count++;\r\n            }\r\n        }\r\n\r\n        Prescription[] memory doctorPrescriptions = new Prescription[](count);\r\n        uint index = 0;\r\n        for (uint i = 0; i < prescriptionCount; i++) {\r\n            if (keccak256(abi.encodePacked(prescriptions[i].doctorNid)) == keccak256(abi.encodePacked(_doctorNid))) {\r\n                doctorPrescriptions[index] = prescriptions[i];\r\n                index++;\r\n            }\r\n        }\r\n        return doctorPrescriptions;\r\n    }\r\n\r\n    // Funcin para obtener recetas por direccin del paciente\r\n    function getPresbyPatientAddress(address _patientAddress) public view returns (Prescription[] memory) {\r\n        uint count = 0;\r\n        for (uint i = 0; i < prescriptionCount; i++) {\r\n            if (prescriptions[i].patientAddress == _patientAddress) {\r\n                count++;\r\n            }\r\n        }\r\n\r\n        Prescription[] memory patientPrescriptions = new Prescription[](count);\r\n        uint index = 0;\r\n        for (uint i = 0; i < prescriptionCount; i++) {\r\n            if (prescriptions[i].patientAddress == _patientAddress) {\r\n                patientPrescriptions[index] = prescriptions[i];\r\n                index++;\r\n            }\r\n        }\r\n        return patientPrescriptions;\r\n    }\r\n\r\n    // Funcin para obtener recetas por direccin de la farmacia\r\n    function getPresbyPharmacyAddress(address _pharmacyAddress) public view returns (Prescription[] memory) {\r\n        uint count = 0;\r\n        for (uint i = 0; i < prescriptionCount; i++) {\r\n            if (prescriptions[i].pharmacyAddress == _pharmacyAddress) {\r\n                count++;\r\n            }\r\n        }\r\n\r\n        Prescription[] memory pharmacyPrescriptions = new Prescription[](count);\r\n        uint index = 0;\r\n        for (uint i = 0; i < prescriptionCount; i++) {\r\n            if (prescriptions[i].pharmacyAddress == _pharmacyAddress) {\r\n                pharmacyPrescriptions[index] = prescriptions[i];\r\n                index++;\r\n            }\r\n        }\r\n        return pharmacyPrescriptions;\r\n    }\r\n\r\n    // Funcin para marcar la receta como usada y agregar el nmero de factura\r\n    function markPrescriptionAsUsed(uint _prescriptionId, string memory _invoiceNumber) public {\r\n        require(_prescriptionId > 0 && _prescriptionId <= prescriptionCount, \"Invalid ID.\");\r\n        require(!prescriptions[_prescriptionId - 1].used, \"Prescription already used.\");\r\n\r\n        prescriptions[_prescriptionId - 1].used = true;\r\n        prescriptions[_prescriptionId - 1].invoiceNumber = _invoiceNumber;\r\n    }\r\n\r\n    //  Funcin para validar la receta en la blockchain\r\nfunction validatePrescription(uint _prescriptionId, address _pharmacyAddress, uint _validationTimestamp) public {\r\n    require(_prescriptionId > 0 && _prescriptionId <= prescriptionCount, \"Invalid prescription ID.\");\r\n    Prescription storage prescription = prescriptions[_prescriptionId - 1];\r\n\r\n    require(!prescription.used, \"Prescription already used.\");\r\n    require(prescription.pharmacyAddress == _pharmacyAddress, \"Pharmacy does not match the assigned pharmacy.\");\r\n    require(prescription.isPendingValidation, \"Prescription is not pending validation.\");\r\n\r\n    //  Marcar la receta como validada y lista para facturacin\r\n   // prescription.used = true;\r\n    prescription.isPendingValidation = false;\r\n\r\n    //  Agregar un timestamp de validacin\r\n    emit PrescriptionValidated(_prescriptionId, _pharmacyAddress, _validationTimestamp);\r\n}\r\n\r\n//  Evento para registrar la validacin de la receta\r\nevent PrescriptionValidated(uint prescriptionId, address pharmacyAddress, uint validationTimestamp);\r\n\r\n}\r\n",
  "sourcePath": "C:\\Users\\Usuario\\OneDrive\\Escritorio\\prescryption\\prescryption_v2\\prescryption_solidity\\contracts\\Prescription.sol",
  "compiler": {
    "name": "solc",
    "version": "0.8.20+commit.a1b79de6.Emscripten.clang"
  },
  "schemaVersion": "3.4.16",
  "updatedAt": "2025-08-03T23:51:05.326Z",
  "networkType": "ethereum",
  "devdoc": {
    "kind": "dev",
    "methods": {},
    "version": 1
  },
  "userdoc": {
    "kind": "user",
    "methods": {},
    "version": 1
  }
}