{
  "contractName": "RecetaContract",
  "abi": [
    {
      "anonymous": false,
      "inputs": [
        {
          "indexed": false,
          "internalType": "string",
          "name": "nombrePaciente",
          "type": "string"
        },
        {
          "indexed": false,
          "internalType": "string",
          "name": "dniPaciente",
          "type": "string"
        },
        {
          "indexed": false,
          "internalType": "string",
          "name": "numAfiliado",
          "type": "string"
        },
        {
          "indexed": false,
          "internalType": "string",
          "name": "obraSocial",
          "type": "string"
        },
        {
          "indexed": false,
          "internalType": "string",
          "name": "planObraSocial",
          "type": "string"
        },
        {
          "indexed": false,
          "internalType": "string",
          "name": "medicamento1",
          "type": "string"
        },
        {
          "indexed": false,
          "internalType": "uint256",
          "name": "cantidad1",
          "type": "uint256"
        },
        {
          "indexed": false,
          "internalType": "string",
          "name": "medicamento2",
          "type": "string"
        },
        {
          "indexed": false,
          "internalType": "uint256",
          "name": "cantidad2",
          "type": "uint256"
        },
        {
          "indexed": false,
          "internalType": "string",
          "name": "diagnostico",
          "type": "string"
        },
        {
          "indexed": false,
          "internalType": "string",
          "name": "dniMedico",
          "type": "string"
        }
      ],
      "name": "RecetaEmitida",
      "type": "event"
    },
    {
      "inputs": [
        {
          "internalType": "string",
          "name": "",
          "type": "string"
        }
      ],
      "name": "medicos",
      "outputs": [
        {
          "internalType": "string",
          "name": "nombreMedico",
          "type": "string"
        },
        {
          "internalType": "string",
          "name": "matriculaMedico",
          "type": "string"
        },
        {
          "internalType": "string",
          "name": "especialidadMedico",
          "type": "string"
        }
      ],
      "stateMutability": "view",
      "type": "function",
      "constant": true
    },
    {
      "inputs": [],
      "name": "recetaCount",
      "outputs": [
        {
          "internalType": "uint256",
          "name": "",
          "type": "uint256"
        }
      ],
      "stateMutability": "view",
      "type": "function",
      "constant": true
    },
    {
      "inputs": [
        {
          "internalType": "uint256",
          "name": "",
          "type": "uint256"
        }
      ],
      "name": "recetas",
      "outputs": [
        {
          "internalType": "string",
          "name": "nombrePaciente",
          "type": "string"
        },
        {
          "internalType": "string",
          "name": "dniPaciente",
          "type": "string"
        },
        {
          "internalType": "string",
          "name": "numAfiliado",
          "type": "string"
        },
        {
          "internalType": "string",
          "name": "obraSocial",
          "type": "string"
        },
        {
          "internalType": "string",
          "name": "planObraSocial",
          "type": "string"
        },
        {
          "internalType": "string",
          "name": "medicamento1",
          "type": "string"
        },
        {
          "internalType": "uint256",
          "name": "cantidad1",
          "type": "uint256"
        },
        {
          "internalType": "string",
          "name": "medicamento2",
          "type": "string"
        },
        {
          "internalType": "uint256",
          "name": "cantidad2",
          "type": "uint256"
        },
        {
          "internalType": "string",
          "name": "diagnostico",
          "type": "string"
        },
        {
          "internalType": "string",
          "name": "dniMedico",
          "type": "string"
        }
      ],
      "stateMutability": "view",
      "type": "function",
      "constant": true
    },
    {
      "inputs": [
        {
          "internalType": "string",
          "name": "_dniMedico",
          "type": "string"
        },
        {
          "internalType": "string",
          "name": "_nombreMedico",
          "type": "string"
        },
        {
          "internalType": "string",
          "name": "_matriculaMedico",
          "type": "string"
        },
        {
          "internalType": "string",
          "name": "_especialidadMedico",
          "type": "string"
        }
      ],
      "name": "registrarMedico",
      "outputs": [],
      "stateMutability": "nonpayable",
      "type": "function"
    },
    {
      "inputs": [
        {
          "internalType": "string",
          "name": "_nombrePaciente",
          "type": "string"
        },
        {
          "internalType": "string",
          "name": "_dniPaciente",
          "type": "string"
        },
        {
          "internalType": "string",
          "name": "_numAfiliado",
          "type": "string"
        },
        {
          "internalType": "string",
          "name": "_obraSocial",
          "type": "string"
        },
        {
          "internalType": "string",
          "name": "_planObraSocial",
          "type": "string"
        },
        {
          "internalType": "string",
          "name": "_medicamento1",
          "type": "string"
        },
        {
          "internalType": "uint256",
          "name": "_cantidad1",
          "type": "uint256"
        },
        {
          "internalType": "string",
          "name": "_medicamento2",
          "type": "string"
        },
        {
          "internalType": "uint256",
          "name": "_cantidad2",
          "type": "uint256"
        },
        {
          "internalType": "string",
          "name": "_diagnostico",
          "type": "string"
        },
        {
          "internalType": "string",
          "name": "_dniMedico",
          "type": "string"
        }
      ],
      "name": "emitirReceta",
      "outputs": [],
      "stateMutability": "nonpayable",
      "type": "function"
    },
    {
      "inputs": [
        {
          "internalType": "uint256",
          "name": "_recetaId",
          "type": "uint256"
        }
      ],
      "name": "getReceta",
      "outputs": [
        {
          "components": [
            {
              "internalType": "string",
              "name": "nombrePaciente",
              "type": "string"
            },
            {
              "internalType": "string",
              "name": "dniPaciente",
              "type": "string"
            },
            {
              "internalType": "string",
              "name": "numAfiliado",
              "type": "string"
            },
            {
              "internalType": "string",
              "name": "obraSocial",
              "type": "string"
            },
            {
              "internalType": "string",
              "name": "planObraSocial",
              "type": "string"
            },
            {
              "internalType": "string",
              "name": "medicamento1",
              "type": "string"
            },
            {
              "internalType": "uint256",
              "name": "cantidad1",
              "type": "uint256"
            },
            {
              "internalType": "string",
              "name": "medicamento2",
              "type": "string"
            },
            {
              "internalType": "uint256",
              "name": "cantidad2",
              "type": "uint256"
            },
            {
              "internalType": "string",
              "name": "diagnostico",
              "type": "string"
            },
            {
              "internalType": "string",
              "name": "dniMedico",
              "type": "string"
            }
          ],
          "internalType": "struct RecetaContract.Receta",
          "name": "",
          "type": "tuple"
        },
        {
          "components": [
            {
              "internalType": "string",
              "name": "nombreMedico",
              "type": "string"
            },
            {
              "internalType": "string",
              "name": "matriculaMedico",
              "type": "string"
            },
            {
              "internalType": "string",
              "name": "especialidadMedico",
              "type": "string"
            }
          ],
          "internalType": "struct RecetaContract.Medico",
          "name": "",
          "type": "tuple"
        }
      ],
      "stateMutability": "view",
      "type": "function",
      "constant": true
    },
    {
      "inputs": [],
      "name": "getRecetas",
      "outputs": [
        {
          "components": [
            {
              "internalType": "string",
              "name": "nombrePaciente",
              "type": "string"
            },
            {
              "internalType": "string",
              "name": "dniPaciente",
              "type": "string"
            },
            {
              "internalType": "string",
              "name": "numAfiliado",
              "type": "string"
            },
            {
              "internalType": "string",
              "name": "obraSocial",
              "type": "string"
            },
            {
              "internalType": "string",
              "name": "planObraSocial",
              "type": "string"
            },
            {
              "internalType": "string",
              "name": "medicamento1",
              "type": "string"
            },
            {
              "internalType": "uint256",
              "name": "cantidad1",
              "type": "uint256"
            },
            {
              "internalType": "string",
              "name": "medicamento2",
              "type": "string"
            },
            {
              "internalType": "uint256",
              "name": "cantidad2",
              "type": "uint256"
            },
            {
              "internalType": "string",
              "name": "diagnostico",
              "type": "string"
            },
            {
              "internalType": "string",
              "name": "dniMedico",
              "type": "string"
            }
          ],
          "internalType": "struct RecetaContract.Receta[]",
          "name": "",
          "type": "tuple[]"
        }
      ],
      "stateMutability": "view",
      "type": "function",
      "constant": true
    }
  ],
  "bytecode": "0x608060405234801561001057600080fd5b5061209b806100206000396000f3fe608060405234801561001057600080fd5b506004361061007d5760003560e01c8063a8f4d22b1161005b578063a8f4d22b146100df578063c410589b146100f4578063c7cb52ca14610115578063d85eae8d146101285761007d565b80630ed84fa2146100825780635b8f235814610097578063832b6728146100ca575b600080fd5b6100956100903660046119fe565b61014a565b005b6100aa6100a5366004611c20565b6101dd565b6040516100c19b9a99989796959493929190611e22565b60405180910390f35b6100d261070f565b6040516100c19190611f93565b6100e7610715565b6040516100c19190611d89565b610107610102366004611c20565b610cab565b6040516100c1929190611f27565b610095610123366004611aa6565b611463565b61013b6101363660046119c3565b611669565b6040516100c193929190611de9565b6040518060600160405280848152602001838152602001828152506001856040516101759190611d6d565b9081526020016040518091039020600082015181600001908051906020019061019f92919061182e565b5060208281015180516101b8926001850192019061182e565b50604082015180516101d491600284019160209091019061182e565b50505050505050565b600081815481106101ed57600080fd5b90600052602060002090600b020160009150905080600001805461021090611fe3565b80601f016020809104026020016040519081016040528092919081815260200182805461023c90611fe3565b80156102895780601f1061025e57610100808354040283529160200191610289565b820191906000526020600020905b81548152906001019060200180831161026c57829003601f168201915b50505050509080600101805461029e90611fe3565b80601f01602080910402602001604051908101604052809291908181526020018280546102ca90611fe3565b80156103175780601f106102ec57610100808354040283529160200191610317565b820191906000526020600020905b8154815290600101906020018083116102fa57829003601f168201915b50505050509080600201805461032c90611fe3565b80601f016020809104026020016040519081016040528092919081815260200182805461035890611fe3565b80156103a55780601f1061037a576101008083540402835291602001916103a5565b820191906000526020600020905b81548152906001019060200180831161038857829003601f168201915b5050505050908060030180546103ba90611fe3565b80601f01602080910402602001604051908101604052809291908181526020018280546103e690611fe3565b80156104335780601f1061040857610100808354040283529160200191610433565b820191906000526020600020905b81548152906001019060200180831161041657829003601f168201915b50505050509080600401805461044890611fe3565b80601f016020809104026020016040519081016040528092919081815260200182805461047490611fe3565b80156104c15780601f10610496576101008083540402835291602001916104c1565b820191906000526020600020905b8154815290600101906020018083116104a457829003601f168201915b5050505050908060050180546104d690611fe3565b80601f016020809104026020016040519081016040528092919081815260200182805461050290611fe3565b801561054f5780601f106105245761010080835404028352916020019161054f565b820191906000526020600020905b81548152906001019060200180831161053257829003601f168201915b50505050509080600601549080600701805461056a90611fe3565b80601f016020809104026020016040519081016040528092919081815260200182805461059690611fe3565b80156105e35780601f106105b8576101008083540402835291602001916105e3565b820191906000526020600020905b8154815290600101906020018083116105c657829003601f168201915b5050505050908060080154908060090180546105fe90611fe3565b80601f016020809104026020016040519081016040528092919081815260200182805461062a90611fe3565b80156106775780601f1061064c57610100808354040283529160200191610677565b820191906000526020600020905b81548152906001019060200180831161065a57829003601f168201915b50505050509080600a01805461068c90611fe3565b80601f01602080910402602001604051908101604052809291908181526020018280546106b890611fe3565b80156107055780601f106106da57610100808354040283529160200191610705565b820191906000526020600020905b8154815290600101906020018083116106e857829003601f168201915b505050505090508b565b60025481565b60606000805480602002602001604051908101604052809291908181526020016000905b82821015610ca257838290600052602060002090600b02016040518061016001604052908160008201805461076d90611fe3565b80601f016020809104026020016040519081016040528092919081815260200182805461079990611fe3565b80156107e65780601f106107bb576101008083540402835291602001916107e6565b820191906000526020600020905b8154815290600101906020018083116107c957829003601f168201915b505050505081526020016001820180546107ff90611fe3565b80601f016020809104026020016040519081016040528092919081815260200182805461082b90611fe3565b80156108785780601f1061084d57610100808354040283529160200191610878565b820191906000526020600020905b81548152906001019060200180831161085b57829003601f168201915b5050505050815260200160028201805461089190611fe3565b80601f01602080910402602001604051908101604052809291908181526020018280546108bd90611fe3565b801561090a5780601f106108df5761010080835404028352916020019161090a565b820191906000526020600020905b8154815290600101906020018083116108ed57829003601f168201915b5050505050815260200160038201805461092390611fe3565b80601f016020809104026020016040519081016040528092919081815260200182805461094f90611fe3565b801561099c5780601f106109715761010080835404028352916020019161099c565b820191906000526020600020905b81548152906001019060200180831161097f57829003601f168201915b505050505081526020016004820180546109b590611fe3565b80601f01602080910402602001604051908101604052809291908181526020018280546109e190611fe3565b8015610a2e5780601f10610a0357610100808354040283529160200191610a2e565b820191906000526020600020905b815481529060010190602001808311610a1157829003601f168201915b50505050508152602001600582018054610a4790611fe3565b80601f0160208091040260200160405190810160405280929190818152602001828054610a7390611fe3565b8015610ac05780601f10610a9557610100808354040283529160200191610ac0565b820191906000526020600020905b815481529060010190602001808311610aa357829003601f168201915b5050505050815260200160068201548152602001600782018054610ae390611fe3565b80601f0160208091040260200160405190810160405280929190818152602001828054610b0f90611fe3565b8015610b5c5780601f10610b3157610100808354040283529160200191610b5c565b820191906000526020600020905b815481529060010190602001808311610b3f57829003601f168201915b5050505050815260200160088201548152602001600982018054610b7f90611fe3565b80601f0160208091040260200160405190810160405280929190818152602001828054610bab90611fe3565b8015610bf85780601f10610bcd57610100808354040283529160200191610bf8565b820191906000526020600020905b815481529060010190602001808311610bdb57829003601f168201915b50505050508152602001600a82018054610c1190611fe3565b80601f0160208091040260200160405190810160405280929190818152602001828054610c3d90611fe3565b8015610c8a5780601f10610c5f57610100808354040283529160200191610c8a565b820191906000526020600020905b815481529060010190602001808311610c6d57829003601f168201915b50505050508152505081526020019060010190610739565b50505050905090565b610cb36118b2565b610cbb61190c565b600083118015610ccd57506002548311155b610cf25760405162461bcd60e51b8152600401610ce990611ef7565b60405180910390fd5b600080610d00600186611f9c565b81548110610d1e57634e487b7160e01b600052603260045260246000fd5b90600052602060002090600b020160405180610160016040529081600082018054610d4890611fe3565b80601f0160208091040260200160405190810160405280929190818152602001828054610d7490611fe3565b8015610dc15780601f10610d9657610100808354040283529160200191610dc1565b820191906000526020600020905b815481529060010190602001808311610da457829003601f168201915b50505050508152602001600182018054610dda90611fe3565b80601f0160208091040260200160405190810160405280929190818152602001828054610e0690611fe3565b8015610e535780601f10610e2857610100808354040283529160200191610e53565b820191906000526020600020905b815481529060010190602001808311610e3657829003601f168201915b50505050508152602001600282018054610e6c90611fe3565b80601f0160208091040260200160405190810160405280929190818152602001828054610e9890611fe3565b8015610ee55780601f10610eba57610100808354040283529160200191610ee5565b820191906000526020600020905b815481529060010190602001808311610ec857829003601f168201915b50505050508152602001600382018054610efe90611fe3565b80601f0160208091040260200160405190810160405280929190818152602001828054610f2a90611fe3565b8015610f775780601f10610f4c57610100808354040283529160200191610f77565b820191906000526020600020905b815481529060010190602001808311610f5a57829003601f168201915b50505050508152602001600482018054610f9090611fe3565b80601f0160208091040260200160405190810160405280929190818152602001828054610fbc90611fe3565b80156110095780601f10610fde57610100808354040283529160200191611009565b820191906000526020600020905b815481529060010190602001808311610fec57829003601f168201915b5050505050815260200160058201805461102290611fe3565b80601f016020809104026020016040519081016040528092919081815260200182805461104e90611fe3565b801561109b5780601f106110705761010080835404028352916020019161109b565b820191906000526020600020905b81548152906001019060200180831161107e57829003601f168201915b50505050508152602001600682015481526020016007820180546110be90611fe3565b80601f01602080910402602001604051908101604052809291908181526020018280546110ea90611fe3565b80156111375780601f1061110c57610100808354040283529160200191611137565b820191906000526020600020905b81548152906001019060200180831161111a57829003601f168201915b505050505081526020016008820154815260200160098201805461115a90611fe3565b80601f016020809104026020016040519081016040528092919081815260200182805461118690611fe3565b80156111d35780601f106111a8576101008083540402835291602001916111d3565b820191906000526020600020905b8154815290600101906020018083116111b657829003601f168201915b50505050508152602001600a820180546111ec90611fe3565b80601f016020809104026020016040519081016040528092919081815260200182805461121890611fe3565b80156112655780601f1061123a57610100808354040283529160200191611265565b820191906000526020600020905b81548152906001019060200180831161124857829003601f168201915b5050505050815250509050600060018261014001516040516112879190611d6d565b90815260200160405180910390206040518060600160405290816000820180546112b090611fe3565b80601f01602080910402602001604051908101604052809291908181526020018280546112dc90611fe3565b80156113295780601f106112fe57610100808354040283529160200191611329565b820191906000526020600020905b81548152906001019060200180831161130c57829003601f168201915b5050505050815260200160018201805461134290611fe3565b80601f016020809104026020016040519081016040528092919081815260200182805461136e90611fe3565b80156113bb5780601f10611390576101008083540402835291602001916113bb565b820191906000526020600020905b81548152906001019060200180831161139e57829003601f168201915b505050505081526020016002820180546113d490611fe3565b80601f016020809104026020016040519081016040528092919081815260200182805461140090611fe3565b801561144d5780601f106114225761010080835404028352916020019161144d565b820191906000526020600020905b81548152906001019060200180831161143057829003601f168201915b5050509190925250939550909350505050915091565b60408051610160810182528c815260208082018d90529181018b9052606081018a90526080810189905260a0810188905260c0810187905260e08101869052610100810185905261012081018490526101408101839052600080546001810182559080528151805192938493600b9093027f290decd9548b62a8d60345a988386fc84ba6bc95484008f6362f93160ef3e5630192611504928492019061182e565b50602082810151805161151d926001850192019061182e565b506040820151805161153991600284019160209091019061182e565b506060820151805161155591600384019160209091019061182e565b506080820151805161157191600484019160209091019061182e565b5060a0820151805161158d91600584019160209091019061182e565b5060c0820151600682015560e082015180516115b391600784019160209091019061182e565b50610100820151600882015561012082015180516115db91600984019160209091019061182e565b5061014082015180516115f891600a84019160209091019061182e565b5050600280549150600061160b8361201e565b91905055507f8a239966c990965d89cfe3af34696c229ceee50514af66291de391f6a94a71b08c8c8c8c8c8c8c8c8c8c8c6040516116539b9a99989796959493929190611e22565b60405180910390a1505050505050505050505050565b805160208183018101805160018252928201919093012091528054819061168f90611fe3565b80601f01602080910402602001604051908101604052809291908181526020018280546116bb90611fe3565b80156117085780601f106116dd57610100808354040283529160200191611708565b820191906000526020600020905b8154815290600101906020018083116116eb57829003601f168201915b50505050509080600101805461171d90611fe3565b80601f016020809104026020016040519081016040528092919081815260200182805461174990611fe3565b80156117965780601f1061176b57610100808354040283529160200191611796565b820191906000526020600020905b81548152906001019060200180831161177957829003601f168201915b5050505050908060020180546117ab90611fe3565b80601f01602080910402602001604051908101604052809291908181526020018280546117d790611fe3565b80156118245780601f106117f957610100808354040283529160200191611824565b820191906000526020600020905b81548152906001019060200180831161180757829003601f168201915b5050505050905083565b82805461183a90611fe3565b90600052602060002090601f01602090048101928261185c57600085556118a2565b82601f1061187557805160ff19168380011785556118a2565b828001600101855582156118a2579182015b828111156118a2578251825591602001919060010190611887565b506118ae92915061192d565b5090565b60405180610160016040528060608152602001606081526020016060815260200160608152602001606081526020016060815260200160008152602001606081526020016000815260200160608152602001606081525090565b60405180606001604052806060815260200160608152602001606081525090565b5b808211156118ae576000815560010161192e565b600082601f830112611952578081fd5b813567ffffffffffffffff8082111561196d5761196d61204f565b604051601f8301601f1916810160200182811182821017156119915761199161204f565b6040528281528483016020018610156119a8578384fd5b82602086016020830137918201602001929092529392505050565b6000602082840312156119d4578081fd5b813567ffffffffffffffff8111156119ea578182fd5b6119f684828501611942565b949350505050565b60008060008060808587031215611a13578283fd5b843567ffffffffffffffff80821115611a2a578485fd5b611a3688838901611942565b95506020870135915080821115611a4b578485fd5b611a5788838901611942565b94506040870135915080821115611a6c578384fd5b611a7888838901611942565b93506060870135915080821115611a8d578283fd5b50611a9a87828801611942565b91505092959194509250565b60008060008060008060008060008060006101608c8e031215611ac7578687fd5b67ffffffffffffffff808d351115611add578788fd5b611aea8e8e358f01611942565b9b508060208e01351115611afc578788fd5b611b0c8e60208f01358f01611942565b9a508060408e01351115611b1e578788fd5b611b2e8e60408f01358f01611942565b99508060608e01351115611b40578788fd5b611b508e60608f01358f01611942565b98508060808e01351115611b62578788fd5b611b728e60808f01358f01611942565b97508060a08e01351115611b84578687fd5b611b948e60a08f01358f01611942565b965060c08d013595508060e08e01351115611bad578485fd5b611bbd8e60e08f01358f01611942565b94506101008d01359350806101208e01351115611bd8578283fd5b611be98e6101208f01358f01611942565b9250806101408e01351115611bfc578182fd5b50611c0e8d6101408e01358e01611942565b90509295989b509295989b9093969950565b600060208284031215611c31578081fd5b5035919050565b60008151808452611c50816020860160208601611fb3565b601f01601f19169290920160200192915050565b60006101608251818552611c7a82860182611c38565b91505060208301518482036020860152611c948282611c38565b91505060408301518482036040860152611cae8282611c38565b91505060608301518482036060860152611cc88282611c38565b91505060808301518482036080860152611ce28282611c38565b91505060a083015184820360a0860152611cfc8282611c38565b91505060c083015160c085015260e083015184820360e0860152611d208282611c38565b9150506101008084015181860152506101208084015185830382870152611d478382611c38565b925050506101408084015185830382870152611d638382611c38565b9695505050505050565b60008251611d7f818460208701611fb3565b9190910192915050565b6000602080830181845280855180835260408601915060408482028701019250838701855b82811015611ddc57603f19888603018452611dca858351611c64565b94509285019290850190600101611dae565b5092979650505050505050565b600060608252611dfc6060830186611c38565b8281036020840152611e0e8186611c38565b90508281036040840152611d638185611c38565b6000610160808352611e368184018f611c38565b90508281036020840152611e4a818e611c38565b90508281036040840152611e5e818d611c38565b90508281036060840152611e72818c611c38565b90508281036080840152611e86818b611c38565b905082810360a0840152611e9a818a611c38565b90508760c084015282810360e0840152611eb48188611c38565b905085610100840152828103610120840152611ed08186611c38565b9050828103610140840152611ee58185611c38565b9e9d5050505050505050505050505050565b60208082526016908201527534b2103232903932b1b2ba309034b73b30b634b2379760511b604082015260600190565b600060408252611f3a6040830185611c64565b8281036020840152835160608252611f556060830182611c38565b905060208501518282036020840152611f6e8282611c38565b91505060408501518282036040840152611f888282611c38565b979650505050505050565b90815260200190565b600082821015611fae57611fae612039565b500390565b60005b83811015611fce578181015183820152602001611fb6565b83811115611fdd576000848401525b50505050565b600281046001821680611ff757607f821691505b6020821081141561201857634e487b7160e01b600052602260045260246000fd5b50919050565b600060001982141561203257612032612039565b5060010190565b634e487b7160e01b600052601160045260246000fd5b634e487b7160e01b600052604160045260246000fdfea2646970667358221220d442aed10b59a4a6fc65068b697b0475b27eff2c775dd2b8ee16683891f2856364736f6c63430008000033",
  "immutableReferences": {},
  "source": "// SPDX-License-Identifier: MIT\r\npragma solidity ^0.8.0;\r\n\r\ncontract RecetaContract {\r\n    struct Receta {\r\n        string nombrePaciente;\r\n        string dniPaciente;\r\n        string numAfiliado;\r\n        string obraSocial;\r\n        string planObraSocial;\r\n        string medicamento1;\r\n        uint cantidad1;\r\n        string medicamento2;\r\n        uint cantidad2;\r\n        string diagnostico;\r\n        string dniMedico; // Almacenar solo el DNI del mdico\r\n    }\r\n\r\n    Receta[] public recetas;\r\n    mapping(string => Medico) public medicos; // Mapeo para almacenar datos de mdicos\r\n\r\n    struct Medico {\r\n        string nombreMedico;\r\n        string matriculaMedico;\r\n        string especialidadMedico;\r\n    }\r\n\r\n    uint public recetaCount;\r\n\r\n    event RecetaEmitida(\r\n        string nombrePaciente,\r\n        string dniPaciente,\r\n        string numAfiliado,\r\n        string obraSocial,\r\n        string planObraSocial,\r\n        string medicamento1,\r\n        uint cantidad1,\r\n        string medicamento2,\r\n        uint cantidad2,\r\n        string diagnostico,\r\n        string dniMedico\r\n    );\r\n\r\n    // Funcin para registrar mdicos\r\n    function registrarMedico(\r\n        string memory _dniMedico,\r\n        string memory _nombreMedico,\r\n        string memory _matriculaMedico,\r\n        string memory _especialidadMedico\r\n    ) public {\r\n        medicos[_dniMedico] = Medico({\r\n            nombreMedico: _nombreMedico,\r\n            matriculaMedico: _matriculaMedico,\r\n            especialidadMedico: _especialidadMedico\r\n        });\r\n    }\r\n\r\n    function emitirReceta(\r\n        string memory _nombrePaciente,\r\n        string memory _dniPaciente,\r\n        string memory _numAfiliado,\r\n        string memory _obraSocial,\r\n        string memory _planObraSocial,\r\n        string memory _medicamento1,\r\n        uint _cantidad1,\r\n        string memory _medicamento2,\r\n        uint _cantidad2,\r\n        string memory _diagnostico,\r\n        string memory _dniMedico // Solo el DNI del mdico\r\n    ) public {\r\n        Receta memory newReceta = Receta(\r\n            _nombrePaciente,\r\n            _dniPaciente,\r\n            _numAfiliado,\r\n            _obraSocial,\r\n            _planObraSocial,\r\n            _medicamento1,\r\n            _cantidad1,\r\n            _medicamento2,\r\n            _cantidad2,\r\n            _diagnostico,\r\n            _dniMedico\r\n        );\r\n        recetas.push(newReceta);\r\n        recetaCount++;\r\n\r\n        emit RecetaEmitida(\r\n            _nombrePaciente,\r\n            _dniPaciente,\r\n            _numAfiliado,\r\n            _obraSocial,\r\n            _planObraSocial,\r\n            _medicamento1,\r\n            _cantidad1,\r\n            _medicamento2,\r\n            _cantidad2,\r\n            _diagnostico,\r\n            _dniMedico\r\n        );\r\n    }\r\n\r\n    function getReceta(uint _recetaId) public view returns (Receta memory, Medico memory) {\r\n        require(_recetaId > 0 && _recetaId <= recetaCount, \"id de receta invalido.\");\r\n        Receta memory receta = recetas[_recetaId - 1];\r\n        Medico memory medico = medicos[receta.dniMedico];\r\n        return (receta, medico);\r\n    }\r\n\r\n    function getRecetas() public view returns (Receta[] memory) {\r\n        return recetas;\r\n    }\r\n}\r\n",
  "sourcePath": "C:\\Users\\Usuario\\OneDrive\\Escritorio\\OneDrive\\2024\\Trabajo Final\\prescryption_v2\\prescryption_solidity\\contracts\\Prescription.sol",
  "compiler": {
    "name": "solc",
    "version": "0.8.0+commit.c7dfd78e.Emscripten.clang"
  },
  "schemaVersion": "3.4.16",
  "updatedAt": "2024-09-15T12:38:33.691Z",
  "networkType": "ethereum",
  "devdoc": {
    "kind": "dev",
    "methods": {},
    "version": 1
  },
  "userdoc": {
    "kind": "user",
    "methods": {},
    "version": 1
  }
}